:100000000C9462000C948A000C948A000C948A0070
:100010000C948A000C94BA070C948A000C948A0001
:100020000C948A000C948A000C948A000C948A0028
:100030000C948A000C948A000C948A000C948A0018
:100040000C9470070C948A000C943E070C941807CB
:100050000C948A000C948A000C948A000C948A00F8
:100060000C948A000C948A000000000024002700F1
:100070002A0000000000250028002B0000000000DE
:1000800023002600290004040404040404040202DA
:100090000202020203030303030301020408102007
:1000A0004080010204081020010204081020000012
:1000B0000008000201000003040700000000000027
:1000C00000001A0811241FBECFEFD8E0DEBFCDBF5D
:1000D00013E0A0E0B1E0E0EFFBE202C005900D927A
:1000E000A030B107D9F725E0A0E0B3E001C01D9230
:1000F000A434B207E1F710E0C2E6D0E004C02197D3
:10010000FE010E943713C136D107C9F70E940109C9
:100110000C94F6150C940000AF92BF92CF92DF9230
:10012000EF92FF920F931F93CF93DF936C017B01AC
:100130008B01040F151FEB015E01AE18BF08C0173D
:10014000D10759F06991D601ED91FC910190F081B0
:10015000E02DC6010995892B79F7C501DF91CF9173
:100160001F910F91FF90EF90DF90CF90BF90AF90D5
:100170000895FC01538D448D252F30E0842F90E0AD
:10018000821B930B541710F0CF9608950197089592
:10019000FC01918D828D981761F0A28DAE0FBF2F5B
:1001A000B11D5D968C91928D9F5F9F73928F90E0B1
:1001B00008958FEF9FEF0895FC01918D828D981720
:1001C00031F0828DE80FF11D858D90E008958FEF5D
:1001D0009FEF0895FC01918D228D892F90E0805C26
:1001E0009F4F821B91098F739927089587E194E0AF
:1001F0000E94EA0021E0892B09F420E0822F089573
:1002000080E090E0892B29F00E94F60081110C9487
:1002100000000895FC01A48DA80FB92FB11DA35AA9
:10022000BF4F2C91848D90E001968F739927848F16
:10023000A689B7892C93A089B1898C918370806439
:100240008C93938D848D981306C00288F389E02DDA
:1002500080818F7D80830895EF92FF920F931F938B
:10026000CF93DF93EC0181E0888F9B8D8C8D981369
:100270001AC0E889F989808185FF15C09FB7F89475
:10028000EE89FF896083E889F989808183708064C1
:1002900080839FBF81E090E0DF91CF911F910F910C
:1002A000FF90EF900895F62E0B8D10E00F5F1F4F1B
:1002B0000F731127E02E8C8D8E110CC00FB607FC2A
:1002C000FACFE889F989808185FFF5CFCE010E94B8
:1002D0000A01F1CFEB8DEC0FFD2FF11DE35AFF4F1B
:1002E000F0829FB7F8940B8FEA89FB898081806246
:1002F000CFCFCF93DF93EC01888D8823B9F0AA8903
:10030000BB89E889F9898C9185FD03C0808186FDD0
:100310000DC00FB607FCF7CF8C9185FFF2CF80811F
:1003200085FFEDCFCE010E940A01E9CFDF91CF9189
:100330000895833081F028F4813099F08230A9F05B
:1003400008958730A9F08830C9F08430B1F48091E5
:1003500080008F7D03C0809180008F778093800024
:10036000089584B58F7784BD089584B58F7DFBCFC4
:100370008091B0008F778093B00008958091B00095
:100380008F7DF9CFCF93DF93282F30E0F901E2552D
:10039000FF4F8491F901E656FF4FD491F901EA57D6
:1003A000FF4FC491CC23A1F081110E949901EC2F41
:1003B000F0E0EE0FFF1FE458FF4FA591B491EC91D0
:1003C000ED2381E090E009F480E0DF91CF91089582
:1003D00080E090E0FACF87E00E94C2019093B504DC
:1003E0008093B40485E00E94C2019093B704809387
:1003F000B6044091B8045091B90480916D00411544
:100400005105C9F0806880936D002091BA04309145
:10041000BB0480916D002115310579F080628093D5
:100420006D0080916800452B11F4232B41F084600E
:100430008093680008958F77E6CF8F7DF0CF8B7F14
:10044000F7CF1F93CF93DF93282F30E0F901E255C8
:10045000FF4F8491F901E656FF4FD491F901EA5715
:10046000FF4FC491CC23A9F0162F81110E9499014E
:10047000EC2FF0E0EE0FFF1FEE58FF4FA591B49167
:100480008FB7F894EC91111108C0D095DE23DC935E
:100490008FBFDF91CF911F910895DE2BF8CFCF93BF
:1004A000DF9390E0FC01E656FF4F24918A579F4F5F
:1004B000FC0184918823C9F090E0880F991FFC010A
:1004C000E859FF4FA591B491FC01EE58FF4FC5913B
:1004D000D49161110DC09FB7F8948C91209582231F
:1004E0008C938881282328839FBFDF91CF91089523
:1004F000623051F49FB7F8943C91822F809583230A
:100500008C93E8812E2BEFCF8FB7F894EC912E2BA4
:100510002C938FBFEACF1F93CF93DF93182FEB015C
:1005200061E00E944F02209739F460E0812FDF9153
:10053000CF911F910C942102CF3FD10511F461E0BE
:10054000F5CFE12FF0E0E255FF4FE491E33031F1D8
:1005500040F4E130B1F0E230E1F0C038D1057CF791
:10056000E4CFE73029F1E83059F1E430B1F7809178
:100570008000806280938000D0938B00C0938A00BB
:1005800004C084B5806884BDC7BDDF91CF911F9141
:10059000089584B5806284BDC8BDF7CF8091800086
:1005A000806880938000D0938900C0938800EDCF4D
:1005B0008091B00080688093B000C093B300E5CF15
:1005C0008091B00080628093B000C093B400DDCF12
:1005D0008E50806480937C0080917A008064809348
:1005E0007A0080917A0086FDFCCF8091780090910E
:1005F000790008953FB7F89480918003909181032A
:10060000A0918203B091830326B5A89B05C02F3F1C
:1006100019F00196A11DB11D3FBFBA2FA92F982F28
:100620008827BC01CD01620F711D811D911D43E022
:10063000660F771F881F991F4A95D1F708958F92EB
:100640009F92AF92BF92CF92DF92EF92FF924B01B7
:100650005C010E94FA026B017C010E94FA026C1993
:100660007D098E099F09683E734081059105A8F3B5
:1006700021E0821A9108A108B10888EEC80E83E033
:10068000D81EE11CF11C81149104A104B10429F7C6
:10069000FF90EF90DF90CF90BF90AF909F908F90A2
:1006A00008952FB7F89460917C0370917D03809139
:1006B0007E0390917F032FBF0895CF92DF92EF9238
:1006C000FF92CF93DF930E945103C0901605D09004
:1006D0001705E0901805F09019056C197D098E0931
:1006E0009F09C0900D05D0900E05E0900F05F09089
:1006F0001005C616D706E806F90608F03DC0F894BE
:10070000C0911405D09115050E948D109B01AC017C
:1007100060E070E08AE794E40E94E50F6B017C01E1
:10072000BE0190E080E00E948D109B01AC01C701EA
:10073000B6010E941B1120E030E040E05FE30E9420
:100740001B1120E030E040E752E40E941B110E94A0
:100750005E107093130560931205109215051092A8
:1007600014050E945103609316057093170580933A
:1007700018059093190578948091120590911305AE
:10078000DF91CF91FF90EF90DF90CF900895AF92DF
:10079000BF92CF92DF92EF92FF920F931F93FC01D3
:1007A0004085518562857385141615061606170651
:1007B0000CF5DB01CA01BB0F880B982FDC015A0135
:1007C0006B01E82EF82E082F182F248535854685D5
:1007D000578560897189828993890E943012B90195
:1007E000CA011F910F91FF90EF90DF90CF90BF90C3
:1007F000AF90089560E070E080E090E0F2CFAF92BB
:10080000BF92CF92DF92EF92FF920F931F93FC0162
:10081000DB01CA0144815581668177818417950780
:10082000A607B70724F484839583A683B783408102
:10083000518162817381481759076A077B0724F445
:1008400080839183A283B3836C017D01FF0CCC086C
:10085000DC2C76019C01AD016C2D7C2D8C2D9C2D0A
:10086000A484B584C684D784E088F188028913897A
:100870000E9405132487358746875787608B718BC5
:10088000828B938B80859185A285B3850196A11D6E
:10089000B11D80879187A287B3871F910F91FF9029
:1008A000EF90DF90CF90BF90AF900895FC0180E073
:1008B00090E0A0E0B0E880839183A283B3838FEFC0
:1008C0009FEFAFEFBFE784839583A683B78314863A
:1008D000158616861786108A118A128A138A108640
:1008E00011861286138608950E94510360931104A5
:1008F00070931204809313049093140410921004C4
:100900008CEF93E00E94560488EE93E00E94560418
:1009100088E993E00E94560484E893E00E9456041C
:100920008CEA93E00E94560480EC93E00E94560407
:1009300084ED93E00C9456042F923F924F925F9275
:100940006F927F928F929F92AF92BF92CF92DF92DF
:10095000EF92FF920F931F93CF93DF93CDB7DEB744
:10096000C958D1090FB6F894DEBF0FBECDBF29011B
:100970003A014B011C018091790390917A038430F4
:1009800091050CF0EFC09C012F5F3F4F30937A032D
:1009900020937903880F991FFC01E65FFE4F808149
:1009A0009181CB57DF4F99838883C558D0409201FE
:1009B000C101A0E00E9417130CF082C00E94BE1279
:1009C00029013A014B011C0191E0C957DF4F98837F
:1009D000C758D040CD57DF4F19821882C358D04036
:1009E000FE013296CF57DF4FF983E883C158D040DC
:1009F0009201A301B401C101A0E00E94171309F400
:100A000065C0CD57DF4F88819981C358D04000978A
:100A1000A9F063E070E00E948811892B79F48CE2E0
:100A2000CF57DF4FE881F981C158D040808331969C
:100A3000CF57DF4FF983E883C158D040CF57DF4FFE
:100A4000E881F981C158D0403196C857DF4FF9830A
:100A5000E883C858D0408AE0A82EB12CC12CD12CF4
:100A6000E12CF12C00E010E09201A301B401C101DE
:100A70000E942E12205DCF57DF4FE881F981C158C7
:100A8000D04020839201A301B401C1010E94301221
:100A900029013A014B011C01CD57DF4F8881998113
:100AA000C358D0400196CD57DF4F99838883C358F0
:100AB000D040C857DF4FE881F981C858D04092CF65
:100AC000C957DF4F1882C758D04084CFC957DF4F6E
:100AD000F881C758D040B0E0A0E0FF2351F08DE28C
:100AE000CB57DF4FE881F981C558D0408083A1E022
:100AF000B0E0CF57DF4FE881F981C158D040CB57E4
:100B0000DF4F88819981C558D040A80FB91F9E0139
:100B10002F5F3F4F31972E173F0718F480818D9339
:100B2000F9CF1C92CB57DF4F88819981C558D040AF
:100B3000C757DF4F0FB6F894DEBF0FBECDBFDF91B2
:100B4000CF911F910F91FF90EF90DF90CF90BF90CA
:100B5000AF909F908F907F906F905F904F903F905D
:100B60002F900895EAE2F1E0CB57DF4FF983E88355
:100B7000C558D040D7CFCF93DF93EC018A810E9434
:100B8000C201892B29F48A859B8501969B878A87D8
:100B9000DF91CF910895CF92DF92EF92FF920F9362
:100BA0001F93CF93DF93EC0188810E94C2018C01D7
:100BB0008A859B850115110581F5892B31F5888979
:100BC000811118C00E945103CC84DD84EE84FF841F
:100BD0006C197D098E099F09CA80DB80EC80FD803D
:100BE000C616D706E806F90628F4EE81FF810995B6
:100BF00081E0888B1B870A87DF91CF911F910F912E
:100C0000FF90EF90DF90CF9008950E9451036C8782
:100C10007D878E879F87188AEDCF892B59F7E885C6
:100C2000F985309739F30995E5CFCF93DF93FC0130
:100C300001900020E9F73197AF01481B590BBC0127
:100C400087E194E00E948C00EC0142E050E06FEA02
:100C500071E087E194E00E948C008C0F9D1FDF9172
:100C6000CF910895CF93DF93CDB7DEB7CC52D1406B
:100C70000FB6F894DEBF0FBECDBF9E012F5C3E4F76
:100C8000F901419151919F016CE271E0CE01019611
:100C90000E944C13CE0101960E94150687E194E054
:100CA0000E94790110927A0310927903C45DDE4F9D
:100CB0000FB6F894DEBF0FBECDBFDF91CF91089580
:100CC0008091780391E08927809378038823A1F0AD
:100CD00060E870E08AE00E948B0288E391E09F93D5
:100CE0008F938BE391E09F938F930E9432060F9036
:100CF0000F900F900F90089570E060E08AE00E94DE
:100D00008B0284E391E0EBCF80910001909101018F
:100D1000019791F081E080930001109201011F92F0
:100D20008F938BE491E09F938F930E9432060F90F4
:100D30000F900F900F9008958AE0EDCF87E00E940A
:100D4000C201892B79F086E691E09F938F938FE61D
:100D500091E09F938F930E9432060F900F900F9017
:100D60000F9008958FE591E0F0CFCF93DF93EC01E2
:100D7000C63F8FEFD80754F486EF9FEF9093160489
:100D800080931504C6EFDFEF2E981FC0C536D1053E
:100D900084F184E690E09093160480931504C4E6F1
:100DA000D0E02E9ABE010D2E000C880B990B0E94EC
:100DB0008F1023E333E343E250E40E941B110E94AF
:100DC0005710809111050E948B020E94740481E0EB
:100DD00080931004DF93CF9380EA91E09F938F93E9
:100DE0000E9432060F900F900F900F90DF91CF91DD
:100DF0000895D0931604C0931504D7FDC5CFD1CF65
:100E00008091150490911604209100013091010108
:100E1000821B930B0C94B506209115043091160497
:100E20008091000190910101820F931F0C94B506EF
:100E30001F920F920FB60F9211242F933F934F934F
:100E40005F936F937F938F939F93AF93BF93EF9332
:100E5000FF9387E194E00E940A01FF91EF91BF9117
:100E6000AF919F918F917F916F915F914F913F9142
:100E70002F910F900FBE0F901F9018951F920F92F9
:100E80000FB60F9211242F938F939F93EF93FF939D
:100E9000E0912704F09128048081E0912D04F091E5
:100EA0002E0482FD1BC09081809130048F5F8F7370
:100EB00020913104821741F0E0913004F0E0E95EC6
:100EC000FB4F958F80933004FF91EF919F918F910D
:100ED0002F910F900FBE0F901F9018958081F4CF27
:100EE0001F920F920FB60F9211242F933F938F935F
:100EF0009F93AF93BF9380917C0390917D03A091CA
:100F00007E03B0917F0330917B0326E0230F2D37C2
:100F100058F50296A11DB11D20937B0380937C039D
:100F200090937D03A0937E03B0937F038091800311
:100F300090918103A0918203B09183030196A11D3A
:100F4000B11D8093800390938103A0938203B0939B
:100F50008303BF91AF919F918F913F912F910F90FC
:100F60000FBE0F901F90189529E8230F0396A11D1F
:100F7000B11DD2CF1F920F920FB60F9211242F9353
:100F80003F934F935F936F937F938F939F93AF9311
:100F9000BF93EF93FF938091B8049091B904892B8C
:100FA000C9F087E00E94C2012091B4043091B504D9
:100FB0008217930779F09093B5048093B4048091DD
:100FC000B8049091B904DC01ED91FC910190F0819D
:100FD000E02D09958091BA049091BB04892BC9F04A
:100FE00085E00E94C2012091B6043091B7048217B7
:100FF000930779F09093B7048093B6048091BA0474
:101000009091BB04DC01ED91FC910190F081E02D09
:101010000995FF91EF91BF91AF919F918F917F9132
:101020006F915F914F913F912F910F900FBE0F9055
:101030001F901895CF92DF92EF92FF921F93CF935C
:10104000DF93E7E1F4E01382128288EEC82E83E09A
:10105000D82EE12CF12CC482D582E682F78286E17B
:1010600091E09183808385EC90E09587848784EC80
:1010700090E09787868780EC90E0918B808B81EC65
:1010800090E0938B828B82EC90E0958B848B86EC46
:1010900090E0978B868B118E128E138E148EE4EB5C
:1010A000F4E0158214821782168212861386148643
:1010B000158616861786108A118A0E94FA02CAE1DE
:1010C000D5E0688B798B8A8B9B8B18868DE289871C
:1010D00081E38A8711E01B871C861D861E861F867A
:1010E0000E9451036C8B7D8B8E8B9F8B0E945103D2
:1010F000688F798F8A8F9B8F1C8E1D8E1E8E1F8E00
:1011000018A219A21AA21BA21CA21DA2EAE0F5E0D5
:1011100088E291E09183808385E08283C382D482D8
:10112000E582F68283E0878361E00E944F02E9EF67
:10113000F4E088E090E09183808344E650E060E052
:1011400070E0428353836483758380E696E09783DF
:1011500086831186108681E090E0938782871486CB
:10116000158616861786108BE8EEF4E027E030E04F
:1011700031832083428353836483758324E836E07C
:101180003783268311861086938782871486158677
:1011900016861786108BE7EDF4E029E030E0318306
:1011A0002083428353836483758320E037E0378351
:1011B0002683118610869387828714861586168665
:1011C0001786108BE6ECF4E024E030E031832083D6
:1011D00042835383648375832CE037E0378326830F
:1011E0001186108693878287148615861686178641
:1011F000108BDF91CF911F91FF90EF90DF90CF90F8
:101200000895CF93DF93CDB7DEB7CB54D1090FB696
:10121000F894DEBF0FBECDBF789484B5826084BDE4
:1012200084B5816084BD85B5826085BD85B58160EA
:1012300085BD80916E00816080936E001092810068
:101240008091810082608093810080918100816023
:1012500080938100809180008160809380008091E4
:10126000B10084608093B1008091B0008160809370
:10127000B00080917A00846080937A0080917A0037
:10128000826080937A0080917A008E7F80937A00CA
:1012900080917A00806880937A001092C10061E0AA
:1012A00086E00E9421026AE070E080E090E00E9407
:1012B0001F03F89480E88093610010926100789495
:1012C00081E090E09093BD048093BC0462E084E0F0
:1012D0000E944F0262E089E00E944F0262E088E0D3
:1012E0000E944F0262E087E00E944F0261E083E0CB
:1012F0000E944F0260E085E00E944F02269A60E063
:1013000085E10E944F0260E084E10E944F0260E0AC
:101310008FE00E944F0261E086E00E944F0262E08F
:1013200080E00E944F0261E08AE00E944F0261E08B
:101330008EE00E944F02279A61E080E10E944F02F6
:1013400061E081E10E944F0261E082E10E944F0270
:1013500061E083E10E944F0261E082E00E944F025F
:101360002E9A70E060E083E00E948B0261E08EE0E4
:101370000E9421022F9A61E080E10E94210261E037
:1013800081E10E94210261E082E10E94210261E08C
:1013900083E10E94210261E082E00E94210270E06C
:1013A00060E08AE00E948B02E0912704F09128041B
:1013B00082E08083E0912304F09124041082E09184
:1013C0002504F091260480E1808310922F04E0919F
:1013D0002B04F0912C0486E08083E0912904F091A5
:1013E0002A04808180618083E0912904F0912A049D
:1013F000808188608083E0912904F0912A048081B3
:1014000080688083E0912904F0912A0480818F7D97
:1014100080836AE070E080E090E00E941F038BEB25
:1014200091E00E94150680EE91E00E94150689EF7A
:1014300091E00E94150685E192E00E94150685E381
:1014400092E00E94150680910C05823639F08336B1
:1014500009F4A8C261E00E94210201C02E9A6FEF38
:1014600070E0809111050E948B028AE095E09093D4
:10147000BB048093BA040E94EB0186EF9FEF0E94A9
:10148000B50660E082E00E94210260E08EE00E94EA
:10149000210282E091E09093B9048093B8040E9405
:1014A000EB0189EF94E00E94CB0588EE94E00E9466
:1014B000CB0587ED94E00E94CB0586EC94E00E947A
:1014C000CB050E945D038091BC049091BD040197FF
:1014D00009F095C280E00E94C20101E009830097F3
:1014E00009F01982892B71F48091360581110AC0A7
:1014F0000E94510360932E0570932F058093300551
:1015000090933105198110933605F4E6AF2EB12C76
:10151000C12CD12CE12CF12C00E010E0209122050F
:1015200030912305409124055091250560912605B1
:101530007091270580912805909129050E949C11A2
:1015400029013A014B018B83998385E10E94E802CE
:101550009C01932F990F990BA9ECAA2EB8E7BB2EEB
:101560008FEBC82EDD24D394492F592F692F792F63
:10157000892F0E949C11E8EEAE2EF3E0BF2EC12C05
:10158000D12C0E9430125201630174010B81198128
:101590000E940513A5E6AA2EB12CC12CD12CE12C5A
:1015A000F12C00E010E00E943012209322053093CD
:1015B00023054093240550932505609326057093D9
:1015C00027058093280590932905A0903705B090B2
:1015D0003805C0903905D0903A05E0903B05F09071
:1015E0003C0500913D0510913E050E940E13122FFF
:1015F0003B834983B52FF62FE72FF82E092FA0E064
:101600000E94171354F40E94BE12122F3B83498389
:10161000B52FF62FE72FF82E092F212F3B81498177
:101620005B2F6F2F7E2F8F2D902F2F393648414003
:101630005105610571058105910559F154F10E942B
:101640005103609332057093330580933405909372
:10165000350580912205809337058091230580937D
:101660003805809124058093390580912505809364
:101670003A058091260580933B058091270580934C
:101680003C058091280580933D0580912905809334
:101690003E050E94FA022B013C0184E10E94E8020F
:1016A0009A8389838FE00E94E80224969FAF8EAFD1
:1016B0002497BAE0AB2EB12CC12CD12CE12CF12C0B
:1016C00000E010E02091BE043091BF044091C004BE
:1016D0005091C1046091C2047091C3048091C4040C
:1016E0009091C5040E949C1119014A016B837D836E
:1016F0008F83988724960EAD1FAD2497B801110FE4
:10170000880B990B49815A818A01550F220B330BA3
:10171000601B710B820B930B2DE230E743E650E028
:101720000E94F41118EEA12E03E0B02E00E010E0AC
:101730000E94301259016A017B018C019101A401C0
:101740006B817D818F8198850E940513EBE0AE2E21
:10175000B12CC12CD12CE12CF12C00E010E00E9426
:10176000301219014A0169837B838D839F83209303
:10177000BE043092BF044093C0049092C1046093B1
:10178000C2047093C3048093C4049093C5048091F1
:101790002A0590912B05A0912C05B0912D05930160
:1017A0008201081B190B2A0B3B0B40922A05509211
:1017B0002B0560922C0570922D0540E050E0BA0197
:1017C00025960FAF259726961FAF269727962FAF02
:1017D000279728963FAF289729964FAF29972A96A3
:1017E0005FAF2A972B966FAF2B972C967FAF2C97D6
:1017F00051016401E980FB800D811F8125962FAD89
:10180000259726963FAD269727964FAD2797289682
:101810005FAD289760E070E080E090E00E949C114E
:10182000A0901A05B0901B05C0901C05D0901D0516
:10183000E0901E05F0901F050091200510912105F4
:101840000E940513D22EE32EF42E052F162FB72F4C
:10185000F82FE92F2115304841485F4F66457349FD
:101860008045910559F054F0D12CF0E8EF2EA1E815
:10187000FA2E0FEF16E5B3E9F0E5E0E02D2D3E2D51
:101880004F2D502F612F7B2F8F2F9E2FA0E00E9476
:10189000171344F4D12CE12CF12C00E010E0B0E05F
:1018A000F0E0E0E0D0921A05E0921B05F0921C05F2
:1018B00000931D0510931E05B0931F05F09320059E
:1018C000E09321050E9451036B017C0120911A05D0
:1018D00030911B0540911C0550911D0560911E051E
:1018E00070911F05809120059091210521153048A8
:1018F00041485F4F664573498045910509F47DC0B5
:1019000080E00E94C201892B09F077C080912E05EA
:1019100090912F05A0913005B09131059701860176
:10192000081B190B2A0B3B0BD901C80181369A4EB3
:10193000A105B10508F461C080913205909133058D
:10194000A0913405B0913505A7019601281B390BEC
:101950004A0B5B0BDA01C90181369A4EA105B1052C
:1019600008F44BC09101A40169817B818D819F8125
:101970002F333D40434051056105710581059105B7
:1019800009F0DCF580913F0581110EC051E05093C4
:101990003F05C0924005D0924105E0924205F09289
:1019A00043052DC02F9A5BCD809140059091410554
:1019B000A0914205B0914305C81AD90AEA0AFB0A68
:1019C000E9E8CE16E3E1DE06E104F104C0F010928E
:1019D0001A0500E800931B0511E810931C052FEF72
:1019E00020931D0536E530931E0543E940931F05FE
:1019F00080E5809320051092210510923F054090CC
:101A00001A0550901B0560901C0570901D05809074
:101A10001E0590901F05609120056A8F7091210529
:101A2000798F80E00E94C2019E838D83809115048E
:101A30008F839091160498870E945D039C838B830B
:101A40000E9451030091110410911204209113047B
:101A500030911404601B710B820B930B6938734136
:101A60008105910508F4C6C1809110048111C0C19F
:101A70008CEF93E00E94C70329EC38E74FEB51E06D
:101A80000E94F41110E4A12E02E4B02EEFE0CE2E5D
:101A9000D12CE12CF12C00E010E00E943012690101
:101AA0007A018B011C0190918B0080918A00E0915A
:101AB000F003E9872091F1032A873091F2033B87F5
:101AC0004091F3034C87892B09F06EC264E371E007
:101AD0007A8369839091E8039D87A091E903AE879B
:101AE000E091EA03EF872091EB03288B88EE93E0E7
:101AF0000E94C703698B7A8B8B8B9C8B3091EC0394
:101B00003D8B4091ED034E8B5091EE035F8B6091C6
:101B1000EF03688F9201A301B4018A8D998DA0E033
:101B2000B2EBAB2EB1E0BB2E0E94171319F00E944E
:101B30009C045C018D819E81892B09F43AC228EBBB
:101B400031E024963FAF2EAF24975091D4035D83AC
:101B50006091D503698F7091D6037A8F8091D703F6
:101B60008B8F84ED93E00E94C7036C8F7D8F8E8FE7
:101B70009F8F9091D80398A3A091D903A9A3E09136
:101B8000DA03EAA32091DB032BA33091C0033CA32B
:101B90004091C1034DA35091C2035EA36091C30362
:101BA0006FA380EC93E00E94C70368A779A7582E23
:101BB000492E7091C4037AA78091C5038BA7909199
:101BC000C6039CA7A091C703ADA7E091AC03EEA705
:101BD0002091AD032FA73091AE0338AB4091AF03F6
:101BE00049AB8CEA93E00E94C7036AAB7BAB782ECB
:101BF000692E5091B0035CAB6091B1036DAB7091F5
:101C0000B2037EAB8091B3038FAB9091980398AFF2
:101C1000A0919903A9AFE0919A03EAAF20919B03A9
:101C20002BAF88E993E00E94C7036CAF7DAF982E7D
:101C3000892E30919C033EAF40919D034FAF509150
:101C40009E0321965FAF219760919F0322966FAF0D
:101C500022979601A701B801C101A0E00E941713C5
:101C600009F4AEC10E949C046C011091FC03009128
:101C7000FD03F090FE03E090FF038CEF93E00E94E1
:101C8000C703AC85AF93EB85EF932A852F933985F6
:101C90003F934A814F9359815F93A889AF93EF8512
:101CA000EF932E852F933D853F934C894F935B890E
:101CB0005F93AA89AF93E989EF93288D2F933F898A
:101CC0003F934E894F935D895F93BF92AF92249665
:101CD000AFAD2497AF932396EFAD2397EF932B8D62
:101CE0002F933A8D3F93498D4F935D815F93AF8DD5
:101CF000AF93EE8DEF932D8D2F933C8D3F934BA1A2
:101D00004F935AA15F93A9A1AF93E8A1EF932FA19D
:101D10002F933EA13F934DA14F935CA15F934F92B0
:101D20005F92A9A5AF93E8A5EF932DA52F933CA5AE
:101D30003F934BA54F935AA55F93A9A9AF93E8A9E9
:101D4000EF932FA52F933EA53F936F927F924BA9C0
:101D50004F935AA95F93AFA9AF93EEA9EF932DA923
:101D60002F933CA93F934BAD4F935AAD5F93A9ADD1
:101D7000AF93E8ADEF938F929F922DAD2F933CAD33
:101D80003F9322964FAD22974F9321965FAD2197B7
:101D90005F93AFADAF93EEADEF93DF92CF92EF9243
:101DA000FF920F931F939F938F937F936F938091D5
:101DB00003048F93809102048F93809101048F9389
:101DC000809100048F9308850F931F811F9324E552
:101DD00032E03F932F930E9432060FB6F894DEBF95
:101DE0000FBECDBF64EF71E080E090E00E941F0362
:101DF0000E94740485E10E94E8029A8389838B81A2
:101E00009C81AC0170E060E088EE93E00E94FF03EB
:101E100085E00E94C201AC01990F660B770B84E844
:101E200093E00E94FF0309811A81A80170E060E03D
:101E30008CEF93E00E94FF038FE00E94E802AC0168
:101E4000990F660B770B8CEA93E00E94FF0384E105
:101E50000E94E802AC01990F660B770B88E993E0CA
:101E60000E94FF0384E10E94E8024C018FE00E947F
:101E7000E8029E838D838AE0A82EB12CC12CD12C40
:101E8000E12CF12C00E010E02091BE043091BF0461
:101E90004091C0045091C1046091C2047091C30488
:101EA0008091C4049091C5040E949C1119012A01DB
:101EB0003B0189839B832D813E81B901330F880BC0
:101EC000990B092C000CAA08BB08681979098A0922
:101ED0009B092DE230E743E650E00E94F411E8EE62
:101EE000AE2EF3E0BF2E0E94301259016A017B0131
:101EF0008C019101A201B30189819B810E9405138C
:101F0000ABE0AA2EB12CC12CD12CE12CF12C00E09D
:101F100010E00E9430122093BE043093BF0440931F
:101F2000C0045093C1046093C2047093C3048093AF
:101F3000C4049093C504BA01422F532F80EC93E060
:101F40000E94FF0385E10E94E8029C01932F990FF4
:101F5000990BB9ECAB2E88E7B82E4FEBC42EDD24DD
:101F6000D394492F592F692F792F892F0E949C11C3
:101F7000E8EEAE2EF3E0BF2EC12CD12C0E94301221
:101F8000BA01422F532F84ED93E00E94FF0340E0FB
:101F900050E0452B09F485CA0E94F600882309F415
:101FA00080CA0E9400007DCA88E391E09A838983F9
:101FB00091CD44EB51E024965FAF4EAF2497C5CD51
:101FC000A2EBCA2EA1E0DA2E50CE0E94F90F0C949B
:101FD000E1100E94DA1058F00E94D31040F029F46A
:101FE0005F3F29F00C94CA1051110C9415110C94F8
:101FF000D0100E94F21068F39923B1F3552391F3A6
:10200000951B550BBB27AA2762177307840738F067
:102010009F5F5F4F220F331F441FAA1FA9F335D0C4
:102020000E2E3AF0E0E832D091505040E695001C78
:10203000CAF72BD0FE2F29D0660F771F881FBB1F32
:10204000261737074807AB07B0E809F0BB0B802D10
:10205000BF01FF2793585F4F3AF09E3F510578F03C
:102060000C94CA100C9415115F3FE4F3983ED4F31E
:10207000869577956795B795F7959F5FC9F7880F10
:10208000911D9695879597F90895E1E0660F771F62
:10209000881FBB1F621773078407BA0720F0621BF3
:1020A000730B840BBA0BEE1F88F7E09508950E941E
:1020B0005E106894B1110C94151108950E94FA10E5
:1020C00088F09F5798F0B92F9927B751B0F0E1F0F9
:1020D000660F771F881F991F1AF0BA95C9F714C0A9
:1020E000B13091F00E941411B1E008950C941411D4
:1020F000672F782F8827B85F39F0B93FCCF38695E2
:1021000077956795B395D9F73EF49095809570953E
:1021100061957F4F8F4F9F4F0895E89409C097FBBB
:102120003EF490958095709561957F4F8F4F9F4FAE
:102130009923A9F0F92F96E9BB279395F6958795F2
:1021400077956795B795F111F8CFFAF4BB0F11F4B5
:1021500060FF1BC06F5F7F4F8F4F9F4F16C088235C
:1021600011F096E911C0772321F09EE8872F762F92
:1021700005C0662371F096E8862F70E060E02AF0D3
:102180009A95660F771F881FDAF7880F96958795BF
:1021900097F9089597F99F6780E870E060E00895E7
:1021A0009FEF80EC089500240A941616170618066F
:1021B0000906089500240A9412161306140605064B
:1021C0000895092E0394000C11F4882352F0BB0FDC
:1021D00040F4BF2B11F460FF04C06F5F7F4F8F4F3F
:1021E0009F4F089557FD9058440F551F59F05F3F7A
:1021F00071F04795880F97FB991F61F09F3F79F029
:1022000087950895121613061406551FF2CF4695AA
:10221000F1DF08C0161617061806991FF1CF86952C
:102220007105610508940895E894BB276627772710
:10223000CB0197F908950E942E110C94E1100E9491
:10224000D31038F00E94DA1020F0952311F00C948E
:10225000CA100C94D01011240C9415110E94F21085
:1022600070F3959FC1F3950F50E0551F629FF001E9
:10227000729FBB27F00DB11D639FAA27F00DB11D02
:10228000AA1F649F6627B00DA11D661F829F22278B
:10229000B00DA11D621F739FB00DA11D621F839F12
:1022A000A00D611D221F749F3327A00D611D231FE8
:1022B000849F600D211D822F762F6A2F11249F5736
:1022C00050409AF0F1F088234AF0EE0FFF1FBB1F39
:1022D000661F771F881F91505040A9F79E3F5105F8
:1022E00080F00C94CA100C9415115F3FE4F3983EF3
:1022F000D4F3869577956795B795F795E7959F5FA2
:10230000C1F7FE2B880F911D9695879597F9089533
:1023100097FB072E16F4009407D077FD09D00E9492
:10232000231307FC05D03EF4909581959F4F0895A7
:10233000709561957F4F0895DF93CF931F930F930F
:102340009A9DF02D219FF00D8B9DF00D8A9DE02D23
:10235000F10D039FF00D029FE00DF11D4E9DE00D6C
:10236000F11D5E9DF00D4F9DF00D7F936F93BF9219
:10237000AF925F934F93D5010E943D138B01AC0147
:10238000D7010E943D13EB01E80FF91FD6010E940F
:10239000EB112F913F91D6010E943D13C60FD71F1D
:1023A000E81FF91FAF91BF910E94EB112F913F9150
:1023B0000E943D13C60FD71FE81FF91FD6010E94C8
:1023C0003D13E60FF71F9801BE01CF010F911F913A
:1023D000CF91DF9108950E943D13460F571FC81FEC
:1023E000D91F08F43196089597FB57FF0C940412F7
:1023F0009F938F930E9404126E1B7F0BAF91BF912E
:102400008A0B9B0B0895E894DF93CF93FC01DB01CB
:102410000E943D137F936F93E9019A01AC01BF9332
:10242000AF933F932F93DF010E943D1326F46C1B63
:102430007D0B820B930B9E01EB01FC010E94EB11C3
:10244000AF91BF912F913F910E94EB11BE01CF013F
:10245000F9012F913F91CF91DF910895689401C0C8
:10246000E894F92FF12B12F00C946212A0E0B0E086
:10247000ECE3F2E10C94D412092E059422F40E94AC
:10248000BE12112392F4F0E80F26FFEFE094F094CF
:1024900000951095B094C094D094A194BF0ACF0A2F
:1024A000DF0AEF0AFF0A0F0B1F0B0E946D1207FCD9
:1024B0000E94BE12CDB7DEB7ECE00C94F012689427
:1024C00001C0E8948F929F92CF93DF930E946D1288
:1024D000DF91CF919F908F90089588249924F401E3
:1024E000E401B0E49F93AA279A158B049C04ED05A0
:1024F000FE05CF05D007A10798F4AD2FDC2FCF2F15
:10250000FE2FE92D982C892E982F872F762F652F57
:10251000542F432F322F2227B85031F7BF9127C0B5
:102520001B2EBF91BB27220F331F441F551F661F51
:10253000771F881F991F881C991CEE1FFF1FCC1F37
:10254000DD1FAA1FBB1F8A149B04EC05FD05CE05E9
:10255000DF05A007B10748F08A189B08EC09FD09C0
:10256000CE09DF09A00BB10B21601A94E1F62EF41D
:102570009401AF01BE01CD01000C089560957095E6
:102580008095909530954095509521953F4F4F4FB0
:102590005F4F6F4F7F4F8F4F9F4F08952F923F9206
:1025A0004F925F926F927F928F929F92AF92BF9263
:1025B000CF92DF92EF92FF920F931F93CF93DF930F
:1025C000CDB7DEB7CA1BDB0B0FB6F894DEBF0FBE6C
:1025D000CDBF09942A88398848885F846E847D84B9
:1025E0008C849B84AA84B984C884DF80EE80FD80BB
:1025F0000C811B81AA81B981CE0FD11D0FB6F89431
:10260000DEBF0FBECDBFED0108952A0D3B1D4C1D51
:102610005D1D6E1D7F1D801F911F08952A193B09A6
:102620004C095D096E097F09800B910B0895002408
:10263000A7FD00942A173005400550056005700578
:10264000800590050895AA1BBB1B51E107C0AA1F76
:10265000BB1FA617B70710F0A61BB70B881F991F43
:102660005A95A9F780959095BC01CD010895EE0F7C
:10267000FF1F0590F491E02D0994A29FB001B39F34
:10268000C001A39F700D811D1124911DB29F700D7B
:10269000811D1124911D0895AEE0B0E0E2E5F3E163
:1026A0000C94DC128C01FA0186E08C831A83098376
:1026B00077FF02C060E070E8615071097E836D832E
:1026C000A901BF01CE0101960E9478134D815E8160
:1026D00057FD0AC02F813885421753070CF49A0121
:1026E000020F131FF80110822E96E4E00C94F812EA
:1026F000ABE0B0E0EEE7F3E10C94CE127C013B01DD
:102700008A01FC0117821682838181FFC8C1CE0134
:1027100001965C01F7019381F30193FD859193FF8D
:1027200081913F01882309F453C1853239F493FD27
:10273000859193FF81913F01853229F4B70190E0A3
:102740000E946815E7CF912C212C312CFFE1F31565
:1027500038F08B3211F190F4803209F1833229F193
:1027600037FC3CC020ED280F2A3050F536FE20C043
:102770008AE0989E200D1124922E06C08D3291F091
:10278000803371F7689430F8F30193FD859193FFDE
:1027900081913F018111DACF21C0689431F86894AA
:1027A00032F8F2CF689433F8EFCF689434F8ECCF76
:1027B000EAE02E9E200D1124222E689435F8E4CFF5
:1027C0008E3229F436FC04C1689436F8DDCF8C369D
:1027D00019F4689437F8D8CF8836B1F2982F9F7DD6
:1027E00095549330E0F08336A1F18337C1F18335FE
:1027F00009F063C02801F2E04F0E511CF801C080BF
:10280000D180692D70E036FC02C06FEF7FEFC6010A
:102810000E9452154C01689437F882010AC00C5F7F
:102820001F4FFFE3F98388248394912C6501E8947A
:1028300037F833FE2DC0522C8114910471F55520C8
:1028400009F468CFB70180E290E00E9468155A94BD
:10285000F6CFF801808189830E5F1F4FE4CF2801F6
:10286000F2E04F0E511CF801C080D180692D70E05C
:1028700036FC02C06FEF7FEFC6010E945D154C0170
:102880008201D5CFB70180E290E00E9468152A94BA
:102890002814190409F0B0F7CECFF60137FC859162
:1028A00037FE81916F01B70190E00E9468155110C9
:1028B0005A94F1E08F1A9108BFCF843619F0893607
:1028C00009F077C0F80137FE6BC0608171818281A9
:1028D00093810C5F1F4FF32DFF763F2E97FF09C0AA
:1028E00090958095709561957F4F8F4F9F4F68941D
:1028F00037F82AE030E0A5010E949815C82ECA18C2
:102900008C2C432C36FE0CC0E89440F8C91440F4DB
:1029100034FE05C032FC03C0F32DFE7E4F2E892C01
:1029200044FE95C0FE01EC0DF11D8081803309F05D
:1029300087C0242D297E422E842D8870582E43FC7A
:1029400095C040FE8FC09C2C821418F42C0C922C45
:10295000981844FE91C0B70180E390E00E9468158A
:1029600042FE09C088E790E041FE02C088E590E0A1
:10297000B7010E946815C91408F48AC0CA94D12C02
:102980009FEFC91AD90ACA0CDB1CF60182916F01AC
:10299000B70190E00E946815AC14BD04B1F74FCFA9
:1029A00060817181072E000C880B990B0E5F1F4F01
:1029B00092CFD32CE894D4F82AE030E0853739F16F
:1029C000232D297FD22E8F3601F148F48835A9F0C6
:1029D000F701868197812B96E2E10C94EA12803709
:1029E00049F08837A9F7D4FE02C06894D2F820E1F4
:1029F00030E00DC06894D4F8F6CF34FE03C0822FC7
:102A00008660D82E20E132E002C028E030E0F801F4
:102A1000D7FE0FC060817181828193810C5F1F4F4F
:102A2000A5010E949815C82ECA183D2CE89437F8C5
:102A300067CF6081718190E080E00E5F1F4FF0CF23
:102A400042FC02C0839478CF8394839475CF842D05
:102A5000867809F471CFF6CFB70180E290E00E944A
:102A6000681583948214C0F3512C73CF522C5818DC
:102A7000821408F46ECFF8CF842D867809F47BCFCA
:102A80008BE241FE80E247FC8DE2B70190E071CF1E
:102A9000B70180E390E00E9468159A946CCF8FEFA5
:102AA0009FEF99CFFC010590615070400110D8F75D
:102AB000809590958E0F9F1F0895FC016150704086
:102AC00001900110D8F7809590958E0F9F1F089563
:102AD0000F931F93CF93DF93182F092FEB018B8157
:102AE00081FD09C01FEF0FEF812F902FDF91CF9154
:102AF0001F910F91089582FF14C02E813F818C8118
:102B00009D81281739073CF4E881F981CF010196AE
:102B10009983888310838E819F8101969F838E8302
:102B2000E3CFE885F985812F0995892BA1F3DACFC9
:102B3000FA01AA27283051F1203181F1E8946F93EE
:102B40006E7F6E5F7F4F8F4F9F4FAF4FB1E03ED094
:102B5000B4E03CD0670F781F891F9A1FA11D680F32
:102B6000791F8A1F911DA11D6A0F711D811D911D65
:102B7000A11D20D009F468943F912AE0269F1124DA
:102B80003019305D3193DEF6CF010895462F47703E
:102B9000405D4193B3E00FD0C9F7F6CF462F4F7099
:102BA000405D4A3318F0495D31FD4052419302D0F7
:102BB000A9F7EACFB4E0A69597958795779567959D
:102BC000BA95C9F700976105710508959B01AC019D
:102BD0000A2E06945795479537952795BA95C9F7C4
:102BE000620F731F841F951FA01D0895F894FFCFD7
:102BF0000A000801000000009E065A033C031E0361
:102C00000003000000002C018C00B9007901EA00EB
:102C1000C800DC0000000000BB054E4F20425546B6
:102C2000464552006F6666006F6E00536F756E64A6
:102C3000206973206E6F7720257300496E6372657B
:102C40006D656E74206973206E6F77202564007047
:102C500075736865640072656C65617365640050C6
:102C60006F7765724F6E427574746F6E496E7465DE
:102C7000727275707443616C6C6261636B2C20625C
:102C80007574746F6E206973206E6F7720257300E2
:102C900044757479206379636C652025640D0A0D91
:102CA0000A003000796573006E6F000A0A504150C7
:102CB000522043616C69627261746F7220666F7238
:102CC0002052657620332E314120626F617264009C
:102CD0004F666620627574746F6E3A20746F676712
:102CE0006C6520736F756E64004F6E20627574742E
:102CF0006F6E3A20746F67676C6520696E637265EA
:102D00006D656E7400446F776E20627574746F6EBB
:102D10003A2064656372656173652066616E207335
:102D20007065656400557020627574746F6E3A202A
:102D3000696E6372656173652066616E207370658C
:102D400065640A00447574792025642020564F4C30
:102D50005420256C647C256C647C256C6420206385
:102D60006F6D7020257320204355525220256C64CE
:102D70007C256C647C256C64202052454620256CA3
:102D8000647C256C647C256C64202075414D505317
:102D900020256C647C256C647C256C642020755631
:102DA0004F4C545320256C647C256C647C256C64EA
:102DB0002020434841524745202573202050494355
:102DC0004F434F554C202573202052504D20256CE9
:102DD000647C256C647C256C642020544F4E452017
:102DE0002573202053414D504C455320256C7500D0
:00000001FF
