:100000000C94E8010C9410020C9410020C94100251
:100010000C9410020C94C2160C94AB160C941002A3
:100020000C9410020C9410020C9410020C94100208
:100030000C9410020C9410020C9410020C941002F8
:100040000C9461160C9410020C942F160C94091643
:100050000C9410020C9410020C9410020C941002D8
:100060000C9410020C9410020000000024002700E1
:100070002A0000000000250028002B0000000000DE
:1000800023002600290004040404040404040202DA
:100090000202020203030303030301020408102007
:1000A0004080010204081020010204081020000012
:1000B0000008000201000003040700000000000027
:1000C00000000D0A0A3C3C3C205374617475732097
:1000D0007265706F7274696E6720656E61626C65BF
:1000E00064203E3E3E000D0A0A3C3C3C204E6F72AE
:1000F0006D616C204D6F6465203E3E3E0072202D88
:100100002052657365740038202D20437572726526
:100110006E742053656E736F72207465737400374C
:10012000202D2043686172676572204465746563A1
:100130007420746573740036202D204261747465D8
:10014000727920566F6C74616765207465737400F2
:1001500035202D20566F6C74616765205265666589
:1001600072656E636520746573740034202D2042BF
:100170007574746F6E20746573740033202D205372
:100180007065616B657220746573740032202D2078
:1001900046616E20746573740031202D204C4544F7
:1001A000207465737400436F6D6D616E64732061BC
:1001B00072653A000D0A0A3C3C3C20546573742079
:1001C0004D6F6465203E3E3E000D0A4C4544205470
:1001D00065737420656E646564002E002E002E0029
:1001E0004C45442054657374000D0A46616E2054DA
:1001F00065737420656E64656400002E0046616E50
:100200002054657374000D0A537065616B6572202C
:100210005465737420656E646564002E00537065C8
:10022000616B65722054657374000D0A42757474B5
:100230006F6E205465737420656E646564002E00D3
:10024000427574746F6E2054657374000D0A566F96
:100250006C74616765205265666572656E636520C2
:100260005465737420656E64656400566F6C7461C8
:100270006765205265666572656E636520546573B7
:1002800074000D0A4261747465727920566F6C7443
:10029000616765205465737420656E64656400420F
:1002A00061747465727920566F6C7461676520544F
:1002B000657374000D0A4368617267657220446556
:1002C00074656374205465737420656E646564009E
:1002D0005768656E20796F75206172652066696E5A
:1002E00069736865642074657374696E672C207027
:1002F0006C656173652072652D636F6E6E656374E6
:10030000207468652073657269616C206361626C3A
:10031000652E0054686520746573742077696C6C71
:1003200020626567696E207768656E207468652055
:100330006F72616E6765204C4544207374617274FE
:100340007320666C69636B6572696E672E00506C12
:100350006561736520646973636F6E6E6563742095
:100360007468652073657269616C206361626C6595
:100370002E0043686172676572204465746563741A
:100380002054657374000D0A43757272656E742093
:1003900053656E736F72205465737420656E646567
:1003A000640043757272656E742053656E736F726C
:1003B000205465737400000D0A456E7465722054F4
:1003C00065737420436F6D6D616E643A000022178F
:1003D00011241FBECFEFD8E0DEBFCDBF13E0A0E0F9
:1003E000B1E0EAE4FAE402C005900D92AC38B1073E
:1003F000D9F725E0ACE8B3E001C01D92A73BB207F6
:10040000E1F711E0C8EED1E004C02197FE010E949F
:100410006422C73ED107C9F70E945E180C942325B9
:100420000C940000AF92BF92CF92DF92EF92FF92B6
:100430000F931F93CF93DF936C017B018B01040F0C
:10044000151FEB015E01AE18BF08C017D10759F0A8
:100450006991D601ED91FC910190F081E02DC601EA
:100460000995892B79F7C501DF91CF911F910F91E4
:10047000FF90EF90DF90CF90BF90AF900895FC0178
:10048000538D448D252F30E0842F90E0821B930BF9
:10049000541710F0CF96089501970895FC01918D9F
:1004A000828D981761F0A28DAE0FBF2FB11D5D96A2
:1004B0008C91928D9F5F9F73928F90E008958FEF44
:1004C0009FEF0895FC01918D828D981731F0828DF8
:1004D000E80FF11D858D90E008958FEF9FEF08954F
:1004E000FC01918D228D892F90E0805C9F4F821BB3
:1004F00091098F73992708958EE294E00E9470020B
:1005000021E0892B09F420E0822F089580E090E01B
:10051000892B29F00E947C0281110C94000008951F
:10052000FC01A48DA80FB92FB11DA35ABF4F2C9168
:10053000848D90E001968F739927848FA689B7895F
:100540002C93A089B1898C91837080648C93938D56
:10055000848D981306C00288F389E02D80818F7DF9
:1005600080830895EF92FF920F931F93CF93DF93B1
:10057000EC0181E0888F9B8D8C8D98131AC0E889DF
:10058000F989808185FF15C09FB7F894EE89FF89AE
:100590006083E889F98980818370806480839FBF4C
:1005A00081E090E0DF91CF911F910F91FF90EF904C
:1005B0000895F62E0B8D10E00F5F1F4F0F7311275C
:1005C000E02E8C8D8E110CC00FB607FCFACFE88997
:1005D000F989808185FFF5CFCE010E949002F1CF8D
:1005E000EB8DEC0FFD2FF11DE35AFF4FF0829FB70B
:1005F000F8940B8FEA89FB8980818062CFCF0F93BB
:100600001F93CF93DF938C01D0E0C0E0F801EC0F93
:10061000FD1F6491662341F08EE294E00E94B202D5
:10062000892B11F02196F2CFCE01DF91CF911F914E
:100630000F910895CF93DF93EC01888D8823B9F053
:10064000AA89BB89E889F9898C9185FD03C08081DD
:1006500086FD0DC00FB607FCF7CF8C9185FFF2CF5A
:10066000808185FFEDCFCE010E949002E9CFDF911E
:10067000CF9108958EE294E00E941A03EEE2F4E036
:10068000A289B3898C918F7E8C93A289B3898C9136
:10069000877F8C93A289B3898C918F778C93A28961
:1006A000B3898C918F7D8C93828D818F0895833057
:1006B00081F028F4813099F08230A9F008958730D4
:1006C000A9F08830C9F08430B1F4809180008F7D2A
:1006D00003C0809180008F7780938000089584B557
:1006E0008F7784BD089584B58F7DFBCF8091B00056
:1006F0008F778093B00008958091B0008F7DF9CFFF
:10070000CF93DF93282F30E0F901E255FF4F84911A
:10071000F901E656FF4FD491F901EA57FF4FC49112
:10072000CC23A1F081110E945703EC2FF0E0EE0FD3
:10073000FF1FE458FF4FA591B491EC91ED2381E0A8
:1007400090E009F480E0DF91CF91089580E090E09F
:10075000FACF80E00E94800321E0892B09F020E09D
:10076000822F089587E00E9480039093CC048093A9
:10077000CB0485E00E9480039093CE048093CD0447
:100780004091CF045091D00480916D0041155105E6
:10079000C9F0806880936D002091D1043091D2041B
:1007A00080916D002115310579F0806280936D0094
:1007B00080916800452B11F4232B41F084608093D5
:1007C000680008958F77E6CF8F7DF0CF8B7FF7CFCE
:1007D0001F93CF93DF93282F30E0F901E255FF4FAD
:1007E0008491F901E656FF4FD491F901EA57FF4F82
:1007F000C491CC23A9F0162F81110E945703EC2F2E
:10080000F0E0EE0FFF1FEE58FF4FA591B4918FB7A8
:10081000F894EC91111108C0D095DE23DC938FBFC2
:10082000DF91CF911F910895DE2BF8CFCF93DF9307
:1008300090E0FC01E656FF4F24918A579F4FFC0140
:1008400084918823C9F090E0880F991FFC01E85932
:10085000FF4FA591B491FC01EE58FF4FC591D49183
:1008600061110DC09FB7F8948C91209582238C93D1
:100870008881282328839FBFDF91CF91089562301C
:1008800051F49FB7F8943C91822F809583238C93E9
:10089000E8812E2BEFCF8FB7F894EC912E2B2C9371
:1008A0008FBFEACF1F93CF93DF93182FEB0161E047
:1008B0000E941604209739F460E0812FDF91CF91D8
:1008C0001F910C94E803CF3FD10511F461E0F5CFFF
:1008D000E12FF0E0E255FF4FE491E33031F140F4D5
:1008E000E130B1F0E230E1F0C038D1057CF7E4CF7F
:1008F000E73029F1E83059F1E430B1F78091800018
:10090000806280938000D0938B00C0938A0004C0E3
:1009100084B5806884BDC7BDDF91CF911F910895D4
:1009200084B5806284BDC8BDF7CF809180008068A7
:1009300080938000D0938900C0938800EDCF809190
:10094000B00080688093B000C093B300E5CF809181
:10095000B00080628093B000C093B400DDCF8E50B1
:10096000806480937C0080917A00806480937A0018
:1009700080917A0086FDFCCF80917800909179007B
:1009800008952F923F924F925F926F927F928F9233
:100990009F92AF92BF92CF92DF92EF92FF920F930E
:1009A0001F93CF93DF9300D000D0CDB7DEB784E1A3
:1009B0000E94AF043C018FE00E94AF044C0184EF21
:1009C000A82EBB24B394C12CD12CE12CF12C00E037
:1009D00010E02091D5043091D6044091D704509175
:1009E000D8046091D9047091DA048091DB0490916D
:1009F000DC040E949E2019012A0169837A838B837B
:100A00009C83B401990C880B990B072C000C880867
:100A1000990866197709880999092DE230E743E6B4
:100A200050E00E94F620E8EEAE2EF3E0BF2E0E94CA
:100A3000322159016A017B018C019101A201698176
:100A40007A818B819C810E940722A5EFAA2EBB246C
:100A5000B394C12CD12CE12CF12C00E010E00E94C9
:100A600032212093D5043093D6044093D704509379
:100A7000D8046093D9047093DA048093DB049093D4
:100A8000DC040F900F900F900F90DF91CF911F918A
:100A90000F91FF90EF90DF90CF90BF90AF909F901D
:100AA0008F907F906F905F904F903F902F90089520
:100AB0003FB7F8948091130490911404A091150409
:100AC000B091160426B5A89B05C02F3F19F00196DA
:100AD000A11DB11D3FBFBA2FA92F982F8827BC0198
:100AE000CD01620F711D811D911D43E0660F771FBF
:100AF000881F991F4A95D1F708958F929F92AF92C0
:100B0000BF92CF92DF92EF92FF924B015C010E9465
:100B100058056B017C010E9458056C197D098E09EE
:100B20009F09683E734081059105A8F321E0821A70
:100B30009108A108B10888EEC80E83E0D81EE11C18
:100B4000F11C81149104A104B10429F7FF90EF90E6
:100B5000DF90CF90BF90AF909F908F900895CF93EC
:100B6000DF93EC010197C1F461E086E00E94E803A5
:100B70006AE070E080E090E00E947D05F89480E8F3
:100B800080936100109261007894D093D404C09354
:100B9000D304DF91CF910895F89480E880936100A9
:100BA00083E080936100789460E086E00E94E8032F
:100BB0006EE170E080E090E00E947D05E6CF2FB707
:100BC000F89460910F047091100480911104909139
:100BD00012042FBF08950E94580560937405709306
:100BE00075058093760590937705ECE6F5E0108225
:100BF0008DE2818381E3828381E083831482158285
:100C0000168217820E94DF0560937805709379053C
:100C100080937A0590937B050E94DF0560937C05A5
:100C200070937D0580937E0590937F0510928005DB
:100C3000E1E8F5E01082118212821382148215829B
:100C40001682178210928905109219040895411591
:100C5000510529F4EAE7F0E080818F7780836A30DC
:100C60007105B9F0CB01880F991F880F991F807209
:100C700067706860682B88E10FB6F894A895809338
:100C800060000FBE60936000E0E6F0E08081806469
:100C90008083232BD9F483B7817F846083BFF8944A
:100CA00083B7816083BF85B7806685BF8F7D85BF31
:100CB0007894889583B78E7F83BF7894452B29F4E9
:100CC000EAE7F0E0808180688083089583B7817FC0
:100CD000846083BFF89483B7816083BF78948895DC
:100CE00083B78E7F83BF7894E9CFCF93DF93EC01F6
:100CF0008EE294E00E946202019689F064E670E060
:100D000080E090E00E947D058EE294E00E94620205
:100D1000019699F08EE294E00E944E02F5CF62E3D4
:100D200070E080E090E00E947D05E2971C161D06B1
:100D3000FCF281E0DF91CF91089580E0FBCFAF928C
:100D4000BF92CF92DF92EF92FF920F931F93CF93B8
:100D5000DF93C4EFD1E00E94C1042197E1F70E9424
:100D6000C104E8E1AE2EFCEFBF2ECC24CA94DD24F2
:100D7000DA94EE24EA94FF24FA940FEF1FEF0E9416
:100D80003221B901CA01DF91CF911F910F91FF90DC
:100D9000EF90DF90CF90BF90AF9008952F923F9249
:100DA0004F925F926F927F928F929F92AF92BF927B
:100DB000CF92DF92EF92FF920F931F93CF93DF9327
:100DC000CDB7DEB7C958D1090FB6F894DEBF0FBE54
:100DD000CDBF29013A014B011C0180912D04CB5755
:100DE000DF4F8883C558D040882309F412C1C10160
:100DF000A0E00E94222209F415C180910C04909178
:100E00000D04843091050CF0FBC09C012F5F3F4F17
:100E100030930D0420930C04880F991FFC01E25DB0
:100E2000FE4FA081B181CD57DF4FB983A883C3584E
:100E3000D0409201C101A0E00E9422220CF08AC0A1
:100E40000E94C02129013A014B011C01CA57DF4F02
:100E500019821882C658D040FE013296CF57DF4F14
:100E6000F983E883C158D040CF57DF4FA881B981BB
:100E7000C158D0401196C857DF4FB983A883C858CE
:100E8000D0408AE0A82EB12CC12CD12CE12CF12C21
:100E900000E010E09201A301B401C1010E943021E1
:100EA000205DCF57DF4FE881F981C158D0402083C2
:100EB0009201A301B401C1010E94322129013A012A
:100EC0004B011C01CA57DF4F88819981C658D04019
:100ED0000196CA57DF4F99838883C658D040920144
:100EE000A301B401C101A0E00E942222C9F5CB57A1
:100EF000DF4F9881C558D040F0E0E0E0992351F0F1
:100F00008DE2CD57DF4FA881B981C358D0408C9373
:100F1000E1E0F0E0CD57DF4F88819981C358D040A0
:100F2000E80FF91F9E012F5F3F4FCF57DF4FA8817A
:100F3000B981C158D0402A173B0708F040C011972B
:100F4000CF57DF4FB983A883C158D04011968C91F9
:100F50008193EBCFCB57DF4F1882C558D04076CF67
:100F6000CA57DF4F88819981C658D04063E070E04E
:100F70000E946420892BB1F4CF57DF4F888199817B
:100F8000C158D0400296C857DF4F99838883C8580C
:100F9000D040ECE2CF57DF4FA881B981C158D04093
:100FA0001196EC93C857DF4F88819981C858D0407B
:100FB000CF57DF4F99838883C158D04055CF1082D7
:100FC000CD57DF4F88819981C358D040C757DF4F35
:100FD0000FB6F894DEBF0FBECDBFDF91CF911F914A
:100FE0000F91FF90EF90DF90CF90BF90AF909F90C8
:100FF0008F907F906F905F904F903F902F900895CB
:10100000E4E7F1E0CD57DF4FF983E883C358D040E0
:10101000D7CF82E891E0CD57DF4F99838883C358BB
:10102000D040CECFAEE7B1E0CD57DF4FB983A88334
:10103000C358D040C5CFE0913E04F0913F0492E008
:101040009083E0913A04F0913B041082E0913C04DB
:10105000F0913D0490E1908310924604E0914204A7
:10106000F091430496E09083E0914004F0914104B4
:10107000908190619083E0914004F09141049081CF
:1010800098609083E0914004F091410490819068D1
:101090009083E0914004F091410490819F7D908382
:1010A00081110EC08091C1008F778093C100809123
:1010B000C1008F7E8093C10062E080E00E94160430
:1010C00081E080932D04089520912D04222331F096
:1010D0000E94FF028EE294E00C941A0308950F938D
:1010E0001F93CF93DF93EC010E94DF050C811D81DC
:1010F0002E813F81601B710B820B930B088119813C
:101100002A813B81061717072807390758F41882E8
:1011100019821A821B82E885F985DF91CF911F9190
:101120000F910994DF91CF911F910F91089587E05E
:101130000E948003892B61F484E00E948003892B44
:1011400039F489E00E948003009711F4FC010994AE
:101150000895CF92DF92EF92FF920F931F93CF9358
:10116000DF93EC0188810E9480038C018A859B8536
:101170000115110581F5892B31F58889811118C078
:101180000E94DF05CC84DD84EE84FF846C197D0928
:101190008E099F09CA80DB80EC80FD80C616D706C9
:1011A000E806F90628F4EE81FF81099581E0888B35
:1011B0001B870A87DF91CF911F910F91FF90EF90CE
:1011C000DF90CF9008950E94DF056C877D878E8722
:1011D0009F87188AEDCF892B59F7E885F9853097D5
:1011E00039F30995E5CFCF92DF92EF92FF920F93FB
:1011F0001F93CF93DF93FC012085222329F1EC017B
:101200000E94DF050C811D812E813F816B017C01D5
:10121000C01AD10AE20AF30A088119812A813B81A6
:101220000C151D052E053F0578F46C837D838E8398
:101230009F83E985FA85DF91CF911F910F91FF90F0
:10124000EF90DF90CF900994DF91CF911F910F9194
:10125000FF90EF90DF90CF90089560E870E08AE013
:101260000C9452042E9A0895823621F0833641F070
:101270000C94E803613011F40C9432092E9808950F
:10128000613011F42F9A08952F9808950C94340921
:101290000F931F93CF93DF938C01C9E4D1E0899121
:1012A000B80190E00E94460981E0C035D807B9F73F
:1012B000DF91CF911F910F910895EF92FF920F93BD
:1012C0001F93CF93DF937C01EB01142F052F642F25
:1012D0008C2F0E943409E2E4F1E090E080E021915B
:1012E0002C171D0681F4FC01EE0FFF1FEE0DFF1DF4
:1012F000E354FF4F10830183DF91CF911F910F9132
:10130000FF90EF90089501968730910541F7F4CF53
:101310002091DD043091DE04F901EF54FF4F40814C
:1013200091E09427908350E061E170E0C9010C9452
:101330005D090F931F93CF93DF93EC0150E040E0E2
:1013400062E170E00E945D098E010A5A1F4F41E080
:1013500050E0F801808191811816190614F450E0CC
:1013600040E063E170E0CE010E945D0941E050E0A1
:10137000F80180819181029711F450E040E062E031
:1013800070E0CE01DF91CF911F910F910C945D0918
:101390000F931F93CF93DF93EC018B01FB01EE0FB3
:1013A000FF1FE45CFE4F6081653608F064E670E084
:1013B00090E080E00E94421F23E333E343E250E4E5
:1013C0000E94F71F0E940A1FFE01EA5BFF4F878100
:1013D0000E945204FE01EA5AFF4F11830083CE019E
:1013E0000E9499090E94DF05FE01E85AFF4F6083C1
:1013F000718382839383C45ADF4F81E08883DF91B6
:10140000CF911F910F9108958091DD049091DE049A
:10141000FC01EA5AFF4F61E070E020813181223007
:10142000310511F070E060E00C94C8098091DD0492
:101430009091DE04FC01EA5AFF4F2081318162E085
:1014400070E0232B11F461E070E00C94C809CF9296
:10145000DF92EF92FF920F931F93CF93DF93EC01F4
:101460008C010D591F4FD801EC9081E08E258C9393
:10147000F12CFE01E15AFF4FC080D180F60161914D
:1014800071916F016F3F760729F0A701CE010E948D
:101490005D09F4CFD8018C91882379F10E942D0940
:1014A00080E890E0FE01E553FF4F91838083EA5688
:1014B000F1090190F081E02DD8018C91811125C0B6
:1014C00084E090E0E80FF91F80819181A281B381CF
:1014D000CC59DF4F88839983AA83BB830E94DF05A1
:1014E0006C837D838E839F83DF91CF911F910F91BA
:1014F000FF90EF90DF90CF90089570E060E08AE079
:101500000E94520490E080E0CDCF90E080E0DACFFE
:101510008091DD049091DE040C94270A0F931F93B1
:10152000CF93DF938C01C2E4D1E0699170E050E089
:1015300040E0C8010E945D0981E0C934D807A9F7DD
:10154000DF91CF911F910F9108950F931F93CF9328
:10155000DF938C01C2E4D1E0699170E041E050E09A
:10156000C8010E945D0981E0C934D807A9F7DF915D
:10157000CF911F910F910895CF93DF93EC018A8152
:101580000E948003892B29F48A859B8501969B877D
:101590008A87DF91CF910895CF92DF92EF92FF92E9
:1015A0000F931F93CF93DF93EC010E94DF050C850F
:1015B0001D852E853F85601B710B820B930B0B8164
:1015C0001C812D813E81061717072807390798F5DA
:1015D000F8940A851B850E94401F9B01AC0160E0C6
:1015E00070E08AE794E40E94981E6B017C01B801C8
:1015F00090E080E00E94401F9B01AC01C701B60152
:101600000E94F71F20E030E040E05FE30E94F71FF8
:1016100020E030E040E752E40E94F71F0E94111FD3
:10162000798768871B861A860E94DF056C877D870D
:101630008E879F87789488859985DF91CF911F91B8
:101640000F91FF90EF90DF90CF900895CF93DF93AD
:10165000EC0161E08A810E9434096FEF70E08F81B4
:101660000E945204D093D204C093D1040E94B203CA
:101670000E94DF056C877D878E879F871986188675
:10168000DF91CF910895CF93DF93EC010E94A903DE
:10169000882319F10E94C10420323F4B424051057A
:1016A000610571058105910509F0D4F4288139811E
:1016B0004A815B816C817D818E819F8121153105FD
:1016C000410551056E4176428944910509F05CF46B
:1016D00083E090E0DF91CF91089590E080E0FACF31
:1016E00081E090E0F7CF82E090E0F4CF42E050E07C
:1016F00060E871E08EE294E00C94120220912D04D7
:10170000222341F00E94FF020E94760B8EE294E0B9
:101710000C941A030895CF93DF93CDB7DEB7809171
:101720002D04882359F09E01255F3F4F43E851E087
:1017300064E170E089E194E00E947922DF91CF9129
:1017400008950F931F93CF93DF93CDB7DEB7CC529D
:10175000D1400FB6F894DEBF0FBECDBF80912D04EF
:10176000882341F19E012B5C3E4FCD5CDE4F4881CA
:101770005981C353D1406CE271E08E010F5F1F4F5E
:10178000C8010E947922F80101900020E9F7319701
:10179000AF01401B510BB8018EE294E00E9412028F
:1017A0000E94760B8EE294E00E941A0310920D04C0
:1017B00010920C04C45DDE4F0FB6F894DEBF0FBE6E
:1017C000CDBFDF91CF911F910F9108952F923F923E
:1017D0004F925F926F927F928F929F92AF92BF9241
:1017E000CF92DF92EF92FF920F931F93CF93DF93ED
:1017F000CDB7DEB766970FB6F894DEBF0FBECDBF8C
:101800003C018B579F4F9E8B8D8BFC01208031803C
:1018100042805380F481F983FC01F581FB83FC0154
:101820008680978040E7A42E5DE3B52E6AE0C62E41
:1018300077E1D72EE7E2EE2EFDEBFF2E00E010E081
:101840009101A20169817B81C4010E9432213A8BFE
:10185000298BA12CA0E1BA2EB5EACB2E84EDD82E8F
:1018600098EEE92EF12C9101A20169817B81C401DE
:101870000E9432215B8B522E932E842E0E94C10433
:10188000E8EEAE2EF3E0BF2EC12CD12CE12C0E944D
:1018900032215C8B1901442E85E10E94AF049C012A
:1018A000932F990F990BA9ECAA2EB8E7BB2E8FEBBB
:1018B000C82EDD24D394492F592F692F792F892FD2
:1018C0000E949E20E0E4AE2EF2E4BF2EAFE0CA2ECE
:1018D000D12C0E943221C52E59014F87F301E753C5
:1018E000FF4F80819181892B09F471C08CEA91E0CE
:1018F0009A838983F301E953FF4F80819181892B7A
:1019000009F46AC08CEA91E09C838B83F301EB536A
:10191000FF4F80819181892B09F463C08CEA91E0AB
:101920009E838D83F301ED53FF4F80819181892B3D
:1019300009F45CC08BEA91E098878F83F301EF5341
:10194000FF4F80819181892B09F455C08BEA91E08A
:101950009A878987F301E154FF4F80819181892B18
:1019600009F44EC08AEA91E09C878B87F301E35427
:10197000FF4F80819181892B09F447C08DEA91E066
:101980009E878D878D899E890E94430B880F991FA2
:10199000FC01EA5DFE4F4081488BD180F301EA589B
:1019A000FF4F808109EB11E0882311F005EB11E076
:1019B000F301E35AFF4F80819181009759F101971C
:1019C00009F4C4C081EC91E09E8B8D8B27C0E2E9C5
:1019D000F1E0FA83E9838ECFE2E9F1E0FC83EB8367
:1019E00095CFE2E9F1E0FE83ED839CCFE7E9F1E0FA
:1019F000F887EF83A3CFEDE9F1E0FA87E987AACF73
:101A0000E3EAF1E0FC87EB87B1CFE1EBF1E0FE87A1
:101A1000ED87B8CFE9EBF1E0FE8BED8BF301E553F9
:101A2000FF4F8081918128ECE22E21E0F22E803858
:101A3000910521F495ECE92E91E0F92EC3018A5B22
:101A40009F4F0E94CC0AF301EA5AFF4F2081318157
:101A50002115310509F47DC02130310509F47CC020
:101A600023ED31E049E154E05F934F93EA89EF932E
:101A7000F989FF934B894F938F929F925F92EC89E4
:101A8000EF934F923F922F92CF92FF85FF93BF9299
:101A9000AF924A814F93E981EF93FC81FF934B8191
:101AA0004F93EE81EF93FD81FF9348854F93EF8134
:101AB000EF93FA85FF9349854F93EC85EF93FB8570
:101AC000FF934E854F93ED85EF93DF92F889FF9357
:101AD0001F930F934E894F93ED89EF93FF92EF92EF
:101AE0009F938F933F932F93F301ED57FF4F0190F7
:101AF000F081E02DEE0FFF1FE25EFE4F81818F939C
:101B000080818F9386ED91E09F938F930E94A10B2C
:101B10000FB6F894DEBF0FBECDBF66960FB6F89431
:101B2000DEBF0FBECDBFDF91CF911F910F91FF9010
:101B3000EF90DF90CF90BF90AF909F908F907F906D
:101B40006F905F904F903F902F9008958CEB91E0B5
:101B50003BCF2CEC31E086CF2FEC31E083CF80916E
:101B6000DD049091DE040C94E60B2F923F924F928D
:101B70005F926F927F928F929F92AF92BF92CF921D
:101B8000DF92EF92FF920F931F93CF93DF93CDB726
:101B9000DEB768970FB6F894DEBF0FBECDBF48E042
:101BA00050E068E070E0CE0101960E946B1E8981D2
:101BB00089879A819A878B818B879C819C878D816D
:101BC0008D879E819E878F818F879885988B2985A9
:101BD0003A854B855C856D857E85A0E00E9422223A
:101BE00011F00CF0A5C0B0EE2B2E19EC312E02E74F
:101BF000402E55245394612C712C812C912C80E51E
:101C0000A82E9CECB92E2DE3C22ED12CE12CF12C68
:101C100000E010E09101A201B301C4010E949E20E6
:101C2000E0E9AE2EF9EDBF2EA0E4CA2E0E943221CB
:101C3000298B3A8B4B8B5C8B6D8B7E8B8F8B988F2C
:101C4000209104043091050440910604509107044A
:101C5000609108047091090480910A0490910B042A
:101C600051016201730184010E94192209F43FC0ED
:101C700029893A894B895C896D897E898F89988DFC
:101C80000E94CE06F82EE92E9101A201B301C401F3
:101C90000E94CE06182F092F29853A854B855C8531
:101CA0006D857E858F8598890E94CE06EF92FF9282
:101CB0000F931F939F938F938BE692E09F938F9345
:101CC0000E94A10B20920404309205044092060465
:101CD00050920704609208047092090480920A04EA
:101CE00090920B040FB6F894DEBF0FBECDBF2989CA
:101CF0003A894B895C896D897E898F89988D689630
:101D00000FB6F894DEBF0FBECDBFDF91CF911F910C
:101D10000F91FF90EF90DF90CF90BF90AF909F908A
:101D20008F907F906F905F904F903F902F9008958D
:101D300029843A844B845C846D847E848F84988863
:101D40005ECF2F923F924F925F926F927F928F92CF
:101D50009F92AF92BF92CF92DF92EF92FF920F933A
:101D60001F93CF93DF93CDB7DEB7A0970FB6F8944C
:101D7000DEBF0FBECDBF0E94A903182F882371F0CC
:101D80008091800581110AC00E94DF05609378056B
:101D90007093790580937A0590937B051093800565
:101DA00064E6A62EB12CC12CD12CE12CF12C00E044
:101DB00010E020916C0530916D0540916E055091B9
:101DC0006F05609170057091710580917205909119
:101DD00073050E949E20322E432E542E652E762EA1
:101DE000872E982E292E85E10E94AF049C01932F07
:101DF000990F990B79ECA72EE8E7BE2EFFEBCF2EBB
:101E0000DD24D394492F592F692F792F892F0E94D0
:101E10009E20A8EEAA2EB3E0BB2EC12CD12C0E948E
:101E20003221A32CB42CC52CD62CE72CF82C092D50
:101E3000122D0E94072215E6A12EB12CC12CD12C07
:101E4000E12CF12C00E010E00E94322120936C057F
:101E500030936D0540936E0550936F056093700548
:101E6000709371058093720590937305A09081051E
:101E7000B0908205C0908305D0908405E0908505E0
:101E8000F090860500918705109188050E94102228
:101E9000F22E032F142FB52FF62FE72FD82EE92E71
:101EA000A0E00E94222254F40E94C021F22E032FAF
:101EB000142FB52FF62FE72FD82EE92E2F2D302FE8
:101EC000412F5B2F6F2F7E2F8D2D9E2D2F39364862
:101ED00041405105610571058105910559F154F1A4
:101EE0000E94DF0560937C0570937D0580937E05DD
:101EF00090937F0580916C058093810580916D059D
:101F00008093820580916E058093830580916F0593
:101F1000809384058091700580938505809171057B
:101F20008093860580917205809387058091730563
:101F3000809388050E9458056B017C010E94C104B2
:101F4000298B3A8B4B8B5C8B6D8B7E8B8F8B988F19
:101F50008091740590917505A0917605B0917705F3
:101F6000A7019601281B390B4A0B5B0BC092740525
:101F7000D0927505E0927605F0927705A988BA8827
:101F8000CB88DC887B010F89188D60E070E080E0F1
:101F900090E00E949E20A0906405B0906505C090DE
:101FA0006605D0906705E0906805F090690500919E
:101FB0006A0510916B050E940722D22EE32EF42EA3
:101FC000052F162FB72FF82FE92F211531054105C1
:101FD00051056544734E8944910549F044F0D12C74
:101FE000E12CF12C00E015E4B3EEF9E4E0E02D2D56
:101FF0003E2D4F2D502F612F7B2F8F2F9E2FA0E036
:102000000E94222244F4D12CE12CF12C00E010E0BB
:10201000B0E0F0E0E0E0D0926405E0926505F09277
:1020200066050093670510936805B0936905F09302
:102030006A05E0936B0585E10E94AF049C01932F34
:10204000990F990B89ECA82E48E7B42E5FEBC52EAB
:10205000DD24D394E12CF12C00E010E0492F592F1E
:10206000692F792F892F0E949E202F3F374C47419F
:10207000584A644071058105910509F084F4109275
:10208000640510926505109266051092670510921E
:1020900068051092690510926A0510926B050E94FE
:1020A000DF052B013C01A0906C05B0906D05C09040
:1020B0006E05D0906F0520917005298F30917105C4
:1020C0003A8F409172054B8F509173055C8F0E943F
:1020D000B50D922E832E342E252E7B018C018091FE
:1020E0007C0590917D05A0917E05B0917F05B3019F
:1020F000A201481B590B6A0B7B0B91E080E0413633
:102100005A4E6105710508F490E09D8F8E8F809185
:10211000780590917905A0917A05B0917B05B3017E
:10212000A201481B590B6A0B7B0B91E080E0413602
:102130005A4E6105710508F490E09F8F88A30E94B4
:10214000A903F82FE1E029893A894B895C896D89D7
:102150007E898F89988D2F333D404340510561051D
:1021600071058105910511F00CF0E0E01F92EF93ED
:10217000E1E09501A601698D7A8D8B8D9C8DA92C4E
:10218000B82CC32CD22C0E9419220CF4E0E01F9230
:10219000EF93EE8DEF932D8D2F9338A13F934F8DBD
:1021A0004F931F92FF9383E891E09F938F931F9229
:1021B00084E18F9389E194E09F938F930E948B0B2E
:1021C0000E94A9030FB6F894DEBF0FBECDBF8823CF
:1021D00009F471C08091780590917905A0917A05F4
:1021E000B0917B05A3019201281B390B4A0B5B0BB5
:1021F000DA01C90181369A4EA105B10508F45BC028
:1022000080917C0590917D05A0917E05B0917F0520
:10221000A3019201281B390B4A0B5B0BDA01C901A0
:1022200081369A4EA105B10508F445C040916C0570
:10223000498F50916D055A8F80916E058B8FA091BB
:102240006F05AC8F209070053090710580907205FD
:10225000909073050E94B50D59016A017B018C01B4
:10226000298D3A8D4B8D5C8DB101C4010E941922DC
:1022700014F129893A894B895C896D897E898F8916
:10228000988D2F333D40434051056105710581050F
:10229000910509F084F480918905811129C081E0BC
:1022A0008093890540928A0550928B0560928C0537
:1022B00070928D0504C0809189058111B9C0A096E6
:1022C0000FB6F894DEBF0FBECDBFDF91CF911F9147
:1022D0000F91FF90EF90DF90CF90BF90AF909F90C5
:1022E0008F907F906F905F904F903F902F900895C8
:1022F00080918A0590918B05A0918C05B0918D05F8
:10230000481A590A6A0A7B0A29E8421623E152064A
:1023100061047104A0F21092640510926505109298
:1023200066051092670585E48093680583EE8093C7
:10233000690589E480936A0510926B0520906C050D
:1023400030906D0540906E0550906F05609070055F
:1023500070907105809072059090730548E050E090
:1023600068E070E0CE0101960E946B1EA980BA80E1
:10237000CB80DC80ED80FE800F8118859101A20169
:10238000B301C4010E94192209F00CF451C029863E
:102390003A864B865C866D867E868F86988A48E074
:1023A00050E068E070E0CE0101960E946B1E29802B
:1023B0003A804B805C806D807E808F8098842985F8
:1023C0003A854B855C856D857E858F859889510121
:1023D0006201730184010E94192251F148E050E02A
:1023E00068E070E0CE0109960E947B1E29853A853F
:1023F0004B855C856D857E858F8598890E94CE068C
:10240000182F092F9101A201B301C4010E94CE0629
:102410000F931F939F938F9389E892E09F938F93DD
:102420000E94A10B0F900F900F900F900F900F90A4
:102430001092890544CFCF93DF93C091DD04D091F2
:10244000DE0470E060E08AE00E945204FE01E55381
:10245000FF4F1182108241E050E061E170E0CE0157
:10246000DF91CF910C945D09CF93DF93EC010E9433
:102470002D09FE01E553FF4F80E890E091838083B2
:1024800050E040E061E170E0CE010E945D09C75874
:10249000DF4F84EF91E0A0E0B0E088839983AA83C6
:1024A000BB830E94DF056C837D838E839F83DF91D6
:1024B000CF9108958091DD049091DE040C94341244
:1024C0008F929F92AF92BF92CF92DF92EF92FF9244
:1024D0000F931F93CF93DF93CDB7DEB72A970FB635
:1024E000F894DEBF0FBECDBF9A8789874C0185E87F
:1024F000880E911CF40120813181428153816481D5
:10250000758180E7A82E9DE3B92EAAE0CA2EB7E117
:10251000DB2E17E2E12E0DEBF02E00E010E08681BD
:1025200097810E94322129833A834B835C836D8398
:102530007E838F83988709811A8141E050E00832B9
:10254000110514F450E040E06EE070E089859A8552
:102550000E945D0989819A81409741E050E0813570
:10256000910510F450E040E063E670E089859A85BB
:102570000E945D0941E050E00734110514F050E07D
:1025800040E060E170E089859A850E945D09C401A0
:102590000E94430B4C01C984DA84FFEACF0ED11CA0
:1025A000F6018081918188169906C9F0E985FA853E
:1025B000E654FF4F1082F1E08F16910409F44FC0EA
:1025C00008F444C092E08916910409F46EC0E3E077
:1025D0008E16910409F46CC0F601918280820E94EB
:1025E000A903E985FA85EA58FF4F81117CC00031C3
:1025F00011050CF078C0A985BA85A35ABF4F8D91FB
:102600009C91019709F46FC0808181116DC089850B
:102610009A850E94341289859A8582599F4F9A83A0
:10262000898381E0E981FA81808780E395E7A0E0F2
:10263000B0E080839183A283B3830E94DF05E981A8
:10264000FA8164837583868397834EC041E050E0AE
:1026500061E170E089859A850E945D09BDCFBB2448
:10266000B394E985FA85EF54FF4FB08250E040E023
:1026700061E170E089859A850E945D09E984FA84A8
:10268000F2EBEF0EF11CF701B08680ED97E0A0E0D1
:10269000B0E080839183A283B3830E94DF05F701BA
:1026A000648375838683978397CF50E040E0D0CFD3
:1026B000BB24B394E985FA85EF54FF4FB08250E014
:1026C00040E061E170E089859A850E945D09E984B6
:1026D000FA84F2EBEF0EF11CF701B08688EC90E083
:1026E000A0E0B0E0D6CF10822A960FB6F894DEBFF5
:1026F0000FBECDBFDF91CF911F910F91FF90EF9053
:10270000DF90CF90BF90AF909F908F9008958F9261
:102710009F92AF92BF92CF92DF92EF92FF920F9370
:102720001F938091D3049091D404019711F40E94D7
:10273000A10E80913C0590913D05892B09F06CC05C
:1027400085E295E00E94CC0A7C0180913B058823BC
:10275000B1F00E94DF058090370590903805A09079
:102760003905B0903A05681979098A099B096037DB
:1027700077418105910508F44FC010923B05B701E0
:1027800090E080E00E94401F6B017C01E0913505E4
:10279000F0913605EE0FFF1FE05BFE4F6081718107
:1027A00090E080E00E94401F4B015C012AE939E97A
:1027B00049E55FE30E94F71F9B01AC01C701B60129
:1027C0000E94931E87FD10C023E333E343E95FE3D8
:1027D000C501B4010E94F71F9B01AC01C701B601FE
:1027E0000E94F21F1816C4F482E090E090933D0519
:1027F00080933C0580E191E090933F0580933E05F6
:1028000080E091E09093410580934005109242054D
:102810008FED94E00E94270A80913C0590913D0540
:10282000029721F08FED94E00E94990980913C0578
:1028300090913D05019709F092C00E94A903811172
:1028400025C0209164053091650540916605509141
:102850006705609168057091690510E7A12E0DE389
:10286000B02E8AE0C82E97E1D92EE7E2EE2EFDEBDE
:10287000FF2E00E010E080916A0590916B050E94A8
:102880003221490189E088169104ECF010923D054F
:1028900010923C0510924305109244051092450594
:1028A0001092460570E060E08AE00E9452041092A7
:1028B000AB051092AA058FED94E00E94A50A109234
:1028C0008F0510928E0580913C0590913D050197F2
:1028D00021F08FED94E00E94601281EE94E00E945E
:1028E000A90882EF94E00E94A90883E095E00E9485
:1028F000A9088091430590914405A0914505B091A8
:102900004605892B8A2B8B2B21F083E495E00E94CE
:102910006F088DE495E00E94F3088091580590912E
:102920005905A0915A05B0915B05892B8A2B8B2BF9
:1029300021F088E595E00E946F0881E995E00E940A
:10294000F3088CEA95E01F910F91FF90EF90DF90D4
:10295000CF90BF90AF909F908F900C94F3082091F0
:102960006405309165054091660550916705609159
:1029700068057091690580E7A82E9DE3B92EEAE00D
:10298000CE2EF7E1DF2EA7E2EA2EBDEBFB2E00E014
:1029900010E080916A0590916B050E9432214901F7
:1029A00029E0821691040CF094CF0E94A9038111B2
:1029B0008ACF109255051092990581E090E090938E
:1029C0003D0580933C0588E191E090933F0580931D
:1029D0003E0588E091E09093410580934005109278
:1029E00042058FED94E00E94270A6DCFCF92DF92CF
:1029F000EF92FF920F931F93CF93DF93EC010E940E
:102A00008E0A0E942D098E0105531F4F80E890E029
:102A1000F801918380830E94DF056B017C0188E0CF
:102A20000E948003892B01F50E94DF056C197D0946
:102A30008E099F09693E73408105910580F3CE019F
:102A40000E94A50A70E060E08AE00E945204F8014A
:102A50001182108281E0DF91CF911F910F91FF9041
:102A6000EF90DF90CF900895CE010E94A50A70E00C
:102A700060E08AE00E945204F801118210828E0107
:102A8000035A1F4FF80180819181029719F0CE01FE
:102A90000E949909F80180819181019719F0CE0176
:102AA0000E94601280E0D7CFCF92DF92EF92FF9228
:102AB0000F931F93CF93DF93EC01FC01ED57FF4F72
:102AC000718360838A5A9F4F6C01E85BFF4F7F01DF
:102AD0008E01035A1F4F6130710519F06330710583
:102AE00059F50E943209F60160817181CE010E9480
:102AF000C80970E060E08AE00E945204F701118288
:102B00001082F80180819181029719F0CE010E9414
:102B10009909F80180819181019719F0CE010E94F5
:102B20006012CE01DF91CF911F910F91FF90EF9036
:102B3000DF90CF900C94E60B60E08AE00E941604D0
:102B400060E082E60E943409F60111821082F801E9
:102B500011821082FE01EC59FF4F10821182128205
:102B6000138270E060E08AE00E945204F701118253
:102B70001082CE010E94A50A8E0101551F4FF80157
:102B800011821082CE010E94A50AF80111821082E2
:102B90003B961082E454F1091082C3CF8091DD048A
:102BA0009091DE04FC01ED57FF4F2081318121150A
:102BB000310519F02230310521F463E070E00C9406
:102BC00054150895CF93DF93C091DD04D091DE04B6
:102BD000FE01ED57FF4F808191818130910529F0F1
:102BE000039779F0DF91CF910895CE010E94F614FA
:102BF00070E060E08823B1F3CE01DF91CF910C94B7
:102C00005415CE010E94F614882361F362E070E04F
:102C1000F3CF1F920F920FB60F9211242F933F9371
:102C20004F935F936F937F938F939F93AF93BF93D4
:102C3000EF93FF938EE294E00E949002FF91EF9158
:102C4000BF91AF919F918F917F916F915F914F91C4
:102C50003F912F910F900FBE0F901F9018951F92CC
:102C60000F920FB60F9211242F938F939F93EF9390
:102C7000FF93E0913E04F0913F048081E091440491
:102C8000F091450482FD1BC09081809147048F5FC5
:102C90008F7320914804821741F0E0914704F0E0DF
:102CA000E25DFB4F958F80934704FF91EF919F91D9
:102CB0008F912F910F900FBE0F901F9018958081CC
:102CC000F4CF1F920F920FB60F9211242F933F93C0
:102CD0008F939F93AF93BF9380910F0490911004B3
:102CE000A0911104B091120430910E0426E0230F3C
:102CF0002D3758F50296A11DB11D20930E04809327
:102D00000F0490931004A0931104B09312048091C7
:102D1000130490911404A0911504B0911604019627
:102D2000A11DB11D8093130490931404A093150466
:102D3000B0931604BF91AF919F918F913F912F91C6
:102D40000F900FBE0F901F90189529E8230F039640
:102D5000A11DB11DD2CF1F920F920FB60F92112459
:102D60008F930FB6F894A895809160008861809346
:102D70006000109260000FBE8F910F900FBE0F90F9
:102D80001F9018951F920F920FB60F9211242F9338
:102D90003F934F935F936F937F938F939F93AF93E3
:102DA000BF93EF93FF938091CF049091D004892B30
:102DB000C9F087E00E9480032091CB043091CC04BD
:102DC0008217930779F09093CC048093CB04809181
:102DD000CF049091D004DC01ED91FC910190F08141
:102DE000E02D09958091D1049091D204892BC9F0EE
:102DF00085E00E9480032091CD043091CE0482179B
:102E0000930779F09093CE048093CD048091D10400
:102E10009091D204DC01ED91FC910190F081E02DC4
:102E20000995FF91EF91BF91AF919F918F917F9104
:102E30006F915F914F913F912F910F900FBE0F9027
:102E40001F9018950F931F93CF93DF93EEE2F4E05A
:102E50001382128288EE93E0A0E0B0E08483958331
:102E6000A683B7832AE531E03183208325EC30E067
:102E70003587248724EC30E03787268720EC30E044
:102E8000318B208B21EC30E0338B228B22EC30E035
:102E9000358B248B26EC30E0378B268B118E128EEF
:102EA000138E148EEBECF4E01582148217821682D6
:102EB000128613861486158616861786108A118A3E
:102EC000CFEDD4E022E731E03983288324E030E0FD
:102ED0003B832A838C839D83AE83BF8326E13AE0C4
:102EE000398728871B861A8601E010E01D870C872A
:102EF0001E861F86188A198A21E02A8B49E050E035
:102F00005C8B4B8B8D8B9E8BAF8BB88F44E05AE0E4
:102F10005A8F498F1C8E1B8E1E8F0D8F1F8E18A2ED
:102F200019A21AA22BA348E050E05DA34CA342E3F0
:102F300050E060E070E04EA35FA368A779A742EE7F
:102F400055E15BA74AA71DA61CA61FA70EA718AA96
:102F500019AA1AAA1BAA2CAB47E050E05EAB4DABF6
:102F60008FAB98AFA9AFBAAF4EEC55E15CAF4BAFAA
:102F70001EAE1DAE10931F0500931E051092200576
:102F8000109221051092220510922305209324050A
:102F90002CE631E0309326052093250525E020938B
:102FA00027058093280590932905A0932A05B093BF
:102FB0002B0583E080932C0561E00E94160410929B
:102FC00036051092350510923B0510923D05109282
:102FD0003C0510923F0510923E051092410510925B
:102FE0004005109243051092440510924505109239
:102FF000460588E89AE090934C0580934B05109223
:1030000055058AE592E190935705809356051092F5
:1030100058051092590510925A0510925B058BE1E4
:1030200092E190936105809360050E94EB05E4E6D0
:10303000F5E01082118212821382148215821682A8
:10304000178210928F0510928E051092990588E8CC
:1030500099E090939B0580939A051092AB0510928E
:10306000AA051092B4058FEA9DE09093B60580936F
:10307000B505D093DE04C093DD0410939D05009345
:103080009C0510939F0500939E051093A105009346
:10309000A0051093A3050093A2051093A505009326
:1030A000A4051093A7050093A6051093A905009306
:1030B000A805DF91CF911F910F910895CF93DF93D2
:1030C000CDB7DEB760970FB6F894DEBF0FBECDBFA9
:1030D000789484B5826084BD84B5816084BD85B5F3
:1030E000826085BD85B5816085BD80916E008160FF
:1030F00080936E00109281008091810082608093A5
:1031000081008091810081608093810080918000A6
:103110008160809380008091B10084608093B100D1
:103120008091B00081608093B00080917A008460CB
:1031300080937A0080917A00826080937A008091F7
:103140007A008E7F80937A0080917A0080688093E5
:103150007A001092C10014B7C12ED12C14BE0FB644
:10316000F894A89580916000886180936000109227
:1031700060000FBE81E090E00E94AF0562E084E055
:103180000E94160462E089E00E94160462E088E072
:103190000E94160462E087E00E94160461E083E06A
:1031A0000E94160460E085E00E941604269A60E002
:1031B00085E10E94160460E084E10E94160460E04C
:1031C0008FE00E94160461E086E00E94160462E02F
:1031D00080E00E94160461E08AE00E94160461E02B
:1031E0008EE00E941604279A61E080E10E94160496
:1031F00061E081E10E94160461E082E10E94160410
:1032000061E083E10E94160461E082E00E941604FE
:103210000E94320970E060E083E00E94520461E0A5
:103220008EE00E94E80361E083E60E94340961E0D9
:1032300080E10E94E80361E081E10E94E80361E02F
:1032400082E10E94E80361E083E10E94E80361E01B
:1032500082E00E94E80370E060E08AE00E9452048D
:1032600070E060E08AE00E94520481E00E941B0846
:103270001F921F938CE992E09F938F9385EA92E0CF
:103280009F938F9381EB92E09F938F938AEC92E0D0
:103290009F938F930E94A10B0FB6F894DEBF0FBED1
:1032A000CDBF7EE1E72EF12C8EE294E00E94620217
:1032B0008F7D8435910561F48EE294E00E94620274
:1032C000019609F4D4C48EE294E00E944E02F4CF39
:1032D00064E670E080E090E00E947D05F1E0EF1A86
:1032E000F10811F786EE90E00E947E0B10922D04FB
:1032F0000E943A0380E00E941B0882EC90E00E944A
:103300007E0B13FF90C00BE010E001501109A9F0F3
:103310008FED94E00E948E0A64E670E080E090E019
:103320000E947D058FED94E00E94A50A64E670E09E
:1033300080E090E00E947D05E8CF0E94A90303E0B1
:1033400010E0811102C001E010E085E295E00E94EA
:10335000260B70E060E08FED94E00E94C80988E1E0
:103360009FE00FB6F894A895809360000FBE9093ED
:1033700060008FED94E09093D0048093CF040E947E
:10338000B203B8018FED94E00E94541581E0809360
:10339000B40580E197E2A0E0B0E08093AC059093A3
:1033A000AD05A093AE05B093AF050E94DF05609315
:1033B000B0057093B1058093B2059093B305109258
:1033C0001804412C64E0562E612C712C8091180455
:1033D000882309F44CC387EB93E00E947E0B8EE2B6
:1033E00094E00E9462028A30910509F442C08D3057
:1033F000910509F43EC0019691F38EE294E00E949B
:103400004E028C0164E670E080E090E00E947D0551
:103410008EE294E00E946202019681F18EE294E0D5
:103420000E944E02F5CFCD28D9F406E010E00150FD
:10343000110909F482CF8FED94E00E948E0A6CE2AC
:1034400071E080E090E00E947D058FED94E00E94A5
:10345000A50A6CE271E080E090E00E947D05E7CF74
:103460000E94A90302E010E081116FCF10E000E09C
:103470006CCF8EE294E00E944E02B1CF86EB93E0D7
:103480000E947E0B0533110509F466C20CF06BC077
:103490000233110509F474C18CF40133110509F4E8
:1034A00019C11F930F938BE493E09F938F930E9416
:1034B000A10B0F900F900F900F9055C10333110582
:1034C00009F40AC20433110561F780E492E00E9416
:1034D0007E0B81E090E00E9448098EE392E00E941A
:1034E000640804E110E088E00E94800361E070E07D
:1034F000892B11F470E060E08EE090E00E944609B4
:1035000087E00E94800361E070E0892B11F470E095
:1035100060E080E190E00E94460989E00E9480031B
:1035200061E070E0892B11F470E060E082E190E0EE
:103530000E94460984E00E94800361E070E0892BCC
:1035400011F470E060E082E090E00E94460982E3BE
:1035500090E00E947506882309F4F7C10150110913
:1035600009F0C1CFBACF0833110509F460C20CF0DD
:10357000A6C00633110509F418C20733110509F076
:1035800090CF82E793E00E947E0B8EE493E00E944E
:103590007E0B83E193E00E947E0B80ED92E00E941F
:1035A0007E0BF9E4EF2EF1E0FF2EF70101917F0190
:1035B00010E070E060E0C8010E94460964EF71E02D
:1035C00080E090E00E947D0561E070E0C8010E940B
:1035D000460964EF71E080E090E00E947D05F0E52F
:1035E000EF16F1E0FF0609F70E943A0362E080E07F
:1035F0000E94160481E090E00E94480960E0F12CEE
:10360000E12CAA24A394B62EBA2470E081E190E0C4
:103610000E94460962E370E080E090E00E947D0530
:1036200080E00E9480038C01CC24C394D12C892B90
:1036300011F4D12CC12CB6018EE090E00E94460915
:10364000B60182E090E00E9446090115110509F0DB
:10365000870178012FEFE21AF20A6B2D80E5E81658
:10366000F10489F681E090E00E94480970E5E72EB8
:1036700071E0F72EF70102917F0110E070E060E049
:10368000C8010E94460964EF71E080E090E00E946A
:103690007D0561E070E0C8010E94460964EF71E0B9
:1036A00080E090E00E947D05F9E4EF16F1E0FF066E
:1036B00009F781E00E941B0884EB92E052C00235BA
:1036C000110521F00237110509F0EBCEF0E0E0E042
:1036D000099549C080EE91E00E947E0B50E5E52EF1
:1036E00051E0F52E09E411E0F801C1908F01D12CD1
:1036F00070E060E0C6010E9446098EED91E00E94F4
:10370000640888EE93E00E947506882321F161E049
:1037100070E0C6010E944609E016F10629F790E024
:1037200080E00E9448098CED91E00E94640880EDE1
:1037300097E00E947506882371F081E090E00E9476
:1037400048098AED91E00E94640888EE93E00E94A7
:1037500075068111C7CF81E090E00E94480989EC8D
:1037600091E00E947E0B80E090E0892B09F42ECE40
:103770000E947C02882309F429CE0E94000026CEF4
:103780008DEF91E00E947E0B8CE691E09A83898315
:1037900085E08B8384E690E0A0E0B0E08C839D839D
:1037A000AE83BF8383E0888761E00E941604CE0168
:1037B00001960E94260BCE0101960E94CC0A32E4AB
:1037C000832E31E0932E4BEFA42E42E0B42E0E94C4
:1037D00032090CE311E026E3C22E21E0D22EF801DB
:1037E000F080E1800E5F1F4F6F2DF4E6FF1508F4A7
:1037F00064E670E090E080E00E94421F23E333E340
:1038000043E250E40E94F71F0E940A1F88850E942D
:103810005204F60180819181F2E0CF0ED11CEF922B
:10382000FF929F938F93BF92AF920E94A10B0F9034
:103830000F900F900F900F900F9098E0E92EF12CC1
:1038400088EE93E00E9475068823C9F1CE010196A7
:103850000E94CC0A382E292E0E949F069F938F9398
:103860007F936F932F923F9283E193E09F938F9387
:103870000E94A10BF1E0EF1AF1080FB6F894DEBF39
:103880000FBECDBFE9F68016910609F0A8CF60E023
:1038900082E60E94340908E010E08BEF91E00E947C
:1038A000640888EE93E00E947506882341F0015079
:1038B000110999F78AEF91E00E947E0B88CF109250
:1038C000D2041092D1040E94B20360E082E60E940A
:1038D000340989EE91E045CF8DE192E00E947E0BA4
:1038E00060E870E08AE00E9452040CE010E085E09D
:1038F000E82EF12C8BE192E00E94640888EE93E0C0
:103900000E9475068823C9F091E0E91AF10891F741
:103910000E949F069F938F937F936F93ECE2F3E057
:10392000FF93EF930E94A10B015011090F900F908C
:103930000F900F900F900F90D1F670E060E08AE04A
:103940000E94520486E092E00CCF81E090E00E9459
:1039500048098AE292E005CF8BE692E00E947E0B56
:103960000CE313E08FE00E94AF0428E833E1DC01B0
:103970000E949720A30192010E9478205F934F93A9
:103980003F932F931F930F930E94A10B88EE93E018
:103990000E9475060F900F900F900F900F900F9050
:1039A0008111E0CF8CE492E0DCCE8FE992E00E94BE
:1039B0007E0BBCE38B2EB3E09B2E85E10E94AF040F
:1039C0009C01932F990F990BA9ECAA2EB8E7BB2E57
:1039D0001FEBC12EDD24D394E12CF12C00E010E08C
:1039E000492F592F692F792F892F0E949E20E0E4BB
:1039F000AE2EF2E4BF2EAFE0CA2ED12C0E943221AF
:103A00005F934F933F932F939F928F920E94A10BAE
:103A100088EE93E00E9475060F900F900F900F9024
:103A20000F900F908111C9CF82E892E09ACE82EA7E
:103A300093E00E947E0B88EE93E00E947506882337
:103A400099F00E949F069F938F937F936F938EE2CE
:103A500093E09F938F930E94A10B0F900F900F9074
:103A60000F900F900F90E7CF86E893E07ACEA8955D
:103A700085E10E94AF049C01932F990F990B49ECAB
:103A8000A42E58E7B52E6FEBC62EDD24D394E12C7F
:103A9000F12C00E010E0492F592F692F792F892F41
:103AA0000E949E202F3F374C4741584A6440710581
:103AB0008105910511F00CF056C08091620590913E
:103AC00063058130910509F045C009E411E080E803
:103AD000E82EF12C8FED94E00E94A50AF801629186
:103AE0008F0170E050E040E08FED94E00E945D09AE
:103AF0000E942D09F092AB05E092AA0566E970E0FC
:103B000080E090E00E947D0570E060E08AE00E9425
:103B100052041092AB051092AA0564E670E080E0B2
:103B200090E00E947D05F1E002341F0799F68FEDC9
:103B300094E00E94A50A809162059091630570E06F
:103B400060E0019711F062E070E08FED94E00E9478
:103B5000541509C0039739F484E695E00E94430B9D
:103B6000039709F4B2CF809162059091630581308B
:103B7000910589F0F0F08230910509F455C0039762
:103B800009F0F1CD0E9487130E94A9038111EBCDAA
:103B900061E070E009C00E9487130E94A90363E0FE
:103BA00070E0882309F4DFCD8FED94E00E94541576
:103BB000DACD90E080E00E94AF0521E030E050E0F7
:103BC00040E066E070E087E194E00E942706A89557
:103BD0000E94A903882369F081E090E00E94AF056C
:103BE00062E070E08FED94E00E9454150E94EB05B6
:103BF000BACD0E94DF056B017C0187E00E94800343
:103C0000892BD9F60E94DF056C197D098E099F0961
:103C10006E3771058105910580F381E090E00E9487
:103C2000AF0561E070E0DECF8091D3049091D404C1
:103C3000019711F40E94A10E8FED94E00E94601292
:103C40000E94A903811106C070E060E08FED94E04E
:103C50000E94541584E195E00E94A9088CEA95E041
:103C60000E94F30881E995E00E94F3087CCD81E091
:103C70008093180460E082E60E94340984EB91E0AE
:103C80000E947E0B86EA91E00E947E0B89E991E01A
:103C90000E947E0B8CE891E00E947E0B8BE791E006
:103CA0000E947E0B8BE691E00E947E0B80E591E006
:103CB0000E947E0B87E391E00E947E0B8FE191E0F2
:103CC0000E947E0B87E091E00E947E0B8DEF90E0DA
:103CD0000E947E0B76CBDC01CB01FC01F999FECF73
:103CE00006C0F2BDE1BDF89A319600B40D92415084
:103CF0005040B8F70895DC01CB0103C02D910E941C
:103D0000861E41505040D0F70895262FF999FECFD6
:103D10001FBA92BD81BD20BD0FB6F894FA9AF99AE8
:103D20000FBE019608950E947D1F08F481E008955A
:103D30000E94AC1E0C94B81F0E94B11F58F00E9444
:103D4000AA1F40F029F45F3F29F00C94A11F5111E4
:103D50000C94EC1F0C94A71F0E94C91F68F39923B1
:103D6000B1F3552391F3951B550BBB27AA27621777
:103D70007307840738F09F5F5F4F220F331F441F84
:103D8000AA1FA9F335D00E2E3AF0E0E832D09150B8
:103D90005040E695001CCAF72BD0FE2F29D0660FA5
:103DA000771F881FBB1F261737074807AB07B0E8E8
:103DB00009F0BB0B802DBF01FF2793585F4F3AF0EE
:103DC0009E3F510578F00C94A11F0C94EC1F5F3FAF
:103DD000E4F3983ED4F3869577956795B795F79574
:103DE0009F5FC9F7880F911D9695879597F908955C
:103DF000E1E0660F771F881FBB1F621773078407F8
:103E0000BA0720F0621B730B840BBA0BEE1F88F706
:103E1000E09508950E94111F6894B1110C94EC1F55
:103E200008950E94D11F88F09F5798F0B92F9927C5
:103E3000B751B0F0E1F0660F771F881F991F1AF095
:103E4000BA95C9F714C0B13091F00E94EB1FB1E0F0
:103E500008950C94EB1F672F782F8827B85F39F0EF
:103E6000B93FCCF3869577956795B395D9F73EF42E
:103E700090958095709561957F4F8F4F9F4F0895D6
:103E8000E89409C097FB3EF49095809570956195F4
:103E90007F4F8F4F9F4F9923A9F0F92F96E9BB27AA
:103EA0009395F695879577956795B795F111F8CF26
:103EB000FAF4BB0F11F460FF1BC06F5F7F4F8F4F91
:103EC0009F4F16C0882311F096E911C0772321F087
:103ED0009EE8872F762F05C0662371F096E8862F1F
:103EE00070E060E02AF09A95660F771F881FDAF776
:103EF000880F9695879597F90895990F0008550FA3
:103F0000AA0BE0E8FEEF16161706E807F907C0F05F
:103F100012161306E407F50798F0621B730B840B67
:103F2000950B39F40A2661F0232B242B252B21F441
:103F300008950A2609F4A140A6958FEF811D811DE1
:103F4000089597F99F6780E870E060E008959FEF1B
:103F500080EC089500240A94161617061806090620
:103F6000089500240A9412161306140605060895EF
:103F7000092E0394000C11F4882352F0BB0F40F477
:103F8000BF2B11F460FF04C06F5F7F4F8F4F9F4FB7
:103F9000089557FD9058440F551F59F05F3F71F039
:103FA0004795880F97FB991F61F09F3F79F08795A0
:103FB0000895121613061406551FF2CF4695F1DF29
:103FC00008C0161617061806991FF1CF86957105B9
:103FD000610508940895E894BB2766277727CB01ED
:103FE00097F908950E947D1F08F48FEF08950E94AD
:103FF0000A200C94B81F0E94AA1F38F00E94B11F1B
:1040000020F0952311F00C94A11F0C94A71F1124EC
:104010000C94EC1F0E94C91F70F3959FC1F3950F7C
:1040200050E0551F629FF001729FBB27F00DB11D3C
:10403000639FAA27F00DB11DAA1F649F6627B00DCC
:10404000A11D661F829F2227B00DA11D621F739FB5
:10405000B00DA11D621F839FA00D611D221F749FC3
:104060003327A00D611D231F849F600D211D822F0A
:10407000762F6A2F11249F5750409AF0F1F0882331
:104080004AF0EE0FFF1FBB1F661F771F881F91505E
:104090005040A9F79E3F510580F00C94A11F0C944D
:1040A000EC1F5F3FE4F3983ED4F3869577956795D0
:1040B000B795F795E7959F5FC1F7FE2B880F911D88
:1040C0009695879597F9089597FB072E16F4009417
:1040D00007D077FD09D00E942E2207FC05D03EF4C0
:1040E000909581959F4F0895709561957F4F0895A4
:1040F000052E97FB1EF400940E948F2057FD07D0D9
:104100000E94422207FC03D04EF40C948F2050955D
:104110004095309521953F4F4F4F5F4F08959095B3
:104120008095709561957F4F8F4F9F4F08950E94A6
:104130006A22B7FF0895821B930B0895DF93CF93F4
:104140001F930F939A9DF02D219FF00D8B9DF00DE5
:104150008A9DE02DF10D039FF00D029FE00DF11DF2
:104160004E9DE00DF11D5E9DF00D4F9DF00D7F9376
:104170006F93BF92AF925F934F93D5010E946A22D3
:104180008B01AC01D7010E946A22EB01E80FF91FF5
:10419000D6010E94ED202F913F91D6010E946A2204
:1041A000C60FD71FE81FF91FAF91BF910E94ED20E6
:1041B0002F913F910E946A22C60FD71FE81FF91F57
:1041C000D6010E946A22E60FF71F9801BE01CF01B7
:1041D0000F911F91CF91DF9108950E946A22460F9F
:1041E000571FC81FD91F08F43196089597FB57FF32
:1041F0000C9406219F938F930E9406216E1B7F0BC8
:10420000AF91BF918A0B9B0B0895E894DF93CF93F6
:10421000FC01DB010E946A227F936F93E9019A01FE
:10422000AC01BF93AF933F932F93DF010E946A22AB
:1042300026F46C1B7D0B820B930B9E01EB01FC01A2
:104240000E94ED20AF91BF912F913F910E94ED20F0
:10425000BE01CF01F9012F913F91CF91DF910895D8
:10426000689401C0E894F92FF12B12F00C946421AA
:10427000A0E0B0E0EEE3F1E20C94D621092E059423
:1042800022F40E94C021112392F4F0E80F26FFEFE0
:10429000E094F09400951095B094C094D094A194BB
:1042A000BF0ACF0ADF0AEF0AFF0A0F0B1F0B0E949B
:1042B0006F2107FC0E94C021CDB7DEB7ECE00C9463
:1042C000F221689401C0E8948F929F92CF93DF937C
:1042D0000E946F21DF91CF919F908F900895882445
:1042E0009924F401E401B0E49F93AA279A158B0462
:1042F0009C04ED05FE05CF05D007A10798F4AD2F6E
:10430000DC2FCF2FFE2FE92D982C892E982F872F69
:10431000762F652F542F432F322F2227B85031F795
:10432000BF9127C01B2EBF91BB27220F331F441FF5
:10433000551F661F771F881F991F881C991CEE1F29
:10434000FF1FCC1FDD1FAA1FBB1F8A149B04EC0597
:10435000FD05CE05DF05A007B10748F08A189B08C8
:10436000EC09FD09CE09DF09A00BB10B21601A94FD
:10437000E1F62EF49401AF01BE01CD01000C0895C9
:1043800060957095809590953095409550952195C4
:104390003F4F4F4F5F4F6F4F7F4F8F4F9F4F08954E
:1043A0002F923F924F925F926F927F928F929F9245
:1043B000AF92BF92CF92DF92EF92FF920F931F9333
:1043C000CF93DF93CDB7DEB7CA1BDB0B0FB6F894E4
:1043D000DEBF0FBECDBF09942A88398848885F8424
:1043E0006E847D848C849B84AA84B984C884DF8095
:1043F000EE80FD800C811B81AA81B981CE0FD11D79
:104400000FB6F894DEBF0FBECDBFED0108952A0DA3
:104410003B1D4C1D5D1D6E1D7F1D801F911F08954E
:104420002A193B094C095D096E097F09800B910B24
:1044300008952A153B054C055D056E057F0580072F
:10444000910708950024A7FD00942A173005400520
:10445000500560057005800590050895AA1BBB1BDB
:1044600051E107C0AA1FBB1FA617B70710F0A61B74
:10447000B70B881F991F5A95A9F780959095BC0195
:10448000CD010895A1E21A2EAA1BBB1BFD010DC090
:10449000AA1FBB1FEE1FFF1FA217B307E407F507F4
:1044A00020F0A21BB30BE40BF50B661F771F881FD0
:1044B000991F1A9469F760957095809590959B0166
:1044C000AC01BD01CF010895EE0FFF1F0590F491DF
:1044D000E02D0994A29FB001B39FC001A39F700D6E
:1044E000811D1124911DB29F700D811D1124911DFC
:1044F0000895AEE0B0E0EFE7F2E20C94DE218C012B
:10450000FA0186E08C831A83098377FF02C060E09A
:1045100070E8615071097E836D83A901BF01CE01EE
:1045200001960E94A5224D815E8157FD0AC02F8110
:104530003885421753070CF49A01020F131FF80134
:1045400010822E96E4E00C94FA21ABE0B0E0EBEAA6
:10455000F2E20C94D0217C013B018A01FC0117821C
:104560001682838181FFC8C1CE0101965C01F701EB
:104570009381F30193FD859193FF81913F018823FE
:1045800009F453C1853239F493FD859193FF8191EC
:104590003F01853229F4B70190E00E949524E7CFCE
:1045A000912C212C312CFFE1F31538F08B3211F1D5
:1045B00090F4803209F1833229F137FC3CC020EDC0
:1045C000280F2A3050F536FE20C08AE0989E200D34
:1045D0001124922E06C08D3291F0803371F76894C9
:1045E00030F8F30193FD859193FF81913F01811193
:1045F000DACF21C0689431F8689432F8F2CF689429
:1046000033F8EFCF689434F8ECCFEAE02E9E200D1B
:104610001124222E689435F8E4CF8E3229F436FC2A
:1046200004C1689436F8DDCF8C3619F4689437F8F5
:10463000D8CF8836B1F2982F9F7D95549330E0F013
:104640008336A1F18337C1F1833509F063C02801B6
:10465000F2E04F0E511CF801C080D180692D70E04E
:1046600036FC02C06FEF7FEFC6010E947F244C0131
:10467000689437F882010AC00C5F1F4FFFE3F9838B
:1046800088248394912C6501E89437F833FE2DC07B
:10469000522C8114910471F5552009F468CFB701AB
:1046A00080E290E00E9495245A94F6CFF801808130
:1046B00089830E5F1F4FE4CF2801F2E04F0E511C9B
:1046C000F801C080D180692D70E036FC02C06FEF28
:1046D0007FEFC6010E948A244C018201D5CFB70129
:1046E00080E290E00E9495242A942814190409F08D
:1046F000B0F7CECFF60137FC859137FE81916F017F
:10470000B70190E00E94952451105A94F1E08F1A5D
:104710009108BFCF843619F0893609F077C0F801C7
:1047200037FE6BC060817181828193810C5F1F4F66
:10473000F32DFF763F2E97FF09C0909580957095D9
:1047400061957F4F8F4F9F4F689437F82AE030E094
:10475000A5010E94C524C82ECA188C2C432C36FEF5
:104760000CC0E89440F8C91440F434FE05C032FC93
:1047700003C0F32DFE7E4F2E892C44FE95C0FE0112
:10478000EC0DF11D8081803309F087C0242D297E36
:10479000422E842D8870582E43FC95C040FE8FC059
:1047A0009C2C821418F42C0C922C981844FE91C066
:1047B000B70180E390E00E94952442FE09C088E79B
:1047C00090E041FE02C088E590E0B7010E94952488
:1047D000C91408F48AC0CA94D12C9FEFC91AD90A07
:1047E000CA0CDB1CF60182916F01B70190E00E94B8
:1047F0009524AC14BD04B1F74FCF60817181072EB1
:10480000000C880B990B0E5F1F4F92CFD32CE894AE
:10481000D4F82AE030E0853739F1232D297FD22ED4
:104820008F3601F148F48835A9F0F7018681978128
:104830002B96E2E10C94EC21803749F08837A9F7F8
:10484000D4FE02C06894D2F820E130E00DC0689434
:10485000D4F8F6CF34FE03C0822F8660D82E20E134
:1048600032E002C028E030E0F801D7FE0FC06081DE
:104870007181828193810C5F1F4FA5010E94C52425
:10488000C82ECA183D2CE89437F867CF6081718133
:1048900090E080E00E5F1F4FF0CF42FC02C0839497
:1048A00078CF8394839475CF842D867809F471CF63
:1048B000F6CFB70180E290E00E94952483948214A1
:1048C000C0F3512C73CF522C5818821408F46ECFB9
:1048D000F8CF842D867809F47BCF8BE241FE80E20D
:1048E00047FC8DE2B70190E071CFB70180E390E023
:1048F0000E9495249A946CCF8FEF9FEF99CFFC0183
:104900000590615070400110D8F7809590958E0FFA
:104910009F1F0895FC016150704001900110D8F76D
:10492000809590958E0F9F1F08950F931F93CF939F
:10493000DF93182F092FEB018B8181FD09C01FEF39
:104940000FEF812F902FDF91CF911F910F9108953D
:1049500082FF14C02E813F818C819D8128173907E9
:104960003CF4E881F981CF01019699838883108313
:104970008E819F8101969F838E83E3CFE885F985A1
:10498000812F0995892BA1F3DACFFA01AA272830C4
:1049900051F1203181F1E8946F936E7F6E5F7F4F0C
:1049A0008F4F9F4FAF4FB1E03ED0B4E03CD0670F88
:1049B000781F891F9A1FA11D680F791F8A1F911DDB
:1049C000A11D6A0F711D811D911DA11D20D009F42B
:1049D00068943F912AE0269F11243019305D31936D
:1049E000DEF6CF010895462F4770405D4193B3E056
:1049F0000FD0C9F7F6CF462F4F70405D4A3318F0FD
:104A0000495D31FD4052419302D0A9F7EACFB4E0AD
:104A1000A6959795879577956795BA95C9F7009765
:104A20006105710508959B01AC010A2E0694579506
:104A3000479537952795BA95C9F7620F731F841F5D
:0A4A4000951FA01D0895F894FFCF04
:104A4A00C8000000C8000000E8030000E8030000F6
:104A5A00120013000200FFFF0E001100FFFF6003A7
:104A6A00640367036E0360036A0374037803E6034F
:104A7A00C803AA038C037C038003870346005600FD
:104A8A0064000E6310111213020E63101112130246
:104A9A005753705F556600000000B20212023F02CF
:104AAA001A0370024E02620200000000BC0A0000F3
:104ABA00000097084E4F20425546464552003000A6
:104ACA000D0A0025642025642025642025642025FC
:104ADA006400626C756500616D626572006772657B
:104AEA00656E0079656C6C6F77002D2D2D2D2D2D3F
:104AFA000072656400796573006E6F006261747498
:104B0A000066616E006F6E006F6666006C6F006D06
:104B1A0065640068690053746174652C25732C46BA
:104B2A00616E2C25732C25752C42757A7A65722C48
:104B3A0025732C416C6572742C25732C52656D6932
:104B4A006E6465722C25732C436861726765722CDA
:104B5A0025732C4C4544732C25732C25732C2573F3
:104B6A002C25732C25732C25732C25732C6D696CBD
:104B7A006C69566F6C74732C256C642C6D696C6C43
:104B8A0069416D70732C256C642C436F756C6F6D65
:104B9A0062732C256C642C6368617267652C2564CA
:104BAA0025252C626174742C25730066756C6C4320
:104BBA0068617267654D6963726F566F6C747320B2
:104BCA002573202573202573007772697465206523
:104BDA006570726F6D2025732025730031303A3568
:104BEA00313A303900417072203138203230323255
:104BFA00004169722D746F2D416C6C2050415052E6
:104C0A002052657620332E314100257320257320EA
:104C1A0025732028666C616773202564290D0A5460
:104C2A007970652027742720746F20656E74657209
:104C3A002074657374206D6F64650025732073702A
:104C4A006565642C2064757479206379636C6520CA
:104C5A0025640020202025752052504D2C20256CDB
:104C6A0064206D696C6C69416D7073000D0A256C66
:104C7A0064206D696C6C69416D707300256C6420E9
:104C8A006D696C6C69566F6C747300556E6B6E6FE0
:104C9A00776E20636F6D6D616E6420272563270030
:104CAA004F6666004F6E004F6666436867004F6E38
:104CBA004368670046756C00457272004C6F770056
:0C4CCA004D656469756D004869676800FD
:00000001FF
