:100000000C94E8010C9410020C9410020C94100251
:100010000C9410020C94D9160C94C2160C94100275
:100020000C9410020C9410020C9410020C94100208
:100030000C9410020C9410020C9410020C941002F8
:100040000C9478160C9410020C9446160C942016FE
:100050000C9410020C9410020C9410020C941002D8
:100060000C9410020C9410020000000024002700E1
:100070002A0000000000250028002B0000000000DE
:1000800023002600290004040404040404040202DA
:100090000202020203030303030301020408102007
:1000A0004080010204081020010204081020000012
:1000B0000008000201000003040700000000000027
:1000C00000000D0A0A3C3C3C205374617475732097
:1000D0007265706F7274696E6720656E61626C65BF
:1000E00064203E3E3E000D0A0A3C3C3C204E6F72AE
:1000F0006D616C204D6F6465203E3E3E0072202D88
:100100002052657365740038202D20437572726526
:100110006E742053656E736F72207465737400374C
:10012000202D2043686172676572204465746563A1
:100130007420746573740036202D204261747465D8
:10014000727920566F6C74616765207465737400F2
:1001500035202D20566F6C74616765205265666589
:1001600072656E636520746573740034202D2042BF
:100170007574746F6E20746573740033202D205372
:100180007065616B657220746573740032202D2078
:1001900046616E20746573740031202D204C4544F7
:1001A000207465737400436F6D6D616E64732061BC
:1001B00072653A000D0A0A3C3C3C20546573742079
:1001C0004D6F6465203E3E3E000D0A4C4544205470
:1001D00065737420656E646564002E002E002E0029
:1001E0004C45442054657374000D0A46616E2054DA
:1001F00065737420656E64656400002E0046616E50
:100200002054657374000D0A537065616B6572202C
:100210005465737420656E646564002E00537065C8
:10022000616B65722054657374000D0A42757474B5
:100230006F6E205465737420656E646564002E00D3
:10024000427574746F6E2054657374000D0A566F96
:100250006C74616765205265666572656E636520C2
:100260005465737420656E64656400566F6C7461C8
:100270006765205265666572656E636520546573B7
:1002800074000D0A4261747465727920566F6C7443
:10029000616765205465737420656E64656400420F
:1002A00061747465727920566F6C7461676520544F
:1002B000657374000D0A4368617267657220446556
:1002C00074656374205465737420656E646564009E
:1002D0005768656E20796F75206172652066696E5A
:1002E00069736865642074657374696E672C207027
:1002F0006C656173652072652D636F6E6E656374E6
:10030000207468652073657269616C206361626C3A
:10031000652E0054686520746573742077696C6C71
:1003200020626567696E207768656E207468652055
:100330006F72616E6765204C4544207374617274FE
:100340007320666C69636B6572696E672E00506C12
:100350006561736520646973636F6E6E6563742095
:100360007468652073657269616C206361626C6595
:100370002E0043686172676572204465746563741A
:100380002054657374000D0A43757272656E742093
:1003900053656E736F72205465737420656E646567
:1003A000640043757272656E742053656E736F726C
:1003B000205465737400000D0A456E7465722054F4
:1003C00065737420436F6D6D616E643A0000391778
:1003D00011241FBECFEFD8E0DEBFCDBF13E0A0E0F9
:1003E000B1E0ECE5FAE402C005900D92A639B10740
:1003F000D9F725E0A6E9B3E001C01D92A13CB20700
:10040000E1F711E0C8EED1E004C02197FE010E949F
:100410006D22C73ED107C9F70E9475180C942C2590
:100420000C94000088E19FE00FB6F894A8958093A3
:1004300060000FBE909360000895AF92BF92CF927C
:10044000DF92EF92FF920F931F93CF93DF936C0194
:100450007B018B01040F151FEB015E01AE18BF0875
:10046000C017D10759F06991D601ED91FC91019027
:10047000F081E02DC6010995892B79F7C501DF913F
:10048000CF911F910F91FF90EF90DF90CF90BF9091
:10049000AF900895FC01538D448D252F30E0842FBB
:1004A00090E0821B930B541710F0CF96089501979C
:1004B0000895FC01918D828D981761F0A28DAE0F89
:1004C000BF2FB11D5D968C91928D9F5F9F73928F10
:1004D00090E008958FEF9FEF0895FC01918D828D3C
:1004E000981731F0828DE80FF11D858D90E0089509
:1004F0008FEF9FEF0895FC01918D228D892F90E061
:10050000805C9F4F821B91098F739927089588E320
:1005100094E00E947B0221E0892B09F420E0822FE5
:10052000089580E090E0892B29F00E9487028111D4
:100530000C9400000895FC01A48DA80FB92FB11DE3
:10054000A35ABF4F2C91848D90E001968F73992709
:10055000848FA689B7892C93A089B1898C918370E7
:1005600080648C93938D848D981306C00288F389E0
:10057000E02D80818F7D80830895EF92FF920F930D
:100580001F93CF93DF93EC0181E0888F9B8D8C8D3F
:1005900098131AC0E889F989808185FF15C09FB733
:1005A000F894EE89FF896083E889F98980818370F6
:1005B000806480839FBF81E090E0DF91CF911F91A5
:1005C0000F91FF90EF900895F62E0B8D10E00F5FC6
:1005D0001F4F0F731127E02E8C8D8E110CC00FB69C
:1005E00007FCFACFE889F989808185FFF5CFCE0134
:1005F0000E949B02F1CFEB8DEC0FFD2FF11DE35A12
:10060000FF4FF0829FB7F8940B8FEA89FB898081B6
:100610008062CFCF0F931F93CF93DF938C01D0E0F5
:10062000C0E0F801EC0FFD1F6491662341F088E300
:1006300094E00E94BD02892B11F02196F2CFCE01E9
:10064000DF91CF911F910F910895CF93DF93EC012C
:10065000888D8823B9F0AA89BB89E889F9898C91AA
:1006600085FD03C0808186FD0DC00FB607FCF7CF66
:100670008C9185FFF2CF808185FFEDCFCE010E9466
:100680009B02E9CFDF91CF91089588E394E00E9427
:100690002503E8E3F4E0A289B3898C918F7E8C93E3
:1006A000A289B3898C91877F8C93A289B3898C911D
:1006B0008F778C93A289B3898C918F7D8C93828D57
:1006C000818F0895833081F028F4813099F0823051
:1006D000A9F008958730A9F08830C9F08430B1F4CA
:1006E000809180008F7D03C0809180008F77809300
:1006F0008000089584B58F7784BD089584B58F7D7B
:10070000FBCF8091B0008F778093B00008958091E7
:10071000B0008F7DF9CFCF93DF93282F30E0F90120
:10072000E255FF4F8491F901E656FF4FD491F9014C
:10073000EA57FF4FC491CC23A1F081110E946203BC
:10074000EC2FF0E0EE0FFF1FE458FF4FA591B4919E
:10075000EC91ED2381E090E009F480E0DF91CF910E
:10076000089580E090E0FACF80E00E948B0321E0C2
:10077000892B09F020E0822F089587E00E948B03E7
:100780009093D6048093D50485E00E948B039093C8
:10079000D8048093D7044091D9045091DA04809111
:1007A0006D0041155105C9F0806880936D0020915E
:1007B000DB043091DC0480916D002115310579F066
:1007C000806280936D0080916800452B11F4232B8B
:1007D00041F084608093680008958F77E6CF8F7D25
:1007E000F0CF8B7FF7CF1F93CF93DF93282F30E08D
:1007F000F901E255FF4F8491F901E656FF4FD4917C
:10080000F901EA57FF4FC491CC23A9F0162F8111AB
:100810000E946203EC2FF0E0EE0FFF1FEE58FF4F37
:10082000A591B4918FB7F894EC91111108C0D095AF
:10083000DE23DC938FBFDF91CF911F910895DE2BD4
:10084000F8CFCF93DF9390E0FC01E656FF4F249161
:100850008A579F4FFC0184918823C9F090E0880F4C
:10086000991FFC01E859FF4FA591B491FC01EE5886
:10087000FF4FC591D49161110DC09FB7F8948C9131
:10088000209582238C938881282328839FBFDF9122
:10089000CF910895623051F49FB7F8943C91822F24
:1008A000809583238C93E8812E2BEFCF8FB7F8941C
:1008B000EC912E2B2C938FBFEACF1F93CF93DF9316
:1008C000182FEB0161E00E942104209739F460E0C9
:1008D000812FDF91CF911F910C94F303CF3FD1056E
:1008E00011F461E0F5CFE12FF0E0E255FF4FE49124
:1008F000E33031F140F4E130B1F0E230E1F0C03802
:10090000D1057CF7E4CFE73029F1E83059F1E43044
:10091000B1F780918000806280938000D0938B003B
:10092000C0938A0004C084B5806884BDC7BDDF91D0
:10093000CF911F91089584B5806284BDC8BDF7CF63
:1009400080918000806880938000D0938900C0935C
:100950008800EDCF8091B00080688093B000C09394
:10096000B300E5CF8091B00080628093B000C09367
:10097000B400DDCF8E50806480937C0080917A003B
:10098000806480937A0080917A0086FDFCCF80910C
:1009900078009091790008952F923F924F925F9244
:1009A0006F927F928F929F92AF92BF92CF92DF927F
:1009B000EF92FF920F931F93CF93DF9300D000D05D
:1009C000CDB7DEB784E10E94BA043C018FE00E94FB
:1009D000BA044C0184EFA82EBB24B394C12CD12CB3
:1009E000E12CF12C00E010E02091DF043091E004D4
:1009F0004091E1045091E2046091E3047091E404B9
:100A00008091E5049091E6040E94A72019012A0133
:100A100069837A838B839C83B401990C880B990B2F
:100A2000072C000C88089908661977098809990924
:100A30002DE230E743E650E00E94FF20E8EEAE2EC4
:100A4000F3E0BF2E0E943B2159016A017B018C011A
:100A50009101A20169817A818B819C810E9410227F
:100A6000A5EFAA2EBB24B394C12CD12CE12CF12CE0
:100A700000E010E00E943B212093DF043093E0046B
:100A80004093E1045093E2046093E3047093E40420
:100A90008093E5049093E6040F900F900F900F90D1
:100AA000DF91CF911F910F91FF90EF90DF90CF904A
:100AB000BF90AF909F908F907F906F905F904F907E
:100AC0003F902F9008953FB7F89480911D04909126
:100AD0001E04A0911F04B091200426B5A89B05C058
:100AE0002F3F19F00196A11DB11D3FBFBA2FA92FAD
:100AF000982F8827BC01CD01620F711D811D911DAA
:100B000043E0660F771F881F991F4A95D1F7089514
:100B10008F929F92AF92BF92CF92DF92EF92FF920D
:100B20004B015C010E9463056B017C010E9463051F
:100B30006C197D098E099F09683E734081059105F6
:100B4000A8F321E0821A9108A108B10888EEC80E26
:100B500083E0D81EE11CF11C81149104A104B104AE
:100B600029F7FF90EF90DF90CF90BF90AF909F90CC
:100B70008F900895CF93DF93EC010197C1F461E06A
:100B800086E00E94F3036AE070E080E090E00E945B
:100B90008805F89480E88093610010926100789451
:100BA000D093DE04C093DD04DF91CF910895F894D3
:100BB00080E88093610083E080936100789460E036
:100BC00086E00E94F3036EE170E080E090E00E9416
:100BD0008805E6CF2FB7F8946091190470911A0434
:100BE00080911B0490911C042FBF08950E946305FF
:100BF00060937E0570937F058093800590938105B7
:100C0000E6E7F5E010828DE2818381E3828381E073
:100C1000838314821582168217820E94EA056093EC
:100C200082057093830580938405909385050E94C7
:100C3000EA056093860570938705809388059093F5
:100C4000890510928A05EBE8F5E010821182128284
:100C500013821482158216821782109293051092C5
:100C6000230408954115510529F4EAE7F0E0808155
:100C70008F7780836A307105B9F0CB01880F991F97
:100C8000880F991F807267706860682B88E10FB6C3
:100C9000F894A895809360000FBE60936000E0E632
:100CA000F0E0808180648083232BD9F483B7817F37
:100CB000846083BFF89483B7816083BF85B7806603
:100CC00085BF8F7D85BF7894889583B78E7F83BFDE
:100CD0007894452B29F4EAE7F0E0808180688083EE
:100CE000089583B7817F846083BFF89483B7816060
:100CF00083BF7894889583B78E7F83BF7894E9CF3C
:100D0000CF93DF93EC0188E394E00E946D0201969B
:100D100089F064E670E080E090E00E94880588E356
:100D200094E00E946D02019699F088E394E00E949D
:100D30005902F5CF62E370E080E090E00E94880500
:100D4000E2971C161D06FCF281E0DF91CF91089519
:100D500080E0FBCFAF92BF92CF92DF92EF92FF92F3
:100D60000F931F93CF93DF93C4EFD1E00E94CC0485
:100D70002197E1F70E94CC04E8E1AE2EFCEFBF2EF4
:100D8000CC24CA94DD24DA94EE24EA94FF24FA9465
:100D90000FEF1FEF0E943B21B901CA01DF91CF91F4
:100DA0001F910F91FF90EF90DF90CF90BF90AF9089
:100DB00008952F923F924F925F926F927F928F92FF
:100DC0009F92AF92BF92CF92DF92EF92FF920F93DA
:100DD0001F93CF93DF93CDB7DEB7C958D1090FB6B4
:100DE000F894DEBF0FBECDBF29013A014B011C01B3
:100DF00080913704CB57DF4F8883C558D040882374
:100E000009F412C1C101A0E00E942B2209F415C10E
:100E10008091160490911704843091050CF0FBC06A
:100E20009C012F5F3F4F3093170420931604880FC7
:100E3000991FFC01E25DFE4FA081B181CD57DF4FCC
:100E4000B983A883C358D0409201C101A0E00E9499
:100E50002B220CF08AC00E94C92129013A014B01C2
:100E60001C01CA57DF4F19821882C658D040FE01B4
:100E70003296CF57DF4FF983E883C158D040CF5720
:100E8000DF4FA881B981C158D0401196C857DF4FB4
:100E9000B983A883C858D0408AE0A82EB12CC12CB1
:100EA000D12CE12CF12C00E010E09201A301B4015F
:100EB000C1010E943921205DCF57DF4FE881F981C0
:100EC000C158D04020839201A301B401C1010E9406
:100ED0003B2129013A014B011C01CA57DF4F888190
:100EE0009981C658D0400196CA57DF4F99838883AD
:100EF000C658D0409201A301B401C101A0E00E94F4
:100F00002B22C9F5CB57DF4F9881C558D040F0E070
:100F1000E0E0992351F08DE2CD57DF4FA881B981F0
:100F2000C358D0408C93E1E0F0E0CD57DF4F88818B
:100F30009981C358D040E80FF91F9E012F5F3F4FA2
:100F4000CF57DF4FA881B981C158D0402A173B073E
:100F500008F040C01197CF57DF4FB983A883C1581D
:100F6000D04011968C918193EBCFCB57DF4F1882F5
:100F7000C558D04076CFCA57DF4F88819981C6586F
:100F8000D04063E070E00E946D20892BB1F4CF5710
:100F9000DF4F88819981C158D0400296C857DF4FF2
:100FA00099838883C858D040ECE2CF57DF4FA8819F
:100FB000B981C158D0401196EC93C857DF4F888152
:100FC0009981C858D040CF57DF4F99838883C15843
:100FD000D04055CF1082CD57DF4F88819981C358BB
:100FE000D040C757DF4F0FB6F894DEBF0FBECDBF5E
:100FF000DF91CF911F910F91FF90EF90DF90CF90F5
:10100000BF90AF909F908F907F906F905F904F9028
:101010003F902F900895E4E7F1E0CD57DF4FF9833B
:10102000E883C358D040D7CF82E891E0CD57DF4F57
:1010300099838883C358D040CECFAEE7B1E0CD5777
:10104000DF4FB983A883C358D040C5CFE09148048F
:10105000F091490492E09083E0914404F0914504BA
:101060001082E0914604F091470490E19083109241
:101070005004E0914C04F0914D0496E09083E0918F
:101080004A04F0914B04908190619083E0914A046E
:10109000F0914B04908198609083E0914A04F09124
:1010A0004B04908190689083E0914A04F0914B0446
:1010B00090819F7D908381110EC08091C1008F77B8
:1010C0008093C1008091C1008F7E8093C10062E057
:1010D00080E00E94210481E08093370408952091EC
:1010E0003704222331F00E940A0388E394E00C9431
:1010F000250308950FB6F894A89580916000886143
:1011000080936000109260000FBE08950F931F93AC
:10111000CF93DF93EC010E94EA050C811D812E81A3
:101120003F81601B710B820B930B088119812A810F
:101130003B81061717072807390758F418821982C8
:101140001A821B82E885F985DF91CF911F910F915B
:101150000994DF91CF911F910F91089587E00E942C
:101160008B03892B61F484E00E948B03892B39F473
:1011700089E00E948B03009711F4FC010994089503
:10118000CF92DF92EF92FF920F931F93CF93DF9353
:10119000EC0188810E948B038C018A859B85011557
:1011A000110581F5892B31F58889811118C00E94BC
:1011B000EA05CC84DD84EE84FF846C197D098E09F8
:1011C0009F09CA80DB80EC80FD80C616D706E80642
:1011D000F90628F4EE81FF81099581E0888B1B8751
:1011E0000A87DF91CF911F910F91FF90EF90DF90D1
:1011F000CF9008950E94EA056C877D878E879F8730
:10120000188AEDCF892B59F7E885F985309739F39E
:101210000995E5CFCF92DF92EF92FF920F931F9344
:10122000CF93DF93FC012085222329F1EC010E945A
:10123000EA050C811D812E813F816B017C01C01A62
:10124000D10AE20AF30A088119812A813B810C152F
:101250001D052E053F0578F46C837D838E839F8367
:10126000E985FA85DF91CF911F910F91FF90EF9063
:10127000DF90CF900994DF91CF911F910F91FF9054
:10128000EF90DF90CF90089560E870E08AE00C94D2
:101290005D042E9A0895823621F0833641F00C9435
:1012A000F303613011F40C9449092E9808956130CC
:1012B00011F42F9A08952F9808950C944B090F93C9
:1012C0001F93CF93DF938C01C9E4D1E08991B801DA
:1012D00090E00E945D0981E0C035D807B9F7DF9141
:1012E000CF911F910F910895EF92FF920F931F934B
:1012F000CF93DF937C01EB01142F052F642F8C2FEC
:101300000E944B09E2E4F1E090E080E021912C178B
:101310001D0681F4FC01EE0FFF1FEE0DFF1DE354CF
:10132000FF4F10830183DF91CF911F910F91FF90A9
:10133000EF90089501968730910541F7F4CF209101
:10134000E7043091E804F901EF54FF4F408191E048
:101350009427908350E061E170E0C9010C94740916
:101360000F931F93CF93DF93EC0150E040E062E1D5
:1013700070E00E9474098E010A5A1F4F41E050E04C
:10138000F801808191811816190614F450E040E0AC
:1013900063E170E0CE010E94740941E050E0F80181
:1013A00080819181029711F450E040E062E070E0AA
:1013B000CE01DF91CF911F910F910C9474090F937F
:1013C0001F93CF93DF93EC018B01FB01EE0FFF1F07
:1013D000E45CFE4F6081653608F064E670E090E002
:1013E00080E00E944B1F23E333E343E250E40E947A
:1013F00000200E94131FFE01EA5BFF4F87810E94BD
:101400005D04FE01EA5AFF4F11830083CE010E9462
:10141000B0090E94EA05FE01E85AFF4F608371831C
:1014200082839383C45ADF4F81E08883DF91CF9119
:101430001F910F9108958091E7049091E804FC01B9
:10144000EA5AFF4F61E070E020813181223031059E
:1014500011F070E060E00C94DF098091E704909156
:10146000E804FC01EA5AFF4F2081318162E070E01C
:10147000232B11F461E070E00C94DF09CF92DF922E
:10148000EF92FF920F931F93CF93DF93EC018C01A8
:101490000D591F4FD801EC9081E08E258C93F12CD3
:1014A000FE01E15AFF4FC080D180F6016191719138
:1014B0006F016F3F760729F0A701CE010E947409E2
:1014C000F4CFD8018C91882379F10E94440980E8F7
:1014D00090E0FE01E553FF4F91838083EA56F109C6
:1014E0000190F081E02DD8018C91811125C084E01C
:1014F00090E0E80FF91F80819181A281B381CC59DE
:10150000DF4F88839983AA83BB830E94EA056C839B
:101510007D838E839F83DF91CF911F910F91FF90E9
:10152000EF90DF90CF90089570E060E08AE00E9435
:101530005D0490E080E0CDCF90E080E0DACF809154
:10154000E7049091E8040C943E0A0F931F93CF9305
:10155000DF938C01C2E4D1E0699170E050E040E09B
:10156000C8010E94740981E0C934D807A9F7DF9146
:10157000CF911F910F9108950F931F93CF93DF93F6
:101580008C01C2E4D1E0699170E041E050E0C80113
:101590000E94740981E0C934D807A9F7DF91CF917F
:1015A0001F910F910895CF93DF93EC018A810E94E0
:1015B0008B03892B29F48A859B8501969B878A87D3
:1015C000DF91CF910895CF92DF92EF92FF920F9328
:1015D0001F93CF93DF93EC010E94EA050C851D85D4
:1015E0002E853F85601B710B820B930B0B811C8139
:1015F0002D813E81061717072807390798F5F894BB
:101600000A851B850E94491F9B01AC0160E070E0C8
:101610008AE794E40E94A11E6B017C01B80190E06E
:1016200080E00E94491F9B01AC01C701B6010E94E6
:10163000002020E030E040E05FE30E94002020E056
:1016400030E040E752E40E9400200E941A1F798790
:1016500068871B861A860E94EA056C877D878E87BD
:101660009F87789488859985DF91CF911F910F91FD
:10167000FF90EF90DF90CF900895CF93DF93EC0130
:1016800061E08A810E944B096FEF70E08F810E94B8
:101690005D04D093DC04C093DB040E94BD030E9470
:1016A000EA056C877D878E879F8719861886DF916C
:1016B000CF910895CF93DF93EC010E94B403882368
:1016C00019F10E94CC0420323F4B42405105610584
:1016D00071058105910509F0D4F4288139814A8189
:1016E0005B816C817D818E819F8121153105410552
:1016F00051056E4176428944910509F05CF483E01E
:1017000090E0DF91CF91089590E080E0FACF81E002
:1017100090E0F7CF82E090E0F4CF42E050E060E864
:1017200071E088E394E00C941D0220913704222399
:1017300041F00E940A030E948D0B88E394E00C9410
:1017400025030895CF93DF93CDB7DEB7809137049B
:10175000882359F09E01255F3F4F43E851E064E143
:1017600070E083E294E00E948222DF91CF9108959D
:101770000F931F93CF93DF93CDB7DEB7CC52D140F9
:101780000FB6F894DEBF0FBECDBF8091370488231B
:1017900041F19E012B5C3E4FCD5CDE4F488159816B
:1017A000C353D1406CE271E08E010F5F1F4FC8013F
:1017B0000E948222F80101900020E9F73197AF01E1
:1017C000401B510BB80188E394E00E941D020E9467
:1017D0008D0B88E394E00E94250310921704109269
:1017E0001604C45DDE4F0FB6F894DEBF0FBECDBF4A
:1017F000DF91CF911F910F9108952F923F924F92B9
:101800005F926F927F928F929F92AF92BF92CF9290
:10181000DF92EF92FF920F931F93CF93DF93CDB799
:10182000DEB766970FB6F894DEBF0FBECDBF3C01A2
:101830008B579F4F9E8B8D8BFC0120803180428087
:101840005380F481F983FC01F581FB83FC018680E0
:10185000978040E7A42E5DE3B52E6AE0C62E77E1BF
:10186000D72EE7E2EE2EFDEBFF2E00E010E0910117
:10187000A20169817B81C4010E943B213A8B298BA3
:10188000A12CA0E1BA2EB5EACB2E84EDD82E98EE8D
:10189000E92EF12C9101A20169817B81C4010E9492
:1018A0003B215B8B522E932E842E0E94CC04E8EEBB
:1018B000AE2EF3E0BF2EC12CD12CE12C0E943B2197
:1018C0005C8B1901442E85E10E94BA049C01932F80
:1018D000990F990BA9ECAA2EB8E7BB2E8FEBC82E57
:1018E000DD24D394492F592F692F792F892F0E94F6
:1018F000A720E0E4AE2EF2E4BF2EAFE0CA2ED12C3A
:101900000E943B21C52E59014F87F301E753FF4F3A
:1019100080819181892B09F471C08CEA91E09A83CE
:101920008983F301E953FF4F80819181892B09F469
:101930006AC08CEA91E09C838B83F301EB53FF4FE9
:1019400080819181892B09F463C08CEA91E09E83A8
:101950008D83F301ED53FF4F80819181892B09F431
:101960005CC08BEA91E098878F83F301EF53FF4FC0
:1019700080819181892B09F455C08BEA91E09A8787
:101980008987F301E154FF4F80819181892B09F40C
:101990004EC08AEA91E09C878B87F301E354FF4FA6
:1019A00080819181892B09F447C08DEA91E09E875F
:1019B0008D878D899E890E945A0B880F991FFC0183
:1019C000EA5DFE4F4081488BD180F301EA58FF4F1A
:1019D000808109EB11E0882311F005EB11E0F301A0
:1019E000E35AFF4F80819181009759F1019709F4E3
:1019F000C4C081EC91E09E8B8D8B27C0E2E9F1E0C1
:101A0000FA83E9838ECFE2E9F1E0FC83EB8395CFA3
:101A1000E2E9F1E0FE83ED839CCFE7E9F1E0F887AE
:101A2000EF83A3CFEDE9F1E0FA87E987AACFE3EAF4
:101A3000F1E0FC87EB87B1CFE1EBF1E0FE87ED87CA
:101A4000B8CFE9EBF1E0FE8BED8BF301E553FF4FEF
:101A50008081918128ECE22E21E0F22E80389105E0
:101A600021F495ECE92E91E0F92EC3018A5B9F4F9A
:101A70000E94E30AF301EA5AFF4F208131812115C8
:101A8000310509F47DC02130310509F47CC023ED16
:101A900031E043E254E05F934F93EA89EF93F98991
:101AA000FF934B894F938F929F925F92EC89EF93B4
:101AB0004F923F922F92CF92FF85FF93BF92AF92AA
:101AC0004A814F93E981EF93FC81FF934B814F93C0
:101AD000EE81EF93FD81FF9348854F93EF81EF9364
:101AE000FA85FF9349854F93EC85EF93FB85FF9330
:101AF0004E854F93ED85EF93DF92F889FF931F9307
:101B00000F934E894F93ED89EF93FF92EF929F933E
:101B10008F933F932F93F301ED57FF4F0190F08187
:101B2000E02DEE0FFF1FE25EFE4F81818F938081DB
:101B30008F9386ED91E09F938F930E94B80B0FB621
:101B4000F894DEBF0FBECDBF66960FB6F894DEBF29
:101B50000FBECDBFDF91CF911F910F91FF90EF90FE
:101B6000DF90CF90BF90AF909F908F907F906F90BD
:101B70005F904F903F902F9008958CEB91E03BCF7A
:101B80002CEC31E086CF2FEC31E083CF8091E7045D
:101B90009091E8040C94FD0B2F923F924F925F922C
:101BA0006F927F928F929F92AF92BF92CF92DF926D
:101BB000EF92FF920F931F93CF93DF93CDB7DEB7D2
:101BC00068970FB6F894DEBF0FBECDBF48E050E077
:101BD00068E070E0CE0101960E94741E89818987B9
:101BE0009A819A878B818B879C819C878D818D8739
:101BF0009E819E878F818F879885988B29853A85CE
:101C00004B855C856D857E85A0E00E942B2211F0BE
:101C10000CF0A5C0B0EE2B2E19EC312E02E7402EB1
:101C200055245394612C712C812C912C80E5A82E85
:101C30009CECB92E2DE3C22ED12CE12CF12C00E02E
:101C400010E09101A201B301C4010E94A720E0E9C4
:101C5000AE2EF9EDBF2EA0E4CA2E0E943B21298BA7
:101C60003A8B4B8B5C8B6D8B7E8B8F8B988F2091FF
:101C70000E0430910F0440911004509111046091B2
:101C80001204709113048091140490911504510171
:101C90006201730184010E94222209F43FC0298954
:101CA0003A894B895C896D897E898F89988D0E94DC
:101CB000D906F82EE92E9101A201B301C4010E94B8
:101CC000D906182F092F29853A854B855C856D85A6
:101CD0007E858F8598890E94D906EF92FF920F9397
:101CE0001F939F938F938BE692E09F938F930E9415
:101CF000B80B20920E0430920F04409210045092C0
:101D00001104609212047092130480921404909251
:101D100015040FB6F894DEBF0FBECDBF29893A89EE
:101D20004B895C896D897E898F89988D68960FB6FD
:101D3000F894DEBF0FBECDBFDF91CF911F910F9101
:101D4000FF90EF90DF90CF90BF90AF909F908F90DB
:101D50007F906F905F904F903F902F9008952984CF
:101D60003A844B845C846D847E848F8498885ECFB3
:101D70002F923F924F925F926F927F928F929F929B
:101D8000AF92BF92CF92DF92EF92FF920F931F9389
:101D9000CF93DF93CDB7DEB7A0970FB6F894DEBF31
:101DA0000FBECDBF0E94B403182F882371F080911D
:101DB0008A0581110AC00E94EA056093820570932A
:101DC0008305809384059093850510938A0564E6C6
:101DD000A62EB12CC12CD12CE12CF12C00E010E06E
:101DE00020917605309177054091780550917905DD
:101DF00060917A0570917B0580917C0590917D05BD
:101E00000E94A720322E432E542E652E762E872E2A
:101E1000982E292E85E10E94BA049C01932F990FD8
:101E2000990B79ECA72EE8E7BE2EFFEBCF2EDD2431
:101E3000D394492F592F692F792F892F0E94A720DA
:101E4000A8EEAA2EB3E0BB2EC12CD12C0E943B21C0
:101E5000A32CB42CC52CD62CE72CF82C092D122D34
:101E60000E94102215E6A12EB12CC12CD12CE12C00
:101E7000F12C00E010E00E943B2120937605309386
:101E80007705409378055093790560937A057093B0
:101E90007B0580937C0590937D05A0908B05B09089
:101EA0008C05C0908D05D0908E05E0908F05F09048
:101EB000900500919105109192050E941922F22E31
:101EC000032F142FB52FF62FE72FD82EE92EA0E0E1
:101ED0000E942B2254F40E94C921F22E032F142FAA
:101EE000B52FF62FE72FD82EE92E2F2D302F412F8B
:101EF0005B2F6F2F7E2F8D2D9E2D2F393648414021
:101F00005105610571058105910559F154F10E9452
:101F1000EA05609386057093870580938805909302
:101F200089058091760580938B0580917705809354
:101F30008C058091780580938D058091790580933B
:101F40008E0580917A0580938F0580917B05809323
:101F5000900580917C058093910580917D0580930B
:101F600092050E9463056B017C010E94CC04298BC1
:101F70003A8B4B8B5C8B6D8B7E8B8F8B988F80918C
:101F80007E0590917F05A0918005B0918105A70104
:101F90009601281B390B4A0B5B0BC0927E05D09231
:101FA0007F05E0928005F0928105A988BA88CB88E8
:101FB000DC887B010F89188D60E070E080E090E0A4
:101FC0000E94A720A0906E05B0906F05C09070058C
:101FD000D0907105E0907205F09073050091740542
:101FE000109175050E941022D22EE32EF42E052F9B
:101FF000162FB72FF82FE92F21153105410551056F
:102000006544734E8944910549F044F0D12CE12C8C
:10201000F12C00E015E4B3EEF9E4E0E02D2D3E2DC7
:102020004F2D502F612F7B2F8F2F9E2FA0E00E94CE
:102030002B2244F4D12CE12CF12C00E010E0B0E094
:10204000F0E0E0E0D0926E05E0926F05F09270054E
:102050000093710510937205B0937305F0937405A6
:10206000E093750585E10E94BA049C01932F990FB6
:10207000990B89ECA82E48E7B42E5FEBC52EDD2422
:10208000D394E12CF12C00E010E0492F592F692F57
:10209000792F892F0E94A7202F3F374C4741584A5C
:1020A000644071058105910509F084F410926E0574
:1020B00010926F05109270051092710510927205C2
:1020C0001092730510927405109275050E94EA052E
:1020D0002B013C01A0907605B0907705C090780563
:1020E000D090790520917A05298F30917B053A8F20
:1020F00040917C054B8F50917D055C8F0E94CC0DEB
:10210000922E832E342E252E7B018C018091860504
:1021100090918705A0918805B0918905B301A2012E
:10212000481B590B6A0B7B0B91E080E041365A4EFD
:102130006105710508F490E09D8F8E8F8091820576
:1021400090918305A0918405B0918505B301A2010A
:10215000481B590B6A0B7B0B91E080E041365A4ECD
:102160006105710508F490E09F8F88A30E94B40375
:10217000F82FE1E029893A894B895C896D897E894C
:102180008F89988D2F333D4043405105610571057E
:102190008105910511F00CF0E0E01F92EF93E1E072
:1021A0009501A601698D7A8D8B8D9C8DA92CB82CFB
:1021B000C32CD22C0E9422220CF4E0E01F92EF9359
:1021C000EE8DEF932D8D2F9338A13F934F8D4F932D
:1021D0001F92FF9383E891E09F938F931F9284E176
:1021E0008F9383E294E09F938F930E94A20B0E94AF
:1021F000B4030FB6F894DEBF0FBECDBF882309F439
:1022000071C08091820590918305A0918405B09161
:102210008505A3019201281B390B4A0B5B0BDA01E0
:10222000C90181369A4EA105B10508F45BC08091C1
:10223000860590918705A0918805B0918905A30135
:102240009201281B390B4A0B5B0BDA01C90181365D
:102250009A4EA105B10508F445C040917605498F15
:10226000509177055A8F809178058B8FA0917905D1
:10227000AC8F20907A0530907B0580907C05909003
:102280007D050E94CC0D59016A017B018C01298DCD
:102290003A8D4B8D5C8DB101C4010E94222214F154
:1022A00029893A894B895C896D897E898F89988DC6
:1022B0002F333D404340510561057105810591056E
:1022C00009F084F480919305811129C081E0809305
:1022D00093054092940550929505609296057092F0
:1022E000970504C0809193058111B9C0A0960FB6DF
:1022F000F894DEBF0FBECDBFDF91CF911F910F913C
:10230000FF90EF90DF90CF90BF90AF909F908F9015
:102310007F906F905F904F903F902F9008958091A5
:10232000940590919505A0919605B0919705481A4E
:10233000590A6A0A7B0A29E8421623E15206610417
:102340007104A0F210926E0510926F051092700544
:102350001092710585E48093720583EE8093730576
:1023600089E480937405109275052090760530906D
:102370007705409078055090790560907A057090C7
:102380007B0580907C0590907D0548E050E068E0FA
:1023900070E0CE0101960E94741EA980BA80CB80A5
:1023A000DC80ED80FE800F8118859101A201B301D0
:1023B000C4010E94222209F00CF451C029863A86F9
:1023C0004B865C866D867E868F86988A48E050E0D4
:1023D00068E070E0CE0101960E94741E29803A8068
:1023E0004B805C806D807E808F80988429853A85C3
:1023F0004B855C856D857E858F859889510162014D
:10240000730184010E94222251F148E050E068E00B
:1024100070E0CE0109960E94841E29853A854B857D
:102420005C856D857E858F8598890E94D906182FD9
:10243000092F9101A201B301C4010E94D9060F9393
:102440001F939F938F9389E892E09F938F930E94AD
:10245000B80B0F900F900F900F900F900F9010925D
:10246000930544CFCF93DF93C091E704D091E80464
:1024700070E060E08AE00E945D04FE01E553FF4FDA
:102480001182108241E050E061E170E0CE01DF9105
:10249000CF910C947409CF93DF93EC010E9444090F
:1024A000FE01E553FF4F80E890E09183808350E088
:1024B00040E061E170E0CE010E947409C758DF4F2F
:1024C00084EF91E0A0E0B0E088839983AA83BB8386
:1024D0000E94EA056C837D838E839F83DF91CF9179
:1024E00008958091E7049091E8040C944B128F9228
:1024F0009F92AF92BF92CF92DF92EF92FF920F9393
:102500001F93CF93DF93CDB7DEB72A970FB6F8941A
:10251000DEBF0FBECDBF9A8789874C0185E8880E44
:10252000911CF40120813181428153816481758144
:1025300080E7A82E9DE3B92EAAE0CA2EB7E1DB2ED4
:1025400017E2E12E0DEBF02E00E010E0868197817E
:102550000E943B2129833A834B835C836D837E8376
:102560008F83988709811A8141E050E00832110574
:1025700014F450E040E06EE070E089859A850E9496
:10258000740989819A81409741E050E08135910535
:1025900010F450E040E063E670E089859A850E947F
:1025A000740941E050E00734110514F050E040E0B8
:1025B00060E170E089859A850E947409C4010E94D7
:1025C0005A0B4C01C984DA84FFEACF0ED11CF60104
:1025D0008081918188169906C9F0E985FA85E654CB
:1025E000FF4F1082F1E08F16910409F44FC008F4F8
:1025F00044C092E08916910409F46EC0E3E08E169F
:10260000910409F46CC0F601918280820E94B403A7
:10261000E985FA85EA58FF4F81117CC00031110528
:102620000CF078C0A985BA85A35ABF4F8D919C91B3
:10263000019709F46FC0808181116DC089859A85E9
:102640000E944B1289859A8582599F4F9A8389836C
:1026500081E0E981FA81808780E395E7A0E0B0E03E
:1026600080839183A283B3830E94EA05E981FA8182
:1026700064837583868397834EC041E050E061E1B7
:1026800070E089859A850E947409BDCFBB24B394FC
:10269000E985FA85EF54FF4FB08250E040E061E1F8
:1026A00070E089859A850E947409E984FA84F2EBC6
:1026B000EF0EF11CF701B08680ED97E0A0E0B0E0EE
:1026C00080839183A283B3830E94EA05F701648328
:1026D00075838683978397CF50E040E0D0CFBB24AB
:1026E000B394E985FA85EF54FF4FB08250E040E0A3
:1026F00061E170E089859A850E947409E984FA8411
:10270000F2EBEF0EF11CF701B08688EC90E0A0E050
:10271000B0E0D6CF10822A960FB6F894DEBF0FBE77
:10272000CDBFDF91CF911F910F91FF90EF90DF9080
:10273000CF90BF90AF909F908F9008958F929F926F
:10274000AF92BF92CF92DF92EF92FF920F931F93BF
:102750008091DD049091DE04019711F40E94B80E7F
:102760008091460590914705892B09F06CC08FE256
:1027700095E00E94E30A7C01809145058823B1F031
:102780000E94EA058090410590904205A090430583
:10279000B0904405681979098A099B096037774127
:1027A0008105910508F44FC010924505B70190E0EE
:1027B00080E00E94491F6B017C01E0913F05F09190
:1027C0004005EE0FFF1FE05BFE4F6081718190E0DE
:1027D00080E00E94491F4B015C012AE939E949E583
:1027E0005FE30E9400209B01AC01C701B6010E947B
:1027F0009C1E87FD10C023E333E343E95FE3C5017B
:10280000B4010E9400209B01AC01C701B6010E94E7
:10281000FB1F1816C4F482E090E090934705809364
:10282000460580E191E0909349058093480580E05A
:1028300091E090934B0580934A0510924C0589EEE8
:1028400094E00E943E0A80914605909147050297C8
:1028500021F089EE94E00E94B009809146059091A4
:102860004705019709F092C00E94B403811125C069
:1028700020916E0530916F05409170055091710562
:10288000609172057091730510E7A12E0DE3B02ED3
:102890008AE0C82E97E1D92EE7E2EE2EFDEBFF2E5F
:1028A00000E010E080917405909175050E943B2135
:1028B000490189E088169104ECF0109247051092C6
:1028C000460510924D0510924E0510924F0510923C
:1028D000500570E060E08AE00E945D041092B5054A
:1028E0001092B40589EE94E00E94BC0A10929905FA
:1028F000109298058091460590914705019721F027
:1029000089EE94E00E9477128BEE94E00E94C0085A
:102910008CEF94E00E94C0088DE095E00E94C00812
:1029200080914D0590914E05A0914F05B0915005B5
:10293000892B8A2B8B2B21F08DE495E00E94860851
:1029400087E595E00E940A098091620590916305F0
:10295000A0916405B0916505892B8A2B8B2B21F002
:1029600082E695E00E9486088BE995E00E940A09BC
:1029700086EB95E01F910F91FF90EF90DF90CF9045
:10298000BF90AF909F908F900C940A0920916E0594
:1029900030916F05409170055091710560917205FD
:1029A0007091730580E7A82E9DE3B92EEAE0CE2E44
:1029B000F7E1DF2EA7E2EA2EBDEBFB2E00E010E0F0
:1029C00080917405909175050E943B21490129E091
:1029D000821691040CF094CF0E94B40381118ACF27
:1029E00010925F051092A30581E090E09093470557
:1029F0008093460588E191E09093490580934805CE
:102A000088E091E090934B0580934A0510924C0525
:102A100089EE94E00E943E0A6DCFCF92DF92EF9252
:102A2000FF920F931F93CF93DF93EC010E94A50AAF
:102A30000E9444098E0105531F4F80E890E0F80181
:102A4000918380830E94EA056B017C0188E00E94EB
:102A50008B03892B01F50E94EA056C197D098E090B
:102A60009F09693E73408105910580F3CE010E9464
:102A7000BC0A70E060E08AE00E945D04F801118207
:102A8000108281E0DF91CF911F910F91FF90EF9025
:102A9000DF90CF900895CE010E94BC0A70E060E004
:102AA0008AE00E945D04F801118210828E01035AAF
:102AB0001F4FF80180819181029719F0CE010E9489
:102AC000B009F80180819181019719F0CE010E942F
:102AD000771280E0D7CFCF92DF92EF92FF920F93E1
:102AE0001F93CF93DF93EC01FC01ED57FF4F7183F0
:102AF00060838A5A9F4F6C01E85BFF4F7F018E0114
:102B0000035A1F4F6130710519F06330710559F593
:102B10000E944909F60160817181CE010E94DF099E
:102B200070E060E08AE00E945D04F701118210828B
:102B3000F80180819181029719F0CE010E94B009BD
:102B4000F80180819181019719F0CE010E947712DE
:102B5000CE01DF91CF911F910F91FF90EF90DF9009
:102B6000CF900C94FD0B60E08AE00E94210460E0AD
:102B700082E60E944B09F60111821082F80111824F
:102B80001082FE01EC59FF4F1082118212821382D3
:102B900070E060E08AE00E945D04F701118210821B
:102BA000CE010E94BC0A8E0101551F4FF80111820F
:102BB0001082CE010E94BC0AF801118210823B965D
:102BC0001082E454F1091082C3CF8091E704909100
:102BD000E804FC01ED57FF4F2081318121153105BB
:102BE00019F02230310521F463E070E00C946B158C
:102BF0000895CF93DF93C091E704D091E804FE01DC
:102C0000ED57FF4F808191818130910529F0039725
:102C100079F0DF91CF910895CE010E940D1570E0FB
:102C200060E08823B1F3CE01DF91CF910C946B1556
:102C3000CE010E940D15882361F362E070E0F3CFAE
:102C40001F920F920FB60F9211242F933F934F9321
:102C50005F936F937F938F939F93AF93BF93EF9304
:102C6000FF9388E394E00E949B02FF91EF91BF9154
:102C7000AF919F918F917F916F915F914F913F9114
:102C80002F910F900FBE0F901F9018951F920F92CB
:102C90000FB60F9211242F938F939F93EF93FF936F
:102CA000E0914804F09149048081E0914E04F09154
:102CB0004F0482FD1BC09081809151048F5F8F7300
:102CC00020915204821741F0E0915104F0E0E85C59
:102CD000FB4F958F80935104FF91EF919F918F91BE
:102CE0002F910F900FBE0F901F9018958081F4CFF9
:102CF0001F920F920FB60F9211242F933F938F9331
:102D00009F93AF93BF938091190490911A04A0915F
:102D10001B04B0911C043091180426E0230F2D37BA
:102D200058F50296A11DB11D209318048093190433
:102D300090931A04A0931B04B0931C0480911D046B
:102D400090911E04A0911F04B09120040196A11D32
:102D5000B11D80931D0490931E04A0931F04B09393
:102D60002004BF91AF919F918F913F912F910F9030
:102D70000FBE0F901F90189529E8230F0396A11DF1
:102D8000B11DD2CF1F920F920FB60F9211248F93C5
:102D90000FB6F894A89580916000886180936000D8
:102DA000109260000FBE8F910F900FBE0F901F907A
:102DB00018951F920F920FB60F9211242F933F93E5
:102DC0004F935F936F937F938F939F93AF93BF9333
:102DD000EF93FF938091D9049091DA04892BC9F085
:102DE00087E00E948B032091D5043091D60482178E
:102DF000930779F09093D6048093D5048091D904F9
:102E00009091DA04DC01ED91FC910190F081E02DCC
:102E100009958091DB049091DC04892BC9F085E051
:102E20000E948B032091D7043091D8048217930716
:102E300079F09093D8048093D7048091DB0490912B
:102E4000DC04DC01ED91FC910190F081E02D09950D
:102E5000FF91EF91BF91AF919F918F917F916F9172
:102E60005F914F913F912F910F900FBE0F901F9048
:102E700018950F931F93CF93DF93E8E3F4E0138249
:102E8000128288EE93E0A0E0B0E084839583A6836D
:102E9000B7832AE531E03183208325EC30E03587A4
:102EA000248724EC30E03787268720EC30E0318B14
:102EB000208B21EC30E0338B228B22EC30E0358B01
:102EC000248B26EC30E0378B268B118E128E138EDE
:102ED000148EE5EDF4E015821482178216821286B4
:102EE00013861486158616861786108A118AC9EEEF
:102EF000D4E022E731E03983288324E030E03B83CB
:102F00002A838C839D83AE83BF832DE23AE0398789
:102F100028871B861A8601E010E01D870C871E8615
:102F20001F86188A198A21E02A8B49E050E05C8BC1
:102F30004B8B8D8B9E8BAF8BB88F4BE15AE05A8FAA
:102F4000498F1C8E1B8E1E8F0D8F1F8E18A219A2EB
:102F50001AA22BA348E050E05DA34CA342E350E04B
:102F600060E070E04EA35FA368A779A749EF55E141
:102F70005BA74AA71DA61CA61FA70EA718AA19AAD9
:102F80001AAA1BAA2CAB47E050E05EAB4DAB8FAB4F
:102F900098AFA9AFBAAF45EE55E15CAF4BAF1EAEEF
:102FA0001DAE109329050093280510922A05109252
:102FB0002B0510922C0510922D0520932E052CE642
:102FC00031E03093300520932F0525E02093310523
:102FD0008093320590933305A0933405B093350563
:102FE00083E08093360561E00E9421041092400541
:102FF00010923F0510924505109247051092460524
:10300000109249051092480510924B0510924A05FE
:1030100010924D0510924E0510924F0510925005DA
:103020008FE99AE0909356058093550510925F05BD
:1030300081E792E1909361058093600510926205AB
:1030400010926305109264051092650582E392E187
:1030500090936B0580936A050E94F605EEE6F5E015
:1030600010821182128213821482158216821782B4
:1030700010929905109298051092A3058FE999E096
:103080009093A5058093A4051092B5051092B40500
:103090001092BE0586EC9DE09093C0058093BF051D
:1030A000D093E804C093E7041093A7050093A60506
:1030B0001093A9050093A8051093AB050093AA05EA
:1030C0001093AD050093AC051093AF050093AE05CA
:1030D0001093B1050093B0051093B3050093B205AA
:1030E000DF91CF911F910F910895CF93DF93CDB7CB
:1030F000DEB760970FB6F894DEBF0FBECDBF7894F1
:1031000084B5826084BD84B5816084BD85B58260EC
:1031100085BD85B5816085BD80916E00816080939D
:103120006E00109281008091810082608093810006
:103130008091810081608093810080918000816016
:10314000809380008091B10084608093B100809171
:10315000B00081608093B00080917A008460809399
:103160007A0080917A00826080937A0080917A0060
:103170008E7F80937A0080917A00806880937A00B5
:103180001092C10014B7C12ED12C14BE0E947A082F
:1031900081E090E00E94BA0562E084E00E94210490
:1031A00062E089E00E94210462E088E00E9421043C
:1031B00062E087E00E94210461E083E00E94210434
:1031C00060E085E00E942104269A60E085E10E948B
:1031D000210460E084E10E94210460E08FE00E940D
:1031E000210461E086E00E94210462E080E00E9408
:1031F000210461E08AE00E94210461E08EE00E94E7
:103200002104279A61E080E10E94210461E081E1CC
:103210000E94210461E082E10E94210461E083E1D7
:103220000E94210461E082E00E9421040E94490979
:1032300070E060E083E00E945D0461E08EE00E9447
:10324000F30361E083E60E944B0961E080E10E94A4
:10325000F30361E081E10E94F30361E082E10E94F7
:10326000F30361E083E10E94F30361E082E00E94E6
:10327000F30370E060E08AE00E945D0470E060E0CB
:103280008AE00E945D0481E00E9426081F921F933D
:103290008CE992E09F938F9385EA92E09F938F93BE
:1032A00081EB92E09F938F9384ED92E09F938F93B5
:1032B0000E94B80B0FB6F894DEBF0FBECDBF7EE103
:1032C000E72EF12C88E394E00E946D028F7D843517
:1032D000910561F488E394E00E946D02019609F47F
:1032E000CFC488E394E00E945902F4CF64E670E012
:1032F00080E090E00E948805F1E0EF1AF10811F7F4
:1033000086EE90E00E94950B109237040E944503D0
:1033100080E00E94260882EC90E00E94950B13FF4B
:1033200088C00BE010E001501109A9F089EE94E08B
:103330000E94A50A64E670E080E090E00E948805A3
:1033400089EE94E00E94BC0A64E670E080E090E0C0
:103350000E948805E8CF0E94B40303E010E08111C9
:1033600002C001E010E08FE295E00E943D0B70E0AA
:1033700060E089EE94E00E94DF090E94120289EE6B
:1033800094E09093DA048093D9040E94BD03B801BD
:1033900089EE94E00E946B1581E08093BE0580E188
:1033A00097E2A0E0B0E08093B6059093B705A093B4
:1033B000B805B093B9050E94EA056093BA05709309
:1033C000BB058093BC059093BD0510922204412C4F
:1033D00064E0562E612C712C80912204882309F41C
:1033E0004CC387EB93E00E94950B88E394E00E9426
:1033F0006D028A30910509F442C08D30910509F4BF
:103400003EC0019691F388E394E00E9459028C013A
:1034100064E670E080E090E00E94880588E394E034
:103420000E946D02019681F188E394E00E945902A6
:10343000F5CFCD28D9F406E010E00150110909F4C8
:103440008ACF89EE94E00E94A50A6CE271E080E0E8
:1034500090E00E94880589EE94E00E94BC0A6CE22C
:1034600071E080E090E00E948805E7CF0E94B403FD
:1034700002E010E0811177CF10E000E074CF88E324
:1034800094E00E945902B1CF86EB93E00E94950B25
:103490000533110509F466C20CF06BC00233110547
:1034A00009F474C18CF40133110509F419C11F9397
:1034B0000F9385E593E09F938F930E94B80B0F9035
:1034C0000F900F900F9055C10333110509F40AC2F4
:1034D0000433110561F780E492E00E94950B81E0CE
:1034E00090E00E945F098EE392E00E946F0804E181
:1034F00010E088E00E948B0361E070E0892B11F4FA
:1035000070E060E08EE090E00E945D0987E00E943C
:103510008B0361E070E0892B11F470E060E080E1E2
:1035200090E00E945D0989E00E948B0361E070E0F9
:10353000892B11F470E060E082E190E00E945D0967
:1035400084E00E948B0361E070E0892B11F470E04D
:1035500060E082E090E00E945D0982E390E00E94DA
:103560008006882309F4F7C10150110909F0C1CF81
:10357000BACF0833110509F460C20CF0A6C00633B7
:10358000110509F418C20733110509F090CF82E73D
:1035900093E00E94950B8EE493E00E94950B83E1EB
:1035A00093E00E94950B80ED92E00E94950BF9E468
:1035B000EF2EF1E0FF2EF70101917F0110E070E0A6
:1035C00060E0C8010E945D0964EF71E080E090E076
:1035D0000E94880561E070E0C8010E945D0964EF07
:1035E00071E080E090E00E948805F0E5EF16F1E0E0
:1035F000FF0609F70E94450362E080E00E94210473
:1036000081E090E00E945F0960E0F12CE12CAA24A7
:10361000A394B62EBA2470E081E190E00E945D0987
:1036200062E370E080E090E00E94880580E00E9404
:103630008B038C01CC24C394D12C892B11F4D12C75
:10364000C12CB6018EE090E00E945D09B60182E0D7
:1036500090E00E945D090115110509F087017801CC
:103660002FEFE21AF20A6B2D80E5E816F10489F6D5
:1036700081E090E00E945F0970E5E72E71E0F72E8F
:10368000F70102917F0110E070E060E0C8010E9444
:103690005D0964EF71E080E090E00E94880561E0E0
:1036A00070E0C8010E945D0964EF71E080E090E085
:1036B0000E948805F9E4EF16F1E0FF0609F781E0C2
:1036C0000E94260884EB92E052C00235110521F0D9
:1036D0000237110509F0EBCEF0E0E0E0099549C0B2
:1036E00080EE91E00E94950B59E4E52E51E0F52E15
:1036F000F70101917F0110E070E060E0C8010E94D5
:103700005D098EED91E00E946F0888EE93E00E94C3
:103710008006882331F161E070E0C8010E945D09F4
:10372000F0E5EF16F1E0FF0619F790E080E00E9467
:103730005F098CED91E00E946F0880ED97E00E9498
:103740008006882371F081E090E00E945F098AED95
:1037500091E00E946F0888EE93E00E94800681113C
:10376000C3CF81E090E00E945F0989EC91E00E9464
:10377000950B80E090E0892B09F42ECE0E94870201
:10378000882309F429CE0E94000026CE8DEF91E017
:103790000E94950B8CE691E09A83898385E08B8368
:1037A00084E690E0A0E0B0E08C839D83AE83BF838D
:1037B00083E0888761E00E942104CE0101960E9487
:1037C0003D0BCE0101960E94E30A32E4832E31E0E4
:1037D000932E45E0A42E43E0B42E0E9449090CE349
:1037E00011E026E3C22E21E0D22EF801F080E18024
:1037F0000E5F1F4F6F2DF4E6FF1508F464E670E0CE
:1038000090E080E00E944B1F23E333E343E250E467
:103810000E9400200E94131F88850E945D04F6010B
:1038200080819181F2E0CF0ED11CEF92FF929F93A5
:103830008F93BF92AF920E94B80B0F900F900F9092
:103840000F900F900F9098E0E92EF12C88EE93E006
:103850000E9480068823C9F1CE0101960E94E30AE6
:10386000382E292E0E94AA069F938F937F936F93E1
:103870002F923F928DE193E09F938F930E94B80B1C
:10388000F1E0EF1AF1080FB6F894DEBF0FBECDBF1E
:10389000E9F68016910609F0A8CF60E082E60E9462
:1038A0004B0908E010E08BEF91E00E946F0888EE72
:1038B00093E00E948006882341F00150110999F796
:1038C0008AEF91E00E94950B88CF1092DC04109251
:1038D000DB040E94BD0360E082E60E944B0989EE92
:1038E00091E045CF8DE192E00E94950B60E870E099
:1038F0008AE00E945D040CE010E085E0E82EF12CE7
:103900008BE192E00E946F0888EE93E00E948006AF
:103910008823C9F091E0E91AF10891F70E94AA06FC
:103920009F938F937F936F93E6E3F3E0FF93EF937F
:103930000E94B80B015011090F900F900F900F903B
:103940000F900F90D1F670E060E08AE00E945D0475
:1039500086E092E00CCF81E090E00E945F098AE26D
:1039600092E005CF8BE692E00E94950B06E413E00F
:103970008FE00E94BA0428E833E1DC010E94A02015
:10398000A30192010E9481205F934F933F932F9355
:103990001F930F930E94B80B88EE93E00E9480065D
:1039A0000F900F900F900F900F900F908111E0CF1C
:1039B0008CE492E0DCCE8FE992E00E94950BB6E4B5
:1039C0008B2EB3E09B2E85E10E94BA049C01932FBD
:1039D000990F990BA9ECAA2EB8E7BB2E1FEBC12EAD
:1039E000DD24D394E12CF12C00E010E0492F592F75
:1039F000692F792F892F0E94A720E0E4AE2EF2E4F0
:103A0000BF2EAFE0CA2ED12C0E943B215F934F9373
:103A10003F932F939F928F920E94B80B88EE93E072
:103A20000E9480060F900F900F900F900F900F90B4
:103A30008111C9CF82E892E09ACE82EA93E00E9497
:103A4000950B88EE93E00E948006882399F00E94EF
:103A5000AA069F938F937F936F9388E393E09F933E
:103A60008F930E94B80B0F900F900F900F900F90B4
:103A70000F90E7CF86E893E07ACEA89585E10E9483
:103A8000BA049C01932F990F990B49ECA42E58E787
:103A9000B52E6FEBC62EDD24D394E12CF12C00E083
:103AA00010E0492F592F692F792F892F0E94A720C5
:103AB0002F3F374C4741584A6440710581059105B5
:103AC00011F00CF056C080916C0590916D0581301D
:103AD000910509F045C009E411E080E8E82EF12CD9
:103AE00089EE94E00E94BC0AF80162918F0170E0B7
:103AF00050E040E089EE94E00E9474090E9444097D
:103B0000F092B505E092B40566E970E080E090E0DF
:103B10000E94880570E060E08AE00E945D041092D7
:103B2000B5051092B40564E670E080E090E00E9474
:103B30008805F1E002341F0799F689EE94E00E94AF
:103B4000BC0A80916C0590916D0570E060E0019772
:103B500011F062E070E089EE94E00E946B1509C0FC
:103B6000039739F48EE695E00E945A0B039709F407
:103B7000B2CF80916C0590916D058130910589F0EF
:103B8000F0F08230910509F458C0039709F0F1CDA7
:103B90000E949E130E94B4038111EBCD61E070E09E
:103BA00009C00E949E130E94B40363E070E0882362
:103BB00009F4DFCD89EE94E00E946B15DACD0E9406
:103BC0007A0890E080E00E94BA0521E030E050E001
:103BD00040E066E070E081E294E00E9432060E94DC
:103BE000B403882379F081E090E00E94BA0562E096
:103BF00070E089EE94E00E946B150E9412020E9410
:103C0000F605B7CD0E94EA056B017C0187E00E94B2
:103C10008B03892BD1F60E94EA056C197D098E0968
:103C20009F096E3771058105910580F381E090E071
:103C30000E94BA0561E070E0DCCF8091DD049091D4
:103C4000DE04019711F40E94B80E89EE94E00E9400
:103C500077120E94B403811106C070E060E089EE23
:103C600094E00E946B158EE195E00E94C00886EBFF
:103C700095E00E940A098BE995E00E940A0979CD36
:103C800081E08093220460E082E60E944B0984EB8D
:103C900091E00E94950B86EA91E00E94950B89E9DC
:103CA00091E00E94950B8CE891E00E94950B8BE7C8
:103CB00091E00E94950B8BE691E00E94950B80E5C8
:103CC00091E00E94950B87E391E00E94950B8FE1B4
:103CD00091E00E94950B87E091E00E94950B8DEF9B
:103CE00090E00E94950B73CBDC01CB01FC01F999AC
:103CF000FECF06C0F2BDE1BDF89A319600B40D9238
:103D000041505040B8F70895DC01CB0103C02D911C
:103D10000E948F1E41505040D0F70895262FF999E8
:103D2000FECF1FBA92BD81BD20BD0FB6F894FA9A9E
:103D3000F99A0FBE019608950E94861F08F481E04B
:103D400008950E94B51E0C94C11F0E94BA1F58F01E
:103D50000E94B31F40F029F45F3F29F00C94AA1F82
:103D600051110C94F51F0C94B01F0E94D21F68F3E0
:103D70009923B1F3552391F3951B550BBB27AA2724
:103D800062177307840738F09F5F5F4F220F331F5E
:103D9000441FAA1FA9F335D00E2E3AF0E0E832D026
:103DA00091505040E695001CCAF72BD0FE2F29D029
:103DB000660F771F881FBB1F261737074807AB07FB
:103DC000B0E809F0BB0B802DBF01FF2793585F4F70
:103DD0003AF09E3F510578F00C94AA1F0C94F51F01
:103DE0005F3FE4F3983ED4F3869577956795B79552
:103DF000F7959F5FC9F7880F911D9695879597F95D
:103E00000895E1E0660F771F881FBB1F62177307D5
:103E10008407BA0720F0621B730B840BBA0BEE1FEA
:103E200088F7E09508950E941A1F6894B1110C94C8
:103E3000F51F08950E94DA1F88F09F5798F0B92F58
:103E40009927B751B0F0E1F0660F771F881F991FCF
:103E50001AF0BA95C9F714C0B13091F00E94F41F5E
:103E6000B1E008950C94F41F672F782F8827B85F6E
:103E700039F0B93FCCF3869577956795B395D9F727
:103E80003EF490958095709561957F4F8F4F9F4F31
:103E90000895E89409C097FB3EF49095809570953D
:103EA00061957F4F8F4F9F4F9923A9F0F92F96E986
:103EB000BB279395F695879577956795B795F111FB
:103EC000F8CFFAF4BB0F11F460FF1BC06F5F7F4F98
:103ED0008F4F9F4F16C0882311F096E911C07723AA
:103EE00021F09EE8872F762F05C0662371F096E8B3
:103EF000862F70E060E02AF09A95660F771F881F82
:103F0000DAF7880F9695879597F90895990F000825
:103F1000550FAA0BE0E8FEEF16161706E807F9079B
:103F2000C0F012161306E407F50798F0621B730B36
:103F3000840B950B39F40A2661F0232B242B252BB7
:103F400021F408950A2609F4A140A6958FEF811D5A
:103F5000811D089597F99F6780E870E060E00895FB
:103F60009FEF80EC089500240A9416161706180691
:103F70000906089500240A9412161306140605066D
:103F80000895092E0394000C11F4882352F0BB0FFE
:103F900040F4BF2B11F460FF04C06F5F7F4F8F4F61
:103FA0009F4F089557FD9058440F551F59F05F3F9C
:103FB00071F04795880F97FB991F61F09F3F79F04B
:103FC00087950895121613061406551FF2CF4695CD
:103FD000F1DF08C0161617061806991FF1CF86954F
:103FE0007105610508940895E894BB276627772733
:103FF000CB0197F908950E94861F08F48FEF08956A
:104000000E9413200C94C11F0E94B31F38F00E941D
:10401000BA1F20F0952311F00C94AA1F0C94B01F26
:1040200011240C94F51F0E94D21F70F3959FC1F3C9
:10403000950F50E0551F629FF001729FBB27F00D56
:10404000B11D639FAA27F00DB11DAA1F649F6627AB
:10405000B00DA11D661F829F2227B00DA11D621FFA
:10406000739FB00DA11D621F839FA00D611D221FB4
:10407000749F3327A00D611D231F849F600D211D98
:10408000822F762F6A2F11249F5750409AF0F1F01B
:1040900088234AF0EE0FFF1FBB1F661F771F881F84
:1040A00091505040A9F79E3F510580F00C94AA1FF3
:1040B0000C94F51F5F3FE4F3983ED4F38695779513
:1040C0006795B795F795E7959F5FC1F7FE2B880F2A
:1040D000911D9695879597F9089597FB072E16F4ED
:1040E000009407D077FD09D00E94372207FC05D045
:1040F0003EF4909581959F4F0895709561957F4FFF
:104100000895052E97FB1EF400940E94982057FDF9
:1041100007D00E944B2207FC03D04EF40C94982049
:1041200050954095309521953F4F4F4F5F4F0895E3
:1041300090958095709561957F4F8F4F9F4F089513
:104140000E947322B7FF0895821B930B0895DF939B
:10415000CF931F930F939A9DF02D219FF00D8B9D70
:10416000F00D8A9DE02DF10D039FF00D029FE00DF3
:10417000F11D4E9DE00DF11D5E9DF00D4F9DF00D6A
:104180007F936F93BF92AF925F934F93D5010E943D
:1041900073228B01AC01D7010E947322EB01E80F5F
:1041A000F91FD6010E94F6202F913F91D6010E945F
:1041B0007322C60FD71FE81FF91FAF91BF910E944E
:1041C000F6202F913F910E947322C60FD71FE81F40
:1041D000F91FD6010E947322E60FF71F9801BE0156
:1041E000CF010F911F91CF91DF9108950E9473220B
:1041F000460F571FC81FD91F08F43196089597FB23
:1042000057FF0C940F219F938F930E940F216E1BD9
:104210007F0BAF91BF918A0B9B0B0895E894DF93BE
:10422000CF93FC01DB010E9473227F936F93E9011E
:104230009A01AC01BF93AF933F932F93DF010E948C
:10424000732226F46C1B7D0B820B930B9E01EB01FA
:10425000FC010E94F620AF91BF912F913F910E94E7
:10426000F620BE01CF01F9012F913F91CF91DF914F
:104270000895689401C0E894F92FF12B12F00C9482
:104280006D21A0E0B0E0E7E4F1E20C94DF21092E1B
:10429000059422F40E94C921112392F4F0E80F261C
:1042A000FFEFE094F09400951095B094C094D094F2
:1042B000A194BF0ACF0ADF0AEF0AFF0A0F0B1F0BF8
:1042C0000E94782107FC0E94C921CDB7DEB7ECE03F
:1042D0000C94FB21689401C0E8948F929F92CF9335
:1042E000DF930E947821DF91CF919F908F90089566
:1042F00088249924F401E401B0E49F93AA279A1535
:104300008B049C04ED05FE05CF05D007A10798F4AA
:10431000AD2FDC2FCF2FFE2FE92D982C892E982F33
:10432000872F762F652F542F432F322F2227B850F7
:1043300031F7BF9127C01B2EBF91BB27220F331F20
:10434000441F551F661F771F881F991F881C991CC3
:10435000EE1FFF1FCC1FDD1FAA1FBB1F8A149B046B
:10436000EC05FD05CE05DF05A007B10748F08A186A
:104370009B08EC09FD09CE09DF09A00BB10B2160F8
:104380001A94E1F62EF49401AF01BE01CD01000CA8
:1043900008956095709580959095309540955095CD
:1043A00021953F4F4F4F5F4F6F4F7F4F8F4F9F4F25
:1043B00008952F923F924F925F926F927F928F92C9
:1043C0009F92AF92BF92CF92DF92EF92FF920F93A4
:1043D0001F93CF93DF93CDB7DEB7CA1BDB0B0FB6AE
:1043E000F894DEBF0FBECDBF09942A88398848886B
:1043F0005F846E847D848C849B84AA84B984C88401
:10440000DF80EE80FD800C811B81AA81B981CE0FF7
:10441000D11D0FB6F894DEBF0FBECDBFED010895DC
:104420002A0D3B1D4C1D5D1D6E1D7F1D801F911FA4
:1044300008952A193B094C095D096E097F09800B13
:10444000910B08952A153B054C055D056E057F050A
:104450008007910708950024A7FD00942A173005CE
:104460004005500560057005800590050895AA1B5C
:10447000BB1B51E107C0AA1FBB1FA617B70710F04F
:10448000A61BB70B881F991F5A95A9F78095909581
:10449000BC01CD010895A1E21A2EAA1BBB1BFD0190
:1044A0000DC0AA1FBB1FEE1FFF1FA217B307E40713
:1044B000F50720F0A21BB30BE40BF50B661F771F6B
:1044C000881F991F1A9469F760957095809590954B
:1044D0009B01AC01BD01CF010895EE0FFF1F0590B8
:1044E000F491E02D0994A29FB001B39FC001A39F56
:1044F000700D811D1124911DB29F700D811D11241D
:10450000911D0895AEE0B0E0E8E8F2E20C94E721F6
:104510008C01FA0186E08C831A83098377FF02C03D
:1045200060E070E8615071097E836D83A901BF016D
:10453000CE0101960E94AE224D815E8157FD0AC0D8
:104540002F813885421753070CF49A01020F131F6D
:10455000F80110822E96E4E00C940322ABE0B0E068
:10456000E4EBF2E20C94D9217C013B018A01FC01CD
:1045700017821682838181FFC8C1CE0101965C013A
:10458000F7019381F30193FD859193FF81913F01A1
:10459000882309F453C1853239F493FD859193FF43
:1045A00081913F01853229F4B70190E00E949E2459
:1045B000E7CF912C212C312CFFE1F31538F08B3211
:1045C00011F190F4803209F1833229F137FC3CC0BB
:1045D00020ED280F2A3050F536FE20C08AE0989E44
:1045E000200D1124922E06C08D3291F0803371F788
:1045F000689430F8F30193FD859193FF81913F0119
:104600008111DACF21C0689431F8689432F8F2CF82
:10461000689433F8EFCF689434F8ECCFEAE02E9E3C
:10462000200D1124222E689435F8E4CF8E3229F41F
:1046300036FC04C1689436F8DDCF8C3619F46894E2
:1046400037F8D8CF8836B1F2982F9F7D95549330A4
:10465000E0F08336A1F18337C1F1833509F063C0FF
:104660002801F2E04F0E511CF801C080D180692D65
:1046700070E036FC02C06FEF7FEFC6010E94882415
:104680004C01689437F882010AC00C5F1F4FFFE3AA
:10469000F98388248394912C6501E89437F833FEDC
:1046A0002DC0522C8114910471F5552009F468CF66
:1046B000B70180E290E00E949E245A94F6CFF80160
:1046C000808189830E5F1F4FE4CF2801F2E04F0EF7
:1046D000511CF801C080D180692D70E036FC02C009
:1046E0006FEF7FEFC6010E9493244C018201D5CF6A
:1046F000B70180E290E00E949E242A9428141904B5
:1047000009F0B0F7CECFF60137FC859137FE8191E5
:104710006F01B70190E00E949E2451105A94F1E07D
:104720008F1A9108BFCF843619F0893609F077C007
:10473000F80137FE6BC060817181828193810C5FCB
:104740001F4FF32DFF763F2E97FF09C09095809560
:10475000709561957F4F8F4F9F4F689437F82AE08F
:1047600030E0A5010E94CE24C82ECA188C2C432C00
:1047700036FE0CC0E89440F8C91440F434FE05C07D
:1047800032FC03C0F32DFE7E4F2E892C44FE95C0D3
:10479000FE01EC0DF11D8081803309F087C0242DCE
:1047A000297E422E842D8870582E43FC95C040FEF1
:1047B0008FC09C2C821418F42C0C922C981844FE58
:1047C00091C0B70180E390E00E949E2442FE09C0A0
:1047D00088E790E041FE02C088E590E0B7010E94C2
:1047E0009E24C91408F48AC0CA94D12C9FEFC91A18
:1047F000D90ACA0CDB1CF60182916F01B70190E067
:104800000E949E24AC14BD04B1F74FCF608171812A
:10481000072E000C880B990B0E5F1F4F92CFD32CE5
:10482000E894D4F82AE030E0853739F1232D297F48
:10483000D22E8F3601F148F48835A9F0F701868130
:1048400097812B96E2E10C94F521803749F0883767
:10485000A9F7D4FE02C06894D2F820E130E00DC080
:104860006894D4F8F6CF34FE03C0822F8660D82E29
:1048700020E132E002C028E030E0F801D7FE0FC0AE
:1048800060817181828193810C5F1F4FA5010E941D
:10489000CE24C82ECA183D2CE89437F867CF608123
:1048A000718190E080E00E5F1F4FF0CF42FC02C0AC
:1048B000839478CF8394839475CF842D867809F47C
:1048C00071CFF6CFB70180E290E00E949E248394DE
:1048D0008214C0F3512C73CF522C5818821408F450
:1048E0006ECFF8CF842D867809F47BCF8BE241FE22
:1048F00080E247FC8DE2B70190E071CFB70180E321
:1049000090E00E949E249A946CCF8FEF9FEF99CFF6
:10491000FC010590615070400110D8F7809590958A
:104920008E0F9F1F0895FC0161507040019001108F
:10493000D8F7809590958E0F9F1F08950F931F9322
:10494000CF93DF93182F092FEB018B8181FD09C0D5
:104950001FEF0FEF812F902FDF91CF911F910F91BC
:10496000089582FF14C02E813F818C819D8128177C
:1049700039073CF4E881F981CF0101969983888356
:1049800010838E819F8101969F838E83E3CFE8857C
:10499000F985812F0995892BA1F3DACFFA01AA278E
:1049A000283051F1203181F1E8946F936E7F6E5F72
:1049B0007F4F8F4F9F4FAF4FB1E03ED0B4E03CD020
:1049C000670F781F891F9A1FA11D680F791F8A1F03
:1049D000911DA11D6A0F711D811D911DA11D20D06A
:1049E00009F468943F912AE0269F11243019305D24
:1049F0003193DEF6CF010895462F4770405D419315
:104A0000B3E00FD0C9F7F6CF462F4F70405D4A3361
:104A100018F0495D31FD4052419302D0A9F7EACF29
:104A2000B4E0A6959795879577956795BA95C9F758
:104A300000976105710508959B01AC010A2E06944B
:104A40005795479537952795BA95C9F7620F731F04
:0C4A5000841F951FA01D0895F894FFCF4F
:104A5C00C8000000C8000000E8030000E8030000E4
:104A6C00120013000200FFFF0E001100FFFF6A038B
:104A7C006E03710378036A0374037E038203F003ED
:104A8C00D203B403960386038A03910346005600AF
:104A9C0064000E6310111213020E63101112130234
:104AAC005753705F556600000000BD021D024A029C
:104ABC0025037B0259026D0200000000D30A00009E
:104ACC000000AE084E4F204255464645520030007D
:104ADC000D0A0025642025642025642025642025EA
:104AEC006400626C756500616D6265720067726569
:104AFC00656E0079656C6C6F77002D2D2D2D2D2D2D
:104B0C000072656400796573006E6F006261747485
:104B1C000066616E006F6E006F6666006C6F006DF4
:104B2C0065640068690053746174652C25732C46A8
:104B3C00616E2C25732C25752C42757A7A65722C36
:104B4C0025732C416C6572742C25732C52656D6920
:104B5C006E6465722C25732C436861726765722CC8
:104B6C0025732C4C4544732C25732C25732C2573E1
:104B7C002C25732C25732C25732C25732C6D696CAB
:104B8C006C69566F6C74732C256C642C6D696C6C31
:104B9C0069416D70732C256C642C436F756C6F6D53
:104BAC0062732C256C642C6368617267652C2564B8
:104BBC0025252C626174742C25730066756C6C430E
:104BCC0068617267654D6963726F566F6C747320A0
:104BDC002573202573202573007772697465206511
:104BEC006570726F6D2025732025730031363A3253
:104BFC00373A343300417072203230203230323246
:104C0C00004169722D746F2D416C6C2050415052D3
:104C1C0020332E3141206275696C64203430636519
:104C2C003333320025732025732025732028666CBE
:104C3C00616773202564290D0A54797065202774E7
:104C4C002720746F20656E746572207465737420F0
:104C5C006D6F64650025732073706565642C20642A
:104C6C00757479206379636C65202564002020209D
:104C7C0025752052504D2C20256C64206D696C6C70
:104C8C0069416D7073000D0A256C64206D696C6C44
:104C9C0069416D707300256C64206D696C6C69568C
:104CAC006F6C747300556E6B6E6F776E20636F6DE7
:104CBC006D616E642027256327004F6666004F6E7A
:104CCC00004F6666436867004F6E43686700467521
:104CDC006C00457272004C6F77004D656469756DA0
:064CEC0000486967680042
:00000001FF
