:100000000C94E4010C940C020C940C020C940C0261
:100010000C940C020C94B2160C949B160C940C02CB
:100020000C940C020C940C020C940C020C940C0218
:100030000C940C020C940C020C940C020C940C0208
:100040000C9451160C940C020C941F160C94F91578
:100050000C940C020C940C020C940C020C940C02E8
:100060000C940C020C940C020000000024002700E9
:100070002A0000000000250028002B0000000000DE
:1000800023002600290004040404040404040202DA
:100090000202020203030303030301020408102007
:1000A0004080010204081020010204081020000012
:1000B0000008000201000003040700000000000027
:1000C00000000D0A0A3C3C3C204445425547204F65
:1000D0004E203E3E3E000D0A0A3C3C3C204E6F72D4
:1000E0006D616C204D6F6465203E3E3E0038202DD2
:1000F0002043757272656E742053656E736F722043
:10010000746573740037202D2043686172676572CF
:100110002044657465637420746573740036202D03
:10012000204261747465727920566F6C74616765E2
:1001300020746573740035202D20566F6C746167D0
:1001400065205265666572656E63652074657374BB
:100150000034202D20427574746F6E2074657374A2
:100160000033202D20537065616B657220746573B8
:10017000740032202D2046616E2074657374003146
:10018000202D204C4544207465737400436F6D6DC1
:10019000616E6473206172653A000D0A0A3C3C3C52
:1001A0002054657374204D6F6465203E3E3E000D03
:1001B0000A4C4544205465737420656E6465640080
:1001C0002E002E002E004C45442054657374000D03
:1001D0000A46616E205465737420656E6465640020
:1001E000002E0046616E2054657374000D0A537032
:1001F00065616B6572205465737420656E64656417
:10020000002E00537065616B657220546573740035
:100210000D0A427574746F6E205465737420656E98
:10022000646564002E00427574746F6E20546573AB
:1002300074000D0A566F6C746167652052656665BF
:1002400072656E6365205465737420656E646564C1
:1002500000566F6C74616765205265666572656EE5
:1002600063652054657374000D0A4261747465728D
:100270007920566F6C7461676520546573742065CE
:100280006E646564004261747465727920566F6CA7
:10029000746167652054657374000D0A4368617268
:1002A00067657220446574656374205465737420B7
:1002B000656E646564005768656E20796F752061AE
:1002C00072652066696E697368656420746573740D
:1002D000696E672C20706C656173652072652D6393
:1002E0006F6E6E65637420746865207365726961F2
:1002F0006C206361626C652E0054686520746573C0
:10030000742077696C6C20626567696E2077686518
:100310006E20746865206F72616E6765204C45447D
:100320002073746172747320666C69636B657269A3
:100330006E672E00506C6561736520646973636F2E
:100340006E6E656374207468652073657269616C94
:10035000206361626C652E0043686172676572207C
:100360004465746563742054657374000D0A4375A5
:100370007272656E742053656E736F72205465736C
:100380007420656E6465640043757272656E7420D6
:1003900053656E736F72205465737400000D0A45C7
:1003A0006E746572205465737420436F6D6D616E59
:1003B000643A006368617267657220636F6E6E6590
:1003C000637465640000121711241FBECFEFD8E0DC
:1003D000DEBFCDBF13E0A0E0B1E0E4E9FCE402C081
:1003E00005900D92A039B107D9F725E0A0E9B3E057
:1003F00001C01D92AB3BB207E1F711E0C4EED1E0C2
:1004000004C02197FE010E948923C33ED107C9F78A
:100410000E9444180C9448260C940000AF92BF929E
:10042000CF92DF92EF92FF920F931F93CF93DF93C0
:100430006C017B018B01040F151FEB015E01AE18EF
:10044000BF08C017D10759F06991D601ED91FC9111
:100450000190F081E02DC6010995892B79F7C5013E
:10046000DF91CF911F910F91FF90EF90DF90CF9090
:10047000BF90AF900895FC01538D448D252F30E03F
:10048000842F90E0821B930B541710F0CF960895A1
:1004900001970895FC01918D828D981761F0A28DCE
:1004A000AE0FBF2FB11D5D968C91928D9F5F9F7394
:1004B000928F90E008958FEF9FEF0895FC01918D4A
:1004C000828D981731F0828DE80FF11D858D90E0B7
:1004D00008958FEF9FEF0895FC01918D228D892F54
:1004E00090E0805C9F4F821B91098F73992708953C
:1004F00082E394E00E946C0221E0892B09F420E061
:10050000822F089580E090E0892B29F00E947802E4
:1005100081110C9400000895FC01A48DA80FB92F3F
:10052000B11DA35ABF4F2C91848D90E001968F731B
:100530009927848FA689B7892C93A089B1898C913A
:10054000837080648C93938D848D981306C0028889
:10055000F389E02D80818F7D80830895EF92FF9253
:100560000F931F93CF93DF93EC0181E0888F9B8DD6
:100570008C8D98131AC0E889F989808185FF15C090
:100580009FB7F894EE89FF896083E889F9898081B3
:100590008370806480839FBF81E090E0DF91CF9182
:1005A0001F910F91FF90EF900895F62E0B8D10E0A4
:1005B0000F5F1F4F0F731127E02E8C8D8E110CC013
:1005C0000FB607FCFACFE889F989808185FFF5CF5E
:1005D000CE010E948C02F1CFEB8DEC0FFD2FF11DAF
:1005E000E35AFF4FF0829FB7F8940B8FEA89FB899B
:1005F00080818062CFCF0F931F93CF93DF938C01C5
:10060000D0E0C0E0F801EC0FFD1F6491662341F0DB
:1006100082E394E00E94AE02892B11F02196F2CF82
:10062000CE01DF91CF911F910F910895CF93DF936A
:10063000EC01888D8823B9F0AA89BB89E889F989FA
:100640008C9185FD03C0808186FD0DC00FB607FC2F
:10065000F7CF8C9185FFF2CF808185FFEDCFCE0162
:100660000E948C02E9CFDF91CF91089582E394E05C
:100670000E941603E2E3F4E0A289B3898C918F7E95
:100680008C93A289B3898C91877F8C93A289B3893B
:100690008C918F778C93A289B3898C918F7D8C9369
:1006A000828D818F0895833081F028F4813099F014
:1006B0008230A9F008958730A9F08830C9F08430DD
:1006C000B1F4809180008F7D03C0809180008F778E
:1006D00080938000089584B58F7784BD089584B594
:1006E0008F7DFBCF8091B0008F778093B00008950D
:1006F0008091B0008F7DF9CFCF93DF93282F30E02A
:10070000F901E255FF4F8491F901E656FF4FD4916C
:10071000F901EA57FF4FC491CC23A1F081110E9447
:100720005303EC2FF0E0EE0FFF1FE458FF4FA591AD
:10073000B491EC91ED2381E090E009F480E0DF9149
:10074000CF91089580E090E0FACF80E00E947C0392
:1007500021E0892B09F020E0822F089587E00E9494
:100760007C039093D0048093CF0485E00E947C03A7
:100770009093D2048093D1044091D3045091D40437
:1007800080916D0041155105C9F0806880936D001E
:100790002091D5043091D60480916D00211531054A
:1007A00079F0806280936D0080916800452B11F490
:1007B000232B41F084608093680008958F77E6CF03
:1007C0008F7DF0CF8B7FF7CF1F93CF93DF93282FB1
:1007D00030E0F901E255FF4F8491F901E656FF4FF1
:1007E000D491F901EA57FF4FC491CC23A9F0162FF9
:1007F00081110E945303EC2FF0E0EE0FFF1FEE5823
:10080000FF4FA591B4918FB7F894EC91111108C0E6
:10081000D095DE23DC938FBFDF91CF911F91089598
:10082000DE2BF8CFCF93DF9390E0FC01E656FF4F2D
:1008300024918A579F4FFC0184918823C9F090E04E
:10084000880F991FFC01E859FF4FA591B491FC0155
:10085000EE58FF4FC591D49161110DC09FB7F89428
:100860008C91209582238C938881282328839FBF95
:10087000DF91CF910895623051F49FB7F8943C9185
:10088000822F809583238C93E8812E2BEFCF8FB717
:10089000F894EC912E2B2C938FBFEACF1F93CF931C
:1008A000DF93182FEB0161E00E941204209739F4C6
:1008B00060E0812FDF91CF911F910C94E403CF3F33
:1008C000D10511F461E0F5CFE12FF0E0E255FF4FE3
:1008D000E491E33031F140F4E130B1F0E230E1F0A5
:1008E000C038D1057CF7E4CFE73029F1E83059F181
:1008F000E430B1F780918000806280938000D093D3
:100900008B00C0938A0004C084B5806884BDC7BDD5
:10091000DF91CF911F91089584B5806284BDC8BDD9
:10092000F7CF80918000806880938000D093890009
:10093000C0938800EDCF8091B00080688093B000B4
:10094000C093B300E5CF8091B00080628093B00087
:10095000C093B400DDCF8E50806480937C00809182
:100960007A00806480937A0080917A0086FDFCCFC3
:10097000809178009091790008952F923F924F9244
:100980005F926F927F928F929F92AF92BF92CF921F
:10099000DF92EF92FF920F931F93CF93DF9300D0DC
:1009A00000D0CDB7DEB784E10E94AB043C018FE0FC
:1009B0000E94AB044C0184EFA82EBB24B394C12C3D
:1009C000D12CE12CF12C00E010E02091D9043091E1
:1009D000DA044091DB045091DC046091DD047091F5
:1009E000DE048091DF049091E0040E94D721190178
:1009F0002A0169837A838B839C83B401990C880BC9
:100A0000990B072C000C8808990866197709880942
:100A100099092DE230E743E650E00E942F22E8EEEC
:100A2000AE2EF3E0BF2E0E946B2259016A017B01BA
:100A30008C019101A20169817A818B819C810E9444
:100A40004023A5EFAA2EBB24B394C12CD12CE12CBA
:100A5000F12C00E010E00E946B222093D904309327
:100A6000DA044093DB045093DC046093DD0470935C
:100A7000DE048093DF049093E0040F900F900F90BA
:100A80000F90DF91CF911F910F91FF90EF90DF902A
:100A9000CF90BF90AF909F908F907F906F905F901E
:100AA0004F903F902F9008953FB7F894809117048E
:100AB00090911804A0911904B0911A0426B5A89B2E
:100AC00005C02F3F19F00196A11DB11D3FBFBA2FE0
:100AD000A92F982F8827BC01CD01620F711D811DA0
:100AE000911D43E0660F771F881F991F4A95D1F724
:100AF00008958F929F92AF92BF92CF92DF92EF9222
:100B0000FF924B015C010E9454056B017C010E9425
:100B100054056C197D098E099F09683E7340810553
:100B20009105A8F321E0821A9108A108B10888EE86
:100B3000C80E83E0D81EE11CF11C81149104A104AD
:100B4000B10429F7FF90EF90DF90CF90BF90AF9066
:100B50009F908F900895CF93DF93EC010197C1F49C
:100B600061E086E00E94E4036AE070E080E090E0EB
:100B70000E947905F89480E88093610010926100EA
:100B80007894D093D804C093D704DF91CF9108957F
:100B9000F89480E88093610083E08093610078940A
:100BA00060E086E00E94E4036EE170E080E090E0A7
:100BB0000E947905E6CF2FB7F894609113047091E5
:100BC000140480911504909116042FBF08950E947B
:100BD0005405609378057093790580937A05909316
:100BE0007B05E0E7F5E010828DE2818381E382837B
:100BF00081E0838314821582168217820E94DB05AE
:100C000060937C0570937D0580937E0590937F05AE
:100C10000E94DB05609380057093810580938205B7
:100C20009093830510928405E5E8F5E01082118227
:100C300012821382148215821682178210928D05F9
:100C400010921D0408954115510529F4EAE7F0E0DA
:100C500080818F7780836A307105B9F0CB01880F6E
:100C6000991F880F991F807267706860682B88E1F0
:100C70000FB6F894A895809360000FBE6093600053
:100C8000E0E6F0E0808180648083232BD9F483B791
:100C9000817F846083BFF89483B7816083BF85B709
:100CA000806685BF8F7D85BF7894889583B78E7F5A
:100CB00083BF7894452B29F4EAE7F0E080818068CF
:100CC0008083089583B7817F846083BFF89483B75E
:100CD000816083BF7894889583B78E7F83BF789433
:100CE000E9CFCF93DF93EC0182E394E00E945E02B0
:100CF000019689F064E670E080E090E00E9479055A
:100D000082E394E00E945E02019699F082E394E00F
:100D10000E944A02F5CF62E370E080E090E00E941A
:100D20007905E2971C161D06FCF281E0DF91CF9158
:100D3000089580E0FBCFAF92BF92CF92DF92EF9207
:100D4000FF920F931F93CF93DF93C4E1D0E00E94F3
:100D5000BD042197E1F70E94BD04E8E1AE2EFCEF4F
:100D6000BF2ECC24CA94DD24DA94EE24EA94FF2426
:100D7000FA940FEF1FEF0E946B22B901CA01DF91B5
:100D8000CF911F910F91FF90EF90DF90CF90BF9088
:100D9000AF90089510928000109281001092890007
:100DA0001092880010928B0010928A0008952F9262
:100DB0003F924F925F926F927F928F929F92AF92EB
:100DC000BF92CF92DF92EF92FF920F931F93CF9338
:100DD000DF93CDB7DEB7C958D1090FB6F894DEBF9F
:100DE0000FBECDBF29013A014B011C018091310496
:100DF000CB57DF4F8883C558D040882309F412C1F0
:100E0000C101A0E00E945B2309F415C18091100488
:100E100090911104843091050CF0FBC09C012F5F70
:100E20003F4F3093110420931004880F991FFC0149
:100E3000EB5CFE4FA081B181CD57DF4FB983A88312
:100E4000C358D0409201C101A0E00E945B230CF086
:100E50008AC00E94F92229013A014B011C01CA579C
:100E6000DF4F19821882C658D040FE013296CF5704
:100E7000DF4FF983E883C158D040CF57DF4FA881B7
:100E8000B981C158D0401196C857DF4FB983A883A4
:100E9000C858D0408AE0A82EB12CC12CD12CE12C0E
:100EA000F12C00E010E09201A301B401C1010E9405
:100EB0006922205DCF57DF4FE881F981C158D040CA
:100EC00020839201A301B401C1010E946B22290178
:100ED0003A014B011C01CA57DF4F88819981C658DE
:100EE000D0400196CA57DF4F99838883C658D040B7
:100EF0009201A301B401C101A0E00E945B23C9F5E6
:100F0000CB57DF4F9881C558D040F0E0E0E09923FF
:100F100051F08DE2CD57DF4FA881B981C358D04041
:100F20008C93E1E0F0E0CD57DF4F88819981C35881
:100F3000D040E80FF91F9E012F5F3F4FCF57DF4F83
:100F4000A881B981C158D0402A173B0708F040C09A
:100F50001197CF57DF4FB983A883C158D04011965E
:100F60008C918193EBCFCB57DF4F1882C558D0407F
:100F700076CFCA57DF4F88819981C658D04063E049
:100F800070E00E949D21892BB1F4CF57DF4F8881FB
:100F90009981C158D0400296C857DF4F9983888302
:100FA000C858D040ECE2CF57DF4FA881B981C15873
:100FB000D0401196EC93C857DF4F88819981C8586B
:100FC000D040CF57DF4F99838883C158D04055CF49
:100FD0001082CD57DF4F88819981C358D040C757C1
:100FE000DF4F0FB6F894DEBF0FBECDBFDF91CF91BC
:100FF0001F910F91FF90EF90DF90CF90BF90AF9037
:101000009F908F907F906F905F904F903F902F9028
:101010000895E4E7F1E0CD57DF4FF983E883C35843
:10102000D040D7CF82E891E0CD57DF4F99838883B6
:10103000C358D040CECFAEE7B1E0CD57DF4FB98334
:10104000A883C358D040C5CFE0914204F091430437
:1010500092E09083E0913E04F0913F041082E09191
:101060004004F091410490E1908310924A04E09191
:101070004604F091470496E09083E0914404F09197
:101080004504908190619083E0914404F09145047F
:10109000908198609083E0914404F09145049081A0
:1010A00090689083E0914404F091450490819F7D85
:1010B000908381110EC08091C1008F778093C10011
:1010C0008091C1008F7E8093C10062E080E00E9429
:1010D000120481E080933104089520913104222389
:1010E00031F00E94FB0282E394E00C941603089511
:1010F0000FB6F894A8958091600088618093600095
:10110000109260000FBE08950F931F93CF93DF934B
:10111000EC010E94DB050C811D812E813F81601B4B
:10112000710B820B930B088119812A813B81061771
:1011300017072807390758F4188219821A821B8268
:10114000E885F985DF91CF911F910F910994DF9187
:10115000CF911F910F91089587E00E947C03892B06
:1011600061F484E00E947C03892B39F489E00E94B9
:101170007C03009711F4FC01099408950F931F93C9
:10118000CF93DF93EC018B01672B59F161E08AE08B
:101190000E94120483E28093800081E180938100A9
:1011A00080E496E0909389008093880020918800E5
:1011B0003091890042E3429FC001439F900D11246A
:1011C00064E670E00E94892170938B0060938A002E
:1011D000C553DF4F19830883DF91CF911F910F9182
:1011E00008950E94CA06F4CFCF92DF92EF92FF9249
:1011F0000F931F93CF93DF93EC0188810E947C03B0
:101200008C018A859B850115110581F5892B31F5A6
:101210008889811118C00E94DB05CC84DD84EE84AE
:10122000FF846C197D098E099F09CA80DB80EC80E0
:10123000FD80C616D706E806F90628F4EE81FF8180
:10124000099581E0888B1B870A87DF91CF911F91D9
:101250000F91FF90EF90DF90CF9008950E94DB05F3
:101260006C877D878E879F87188AEDCF892B59F7EA
:10127000E885F985309739F30995E5CFCF92DF926C
:10128000EF92FF920F931F93CF93DF93FC01208582
:10129000222329F1EC010E94DB050C811D812E81A6
:1012A0003F816B017C01C01AD10AE20AF30A08816E
:1012B00019812A813B810C151D052E053F0578F407
:1012C0006C837D838E839F83E985FA85DF91CF913F
:1012D0001F910F91FF90EF90DF90CF900994DF91D5
:1012E000CF911F910F91FF90EF90DF90CF900895D5
:1012F0002E9A0895823621F0833641F00C94E4034F
:10130000613011F40C9478092E980895613011F42D
:101310002F9A08952F9808950C947A090F931F938C
:10132000CF93DF938C01C9E4D1E08991B80190E0BB
:101330000E948C0981E0C035D807B9F7DF91CF91C1
:101340001F910F910895EF92FF920F931F93CF93E8
:10135000DF937C01EB01142F052F642F8C2F0E944B
:101360007A09EEE1F1E090E080E021912C171D0672
:1013700081F4FC01EE0FFF1FEE0DFF1DE354FF4F44
:1013800010830183DF91CF911F910F91FF90EF9018
:10139000089501968730910541F7F4CF2091E1043B
:1013A0003091E204F901EF54FF4F408191E094271E
:1013B000908350E061E170E0C9010C94A309CF93E0
:1013C000DF93EC0160E870E00E94BE0850E040E06E
:1013D00061E170E0CE010E94A309C758DF4F84EF9E
:1013E00091E0A0E0B0E088839983AA83BB830E9448
:1013F000DB056C837D838E839F83DF91CF9108957E
:101400008091E1049091E2040C94DF090F931F9303
:10141000CF93DF93EC0150E040E062E170E00E9486
:10142000A3098E010A5A1F4F41E050E0F801808164
:1014300091811816190614F450E040E063E170E061
:10144000CE010E94A30941E050E0F8018081918122
:10145000029711F450E040E062E070E0CE01DF91CD
:10146000CF911F910F910C94A3090F931F93CF93CA
:10147000DF93EC018B01FB01EE0FFF1FED5BFE4FD5
:101480006081653608F064E670E090E080E00E94DC
:10149000192023E333E343E250E40E941C210E941D
:1014A000DB1FFE01EA5BFF4F87810E944E04FE01B5
:1014B000EA5AFF4F11830083CE010E94060A0E9460
:1014C000DB05FE01E85AFF4F6083718382839383BB
:1014D000C45ADF4F81E08883DF91CF911F910F9134
:1014E00008958091E1049091E204FC01EA5AFF4FD3
:1014F00061E070E0208131812230310511F070E02F
:1015000060E00C94350A8091E1049091E204FC01C2
:10151000EA5AFF4F2081318162E070E0232B11F401
:1015200061E070E00C94350ACF92DF92EF92FF9267
:101530000F931F93CF93DF93EC018C010D591F4F35
:10154000D801EC9081E08E258C93F12CFE01E15ABC
:10155000FF4FC080D180F601619171916F016F3FA3
:10156000760729F0A701CE010E94A309F4CFD80184
:101570008C9170E060E0882311F060E870E0CE01AB
:101580000E94BE08FE01EF59FF4F0190F081E02D4F
:10159000D8018C9181111DC084E090E0E80FF91F03
:1015A00080819181A281B381CC59DF4F8883998357
:1015B000AA83BB830E94DB056C837D838E839F831C
:1015C000DF91CF911F910F91FF90EF90DF90CF901F
:1015D000089590E080E0E2CF8091E1049091E204F0
:1015E0000C94940A0F931F93CF93DF938C01CEE159
:1015F000D1E0699170E050E040E0C8010E94A30989
:1016000081E0C532D807A9F7DF91CF911F910F91E3
:1016100008950F931F93CF93DF938C01CEE1D1E018
:10162000699170E041E050E0C8010E94A30981E0A7
:10163000C532D807A9F7DF91CF911F910F91089577
:10164000CF93DF93EC018A810E947C03892B29F4DC
:101650008A859B8501969B878A87DF91CF91089524
:10166000CF92DF92EF92FF920F931F93CF93DF936E
:10167000EC010E94DB050C851D852E853F85601BD6
:10168000710B820B930B0B811C812D813E81061700
:1016900017072807390798F5F8940A851B850E94D3
:1016A00017209B01AC0160E070E08AE794E40E949F
:1016B0002D1F6B017C01B80190E080E00E94172093
:1016C0009B01AC01C701B6010E941C2120E030E063
:1016D00040E05FE30E941C2120E030E040E752E45C
:1016E0000E941C210E94E21F798768871B861A8648
:1016F0000E94DB056C877D878E879F87789488851D
:101700009985DF91CF911F910F91FF90EF90DF901E
:10171000CF900895CF93DF93EC0161E08A810E941E
:101720007A096FEF70E08F810E944E04D093D60447
:10173000C093D5040E94AE030E94DB056C877D87B1
:101740008E879F8719861886DF91CF910895CF9352
:10175000DF93EC010E94A503882319F10E94BD04C8
:1017600020323F4B424051056105710581059105CD
:1017700009F0D4F4288139814A815B816C817D81B3
:101780008E819F8121153105410550486041754C7E
:101790008F44910509F05CF483E090E0DF91CF91F4
:1017A000089590E080E0FACF81E090E0F7CF82E00A
:1017B00090E0F4CF8F929F92AF92BF92CF92DF9240
:1017C000EF92FF920F931F93CF93DF93CDB7DEB7C6
:1017D0002A970FB6F894DEBF0FBECDBF9A878987D0
:1017E0004C0185E8880E911CF401208131814281F1
:1017F00053816481758186819781305447405A4571
:10180000604F754787409109E2ECAE2EF5EABF2E96
:10181000AEE9CA2EBAE8DB2E1CE2E12E0BEBF02E6D
:1018200000E010E00E946B2229833A834B835C83A3
:101830006D837E838F83988709811A8141E050E010
:101840000832110514F450E040E06EE070E0898544
:101850009A850E94A30989819A81409741E050E0CE
:101860008135910510F450E040E063E670E0898531
:101870009A850E94A30941E050E00734110514F055
:1018800050E040E060E170E089859A850E94A309FC
:10189000C4010E94A70B4C01C984DA84FFEACF0E71
:1018A000D11CF6018081918188169906C9F0E985DD
:1018B000FA85E654FF4F1082F1E08F16910409F487
:1018C00061C008F456C092E08916910409F480C002
:1018D000E3E08E16910409F47EC0F60191828082C5
:1018E0000E94A503E985FA85EA58FF4F81118EC051
:1018F000003111050CF08AC0A985BA85A35ABF4FE3
:101900008D919C91019709F481C0808181111EC045
:1019100089859A850E94DF0989859A8582599F4F1A
:101920009A83898381E0E981FA81808780E395E762
:10193000A0E0B0E080839183A283B3830E94DB05A3
:10194000E981FA8164837583868397832A960FB62B
:10195000F894DEBF0FBECDBFDF91CF911F910F91E5
:10196000FF90EF90DF90CF90BF90AF909F908F90BF
:10197000089541E050E061E170E089859A850E9418
:10198000A309ABCFBB24B394E985FA85EF54FF4F8D
:10199000B08250E040E061E170E089859A850E9464
:1019A000A309E984FA84F2EBEF0EF11CF701B0868B
:1019B00080ED97E0A0E0B0E080839183A283B383C1
:1019C0000E94DB05F701648375838683978385CF47
:1019D00050E040E0D0CFBB24B394E985FA85EF54C2
:1019E000FF4FB08250E040E061E170E089859A8568
:1019F0000E94A309E984FA84F2EBEF0EF11CF701CF
:101A0000B08684E690E0A0E0B0E0D6CF10829ECF12
:101A100042E050E060E871E082E394E00C940E0252
:101A200020913104222341F00E94FB020E94080D04
:101A300082E394E00C9416030895CF93DF93CDB71F
:101A4000DEB780913104882359F09E01255F3F4F16
:101A500043E851E064E170E08DE194E00E949E2350
:101A6000DF91CF9108950F931F93CF93DF93CDB75D
:101A7000DEB7CC52D1400FB6F894DEBF0FBECDBF5B
:101A800080913104882341F19E012B5C3E4FCD5C57
:101A9000DE4F48815981C353D1406CE271E08E0121
:101AA0000F5F1F4FC8010E949E23F8010190002084
:101AB000E9F73197AF01401B510BB80182E394E085
:101AC0000E940E020E94080D82E394E00E94160319
:101AD0001092110410921004C45DDE4F0FB6F894FA
:101AE000DEBF0FBECDBFDF91CF911F910F91089543
:101AF0002F923F924F925F926F927F928F929F921E
:101B0000AF92BF92CF92DF92EF92FF920F931F930B
:101B1000CF93DF93CDB7DEB760970FB6F894DEBFF3
:101B20000FBECDBF3C018B579F4F988B8F87FC0119
:101B30002080318042805380F481F983FC01F5815B
:101B4000FB83FC01868097809101A20169817B81E2
:101B5000C401305447405A45604F7547874091094A
:101B6000E2ECAE2EF5EABF2EAEE9CA2EBAE8DB2EC5
:101B70001CE2E12E0BEBF02E00E010E00E946B2245
:101B80003C872B87A12C80E1B82E95EAC92E24ED45
:101B9000D22E38EEE32EF12C9101A20169817B81D6
:101BA000C4010E946B225D87522E932E842E0E94C8
:101BB000BD04E8EEAE2EF3E0BF2EC12CD12CE12CFB
:101BC0000E946B225E871901442E85E10E94AB04BE
:101BD0009C01932F990F990BA9ECAA2EB8E7BB2E65
:101BE0008FEBC82EDD24D394492F592F692F792FDD
:101BF000892F0E94D721E0E4AE2EF2E4BF2EAFE0A1
:101C0000CA2ED12C0E946B22F52EE22E132F042F08
:101C1000F301E753FF4F808191816CEAA62E61E0CA
:101C2000B62E892B21F452E9A52E51E0B52EF301F1
:101C3000E953FF4F80819181892B09F4EAC08CEA36
:101C400091E09A878987F301EB53FF4F808191815F
:101C5000892B09F4E3C08CEA91E098878F83F30124
:101C6000ED53FF4F80819181892B09F4DCC08BEA11
:101C700091E09E838D83F301EF53FF4F808191812B
:101C8000892B09F4D5C08BEA91E09C838B83F30107
:101C9000E154FF4F80819181892B09F4CEC08AEAFB
:101CA00091E09A838983F301E354FF4F808191810E
:101CB0004DEAC42E41E0D42E892B21F431EBC32E02
:101CC00031E0D32E8F8598890E94A70B880F991F2A
:101CD000FC01E35DFE4FA081B181F301EA58FF4FA3
:101CE000808169EB71E0882311F065EB71E0F3010D
:101CF000E35AFF4F8081918129EB31E0009731F069
:101D000021EC31E0019711F42CEB31E0F301E553C4
:101D1000FF4F8081918148EC51E08038910511F4AA
:101D200045EC51E0F301EA5AFF4F80819181009721
:101D300009F488C0019709F488C083ED91E0EDE1D2
:101D4000F4E0FF93EF93FC85FF93EB85EF93FD8524
:101D5000FF938F929F925F92EE85EF934F923F9207
:101D60002F92FF920F931F93EF92BF92AF92FA853B
:101D7000FF93E985EF93F885FF93EF81EF93FE8161
:101D8000FF93ED81EF93FC81FF93EB81EF93FA8159
:101D9000FF93E981EF93DF92CF92BF93AF937F934D
:101DA0006F933F932F935F934F939F938F93F30181
:101DB000ED57FF4F0190F081E02DEE0FFF1FEB5D1F
:101DC000FE4F81818F9380818F9386ED91E09F9369
:101DD0008F930E94330D0FB6F894DEBF0FBECDBFB8
:101DE00060960FB6F894DEBF0FBECDBFDF91CF91E6
:101DF0001F910F91FF90EF90DF90CF90BF90AF9029
:101E00009F908F907F906F905F904F903F902F901A
:101E10000895E2E9F1E0FA87E98715CFE2E9F1E018
:101E2000F887EF831CCFE7E9F1E0FE83ED8323CF52
:101E3000EDE9F1E0FC83EB832ACFE3EAF1E0FA83FA
:101E4000E98331CF8CEC91E07ACF8FEC91E077CFC2
:101E500080913104882331F08091E1049091E20473
:101E60000C94780D08952F923F924F925F926F924B
:101E70007F928F929F92AF92BF92CF92DF92EF921A
:101E8000FF920F931F93CF93DF93CDB7DEB7689781
:101E90000FB6F894DEBF0FBECDBF48E050E068E05B
:101EA00070E0CE0101960E94001F898189879A8186
:101EB0009A878B818B879C819C878D818D879E8162
:101EC0009E878F818F879885988B29853A854B854A
:101ED0005C856D857E85A0E00E945B2311F00CF08F
:101EE0009AC080EE282E99EC392E22E7422E5524F6
:101EF0005394612C712C812C912C9101A201B3017E
:101F0000C4010E94112023E333E343E75FE30E940F
:101F10001C210E949F1F298B3A8B4B8B5C8B6D8BF6
:101F20007E8B8F8B988F209108043091090440910B
:101F30000A0450910B0460910C0470910D0480917F
:101F40000E0490910F0451016201730184010E94FB
:101F5000522309F43FC029893A894B895C896D89EC
:101F60007E898F89988D0E94D706F82EE92E9101DF
:101F7000A201B301C4010E94D706182F092F298599
:101F80003A854B855C856D857E858F8598890E9415
:101F9000D706EF92FF920F931F939F938F9388E63C
:101FA00092E09F938F930E94330D20920804309209
:101FB000090440920A0450920B0460920C0470923F
:101FC0000D0480920E0490920F040FB6F894DEBFB9
:101FD0000FBECDBF29893A894B895C896D897E897D
:101FE0008F89988D68960FB6F894DEBF0FBECDBF6F
:101FF000DF91CF911F910F91FF90EF90DF90CF90E5
:10200000BF90AF909F908F907F906F905F904F9018
:102010003F902F90089529843A844B845C846D848A
:102020007E848F84988869CF2F923F924F925F92DF
:102030006F927F928F929F92AF92BF92CF92DF92D8
:10204000EF92FF920F931F93CF93DF93CDB7DEB73D
:10205000A0970FB6F894DEBF0FBECDBF0E94A503B8
:10206000182F882391F08091840581110EC083EB95
:1020700093E00E94100D0E94DB0560937C05709335
:102080007D0580937E0590937F051093840584E6FB
:10209000A82EB12CC12CD12CE12CF12C00E010E0A9
:1020A0002091700530917105409172055091730532
:1020B0006091740570917505809176059091770512
:1020C0000E94D721322E432E542E652E762E872E37
:1020D000982E292E85E10E94AB049C01932F990F25
:1020E000990B49ECA42E58E7B52E6FEBC62EDD24D4
:1020F000D394492F592F692F792F892F0E94D721E7
:10210000E8EEAE2EF3E0BF2EC12CD12C0E946B2244
:10211000A32CB42CC52CD62CE72CF82C092D122D71
:102120000E944023A5E6AA2EB12CC12CD12CE12C73
:10213000F12C00E010E00E946B2220937005309398
:102140007105409372055093730560937405709305
:1021500075058093760590937705A0908505B090DE
:102160008605C0908705D0908805E0908905F0909D
:102170008A0500918B0510918C050E944923F22E4F
:10218000032F142FB52FF62FE72FD82EE92EA0E01E
:102190000E945B2354F40E94F922F22E032F142F85
:1021A000B52FF62FE72FD82EE92E2F2D302F412FC8
:1021B0005B2F6F2F7E2F8D2D9E2D2F39364841405E
:1021C0005105610571058105910559F154F10E9490
:1021D000DB05609380057093810580938205909361
:1021E00083058091700580938505809171058093AA
:1021F0008605809172058093870580917305809391
:102200008805809174058093890580917505809378
:102210008A058091760580938B0580917705809360
:102220008C050E9454056B017C010E94BD04298B22
:102230003A8B4B8B5C8B6D8B7E8B8F8B988F8091C9
:10224000780590917905A0917A05B0917B05A70159
:102250009601281B390B4A0B5B0BC0927805D09274
:102260007905E0927A05F0927B05A988BA88CB8837
:10227000DC887B010F89188D60E070E080E090E0E1
:102280000E94D721A0906805B0906905C0906A05AA
:10229000D0906B05E0906C05F0906D0500916E0597
:1022A00010916F050E944023D22EE32EF42E052FAD
:1022B000162FB72FF82FE92F21153105410550486A
:1022C000664573498045910549F044F0D12CE12CD5
:1022D000F12C00E816E5B3E9F0E5E0E02D2D3E2D08
:1022E0004F2D502F612F7B2F8F2F9E2FA0E00E940C
:1022F0005B2344F4D12CE12CF12C00E010E0B0E0A1
:10230000F0E0E0E0D0926805E0926905F0926A059D
:1023100000936B0510936C05B0936D05F0936E05FB
:10232000E0936F050E94DB052B013C01A090700536
:10233000B0907105C0907205D0907305E09174055E
:10234000E98F209175052A8F309176053B8F40915A
:1023500077054C8F0E94330F922E832E342E252E1C
:102360007B018C018091800590918105A09182056F
:10237000B0918305B301A201481B590B6A0B7B0B7B
:1023800091E080E041365A4E6105710508F490E015
:102390009D8F8E8F80917C0590917D05A0917E050B
:1023A000B0917F05B301A201481B590B6A0B7B0B4F
:1023B00091E080E041365A4E6105710508F490E0E5
:1023C0009F8F88A30E94A503F82FE1E029893A890D
:1023D0004B895C896D897E898F89988D2F333D402B
:1023E00043405105610571058105910511F00CF01F
:1023F000E0E01F92EF93E1E09501A601698D7A8DEF
:102400008B8D9C8DA92CB82CC32CD22C0E945223CE
:102410000CF4E0E01F92EF93EE8DEF932D8D2F9350
:1024200038A13F934F8D4F931F92FF9383E891E024
:102430009F938F931F9284E18F938DE194E09F93FC
:102440008F930E941D0D0E94A5030FB6F894DEBF66
:102450000FBECDBF882309F471C080917C05909197
:102460007D05A0917E05B0917F05A3019201281BF7
:10247000390B4A0B5B0BDA01C90181369A4EA10573
:10248000B10508F45BC08091800590918105A09111
:102490008205B0918305A3019201281B390B4A0BD9
:1024A0005B0BDA01C90181369A4EA105B10508F42A
:1024B00045C040917005498F509171055A8F8091A8
:1024C00072058B8FA0917305AC8F209074053090AE
:1024D000750580907605909077050E94330F59011D
:1024E0006A017B018C01298D3A8D4B8D5C8DB10188
:1024F000C4010E94522314F129893A894B895C89CD
:102500006D897E898F89988D2F333D4043405105D9
:10251000610571058105910509F084F480918D05AF
:10252000811129C081E080938D0540928E055092E3
:102530008F05609290057092910504C080918D0581
:102540008111BAC0A0960FB6F894DEBF0FBECDBF02
:10255000DF91CF911F910F91FF90EF90DF90CF907F
:10256000BF90AF909F908F907F906F905F904F90B3
:102570003F902F90089580918E0590918F05A091A6
:102580009005B0919105481A590A6A0A7B0A29E810
:10259000421623E1520661047104A0F2109268050C
:1025A0001092690510926A0580E880936B0586E5B4
:1025B00080936C0583E980936D0580E580936E05BB
:1025C00010926F0520907005309071054090720553
:1025D0005090730560907405709075058090760535
:1025E0009090770548E050E068E070E0CE010196F9
:1025F0000E94001FA980BA80CB80DC80ED80FE8025
:102600000F8118859101A201B301C4010E945223D8
:1026100009F00CF451C029863A864B865C866D869B
:102620007E868F86988A48E050E068E070E0CE01B0
:1026300001960E94001F29803A804B805C806D804B
:102640007E808F80988429853A854B855C856D8551
:102650007E858F85988951016201730184010E94F2
:10266000522351F148E050E068E070E0CE01099655
:102670000E94101F29853A854B855C856D857E8576
:102680008F8598890E94D706182F092F9101A201E2
:10269000B301C4010E94D7060F931F939F938F939A
:1026A00086E892E09F938F930E94330D0F900F90D6
:1026B0000F900F900F900F9010928D0543CF8F9237
:1026C0009F92AF92BF92CF92DF92EF92FF920F93C1
:1026D0001F938091D7049091D804019711F40E9420
:1026E00014108091400590914105892B09F06CC030
:1026F00089E295E00E94300B7C0180913F058823A0
:10270000B1F00E94DB0580903B0590903C05A090C5
:102710003D05B0903E05681979098A099B09603723
:1027200077418105910508F44FC010923F05B7012C
:1027300090E080E00E9417206B017C01E091390558
:10274000F0913A05EE0FFF1FE05BFE4F6081718153
:1027500090E080E00E9417204B015C012AE939E9F2
:1027600049E55FE30E941C219B01AC01C701B60152
:102770000E94281F87FD10C023E333E343E95FE392
:10278000C501B4010E941C219B01AC01C701B60127
:102790000E9417211816C4F482E090E0909341053E
:1027A0008093400580E191E090934305809342053A
:1027B00080E091E090934505809344051092460592
:1027C00083EE94E00E94940A809140059091410527
:1027D000029721F083EE94E00E94060A8091400562
:1027E00090914105019709F096C00E94A5038111BF
:1027F0002CC0209168053091690540916A0550917F
:102800006B0560916C0570916D0580916E059091DE
:102810006F05305447405A45604F754787409109CE
:10282000E2ECAE2EF5EABF2EAEE9CA2EBAE8DB2EF8
:102830001CE2E12E0BEBF02E00E010E00E946B2278
:10284000490189E088169104D4F010924105109254
:1028500040051092470510924805109249051092C4
:102860004A050E94CA061092AF051092AE0583EE8B
:1028700094E00E94090B10929305109292058091AA
:10288000400590914105019721F083EE94E00E946C
:10289000DA0B85EE94E00E94F40886EF94E00E9443
:1028A000F40887E095E00E94F40880914705909134
:1028B0004805A0914905B0914A05892B8A2B8B2B9D
:1028C00021F087E495E00E94840881E595E00E946C
:1028D0003E0980915C0590915D05A0915E05B091E7
:1028E0005F05892B8A2B8B2B21F08CE595E00E94CC
:1028F000840885E995E00E943E0980EB95E01F91F0
:102900000F91FF90EF90DF90CF90BF90AF909F908E
:102910008F900C943E092091680530916905409193
:102920006A0550916B0560916C0570916D05809101
:102930006E0590916F05305447405A45604F75477A
:1029400087409109E2ECAE2EF5EABF2EAEE9CA2E21
:10295000BAE8DB2E1CE2E12E0BEBF02E00E010E0DB
:102960000E946B22490129E0821691040CF08DCF60
:102970000E94A503811183CF1092590510929D05E5
:1029800081E090E0909341058093400588E191E0DB
:10299000909343058093420588E091E0909345052C
:1029A000809344051092460583EE94E00E94940AB9
:1029B00066CFCF93DF93C091E104D091E2040E94EF
:1029C000CA06FE01E553FF4F1182108241E050E03C
:1029D00061E170E0CE01DF91CF910C94A309CF9219
:1029E000DF92EF92FF92CF93DF93EC010E94F20A05
:1029F00060E870E0CE010E94BE080E94DB056B011A
:102A00007C0188E00E947C03892BE1F40E94DB05B5
:102A10006C197D098E099F09693E734081059105F6
:102A200080F3CE010E94090B0E94CA06C553DF4FF6
:102A30001982188281E0DF91CF91FF90EF90DF90B3
:102A4000CF900895CE010E94090B0E94CA06FE0194
:102A5000E553FF4F118210827E018DE5E80EF11CD7
:102A6000F70180819181029719F0CE010E94060A38
:102A7000F70180819181019719F0CE010E94DA0B54
:102A800080E0D9CFCF92DF92EF92FF920F931F9306
:102A9000CF93DF93EC01FC01ED57FF4F718360830F
:102AA0008A5A9F4F6C01E85BFF4F7F018E01035AEA
:102AB0001F4F6130710519F06330710561F50E9497
:102AC0007809F60160817181CE010E94350A0E9469
:102AD000CA06F70111821082F80180819181029764
:102AE00019F0CE010E94060AF801808191810197B8
:102AF00019F0CE010E94DA0B809131048823A9F1EC
:102B0000CE01DF91CF911F910F91FF90EF90DF9059
:102B1000CF900C94780D60E08AE00E94120460E08F
:102B200082E60E947A09F60111821082F801118270
:102B30001082FE01EC59FF4F108211821282138223
:102B40000E94CA06F70111821082CE010E94090B71
:102B50008E0101551F4FF80111821082CE010E9493
:102B6000090BF80111821082C7CFDF91CF911F911D
:102B70000F91FF90EF90DF90CF9008958091E10446
:102B80009091E204FC01ED57FF4F20813181211526
:102B9000310519F02230310521F463E070E00C9426
:102BA00042150895CF93DF93C091E104D091E204E0
:102BB000FE01ED57FF4F808191818130910529F011
:102BC000039779F0DF91CF910895CE010E94EF1421
:102BD00070E060E08823B1F3CE01DF91CF910C94D7
:102BE0004215CE010E94EF14882361F362E070E089
:102BF000F3CF1F920F920FB60F9211242F933F9392
:102C00004F935F936F937F938F939F93AF93BF93F4
:102C1000EF93FF9382E394E00E948C02FF91EF9187
:102C2000BF91AF919F918F917F916F915F914F91E4
:102C30003F912F910F900FBE0F901F9018951F92EC
:102C40000F920FB60F9211242F938F939F93EF93B0
:102C5000FF93E0914204F09143048081E0914804A5
:102C6000F091490482FD1BC0908180914B048F5FDD
:102C70008F7320914C04821741F0E0914B04F0E0F7
:102C8000EE5CFB4F958F80934B04FF91EF919F91EA
:102C90008F912F910F900FBE0F901F9018958081EC
:102CA000F4CF1F920F920FB60F9211242F933F93E0
:102CB0008F939F93AF93BF938091130490911404CB
:102CC000A0911504B09116043091120426E0230F50
:102CD0002D3758F50296A11DB11D20931204809343
:102CE000130490931404A0931504B09316048091D8
:102CF000170490911804A0911904B0911A04019638
:102D0000A11DB11D8093170490931804A09319047A
:102D1000B0931A04BF91AF919F918F913F912F91E2
:102D20000F900FBE0F901F90189529E8230F039660
:102D3000A11DB11DD2CF1F920F920FB60F92112479
:102D40008F930FB6F894A895809160008861809366
:102D50006000109260000FBE8F910F900FBE0F9019
:102D60001F9018951F920F920FB60F9211242F9358
:102D70003F934F935F936F937F938F939F93AF9303
:102D8000BF93EF93FF938091D3049091D404892B48
:102D9000C9F087E00E947C032091CF043091D004D9
:102DA0008217930779F09093D0048093CF04809199
:102DB000D3049091D404DC01ED91FC910190F08159
:102DC000E02D09958091D5049091D604892BC9F006
:102DD00085E00E947C032091D1043091D2048217B7
:102DE000930779F09093D2048093D1048091D50415
:102DF0009091D604DC01ED91FC910190F081E02DE1
:102E00000995FF91EF91BF91AF919F918F917F9124
:102E10006F915F914F913F912F910F900FBE0F9047
:102E20001F9018950F931F93CF93DF93E2E3F4E085
:102E30001382128288EE93E0A0E0B0E08483958351
:102E4000A683B7832AE531E03183208325EC30E087
:102E50003587248724EC30E03787268720EC30E064
:102E6000318B208B21EC30E0338B228B22EC30E055
:102E7000358B248B26EC30E0378B268B118E128E0F
:102E8000138E148EEFECF4E01582148217821682F2
:102E9000128613861486158616861786108A118A5E
:102EA000C3EED4E022E731E03983288324E030E028
:102EB0003B832A838C839D83AE83BF8323E83AE0E0
:102EC000398728871B861A8601E010E01D870C874A
:102ED0001E861F86188A198A21E02A8B49E050E055
:102EE0005C8B4B8B8D8B9E8BAF8BB88F41E75AE001
:102EF0005A8F498F1C8E1B8E1E8F0D8F1F8E18A20E
:102F000019A21AA22BA348E050E05DA34CA342E310
:102F100050E060E070E04EA35FA368A779A742EDA0
:102F200055E15BA74AA71DA61CA61FA70EA718AAB6
:102F300019AA1AAA1BAA2CAB47E050E05EAB4DAB16
:102F40008FAB98AFA9AFBAAF4EEB55E15CAF4BAFCB
:102F50001EAE1DAE1093230500932205109224058A
:102F6000109225051092260510922705209328051A
:102F70002CE631E030932A052093290525E02093A3
:102F80002B0580932C0590932D05A0932E05B093CF
:102F90002F0583E08093300561E00E9412041092B7
:102FA0003A051092390510923F0510924105109292
:102FB000400510924305109242051092450510926B
:102FC0004405109247051092480510924905109249
:102FD0004A058CEE9AE09093500580934F0510922D
:102FE000590580E09AE090935B0580935A05109212
:102FF0005C0510925D0510925E0510925F0589EDEB
:1030000094E190936505809364050E94E705109212
:1030100093051092920510929D058EEC99E0909385
:103020009F0580939E051092AF051092AE051092F9
:10303000B80588E29FE09093BA058093B905D093D4
:10304000E204C093E1041093A1050093A00510933E
:10305000A3050093A2051093A5050093A405109362
:10306000A7050093A6051093A9050093A805109342
:10307000AB050093AA051093AD050093AC05DF9155
:10308000CF911F910F910895CF93DF93CDB7DEB706
:1030900060970FB6F894DEBF0FBECDBF789484B5AD
:1030A000826084BD84B5816084BD85B5826085BD44
:1030B00085B5816085BD80916E00816080936E00D2
:1030C00010928100809181008260809381008091C4
:1030D0008100816080938100809180008160809375
:1030E00080008091B10084608093B1008091B00035
:1030F00081608093B00080917A00846080937A0030
:1031000080917A00826080937A0080917A008E7F2D
:1031100080937A0080917A00806880937A00109280
:10312000C10014B7C12ED12C14BE0E94780881E0D2
:1031300090E00E94AB0562E084E00E94120462E02D
:1031400089E00E94120462E088E00E94120462E0BA
:1031500087E00E94120461E083E00E94120460E0B4
:1031600085E00E941204269A60E085E10E94120424
:1031700060E084E10E94120460E08FE00E9412048B
:1031800061E086E00E94120462E080E00E94120486
:1031900061E08AE00E94120461E08EE00E94120465
:1031A000279A61E080E10E94120461E081E10E94BF
:1031B000120461E082E10E94120461E083E10E9456
:1031C000120461E082E00E9412040E94780970E01B
:1031D00060E083E00E944E0461E08EE00E94E40320
:1031E00061E083E60E947A0961E080E10E94E403E5
:1031F00061E081E10E94E40361E082E10E94E40376
:1032000061E083E10E94E40361E082E00E94E40364
:1032100070E060E08AE00E944E040E94CA0681E0ED
:103220000E9424081F921F9389E992E09F938F9335
:1032300082EA92E09F938F938EEA92E09F938F931E
:1032400087EC92E09F938F930E94330D0FB6F89412
:10325000DEBF0FBECDBF0EE1E02EF12C82E394E085
:103260000E945E028F7D8435910561F482E394E0D3
:103270000E945E02019609F493C582E394E00E94E5
:103280004A02F4CF64E670E080E090E00E947905A5
:10329000F1E0EF1AF10811F786ED90E00E94100DB1
:1032A000109231040E94360380E00E94240882ECD0
:1032B00090E00E94100D13FF8CC10BE010E0015054
:1032C0001109A9F083EE94E00E94F20A64E670E02E
:1032D00080E090E00E94790583EE94E00E94090B63
:1032E00064E670E080E090E00E947905E8CF0E94FB
:1032F000A50313E0812E912C811103C088248394AF
:10330000912C89E295E00E948A0B70E060E083EEE8
:1033100094E00E94350A88E198E20FB6F894A895E7
:10332000809360000FBE9093600083EE94E09093D2
:10333000D4048093D3040E94AE0385E10E94AB04C1
:103340009C01932F990F990BB9ECAB2E18E7B12E76
:103350000FEBC02EDD24D394E12CF12C00E010E023
:10336000492F592F692F792F892F0E94D721E8EEF5
:10337000AE2EF3E0BF2EC12CD12C0E946B2259013E
:103380006A0120E2A21625ECB2062BEFC206D10498
:103390000CF450C185E10E94AB049C01932F990F5E
:1033A000990B69ECA62E78E7B72EEFEBCE2EDD2435
:1033B000D394E12CF12C00E010E0492F592F692F14
:1033C000792F892F0E94D721F8EEAF2EA3E0BA2ED5
:1033D000C12CD12C0E946B22B901CA0128EE33E026
:1033E00040E050E00E94B121DA01C9018032EEE4F0
:1033F0009E07A105B1050CF413C182539B44A1099A
:10340000B10952E0880F991FAA1FBB1F5A95D1F727
:103410002C013D01770C4408542C3201A12C00E111
:10342000B02E25EAC22E34EDD32E48EEE42EF12C38
:1034300000E010E09C01AD01642D742D842D942DCD
:103440000E94D72121153105410550486645734931
:103450008045910511F00CF0F6C085E10E94AB04A7
:103460009C01932F990F990B49ECA42E58E7B52E88
:103470006FEBC62EDD24D394E12C492F592F692FF1
:10348000792F892F0E94D721E8EEAE2EF3E0BF2ED0
:10349000C12CD12C0E946B22B901CA0128EE33E065
:1034A00040E050E00E94B121DA01C90180322EE4EF
:1034B0009207A105B1050CF4B8C082539B44A10941
:1034C000B10922E0880F991FAA1FBB1F2A95D1F7C7
:1034D0002C013D01770C4408542C3201A12CE0E171
:1034E000BE2EF5EACF2E14EDD12E08EEE02EF12CF3
:1034F00000E010E09C01AD01642D742D842D942D0D
:103500000E94D721209368053093690540936A058E
:1035100050936B0560936C0570936D0580936E05F9
:1035200090936F05B40183EE94E00E94421581E010
:103530008093B80580E197E2A0E0B0E08093B00509
:103540009093B105A093B205B093B3050E94DB053B
:103550006093B4057093B5058093B6059093B70555
:1035600010921C04412C64E0562E612C712C5BE2FD
:10357000252E53E0352E80911C04882309F477C34F
:103580008DE993E00E94100D82E394E00E945E02B8
:103590008A30910509F45FC08D30910509F45BC054
:1035A000019691F382E394E00E944A028C0164E662
:1035B00070E080E090E00E94790582E394E00E9450
:1035C0005E02019609F44CC082E394E00E944A0234
:1035D000F4CFCD28D9F406E010E00150110909F428
:1035E00086CE83EE94E00E94F20A6CE271E080E005
:1035F00090E00E94790583EE94E00E94090B6CE252
:1036000071E080E090E00E947905E7CF0E94A50379
:10361000A2E08A2E912C811174CE912C812C71CE36
:1036200084579044A109B109F3CE84579044A1096D
:10363000B1094ECF20E030E040E050E060E070E0C3
:1036400080E090E05FCF20E030E040E050E866E5C9
:1036500073E980E5F6CF82E394E00E944A0294CFBA
:103660008CE993E00E94100D0533110509F4D8C1CF
:103670000CF06BC00233110509F4CFC08CF4013398
:10368000110509F474C01F930F9388E493E09F938E
:103690008F930E94330D0F900F900F900F90B0C03A
:1036A0000333110509F462C10433110561F786E2A1
:1036B00092E00E94100D81E090E00E948E0984E269
:1036C00092E00E946D0804E110E088E00E947C0313
:1036D00061E070E0892B11F470E060E08EE090E032
:1036E0000E948C0987E00E947C0361E070E0892BD6
:1036F00011F470E060E080E190E00E948C0989E0C4
:103700000E947C0361E070E0892B11F470E060E0BE
:1037100082E190E00E948C0984E00E947C0361E0D9
:1037200070E0892B11F470E060E082E090E00E948C
:103730008C0982E390E00E947106882309F469C134
:103740000150110909F0C1CFBACF0733110509F4AF
:10375000D2C10CF48EC10833110509F46AC20237D4
:10376000110509F090CFF0E0E0E0099549C086EC42
:1037700091E00E94100D49E4E42E41E0F42EF7019F
:1037800001917F0110E070E060E0C8010E948C09A7
:1037900084EC91E00E946D0888EE93E00E9471062F
:1037A000882331F161E070E0C8010E948C09F0E5E6
:1037B000EF16F1E0FF0619F790E080E00E948E0915
:1037C00082EC91E00E946D0880ED97E00E94710606
:1037D000882371F081E090E00E948E0980EC91E0F6
:1037E0000E946D0888EE93E00E9471068111C3CF9C
:1037F00081E090E00E948E098FEA91E00E94100D16
:1038000080E090E0892B09F4B6CE0E9478028823EC
:1038100009F4B1CE0E940000AACE83EE91E00E948E
:10382000100D8CE691E09A83898385E08B8384E692
:1038300090E0A0E0B0E08C839D83AE83BF8383E003
:10384000888761E00E941204CE0101960E948A0BD3
:10385000CE0101960E94300B38EFA32E32E0B32E3A
:103860000E94780903E411E02DE3C22E21E0D22E5C
:10387000F801F080E1800E5F1F4F6F2DF4E6FF1519
:1038800008F464E670E090E080E00E94192023E3F1
:1038900033E343E250E40E941C210E94DB1F888531
:1038A0000E944E04F60180819181F2E0CF0ED11C7E
:1038B000EF92FF929F938F93BF92AF920E94330D2E
:1038C0000F900F900F900F900F900F9095E0E92EB2
:1038D000F12C88EE93E00E9471068823D1F1CE018D
:1038E00001960E94300B982E892E0E949B069F9372
:1038F0008F937F936F938F929F9280E193E09F933A
:103900008F930E94330DF1E0EF1AF1080FB6F8948F
:10391000DEBF0FBECDBFE9F691E00934190709F00B
:10392000A7CF60E082E60E947A0908E010E081EE0D
:1039300091E00E946D0888EE93E00E947106882352
:1039400041F00150110999F780EE91E00E94100DAD
:1039500087CF1092D6041092D5040E94AE0360E087
:1039600082E60E947A098FEC91E048CF83E092E0F2
:103970000E94100D61E08AE00E94120483E28093AD
:10398000800081E18093810080E496E0909389003B
:1039900080938800209188003091890042E3429F03
:1039A000C001439F900D112464E670E00E948921BC
:1039B00070938B0060938A000CE010E085E0E82EA5
:1039C000F12C81E092E00E946D0888EE93E00E9465
:1039D00071068823C9F0E1E0EE1AF10891F70E9420
:1039E0009B069F938F937F936F9389E293E09F93BE
:1039F0008F930E94330D015011090F900F900F907B
:103A00000F900F900F90D1F60E94CA068CEE91E0B5
:103A1000F5CE81E090E00E948E0980E192E0EECE4A
:103A200081E592E00E94100D09E313E08FE00E940F
:103A3000AB0428E833E1DC010E94D021A30192010C
:103A40000E94B1215F934F933F932F931F930F9346
:103A50000E94330D88EE93E00E9471060F900F9044
:103A60000F900F900F900F908111E0CF82E392E0C2
:103A7000C5CE85E892E00E94100DB9E38B2EB3E02D
:103A80009B2E85E10E94AB049C01932F990F990B0B
:103A900049ECA42E58E7B52E6FEBC62EDD24D39447
:103AA000E12CF12C00E010E0492F592F692F792FDC
:103AB000892F0E94D721E0E4AE2EF2E4BF2EAFE0C2
:103AC000CA2ED12C0E946B225F934F933F932F936A
:103AD0009F928F920E94330D88EE93E00E947106B0
:103AE0000F900F900F900F900F900F908111C9CFF2
:103AF00088E692E083CE88E593E00E94100D84E38F
:103B000093E00E94100D89EF92E00E94100D86EB69
:103B100092E00E94100D29E4A22E21E0B22E750140
:103B2000F70101917F0110E070E060E0C8010E94A0
:103B30008C0964EF71E080E090E00E94790561E01B
:103B400070E0C8010E948C0964EF71E080E090E0B1
:103B50000E947905F0E5EF16F1E0FF0609F70E94F3
:103B6000360362E080E00E94120481E090E00E944F
:103B70008E0960E0F12CE12C99249394862E8924FF
:103B800070E081E190E00E948C0962E370E080E0E7
:103B900090E00E94790580E00E947C038C01CC2497
:103BA000C394D12C0115110511F4D12CC12CB601EF
:103BB0008EE090E00E948C09B60182E090E00E94C5
:103BC0008C090115110509F0870178012FEFE21A20
:103BD000F20A682D80E5E816F10481F681E090E0B4
:103BE0000E948E0980E5E82E81E0F82EF70102910F
:103BF0007F0110E070E060E0C8010E948C0964EF72
:103C000071E080E090E00E94790561E070E0C80119
:103C10000E948C0964EF71E080E090E00E947905D9
:103C2000AE14BF0419F781E00E9424088AE992E0EB
:103C3000E5CD88E893E00E94100D88EE93E00E94A5
:103C40007106882389F00E949B069F938F937F9330
:103C50006F933F922F920E94330D0F900F900F9011
:103C60000F900F900F90E9CF8CE693E0C7CDA89509
:103C700080916605909167058130910589F0F0F09B
:103C80008230910509F469C0039709F0B9CD0E940B
:103C90005F130E94A5038111B3CD61E070E009C0FC
:103CA0000E945F130E94A50363E070E0882309F47B
:103CB000A7CD83EE94E00E944215A2CD0E94780821
:103CC00090E080E00E94AB0530E020E050E040E072
:103CD00066E070E08BE194E00E9423060E94A50359
:103CE0008823B9F081E090E00E94AB0562E070E0CB
:103CF00083EE94E00E94421588E198E20FB6F894B2
:103D0000A895809360000FBE909360000E94E70525
:103D100077CD0E94DB056B017C0187E00E947C036C
:103D2000892B91F60E94DB056C197D098E099F098C
:103D30006E3771058105910580F381E090E00E9466
:103D4000AB0561E070E083EE94E00E94421587E0ED
:103D50000E947C03892BD9F3CFCF8091D704909117
:103D6000D804019711F40E94141083EE94E00E948D
:103D7000DA0B0E94A503811106C070E060E083EEBB
:103D800094E00E94421588E195E00E94F40880EBDF
:103D900095E00E943E0985E995E00E943E0930CDFC
:103DA00081E080931C0460E082E60E947A098AE93F
:103DB00091E00E94100D8CE891E00E94100D8FE7B9
:103DC00091E00E94100D82E791E00E94100D81E6C3
:103DD00091E00E94100D81E591E00E94100D86E3B4
:103DE00091E00E94100D8DE191E00E94100D85E0A0
:103DF00091E00E94100D8DEE90E00E94100DB2CB6C
:103E0000DC01CB01FC01F999FECF06C0F2BDE1BD9A
:103E1000F89A319600B40D9241505040B8F7089589
:103E2000DC01CB0103C02D910E941B1F415050406B
:103E3000D0F70895262FF999FECF1FBA92BD81BD04
:103E400020BD0FB6F894FA9AF99A0FBE019608951C
:103E50000E94922008F481E008950E94411F0C9472
:103E6000DD200E94D62058F00E94CF2040F029F497
:103E70005F3F29F00C94B62051110C9411210C9441
:103E8000BC200E94EE2068F39923B1F3552391F3EF
:103E9000951B550BBB27AA2762177307840738F0B9
:103EA0009F5F5F4F220F331F441FAA1FA9F335D016
:103EB0000E2E3AF0E0E832D091505040E695001CCA
:103EC000CAF72BD0FE2F29D0660F771F881FBB1F84
:103ED000261737074807AB07B0E809F0BB0B802D62
:103EE000BF01FF2793585F4F3AF09E3F510578F08E
:103EF0000C94B6200C9411215F3FE4F3983ED4F368
:103F0000869577956795B795F7959F5FC9F7880F61
:103F1000911D9695879597F90895E1E0660F771FB3
:103F2000881FBB1F621773078407BA0720F0621B44
:103F3000730B840BBA0BEE1F88F7E0950895BEE370
:103F400004D008F490E80895BFE322273327A9019D
:103F50000E94F62060F19F5748F1B91740F1BFE386
:103F6000B91B9927B8503AF4660F771F881F991F1D
:103F7000B395D2F316C0B8504AF0232F342F452FF3
:103F8000562F672F782F8827B850BAF7B85F49F0B7
:103F90008695779567955795479537952795BA955F
:103FA000B9F716F40E94BF2088940895889460E0C1
:103FB00070E0CB0108950E94E21F6894B1110C9447
:103FC000112108950E94F62088F09F5798F0B92F8C
:103FD0009927B751B0F0E1F0660F771F881F991F3E
:103FE0001AF0BA95C9F714C0B13091F00E941021AF
:103FF000B1E008950C941021672F782F8827B85FBF
:1040000039F0B93FCCF3869577956795B395D9F795
:104010003EF490958095709561957F4F8F4F9F4F9F
:10402000089597FB16F40E94BF200C945520E89445
:1040300009C097FB3EF490958095709561957F4FF0
:104040008F4F9F4F9923A9F0F92F96E9BB2793959E
:10405000F695879577956795B795F111F8CFFAF4AE
:10406000BB0F11F460FF1BC06F5F7F4F8F4F9F4FDF
:1040700016C0882311F096E911C0772321F09EE83D
:10408000872F762F05C0662371F096E8862F70E0A3
:1040900060E02AF09A95660F771F881FDAF7880F7D
:1040A0009695879597F90895E894F92F96EBFF2355
:1040B00081F0121613061406440B9395F695879516
:1040C0007795679557954040FF23B9F71BC099270F
:1040D0000895882351F49850D2F7872B762F652FB7
:1040E000542F432F322F20E0B1F31216130614067B
:1040F000440B88233AF09A95440F551F661F771F8B
:10410000881FCAF755234AF4440F551F11F460FF66
:1041100004C06F5F7F4F8F4F9F4F880F9695879595
:1041200097F90895990F0008550FAA0BE0E8FEEFE4
:1041300016161706E807F907C0F012161306E4076B
:10414000F50798F0621B730B840B950B39F40A2664
:1041500061F0232B242B252B21F408950A2609F442
:10416000A140A6958FEF811D811D089597F99F6746
:1041700080E870E060E008959FEF80EC08959095EE
:1041800080957095609550954095309521953F4F5D
:104190004F4F5F4F6F4F7F4F8F4F9F4F08950024BA
:1041A0000A941616170618060906089500240A949C
:1041B00012161306140605060895092E0394000C22
:1041C00011F4882352F0BB0F40F4BF2B11F460FFB1
:1041D00004C06F5F7F4F8F4F9F4F089557FD9058DA
:1041E000440F551F59F05F3F71F04795880F97FBBB
:1041F000991F61F09F3F79F0879508951216130675
:104200001406551FF2CF4695F1DF08C016161706A3
:104210001806991FF1CF86957105610508940895D8
:10422000E894BB2766277727CB0197F908950E946A
:10423000922008F48FEF08950E942F210C94DD2026
:104240000E94CF2038F00E94D62020F0952311F054
:104250000C94B6200C94BC2011240C9411210E94C3
:10426000EE2070F3959FC1F3950F50E0551F629FAC
:10427000F001729FBB27F00DB11D639FAA27F00DBF
:10428000B11DAA1F649F6627B00DA11D661F829FE6
:104290002227B00DA11D621F739FB00DA11D621FCB
:1042A000839FA00D611D221F749F3327A00D611DE8
:1042B000231F849F600D211D822F762F6A2F1124CA
:1042C0009F5750409AF0F1F088234AF0EE0FFF1FFD
:1042D000BB1F661F771F881F91505040A9F79E3F54
:1042E000510580F00C94B6200C9411215F3FE4F34B
:1042F000983ED4F3869577956795B795F795E795AA
:104300009F5FC1F7FE2B880F911D9695879597F9B2
:104310000895AA1BBB1B51E107C0AA1FBB1FA6170C
:10432000B70710F0A61BB70B881F991F5A95A9F75E
:1043300080959095BC01CD01089597FB072E16F44A
:10434000009407D077FD09D00E94892107FC05D091
:104350003EF4909581959F4F0895709561957F4F9C
:104360000895052E97FB1EF400940E94C82157FD66
:1043700007D00E94672307FC03D04EF40C94C82199
:1043800050954095309521953F4F4F4F5F4F089581
:1043900090958095709561957F4F8F4F9F4F0895B1
:1043A0000E948F23B7FF0895821B930B0895DF931C
:1043B000CF931F930F939A9DF02D219FF00D8B9D0E
:1043C000F00D8A9DE02DF10D039FF00D029FE00D91
:1043D000F11D4E9DE00DF11D5E9DF00D4F9DF00D08
:1043E0007F936F93BF92AF925F934F93D5010E94DB
:1043F0008F238B01AC01D7010E948F23EB01E80FC3
:10440000F91FD6010E9426222F913F91D6010E94CA
:104410008F23C60FD71FE81FF91FAF91BF910E94CE
:1044200026222F913F910E948F23C60FD71FE81F8E
:10443000F91FD6010E948F23E60FF71F9801BE01D6
:10444000CF010F911F91CF91DF9108950E948F238B
:10445000460F571FC81FD91F08F43196089597FBC0
:1044600057FF0C943F229F938F930E943F226E1B15
:104470007F0BAF91BF918A0B9B0B0895E894DF935C
:10448000CF93FC01DB010E948F237F936F93E9019F
:104490009A01AC01BF93AF933F932F93DF010E942A
:1044A0008F2326F46C1B7D0B820B930B9E01EB017B
:1044B000FC010E942622AF91BF912F913F910E9453
:1044C0002622BE01CF01F9012F913F91CF91DF91BB
:1044D0000895689401C0E894F92FF12B12F00C9420
:1044E0009D22A0E0B0E0E7E7F2E20C940F23092E52
:1044F000059422F40E94F922112392F4F0E80F2689
:10450000FFEFE094F09400951095B094C094D0948F
:10451000A194BF0ACF0ADF0AEF0AFF0A0F0B1F0B95
:104520000E94A82207FC0E94F922CDB7DEB7ECE07A
:104530000C942B23689401C0E8948F929F92CF93A0
:10454000DF930E94A822DF91CF919F908F900895D2
:1045500088249924F401E401B0E49F93AA279A15D2
:104560008B049C04ED05FE05CF05D007A10798F448
:10457000AD2FDC2FCF2FFE2FE92D982C892E982FD1
:10458000872F762F652F542F432F322F2227B85095
:1045900031F7BF9127C01B2EBF91BB27220F331FBE
:1045A000441F551F661F771F881F991F881C991C61
:1045B000EE1FFF1FCC1FDD1FAA1FBB1F8A149B0409
:1045C000EC05FD05CE05DF05A007B10748F08A1808
:1045D0009B08EC09FD09CE09DF09A00BB10B216096
:1045E0001A94E1F62EF49401AF01BE01CD01000C46
:1045F000089560957095809590953095409550956B
:1046000021953F4F4F4F5F4F6F4F7F4F8F4F9F4FC2
:1046100008952F923F924F925F926F927F928F9266
:104620009F92AF92BF92CF92DF92EF92FF920F9341
:104630001F93CF93DF93CDB7DEB7CA1BDB0B0FB64B
:10464000F894DEBF0FBECDBF09942A883988488808
:104650005F846E847D848C849B84AA84B984C8849E
:10466000DF80EE80FD800C811B81AA81B981CE0F95
:10467000D11D0FB6F894DEBF0FBECDBFED0108957A
:104680002A0D3B1D4C1D5D1D6E1D7F1D801F911F42
:1046900008952A193B094C095D096E097F09800BB1
:1046A000910B08952A153B054C055D056E057F05A8
:1046B0008007910708950024A7FD00942A1730056C
:1046C0004005500560057005800590050895A1E23C
:1046D0001A2EAA1BBB1BFD010DC0AA1FBB1FEE1F7C
:1046E000FF1FA217B307E407F50720F0A21BB30BC7
:1046F000E40BF50B661F771F881F991F1A9469F743
:1047000060957095809590959B01AC01BD01CF019E
:104710000895EE0FFF1F0590F491E02D0994A29FDC
:10472000B001B39FC001A39F700D811D1124911D85
:10473000B29F700D811D1124911D0895AEE0B0E06F
:10474000E4EAF3E20C9417238C01FA0186E08C83EF
:104750001A83098377FF02C060E070E86150710935
:104760007E836D83A901BF01CE0101960E94CA23F9
:104770004D815E8157FD0AC02F813885421753074E
:104780000CF49A01020F131FF80110822E96E4E038
:104790000C943323ABE0B0E0E0EDF3E20C9409239A
:1047A0007C013B018A01FC0117821682838181FF13
:1047B000C8C1CE0101965C01F7019381F30193FD1D
:1047C000859193FF81913F01882309F453C185327C
:1047D00039F493FD859193FF81913F01853229F44E
:1047E000B70190E00E94BA25E7CF912C212C312C03
:1047F000FFE1F31538F08B3211F190F4803209F1BA
:10480000833229F137FC3CC020ED280F2A3050F5C7
:1048100036FE20C08AE0989E200D1124922E06C0FC
:104820008D3291F0803371F7689430F8F30193FD85
:10483000859193FF81913F018111DACF21C0689466
:1048400031F8689432F8F2CF689433F8EFCF689477
:1048500034F8ECCFEAE02E9E200D1124222E68942D
:1048600035F8E4CF8E3229F436FC04C1689436F86A
:10487000DDCF8C3619F4689437F8D8CF8836B1F28A
:10488000982F9F7D95549330E0F08336A1F18337C4
:10489000C1F1833509F063C02801F2E04F0E511CCD
:1048A000F801C080D180692D70E036FC02C06FEF46
:1048B0007FEFC6010E94A4254C01689437F882015D
:1048C0000AC00C5F1F4FFFE3F98388248394912C67
:1048D0006501E89437F833FE2DC0522C8114910401
:1048E00071F5552009F468CFB70180E290E00E948D
:1048F000BA255A94F6CFF801808189830E5F1F4F45
:10490000E4CF2801F2E04F0E511CF801C080D180A5
:10491000692D70E036FC02C06FEF7FEFC6010E9488
:10492000AF254C018201D5CFB70180E290E00E9413
:10493000BA252A942814190409F0B0F7CECFF6014D
:1049400037FC859137FE81916F01B70190E00E949D
:10495000BA2551105A94F1E08F1A9108BFCF8436CE
:1049600019F0893609F077C0F80137FE6BC0608115
:104970007181828193810C5F1F4FF32DFF763F2E53
:1049800097FF09C090958095709561957F4F8F4FE7
:104990009F4F689437F82AE030E0A5010E94EA258D
:1049A000C82ECA188C2C432C36FE0CC0E89440F854
:1049B000C91440F434FE05C032FC03C0F32DFE7E62
:1049C0004F2E892C44FE95C0FE01EC0DF11D808117
:1049D000803309F087C0242D297E422E842D8870D3
:1049E000582E43FC95C040FE8FC09C2C821418F4B6
:1049F0002C0C922C981844FE91C0B70180E390E0F3
:104A00000E94BA2542FE09C088E790E041FE02C03C
:104A100088E590E0B7010E94BA25C91408F48AC05D
:104A2000CA94D12C9FEFC91AD90ACA0CDB1CF60113
:104A300082916F01B70190E00E94BA25AC14BD04C9
:104A4000B1F74FCF60817181072E000C880B990B55
:104A50000E5F1F4F92CFD32CE894D4F82AE030E0B9
:104A6000853739F1232D297FD22E8F3601F148F475
:104A70008835A9F0F701868197812B96E2E10C94A5
:104A80002523803749F08837A9F7D4FE02C06894FF
:104A9000D2F820E130E00DC06894D4F8F6CF34FEAF
:104AA00003C0822F8660D82E20E132E002C028E0C9
:104AB00030E0F801D7FE0FC060817181828193815F
:104AC0000C5F1F4FA5010E94EA25C82ECA183D2C75
:104AD000E89437F867CF6081718190E080E00E5FE5
:104AE0001F4FF0CF42FC02C0839478CF839483940D
:104AF00075CF842D867809F471CFF6CFB70180E2A7
:104B000090E00E94BA2583948214C0F3512C73CF95
:104B1000522C5818821408F46ECFF8CF842D867862
:104B200009F47BCF8BE241FE80E247FC8DE2B701C6
:104B300090E071CFB70180E390E00E94BA259A948B
:104B40006CCF8FEF9FEF99CFFC01059061507040C3
:104B50000110D8F7809590958E0F9F1F0895FC0146
:104B60006150704001900110D8F7809590958E0F9C
:104B70009F1F08950F931F93CF93DF93182F092F33
:104B8000EB018B8181FD09C01FEF0FEF812F902F6B
:104B9000DF91CF911F910F91089582FF14C02E8154
:104BA0003F818C819D81281739073CF4E881F98188
:104BB000CF0101969983888310838E819F8101960E
:104BC0009F838E83E3CFE885F985812F0995892B13
:104BD000A1F3DACFFA01AA27283051F1203181F16F
:104BE000E8946F936E7F6E5F7F4F8F4F9F4FAF4FF5
:104BF000B1E03ED0B4E03CD0670F781F891F9A1F08
:104C0000A11D680F791F8A1F911DA11D6A0F711DBB
:104C1000811D911DA11D20D009F468943F912AE0C7
:104C2000269F11243019305D3193DEF6CF010895AF
:104C3000462F4770405D4193B3E00FD0C9F7F6CFE0
:104C4000462F4F70405D4A3318F0495D31FD4052A8
:104C5000419302D0A9F7EACFB4E0A695979587953E
:104C600077956795BA95C9F700976105710508951D
:104C70009B01AC010A2E06945795479537952795C9
:104C8000BA95C9F7620F731F841F951FA01D089561
:044C9000F894FFCFC6
:104C9400C8000000C8000000E8030000E8030000AA
:104CA400120013000200FFFF0E001100FFFF0E634D
:104CB40010111213025D03610364036B0371036734
:104CC4000374037903EA03CC03AE0390037F0383E5
:104CD400038A030000320064000E631011121302F1
:104CE400371DF03EFF5600000000AE020E023B02EC
:104CF40016036C024A025E0200000000200B000052
:104D04000000AC084E4F2042554646455200300044
:104D14000D0A0025642025642025642025642025AF
:104D24006400626C756500616D626572006772652E
:104D3400656E0079656C6C6F77002D2D2D2D2D2DF2
:104D44000072656400796573006E6F00626174744B
:104D54000066616E006F6E006F6666006C6F006DBA
:104D640065640068690053746174652C25732C466E
:104D7400616E2C25732C42757A7A65722C25732CFE
:104D8400416C6572742C25732C52656D696E646573
:104D9400722C25732C436861726765722C25732C01
:104DA4004C4544732C25732C25732C25732C2573A7
:104DB4002C25732C25732C25732C6D696C6C69560A
:104DC4006F6C74732C256C642C6D696C6C69416D0B
:104DD40070732C256C642C436F756C6F6D62732C2F
:104DE400256C642C6368617267652C256425252C09
:104DF400626174742C25730066756C6C436861720F
:104E040067654D6963726F566F6C747320257320E8
:104E14002573202573007772697465206565707247
:104E24006F6D2025732025730031353A34373A34B9
:104E340035004F6374203232203230323100416900
:104E4400722D746F2D416C6C20504150522052656C
:104E54007620332E314100257320257320257320BD
:104E640028666C616773202564290D0A547970657E
:104E74002027742720746F20656E74657220746512
:104E84007374206D6F6465002573207370656564A9
:104E94002C2064757479206379636C652025640023
:104EA40020202052504D2025752C20256C64206D27
:104EB400696C6C69416D7073000D0A256C64206D1A
:104EC400696C6C69416D707300256C64206D696C4C
:104ED4006C69566F6C747300556E6B6E6F776E20D1
:104EE400636F6D6D616E642027256327004F6666CE
:104EF400004F6E004F6666436867004F6E436867F5
:104F0400004E6F0046756C6C004572726F72004CF7
:104F14006F77004D656469756D00486967680000C6
:00000001FF
