:100000000C946D020C9495020C9495020C9495023C
:100010000C9495020C949E170C9487170C949502DF
:100020000C9495020C9495020C9495020C949502F4
:100030000C9495020C9495020C9495020C949502E4
:100040000C943D170C9495020C940B170C94E51628
:100050000C9495020C9495020C9495020C949502C4
:100060000C9495020C9495020000000024002700D7
:100070002A0000000000250028002B0000000000DE
:1000800023002600290004040404040404040202DA
:100090000202020203030303030301020408102007
:1000A0004080010204081020010204081020000012
:1000B0000008000201000003040700000000000027
:1000C00000000D0A0A3C3C3C205374617475732097
:1000D0007265706F7274696E6720656E61626C65BF
:1000E00064203E3E3E000D0A0A3C3C3C204E6F72AE
:1000F0006D616C204D6F6465203E3E3E0063202D97
:100100002043616C696272617465204D43552043E0
:100110006C6F636B0072202D20526573657400381C
:10012000202D2043757272656E742053656E736F57
:100130007220746573740037202D204368617267E4
:100140006572204465746563742074657374003649
:10015000202D204261747465727920566F6C746131
:10016000676520746573740035202D20566F6C749C
:10017000616765205265666572656E6365207465AA
:1001800073740034202D20427574746F6E20746572
:1001900073740033202D20537065616B6572207479
:1001A0006573740032202D2046616E20746573746F
:1001B0000031202D204C4544207465737400436F3A
:1001C0006D6D616E6473206172653A000D0A0A3CC0
:1001D0003C3C2054657374204D6F6465203E3E3E68
:1001E000000D0A4C4544205465737420656E6465A7
:1001F00064002E002E002E004C454420546573747C
:10020000000D0A46616E205465737420656E646546
:100210006400002E0046616E2054657374000D0A60
:10022000537065616B6572205465737420656E64EC
:100230006564002E00537065616B657220546573B0
:1002400074000D0A427574746F6E205465737420C7
:10025000656E646564002E00427574746F6E205480
:10026000657374000D0A566F6C7461676520526582
:10027000666572656E6365205465737420656E648F
:10028000656400566F6C74616765205265666572BF
:10029000656E63652054657374000D0A4261747461
:1002A00065727920566F6C7461676520546573744C
:1002B00020656E64656400426174746572792056CD
:1002C0006F6C746167652054657374000D0A436830
:1002D0006172676572204465746563742054657348
:1002E0007420656E646564005768656E20796F756B
:1002F000206172652066696E697368656420746543
:100300007374696E672C20706C656173652072650B
:100310002D636F6E6E6563742074686520736572FB
:1003200069616C206361626C652E0054686520749D
:100330006573742077696C6C20626567696E2077DD
:1003400068656E20746865206F72616E6765204C09
:1003500045442073746172747320666C69636B65C5
:1003600072696E672E00506C6561736520646973F5
:10037000636F6E6E6563742074686520736572695F
:10038000616C206361626C652E0043686172676511
:1003900072204465746563742054657374000D0A9B
:1003A00043757272656E742053656E736F7220545C
:1003B00065737420656E6465640043757272656E62
:1003C000742053656E736F72205465737400506CA3
:1003D000656173652074797065206F6E65206F6646
:1003E0003A202B202D207320710043616C696272CA
:1003F0006174696F6E206E6F742073617665642E10
:100400000043616C6962726174696F6E207361761A
:1004100065642E0054797065207320746F207361B9
:1004200076652063616C6962726174696F6E2E20FB
:1004300054797065207120746F206162616E646F01
:100440006E2E0054797065202B20616E64202D2063
:100450006B65797320746F2061646A75737420749E
:100460006865206672657175656E637920617320B9
:10047000636C6F736520617320706F737369626C56
:100480006520746F20312E303030204D487A004383
:100490006F6E6E65637420616E206F7363696C6C40
:1004A0006F73636F706520746F2066616E20636F79
:1004B0006E6E6E6563746F722070696E20342E00EC
:1004C000000D0A456E746572205465737420436F85
:1004D0006D6D616E643A0000FE1711241FBECFEFF0
:1004E000D8E0DEBFCDBF13E0A0E0B1E0E6EFFCE472
:1004F00002C005900D92AA37B107D9F725E0AAE707
:10050000B3E001C01D92A53AB207E1F712E0CDE6D3
:10051000D2E004C02197FE010E94BA23CC36D10755
:10052000C9F70E943A190C9479260C94000088E1CE
:100530009FE00FB6F894A895809360000FBE90934B
:1005400060000895AF92BF92CF92DF92EF92FF9238
:100550000F931F93CF93DF936C017B018B01040FEB
:10056000151FEB015E01AE18BF08C017D10759F087
:100570006991D601ED91FC910190F081E02DC601C9
:100580000995892B79F7C501DF91CF911F910F91C3
:10059000FF90EF90DF90CF90BF90AF900895FC0157
:1005A000538D448D252F30E0842F90E0821B930BD8
:1005B000541710F0CF96089501970895FC01918D7E
:1005C000828D981761F0A28DAE0FBF2FB11D5D9681
:1005D0008C91928D9F5F9F73928F90E008958FEF23
:1005E0009FEF0895FC01918D828D981731F0828DD7
:1005F000E80FF11D858D90E008958FEF9FEF08952E
:10060000FC01918D228D892F90E0805C9F4F821B91
:1006100091098F73992708958CE194E00E9400035B
:1006200021E0892B09F420E0822F089580E090E0FA
:10063000892B29F00E940C0381110C94000008956D
:10064000FC01A48DA80FB92FB11DA35ABF4F2C9147
:10065000848D90E001968F739927848FA689B7893E
:100660002C93A089B1898C91837080648C93938D35
:10067000848D981306C00288F389E02D80818F7DD8
:1006800080830895EF92FF920F931F93CF93DF9390
:10069000EC0181E0888F9B8D8C8D98131AC0E889BE
:1006A000F989808185FF15C09FB7F894EE89FF898D
:1006B0006083E889F98980818370806480839FBF2B
:1006C00081E090E0DF91CF911F910F91FF90EF902B
:1006D0000895F62E0B8D10E00F5F1F4F0F7311273B
:1006E000E02E8C8D8E110CC00FB607FCFACFE88976
:1006F000F989808185FFF5CFCE010E942003F1CFDB
:10070000EB8DEC0FFD2FF11DE35AFF4FF0829FB7E9
:10071000F8940B8FEA89FB8980818062CFCF0F9399
:100720001F93CF93DF938C01D0E0C0E0F801EC0F72
:10073000FD1F6491662341F08CE194E00E94420326
:10074000892B11F02196F2CFCE01DF91CF911F912D
:100750000F910895CF93DF93EC01888D8823B9F032
:10076000AA89BB89E889F9898C9185FD03C08081BC
:1007700086FD0DC00FB607FCF7CF8C9185FFF2CF39
:10078000808185FFEDCFCE010E942003E9CFDF916C
:10079000CF9108958CE194E00E94AA03ECE1F4E08B
:1007A000A289B3898C918F7E8C93A289B3898C9115
:1007B000877F8C93A289B3898C918F778C93A28940
:1007C000B3898C918F7D8C93828D818F0895833036
:1007D00081F028F4813099F08230A9F008958730B3
:1007E000A9F08830C9F08430B1F4809180008F7D09
:1007F00003C0809180008F7780938000089584B536
:100800008F7784BD089584B58F7DFBCF8091B00034
:100810008F778093B00008958091B0008F7DF9CFDD
:10082000CF93DF93282F30E0F901E255FF4F8491F9
:10083000F901E656FF4FD491F901EA57FF4FC491F1
:10084000CC23A1F081110E94E703EC2FF0E0EE0F22
:10085000FF1FE458FF4FA591B491EC91ED2381E087
:1008600090E009F480E0DF91CF91089580E090E07E
:10087000FACF80E00E94100421E0892B09F020E0EB
:10088000822F089587E00E9410049093BA04809309
:10089000B90485E00E9410049093BC048093BB04CB
:1008A0004091BD045091BE0480916D0041155105E9
:1008B000C9F0806880936D002091BF043091C0041E
:1008C00080916D002115310579F0806280936D0073
:1008D00080916800452B11F4232B41F084608093B4
:1008E000680008958F77E6CF8F7DF0CF8B7FF7CFAD
:1008F0001F93CF93DF93282F30E0F901E255FF4F8C
:100900008491F901E656FF4FD491F901EA57FF4F60
:10091000C491CC23A9F0162F81110E94E703EC2F7C
:10092000F0E0EE0FFF1FEE58FF4FA591B4918FB787
:10093000F894EC91111108C0D095DE23DC938FBFA1
:10094000DF91CF911F910895DE2BF8CFCF93DF93E6
:1009500090E0FC01E656FF4F24918A579F4FFC011F
:1009600084918823C9F090E0880F991FFC01E85911
:10097000FF4FA591B491FC01EE58FF4FC591D49162
:1009800061110DC09FB7F8948C91209582238C93B0
:100990008881282328839FBFDF91CF9108956230FB
:1009A00051F49FB7F8943C91822F809583238C93C8
:1009B000E8812E2BEFCF8FB7F894EC912E2B2C9350
:1009C0008FBFEACF1F93CF93DF93182FEB0161E026
:1009D0000E94A604209739F460E0812FDF91CF9127
:1009E0001F910C947804CF3FD10511F461E0F5CF4D
:1009F000E12FF0E0E255FF4FE491E33031F140F4B4
:100A0000E130B1F0E230E1F0C038D1057CF7E4CF5D
:100A1000E73029F1E83059F1E430B1F780918000F6
:100A2000806280938000D0938B00C0938A0004C0C2
:100A300084B5806884BDC7BDDF91CF911F910895B3
:100A400084B5806284BDC8BDF7CF80918000806886
:100A500080938000D0938900C0938800EDCF80916F
:100A6000B00080688093B000C093B300E5CF809160
:100A7000B00080628093B000C093B400DDCF8E5090
:100A8000806480937C0080917A00806480937A00F7
:100A900080917A0086FDFCCF80917800909179005A
:100AA00008952F923F924F925F926F927F928F9212
:100AB0009F92AF92BF92CF92DF92EF92FF920F93ED
:100AC0001F93CF93DF9300D000D0CDB7DEB784E182
:100AD0000E943F053C018FE00E943F054C0184EFDE
:100AE000A82EBB24B394C12CD12CE12CF12C00E016
:100AF00010E02091C3043091C4044091C50450918A
:100B0000C6046091C7047091C8048091C904909193
:100B1000CA040E94F42119012A0169837A838B8314
:100B20009C83B401990C880B990B072C000C880846
:100B3000990866197709880999092DE230E743E693
:100B400050E00E944C22E8EEAE2EF3E0BF2E0E9451
:100B5000882259016A017B018C019101A2016981FE
:100B60007A818B819C810E945D23A5EFAA2EBB24F4
:100B7000B394C12CD12CE12CF12C00E010E00E94A8
:100B800088222093C3043093C4044093C504509337
:100B9000C6046093C7047093C8048093C9049093FB
:100BA000CA040F900F900F900F90DF91CF911F917B
:100BB0000F91FF90EF90DF90CF90BF90AF909F90FC
:100BC0008F907F906F905F904F903F902F900895FF
:100BD0003FB7F8948091010490910204A09103041E
:100BE000B091040426B5A89B05C02F3F19F00196CB
:100BF000A11DB11D3FBFBA2FA92F982F8827BC0177
:100C0000CD01620F711D811D911D43E0660F771F9D
:100C1000881F991F4A95D1F708958F929F92AF929E
:100C2000BF92CF92DF92EF92FF924B015C010E9444
:100C3000E8056B017C010E94E8056C197D098E09AD
:100C40009F09683E734081059105A8F321E0821A4F
:100C50009108A108B10888EEC80E83E0D81EE11CF7
:100C6000F11C81149104A104B10429F7FF90EF90C5
:100C7000DF90CF90BF90AF909F908F900895CF93CB
:100C8000DF93EC010197C1F461E086E00E947804F3
:100C90006AE070E080E090E00E940D06F89480E841
:100CA00080936100109261007894D093C204C09345
:100CB000C104DF91CF910895F89480E8809361009A
:100CC00083E080936100789460E086E00E9478047D
:100CD0006EE170E080E090E00E940D06E6CF2FB755
:100CE000F8946091FD037091FE038091FF03909151
:100CF00000042FBF08950E94E80560936205709379
:100D000063058093640590936505EAE5F5E010823C
:100D10008DE2818381E3828381E083831482158263
:100D2000168217820E946F066093660570936705AE
:100D300080936805909369050E946F0660936A0529
:100D400070936B0580936C0590936D0510926E0502
:100D5000EFE6F5E01082118212821382148215826E
:100D60001682178210927705109207040895411594
:100D7000510529F4EAE7F0E080818F7780836A30BB
:100D80007105B9F0CB01880F991F880F991F8072E8
:100D900067706860682B88E10FB6F894A895809317
:100DA00060000FBE60936000E0E6F0E08081806448
:100DB0008083232BD9F483B7817F846083BFF89429
:100DC00083B7816083BF85B7806685BF8F7D85BF10
:100DD0007894889583B78E7F83BF7894452B29F4C8
:100DE000EAE7F0E0808180688083089583B7817F9F
:100DF000846083BFF89483B7816083BF78948895BB
:100E000083B78E7F83BF7894E9CF64E670E080E09B
:100E100090E00E940D068CE194E00E94F20201969F
:100E200029F08CE194E00E94DE02F5CF0895CF9383
:100E3000DF93EC018CE194E00E94F202019631F024
:100E40000E94050780E0DF91CF91089562E370E092
:100E500080E090E00E940D06E2971C161D0654F3F8
:100E600081E0F1CFAF92BF92CF92DF92EF92FF92EB
:100E70000F931F93CF93DF93C4EFD1E00E945105EE
:100E80002197E1F70E945105E8E1AE2EFCEFBF2E5D
:100E9000CC24CA94DD24DA94EE24EA94FF24FA9454
:100EA0000FEF1FEF0E948822B901CA01DF91CF9195
:100EB0001F910F91FF90EF90DF90CF90BF90AF9078
:100EC00008952F923F924F925F926F927F928F92EE
:100ED0009F92AF92BF92CF92DF92EF92FF920F93C9
:100EE0001F93CF93DF93CDB7DEB7C958D1090FB6A3
:100EF000F894DEBF0FBECDBF29013A014B011C01A2
:100F000080911B04CB57DF4F8883C558D04088237E
:100F100009F412C1C101A0E00E94782309F415C1AF
:100F20008091FA039091FB03843091050CF0FBC093
:100F30009C012F5F3F4F3093FB032093FA03880FF0
:100F4000991FFC01E25DFE4FA081B181CD57DF4FBB
:100F5000B983A883C358D0409201C101A0E00E9488
:100F600078230CF08AC00E94162329013A014B0114
:100F70001C01CA57DF4F19821882C658D040FE01A3
:100F80003296CF57DF4FF983E883C158D040CF570F
:100F9000DF4FA881B981C158D0401196C857DF4FA3
:100FA000B983A883C858D0408AE0A82EB12CC12CA0
:100FB000D12CE12CF12C00E010E09201A301B4014E
:100FC000C1010E948622205DCF57DF4FE881F98161
:100FD000C158D04020839201A301B401C1010E94F5
:100FE000882229013A014B011C01CA57DF4F888131
:100FF0009981C658D0400196CA57DF4F998388839C
:10100000C658D0409201A301B401C101A0E00E94E2
:101010007823C9F5CB57DF4F9881C558D040F0E011
:10102000E0E0992351F08DE2CD57DF4FA881B981DF
:10103000C358D0408C93E1E0F0E0CD57DF4F88817A
:101040009981C358D040E80FF91F9E012F5F3F4F91
:10105000CF57DF4FA881B981C158D0402A173B072D
:1010600008F040C01197CF57DF4FB983A883C1580C
:10107000D04011968C918193EBCFCB57DF4F1882E4
:10108000C558D04076CFCA57DF4F88819981C6585E
:10109000D04063E070E00E94BA21892BB1F4CF57B1
:1010A000DF4F88819981C158D0400296C857DF4FE1
:1010B00099838883C858D040ECE2CF57DF4FA8818E
:1010C000B981C158D0401196EC93C857DF4F888141
:1010D0009981C858D040CF57DF4F99838883C15832
:1010E000D04055CF1082CD57DF4F88819981C358AA
:1010F000D040C757DF4F0FB6F894DEBF0FBECDBF4D
:10110000DF91CF911F910F91FF90EF90DF90CF90E3
:10111000BF90AF909F908F907F906F905F904F9017
:101120003F902F900895E4E7F1E0CD57DF4FF9832A
:10113000E883C358D040D7CF82E891E0CD57DF4F46
:1011400099838883C358D040CECFAEE7B1E0CD5766
:10115000DF4FB983A883C358D040C5CFE0912C049A
:10116000F0912D0492E09083E0912804F0912904FD
:101170001082E0912A04F0912B0490E19083109268
:101180003404E0913004F091310496E09083E091D2
:101190002E04F0912F04908190619083E0912E04B1
:1011A000F0912F04908198609083E0912E04F0914B
:1011B0002F04908190689083E0912E04F0912F0489
:1011C00090819F7D908381110EC08091C1008F77A7
:1011D0008093C1008091C1008F7E8093C10062E046
:1011E00080E00E94A60481E080931B040895209172
:1011F0001B04222331F00E948F038CE194E00C94B5
:10120000AA0308950FB6F894A895809160008861AC
:1012100080936000109260000FBE08950F931F939B
:10122000CF93DF93EC010E946F060C811D812E810C
:101230003F81601B710B820B930B088119812A81FE
:101240003B81061717072807390758F418821982B7
:101250001A821B82E885F985DF91CF911F910F914A
:101260000994DF91CF911F910F91089587E00E941B
:101270001004892B61F484E00E941004892B39F456
:1012800089E00E941004009711F4FC01099408956C
:10129000CF92DF92EF92FF920F931F93CF93DF9342
:1012A000EC0188810E9410048C018A859B850115C0
:1012B000110581F5892B31F58889811118C00E94AB
:1012C0006F06CC84DD84EE84FF846C197D098E0961
:1012D0009F09CA80DB80EC80FD80C616D706E80631
:1012E000F90628F4EE81FF81099581E0888B1B8740
:1012F0000A87DF91CF911F910F91FF90EF90DF90C0
:10130000CF9008950E946F066C877D878E879F8798
:10131000188AEDCF892B59F7E885F985309739F38D
:101320000995E5CFCF92DF92EF92FF920F931F9333
:10133000CF93DF93FC012085222329F1EC010E9449
:101340006F060C811D812E813F816B017C01C01ACB
:10135000D10AE20AF30A088119812A813B810C151E
:101360001D052E053F0578F46C837D838E839F8356
:10137000E985FA85DF91CF911F910F91FF90EF9052
:10138000DF90CF900994DF91CF911F910F91FF9043
:10139000EF90DF90CF90089560E870E08AE00C94C1
:1013A000E2042E9A0895823621F0833641F00C949F
:1013B0007804613011F40C94D1092E9808956130AD
:1013C00011F42F9A08952F9808950C94D3090F9330
:1013D0001F93CF93DF938C01C9E4D1E08991B801C9
:1013E00090E00E94E50981E0C035D807B9F7DF91A8
:1013F000CF911F910F910895EF92FF920F931F933A
:10140000CF93DF937C01EB01142F052F642F8C2FDA
:101410000E94D309E2E4F1E090E080E021912C17F2
:101420001D0681F4FC01EE0FFF1FEE0DFF1DE354BE
:10143000FF4F10830183DF91CF911F910F91FF9098
:10144000EF90089501968730910541F7F4CF2091F0
:10145000CB043091CC04F901EF54FF4F408191E06F
:101460009427908350E061E170E0C9010C94FC097D
:101470000F931F93CF93DF93EC0150E040E062E1C4
:1014800070E00E94FC098E010A5A1F4F41E050E0B3
:10149000F801808191811816190614F450E040E09B
:1014A00063E170E0CE010E94FC0941E050E0F801E8
:1014B00080819181029711F450E040E062E070E099
:1014C000CE01DF91CF911F910F910C94FC090F93E6
:1014D0001F93CF93DF93EC018B01FB01EE0FFF1FF6
:1014E000E45CFE4F6081653608F064E670E090E0F1
:1014F00080E00E94982023E333E343E250E40E941B
:101500004D210E946020FE01EA5BFF4F87810E940F
:10151000E204FE01EA5AFF4F11830083CE010E94CC
:10152000380A0E946F06FE01E85AFF4F60837183FC
:1015300082839383C45ADF4F81E08883DF91CF9108
:101540001F910F9108958091CB049091CC04FC01E0
:10155000EA5AFF4F61E070E020813181223031058D
:1015600011F070E060E00C94670A8091CB049091D8
:10157000CC04FC01EA5AFF4F2081318162E070E027
:10158000232B11F461E070E00C94670ACF92DF9294
:10159000EF92FF920F931F93CF93DF93EC018C0197
:1015A0000D591F4FD801EC9081E08E258C93F12CC2
:1015B000FE01E15AFF4FC080D180F6016191719127
:1015C0006F016F3F760729F0A701CE010E94FC0949
:1015D000F4CFD8018C91882379F10E94CC0980E85E
:1015E00090E0FE01E553FF4F91838083EA56F109B5
:1015F0000190F081E02DD8018C91811125C084E00B
:1016000090E0E80FF91F80819181A281B381CC59CC
:10161000DF4F88839983AA83BB830E946F066C8304
:101620007D838E839F83DF91CF911F910F91FF90D8
:10163000EF90DF90CF90089570E060E08AE00E9424
:10164000E20490E080E0CDCF90E080E0DACF8091BE
:10165000CB049091CC040C94C60A0F931F93CF93A4
:10166000DF938C01C2E4D1E0699170E050E040E08A
:10167000C8010E94FC0981E0C934D807A9F7DF91AD
:10168000CF911F910F9108950F931F93CF93DF93E5
:101690008C01C2E4D1E0699170E041E050E0C80102
:1016A0000E94FC0981E0C934D807A9F7DF91CF91E6
:1016B0001F910F910895CF93DF93EC018A810E94CF
:1016C0001004892B29F48A859B8501969B878A873C
:1016D000DF91CF910895CF92DF92EF92FF920F9317
:1016E0001F93CF93DF93EC010E946F060C851D853D
:1016F0002E853F85601B710B820B930B0B811C8128
:101700002D813E81061717072807390798F5F894A9
:101710000A851B850E9496209B01AC0160E070E069
:101720008AE794E40E94EE1F6B017C01B80190E00F
:1017300080E00E9496209B01AC01C701B6010E9487
:101740004D2120E030E040E05FE30E944D2120E0A9
:1017500030E040E752E40E944D210E9467207987E3
:1017600068871B861A860E946F066C877D878E8726
:101770009F87789488859985DF91CF911F910F91EC
:10178000FF90EF90DF90CF900895CF93DF93EC011F
:1017900061E08A810E94D3096FEF70E08F810E941F
:1017A000E204D093C004C093BF040E9442040E948C
:1017B0006F066C877D878E879F8719861886DF91D5
:1017C000CF910895CF93DF93EC010E9439048823D1
:1017D00019F10E94510520323F4B424051056105ED
:1017E00071058105910509F0D4F4288139814A8178
:1017F0005B816C817D818E819F8121153105410541
:1018000051056E4176428944910509F05CF483E00C
:1018100090E0DF91CF91089590E080E0FACF81E0F1
:1018200090E0F7CF82E090E0F4CF42E050E060E853
:1018300071E08CE194E00C94A20220911B0422231D
:1018400041F00E948F030E94150C8CE194E00C94EF
:10185000AA030895CF93DF93CDB7DEB780911B0421
:10186000882359F09E01255F3F4F43E851E064E132
:1018700070E087E094E00E94CF23DF91CF9108953C
:101880000F931F93CF93DF93CDB7DEB7CC52D140E8
:101890000FB6F894DEBF0FBECDBF80911B04882326
:1018A00041F19E012B5C3E4FCD5CDE4F488159815A
:1018B000C353D1406CE271E08E010F5F1F4FC8012E
:1018C0000E94CF23F80101900020E9F73197AF0182
:1018D000401B510BB8018CE194E00E94A2020E94CF
:1018E000150C8CE194E00E94AA031092FB03109265
:1018F000FA03C45DDE4F0FB6F894DEBF0FBECDBF56
:10190000DF91CF911F910F9108952F923F924F92A7
:101910005F926F927F928F929F92AF92BF92CF927F
:10192000DF92EF92FF920F931F93CF93DF93CDB788
:10193000DEB766970FB6F894DEBF0FBECDBF3C0191
:101940008B579F4F9E8B8D8BFC0120803180428076
:101950005380F481F983FC01F581FB83FC018680CF
:10196000978040E7A42E5DE3B52E6AE0C62E77E1AE
:10197000D72EE7E2EE2EFDEBFF2E00E010E0910106
:10198000A20169817B81C4010E9488223A8B298B44
:10199000A12CA0E1BA2EB5EACB2E84EDD82E98EE7C
:1019A000E92EF12C9101A20169817B81C4010E9481
:1019B00088225B8B522E932E842E0E945105E8EED6
:1019C000AE2EF3E0BF2EC12CD12CE12C0E94882238
:1019D0005C8B1901442E85E10E943F059C01932FE9
:1019E000990F990BA9ECAA2EB8E7BB2E8FEBC82E46
:1019F000DD24D394492F592F692F792F892F0E94E5
:101A0000F421E0E4AE2EF2E4BF2EAFE0CA2ED12CDA
:101A10000E948822C52E59014F87F301E753FF4FDB
:101A200080819181892B09F471C08CEA91E09A83BD
:101A30008983F301E953FF4F80819181892B09F458
:101A40006AC08CEA91E09C838B83F301EB53FF4FD8
:101A500080819181892B09F463C08CEA91E09E8397
:101A60008D83F301ED53FF4F80819181892B09F420
:101A70005CC08BEA91E098878F83F301EF53FF4FAF
:101A800080819181892B09F455C08BEA91E09A8776
:101A90008987F301E154FF4F80819181892B09F4FB
:101AA0004EC08AEA91E09C878B87F301E354FF4F95
:101AB00080819181892B09F447C08DEA91E09E874E
:101AC0008D878D899E890E94E20B880F991FFC01EA
:101AD000EA5DFE4F4081488BD180F301EA58FF4F09
:101AE000808109EB11E0882311F005EB11E0F3018F
:101AF000E35AFF4F80819181009759F1019709F4D2
:101B0000C4C081EC91E09E8B8D8B27C0E2E9F1E0AF
:101B1000FA83E9838ECFE2E9F1E0FC83EB8395CF92
:101B2000E2E9F1E0FE83ED839CCFE7E9F1E0F8879D
:101B3000EF83A3CFEDE9F1E0FA87E987AACFE3EAE3
:101B4000F1E0FC87EB87B1CFE1EBF1E0FE87ED87B9
:101B5000B8CFE9EBF1E0FE8BED8BF301E553FF4FDE
:101B60008081918128ECE22E21E0F22E80389105CF
:101B700021F495ECE92E91E0F92EC3018A5B9F4F89
:101B80000E946B0BF301EA5AFF4F2081318121152E
:101B9000310509F47DC02130310509F47CC023ED05
:101BA00031E047E054E05F934F93EA89EF93F9897E
:101BB000FF934B894F938F929F925F92EC89EF93A3
:101BC0004F923F922F92CF92FF85FF93BF92AF9299
:101BD0004A814F93E981EF93FC81FF934B814F93AF
:101BE000EE81EF93FD81FF9348854F93EF81EF9353
:101BF000FA85FF9349854F93EC85EF93FB85FF931F
:101C00004E854F93ED85EF93DF92F889FF931F93F5
:101C10000F934E894F93ED89EF93FF92EF929F932D
:101C20008F933F932F93F301ED57FF4F0190F08176
:101C3000E02DEE0FFF1FE25EFE4F81818F938081CA
:101C40008F9386ED91E09F938F930E94400C0FB687
:101C5000F894DEBF0FBECDBF66960FB6F894DEBF18
:101C60000FBECDBFDF91CF911F910F91FF90EF90ED
:101C7000DF90CF90BF90AF909F908F907F906F90AC
:101C80005F904F903F902F9008958CEB91E03BCF69
:101C90002CEC31E086CF2FEC31E083CF8091CB0468
:101CA0009091CC040C94850C2F923F924F925F92AE
:101CB0006F927F928F929F92AF92BF92CF92DF925C
:101CC000EF92FF920F931F93CF93DF93CDB7DEB7C1
:101CD00062970FB6F894DEBF0FBECDBF2C01098707
:101CE0001A872B873C874D875E876F87788B48E004
:101CF00050E0BC01CE0101960E94C11F29803A80AC
:101D00006B807C808D809E808F81898B88858A8B7B
:101D100029853A854B855C856D857E858F8598897B
:101D200051016301740109891A890E946F2351F1DD
:101D300048E050E0B201CE0109960E94D11F2985EA
:101D40003A854B855C856D857E858F8598890E9457
:101D50006107582E492E9101A301B40189899A89FE
:101D60000E9461074F925F929F938F938BE692E060
:101D70009F938F930E94400C0F900F900F900F90A5
:101D80000F900F9062960FB6F894DEBF0FBECDBFD6
:101D9000DF91CF911F910F91FF90EF90DF90CF9047
:101DA000BF90AF909F908F907F906F905F904F907B
:101DB0003F902F9008952F923F924F925F926F9293
:101DC0007F928F929F92AF92BF92CF92DF92EF92CB
:101DD000FF920F931F93CF93DF93CDB7DEB7689732
:101DE0000FB6F894DEBF0FBECDBF48E050E068E00C
:101DF00070E0CE0101960E94C11F898189879A8176
:101E00009A878B818B879C819C878D818D879E8112
:101E10009E878F818F879885988B29853A854B85FA
:101E20005C856D857E85A0E00E94782311F00CF022
:101E3000A5C0B0EE2B2E19EC312E02E7402E552412
:101E40005394612C712C812C912C80E5A82E9CEC54
:101E5000B92E2DE3C22ED12CE12CF12C00E010E0A4
:101E60009101A201B301C4010E94F421E0E9AE2E68
:101E7000F9EDBF2EA0E4CA2E0E948822298B3A8B4E
:101E80004B8B5C8B6D8B7E8B8F8B988F2091F203AD
:101E90003091F3034091F4035091F5036091F60300
:101EA0007091F7038091F8039091F9035101620159
:101EB000730184010E946F2309F43FC029893A8984
:101EC0004B895C896D897E898F89988D0E94610715
:101ED000F82EE92E9101A201B301C4010E9461070D
:101EE000182F092F29853A854B855C856D857E8560
:101EF0008F8598890E946107EF92FF920F931F933D
:101F00009F938F938EE792E09F938F930E94400C54
:101F10002092F2033092F3034092F4035092F503BF
:101F20006092F6037092F7038092F8039092F9039F
:101F30000FB6F894DEBF0FBECDBF29893A894B8911
:101F40005C896D897E898F89988D68960FB6F89423
:101F5000DEBF0FBECDBFDF91CF911F910F91FF90DC
:101F6000EF90DF90CF90BF90AF909F908F907F9039
:101F70006F905F904F903F902F90089529843A84FE
:101F80004B845C846D847E848F8498885ECF2F928E
:101F90003F924F925F926F927F928F929F92AF92F9
:101FA000BF92CF92DF92EF92FF920F931F93CF9346
:101FB000DF93CDB7DEB768970FB6F894DEBF0FBEDC
:101FC000CDBF0E943904182F882371F080916E05CF
:101FD00081110AC00E946F066093660570936705C1
:101FE000809368059093690510936E0564E6A62EAC
:101FF000B12CC12CD12CE12CF12C00E010E020916F
:102000005A0530915B0540915C0550915D056091EA
:102010005E0570915F0580916005909161050E9459
:10202000F421322E432E542E652E762E872E982E96
:10203000292E85E10E943F059C01932F990F990B52
:1020400079ECA72EE8E7BE2EFFEBCF2EDD24D3944C
:10205000492F592F692F792F892F0E94F421A8EE3B
:10206000AA2EB3E0BB2EC12CD12C0E948822A32C17
:10207000B42CC52CD62CE72CF82C092D122D0E943F
:102080005D2315E6A12EB12CC12CD12CE12CF12C15
:1020900000E010E00E94882220935A0530935B05EF
:1020A00040935C0550935D0560935E0570935F05FA
:1020B0008093600590936105A0906F05B0907005C6
:1020C000C0907105D0907205E0907305F090740592
:1020D00000917505109176050E946623F22E032F5C
:1020E000142FB52FF62FE72FD82EE92EA0E00E944F
:1020F000782354F40E941623F22E032F142FB52FA9
:10210000F62FE72FD82EE92E2F2D302F412F5B2FC2
:102110006F2F7E2F8D2D9E2D2F3936484140510532
:10212000610571058105910559F154F10E946F0611
:1021300060936A0570936B0580936C0590936D05B1
:1021400080915A0580936F0580915B05809370059F
:1021500080915C058093710580915D058093720587
:1021600080915E058093730580915F05809374056F
:102170008091600580937505809161058093760557
:102180000E94E8056B017C010E94510529873A876E
:102190004B875C876D877E878F87988B80916205E0
:1021A00090916305A0916405B0916505A701960122
:1021B000281B390B4A0B5B0BC0926205D09263055A
:1021C000E0926405F0926505A984BA84CB84DC842E
:1021D0007B010F85188960E070E080E090E00E944C
:1021E000F421A0905205B0905305C0905405D090B2
:1021F0005505E0905605F09057050091580510914F
:1022000059050E945D23D22EE32EF42E052F162FA2
:10221000B72FF82FE92F21153105410551056544E8
:10222000734E8944910549F044F0D12CE12CF12CF6
:1022300000E015E4B3EEF9E4E0E02D2D3E2D4F2D46
:10224000502F612F7B2F8F2F9E2FA0E00E9478238D
:1022500044F4D12CE12CF12C00E010E0B0E0F0E0EF
:10226000E0E0D0925205E0925305F09254050093BD
:10227000550510935605B0935705F0935805E09314
:10228000590585E10E943F059C01932F990F990BF9
:1022900089ECA82E48E7B42E5FEBC52EDD24D3943D
:1022A000E12CF12C00E010E0492F592F692F792FF4
:1022B000892F0E94F4212F3F374C4741584A6440F0
:1022C00071058105910509F084F410925205109270
:1022D0005305109254051092550510925605109210
:1022E000570510925805109259050E946F062B0150
:1022F0003C01A0905A05B0905B05C0905C05D09061
:102300005D0520915E05298B30915F053A8B4091E8
:1023100060054B8B509161055C8B0E94DB0E922E09
:10232000832E342E252E7B018C0180916A0590919D
:102330006B05A0916C05B0916D05B301A201481B1E
:10234000590B6A0B7B0B91E080E041365A4E6105D8
:10235000710508F490E09D8B8E8B809166059091BD
:102360006705A0916805B0916905B301A201481BFA
:10237000590B6A0B7B0B91E080E041365A4E6105A8
:10238000710508F490E09F8B888F0E943904F82F24
:10239000E1E029853A854B855C856D857E858F8555
:1023A00098892F333D4043405105610571058105F2
:1023B000910511F00CF0E0E01F92EF93E1E0950140
:1023C000A60169897A898B899C89A92CB82CC32C90
:1023D000D22C0E946F230CF4E0E01F92EF93EE8961
:1023E000EF932D892F93388D3F934F894F931F92F1
:1023F000FF9383E891E09F938F931F9284E18F93E3
:1024000087E094E09F938F930E942A0C0E943904E6
:102410000FB6F894DEBF0FBECDBF882309F471C09C
:102420008091660590916705A0916805B091690556
:10243000A3019201281B390B4A0B5B0BDA01C9017E
:1024400081369A4EA105B10508F45BC080916A05FA
:1024500090916B05A0916C05B0916D05A30192015F
:10246000281B390B4A0B5B0BDA01C90181369A4EE6
:10247000A105B10508F445C040915A05498B50911A
:102480005B055A8B80915C058B8BA0915D05AC8BB5
:1024900020905E0530905F0580906005909061050A
:1024A0000E94DB0E59016A017B018C0129893A895E
:1024B0004B895C89B101C4010E946F2314F1298505
:1024C0003A854B855C856D857E858F8598892F3310
:1024D0003D4043405105610571058105910509F0B5
:1024E00084F480917705811129C081E0809377057C
:1024F000409278055092790560927A0570927B053A
:1025000004C08091770581116FC068960FB6F8946A
:10251000DEBF0FBECDBFDF91CF911F910F91FF9016
:10252000EF90DF90CF90BF90AF909F908F907F9073
:102530006F905F904F903F902F9008958091780515
:1025400090917905A0917A05B0917B05481A590AB6
:102550006A0A7B0A29E8421623E1520661047104E3
:10256000A0F2109252051092530510925405109249
:10257000550585E48093560583EE8093570589E4DD
:10258000809358051092590520905A0530905B05AC
:1025900040905C0550905D0560905E0570905F0511
:1025A000809060059090610548E050E068E070E040
:1025B000CE0101960E94C11FA980BA80CB80DC8029
:1025C000ED80FE800F8118859101A201B301C40145
:1025D0000E946F2349F044F081019201A301B401EC
:1025E00088E090E00E94540E109277058ECFCF9332
:1025F000DF93C091CB04D091CC0470E060E08AE01E
:102600000E94E204FE01E553FF4F1182108241E077
:1026100050E061E170E0CE01DF91CF910C94FC09B4
:10262000CF93DF93EC010E94CC09FE01E553FF4FED
:1026300080E890E09183808350E040E061E170E0C9
:10264000CE010E94FC09C758DF4F84EF91E0A0E063
:10265000B0E088839983AA83BB830E946F066C8352
:102660007D838E839F83DF91CF9108958091CB04EA
:102670009091CC040C9410138F929F92AF92BF92C2
:10268000CF92DF92EF92FF920F931F93CF93DF933E
:10269000CDB7DEB72A970FB6F894DEBF0FBECDBF19
:1026A0009A8789874C0185E8880E911CF401208166
:1026B0003181428153816481758180E7A82E9DE339
:1026C000B92EAAE0CA2EB7E1DB2E17E2E12E0DEB00
:1026D000F02E00E010E0868197810E9488222983F5
:1026E0003A834B835C836D837E838F8398870981D4
:1026F0001A8141E050E00832110514F450E040E046
:102700006EE070E089859A850E94FC0989819A8132
:10271000409741E050E08135910510F450E040E0F1
:1027200063E670E089859A850E94FC0941E050E0EB
:102730000734110514F050E040E060E170E0898555
:102740009A850E94FC09C4010E94E20B4C01C984D5
:10275000DA84FFEACF0ED11CF601808191818816C0
:102760009906C9F0E985FA85E654FF4F1082F1E039
:102770008F16910409F44FC008F444C092E0891602
:10278000910409F46EC0E3E08E16910409F46CC064
:10279000F601918280820E943904E985FA85EA581F
:1027A000FF4F81117CC0003111050CF078C0A98564
:1027B000BA85A35ABF4F8D919C91019709F46FC0C0
:1027C000808181116DC089859A850E941013898549
:1027D0009A8582599F4F9A83898381E0E981FA81A2
:1027E000808780E395E7A0E0B0E080839183A283B7
:1027F000B3830E946F06E981FA81648375838683BF
:1028000097834EC041E050E061E170E089859A8590
:102810000E94FC09BDCFBB24B394E985FA85EF542F
:10282000FF4FB08250E040E061E170E089859A8519
:102830000E94FC09E984FA84F2EBEF0EF11CF70127
:10284000B08680ED97E0A0E0B0E080839183A28322
:10285000B3830E946F06F701648375838683978331
:1028600097CF50E040E0D0CFBB24B394E985FA8500
:10287000EF54FF4FB08250E040E061E170E08985A5
:102880009A850E94FC09E984FA84F2EBEF0EF11CB0
:10289000F701B08688EC90E0A0E0B0E0D6CF1082DF
:1028A0002A960FB6F894DEBF0FBECDBFDF91CF9151
:1028B0001F910F91FF90EF90DF90CF90BF90AF905E
:1028C0009F908F9008958F929F92AF92BF92CF92D8
:1028D000DF92EF92FF920F931F938091C10490912A
:1028E000C204019711F40E94C70F80912A059091AC
:1028F0002B05892B09F06CC083E195E00E946B0BDE
:102900007C01809129058823B1F00E946F06809098
:10291000250590902605A0902705B09028056819F8
:1029200079098A099B09603777418105910508F487
:102930004FC010922905B70190E080E00E949620D8
:102940006B017C01E0912305F0912405EE0FFF1F40
:10295000E05BFE4F6081718190E080E00E949620F4
:102960004B015C012AE939E949E55FE30E944D2109
:102970009B01AC01C701B6010E94E91F87FD10C091
:1029800023E333E343E95FE3C501B4010E944D2132
:102990009B01AC01C701B6010E9448211816C4F47E
:1029A00082E090E090932B0580932A0580E191E0EE
:1029B00090932D0580932C0580E091E090932F0556
:1029C00080932E05109230058DEC94E00E94C60A8B
:1029D00080912A0590912B05029721F08DEC94E0CF
:1029E0000E94380A80912A0590912B05019709F0E1
:1029F00092C00E943904811125C020915205309166
:102A000053054091540550915505609156057091BC
:102A1000570510E7A12E0DE3B02E8AE0C82E97E1EE
:102A2000D92EE7E2EE2EFDEBFF2E00E010E08091C4
:102A30005805909159050E948822490189E088161D
:102A40009104ECF010922B0510922A05109231059A
:102A500010923205109233051092340570E060E058
:102A60008AE00E94E20410929905109298058DEC7C
:102A700094E00E94440B10927D0510927C05809199
:102A80002A0590912B05019721F08DEC94E00E948E
:102A90003C138FEC94E00E94480980EE94E00E9481
:102AA000480981EF94E00E94480980913105909196
:102AB0003205A0913305B0913405892B8A2B8B2BDD
:102AC00021F081E395E00E940E098BE395E00E94DE
:102AD00092098091460590914705A0914805B091D3
:102AE0004905892B8A2B8B2B21F086E495E00E94E7
:102AF0000E098FE795E00E9492098AE995E01F91FF
:102B00000F91FF90EF90DF90CF90BF90AF909F908C
:102B10008F900C9492092091520530915305409169
:102B2000540550915505609156057091570580E701
:102B3000A82E9DE3B92EEAE0CE2EF7E1DF2EA7E224
:102B4000EA2EBDEBFB2E00E010E08091580590913D
:102B500059050E948822490129E0821691040CF04F
:102B600094CF0E94390481118ACF109243051092AC
:102B7000870581E090E090932B0580932A0588E1FA
:102B800091E090932D0580932C0588E091E090933F
:102B90002F0580932E05109230058DEC94E00E9455
:102BA000C60A6DCFCF92DF92EF92FF920F931F93E1
:102BB000CF93DF93EC010E942D0B0E94CC098E0174
:102BC00005531F4F80E890E0F801918380830E94B5
:102BD0006F066B017C0188E00E941004892B01F5CF
:102BE0000E946F066C197D098E099F09693E73402A
:102BF0008105910580F3CE010E94440B70E060E0F6
:102C00008AE00E94E204F8011182108281E0DF91E3
:102C1000CF911F910F91FF90EF90DF90CF9008958B
:102C2000CE010E94440B70E060E08AE00E94E20462
:102C3000F801118210828E01035A1F4FF801808122
:102C40009181029719F0CE010E94380AF801808123
:102C50009181019719F0CE010E943C1380E0D7CFFB
:102C6000CF92DF92EF92FF920F931F93CF93DF9358
:102C7000EC01FC01ED57FF4F718360838A5A9F4F2F
:102C80006C01E85BFF4F7F018E01035A1F4F6130DB
:102C9000710519F06330710559F50E94D109F601EB
:102CA00060817181CE010E94670A70E060E08AE075
:102CB0000E94E204F70111821082F8018081918163
:102CC000029719F0CE010E94380AF80180819181A3
:102CD000019719F0CE010E943C13CE01DF91CF91F4
:102CE0001F910F91FF90EF90DF90CF900C94850C87
:102CF00060E08AE00E94A60460E082E60E94D309B8
:102D0000F60111821082F80111821082FE01EC5945
:102D1000FF4F108211821282138270E060E08AE01D
:102D20000E94E204F70111821082CE010E94440B3E
:102D30008E0101551F4FF80111821082CE010E94B1
:102D4000440BF801118210823B961082E454F10981
:102D50001082C3CF8091CB049091CC04FC01ED573D
:102D6000FF4F208131812115310519F022303105C5
:102D700021F463E070E00C9430160895CF93DF9354
:102D8000C091CB04D091CC04FE01ED57FF4F808160
:102D900091818130910529F0039779F0DF91CF91EE
:102DA0000895CE010E94D21570E060E08823B1F34F
:102DB000CE01DF91CF910C943016CE010E94D21536
:102DC000882361F362E070E0F3CF1F920F920FB699
:102DD0000F9211242F933F934F935F936F937F93A1
:102DE0008F939F93AF93BF93EF93FF938CE194E006
:102DF0000E942003FF91EF91BF91AF919F918F911E
:102E00007F916F915F914F913F912F910F900FBEE6
:102E10000F901F9018951F920F920FB60F921124CA
:102E20002F938F939F93EF93FF93E0912C04F09156
:102E30002D048081E0913204F091330482FD1BC0A7
:102E40009081809135048F5F8F73209136048217B3
:102E500041F0E0913504F0E0E45EFB4F958F809304
:102E60003504FF91EF919F918F912F910F900FBE9D
:102E70000F901F9018958081F4CF1F920F920FB67C
:102E80000F9211242F933F938F939F93AF93BF93F0
:102E90008091FD039091FE03A091FF03B091000487
:102EA0003091FC0326E0230F2D3758F50296A11D23
:102EB000B11D2093FC038093FD039093FE03A09328
:102EC000FF03B09300048091010490910204A0914B
:102ED0000304B09104040196A11DB11D8093010467
:102EE00090930204A0930304B0930404BF91AF91A4
:102EF0009F918F913F912F910F900FBE0F901F9038
:102F0000189529E8230F0396A11DB11DD2CF1F925A
:102F10000F920FB60F9211248F930FB6F894A895C5
:102F200080916000886180936000109260000FBE05
:102F30008F910F900FBE0F901F9018951F920F92B8
:102F40000FB60F9211242F933F934F935F936F937C
:102F50007F938F939F93AF93BF93EF93FF93809152
:102F6000BD049091BE04892BC9F087E00E94100433
:102F70002091B9043091BA048217930779F09093A5
:102F8000BA048093B9048091BD049091BE04DC0121
:102F9000ED91FC910190F081E02D09958091BF04A5
:102FA0009091C004892BC9F085E00E941004209103
:102FB000BB043091BC048217930779F09093BC0452
:102FC0008093BB048091BF049091C004DC01ED911B
:102FD000FC910190F081E02D0995FF91EF91BF9157
:102FE000AF919F918F917F916F915F914F913F91A1
:102FF0002F910F900FBE0F901F9018950F931F9356
:10300000CF93DF93ECE1F4E01382128288EE93E039
:10301000A0E0B0E084839583A683B7832AE531E0FE
:103020003183208325EC30E03587248724EC30E0A1
:103030003787268720EC30E0318B208B21EC30E085
:10304000338B228B22EC30E0358B248B26EC30E066
:10305000378B268B118E128E138E148EE9EBF4E0D3
:10306000158214821782168212861386148615869C
:1030700016861786108A118ACDECD4E022E731E05B
:103080003983288324E030E03B832A838C839D832B
:10309000AE83BF8325EB3AE0398728871B861A86E3
:1030A00001E010E01D870C871E861F86188A198A8A
:1030B00021E02A8B49E050E05C8B4B8B8D8B9E8B03
:1030C000AF8BB88F43EA5AE05A8F498F1C8E1B8E04
:1030D0001E8F0D8F1F8E18A219A21AA22BA348E0D3
:1030E00050E05DA34CA342E350E060E070E04EA3EB
:1030F0005FA368A779A74EEB56E15BA74AA71DA679
:103100001CA61FA70EA718AA19AA1AAA1BAA2CAB9D
:1031100047E050E05EAB4DAB8FAB98AFA9AFBAAF15
:103120004AEA56E15CAF4BAF1EAE1DAE10930D05E3
:1031300000930C0510920E0510920F0510921005C9
:1031400010921105209312052CE631E030931405FE
:103150002093130525E02093150580931605909381
:103160001705A0931805B093190583E080931A05FD
:1031700061E00E94A604109224051092230510928B
:10318000290510922B0510922A0510922D051092F8
:103190002C0510922F0510922E05109231051092D9
:1031A0003205109233051092340587E29BE090932C
:1031B0003A05809339051092430586E393E1909395
:1031C00045058093440510924605109247051092DC
:1031D00048051092490587EF92E190934F0580933F
:1031E0004E050E947B06E2E5F5E010821182128214
:1031F0001382148215821682178210927D05109216
:103200007C051092870587E29AE090938905809368
:10321000880510929905109298051092A2058EE4E7
:103220009EE09093A4058093A305D093CC04C09313
:10323000CB0410938B0500938A0510938D050093A2
:103240008C0510938F0500938E05109391050093C4
:1032500090051093930500939205109395050093A4
:1032600094051093970500939605DF91CF911F91D8
:103270000F910895CF93DF93CDB7DEB760970FB668
:10328000F894DEBF0FBECDBF789484B5826084BD54
:1032900084B5816084BD85B5826085BD85B581605A
:1032A00085BD80916E00816080936E0010928100D8
:1032B0008091810082608093810080918100816093
:1032C0008093810080918000816080938000809154
:1032D000B10084608093B1008091B00081608093E0
:1032E000B00080917A00846080937A0080917A00A7
:1032F000826080937A0080917A008E7F80937A003A
:1033000080917A00806880937A001092C10014B78F
:10331000C12ED12C14BE0E94020981E090E00E94CF
:103320003F0662E084E00E94A60462E089E00E9419
:10333000A60462E088E00E94A60462E087E00E94A2
:10334000A60461E083E00E94A60460E085E00E949C
:10335000A604269A60E085E10E94A60460E084E16C
:103360000E94A60460E08FE00E94A60461E086E06F
:103370000E94A60462E080E00E94A60461E08AE068
:103380000E94A60461E08EE00E94A604279A61E0F4
:1033900080E10E94A60461E081E10E94A60461E050
:1033A00082E10E94A60461E083E10E94A60461E03C
:1033B00082E00E94A6040E94D10970E060E083E0F0
:1033C0000E94E20461E08EE00E94780461E083E6FE
:1033D0000E94D30961E080E10E94780461E081E10C
:1033E0000E94780461E082E10E94780461E083E158
:1033F0000E94780461E082E00E94780470E060E05E
:103400008AE00E94E20470E060E08AE00E94E20448
:1034100048E050E060E170E0CE0101960E94C11FDB
:10342000E9813A814B815C816D817E812E2F8F8174
:103430009885AFEF0E94782311F0E093660081E059
:103440000E94AE081F921F938CE992E09F938F9386
:1034500085EA92E09F938F9381EB92E09F938F9305
:1034600084ED92E09F938F930E94400C0FB6F894E6
:10347000DEBF0FBECDBF7EE1E72EF12C8CE194E0E4
:103480000E94F2028F7D8435910561F48CE194E015
:103490000E94F202019609F43CC58CE194E00E947E
:1034A000DE02F4CF64E670E080E090E00E940D065A
:1034B000F1E0EF1AF10811F786EE90E00E941D0C82
:1034C00010921B040E94CA0380E00E94AE0882ECA6
:1034D00090E00E941D0C13FFA2C00BE010E0015011
:1034E0001109A9F08DEC94E00E942D0B64E670E0C8
:1034F00080E090E00E940D068DEC94E00E94440B69
:1035000064E670E080E090E00E940D06E8CF0E9443
:10351000390403E010E0811102C001E010E083E112
:1035200095E00E94C50B70E060E08DEC94E00E9495
:10353000670A0E9497028DEC94E09093BE048093FA
:10354000BD040E944204B8018DEC94E00E94301644
:1035500081E08093A20580E197E2A0E0B0E0809353
:103560009A0590939B05A0939C05B0939D050E949E
:103570006F0660939E0570939F058093A0059093BE
:10358000A10510920604412C64E0562E612C712C8A
:103590005BE2252E53E0352E80910604882309F442
:1035A000B6C381EC94E00E941D0C8CE194E00E9473
:1035B000F2028A30910509F458C08D30910509F462
:1035C00054C0019691F38CE194E00E94DE028C01DC
:1035D0000E94050780EC94E00E941D0C0633110543
:1035E00009F438C20CF077C00333110509F4A6C101
:1035F0000CF040C00133110509F4A1C002331105DC
:1036000009F4F3C01F930F9389E393E09F938F9383
:103610000E94400C0F900F900F900F90D9C0CD28B2
:10362000D9F406E010E00150110909F470CF8DECD7
:1036300094E00E942D0B6CE271E080E090E00E942B
:103640000D068DEC94E00E94440B6CE271E080E08A
:1036500090E00E940D06E7CF0E94390402E010E0DE
:1036600081115DCF10E000E05ACF8CE194E00E9420
:10367000DE029BCF0433110509F499C1053311050E
:1036800009F0C0CF83E892E00E941D0C02E313E032
:103690008FE00E943F0528E833E1DC010E94ED2124
:1036A000A30192010E94CE215F934F933F932F93EA
:1036B0001F930F930E94400C88EE93E00E9417071F
:1036C0000F900F900F900F900F900F908111E0CFFF
:1036D00084E692E07BC00235110569F124F50733D9
:1036E000110509F4F9C10833110509F08BCF8AEBF4
:1036F00093E00E941D0C88EE93E00E941707882338
:1037000009F487C20E9432079F938F937F936F9330
:103710003F922F920E94400C0F900F900F900F90AD
:103720000F900F90E8CF0336110509F475C20237E8
:10373000110509F067CFF0E0E0E0099549C088EF96
:1037400091E00E941D0C49E4E42E41E0F42EF701C3
:1037500001917F0110E070E060E0C8010E94E5097E
:1037600086EF91E00E94F70888EE93E00E94170729
:10377000882331F161E070E0C8010E94E509F0E5BD
:10378000EF16F1E0FF0619F790E080E00E94E709EC
:1037900084EF91E00E94F70880ED97E00E94170700
:1037A000882371F081E090E00E94E70982EF91E0C8
:1037B0000E94F70888EE93E00E9417078111C3CF9B
:1037C00081E090E00E94E70981EE91E00E941D0CEB
:1037D00080E090E0892B09F4DFCE0E940C0388235F
:1037E00009F4DACE0E940000D3CE85E192E00E9477
:1037F0001D0C8CE691E09A83898385E08B8384E6B7
:1038000090E0A0E0B0E08C839D83AE83BF8383E033
:10381000888761E00E94A604CE0101960E94C50B34
:10382000CE0101960E946B0B35E0A32E33E0B32E40
:103830000E94D1090CE311E026E3C22E21E0D22E32
:10384000F801F080E1800E5F1F4F6F2DF4E6FF1549
:1038500008F464E670E090E080E00E94982023E3A2
:1038600033E343E250E40E944D210E9460208885AA
:103870000E94E204F60180819181F2E0CF0ED11C1A
:10388000EF92FF929F938F93BF92AF920E94400C52
:103890000F900F900F900F900F900F9098E0E92EDF
:1038A000F12C88EE93E00E9417078823D1F1CE0116
:1038B00001960E946B0B982E892E0E9432079F93CF
:1038C0008F937F936F938F929F9287E193E09F9363
:1038D0008F930E94400CF1E0EF1AF1080FB6F894B4
:1038E000DEBF0FBECDBFE9F691E00234190709F043
:1038F000A7CF60E082E60E94D30908E010E083E1F0
:1039000092E00E94F70888EE93E00E941707882350
:1039100041F00150110999F782E192E00E941D0CDB
:1039200087CF1092C0041092BF040E94420460E04E
:1039300082E60E94D30981E092E048CF85E392E0DD
:103940000E941D0C60E870E08AE00E94E2040CE036
:1039500010E085E0E82EF12C83E392E00E94F70866
:1039600088EE93E00E9417078823C9F0E1E0EE1A81
:10397000F10891F70E9432079F938F937F936F9383
:1039800089E293E09F938F930E94400C01501109AC
:103990000F900F900F900F900F900F90D1F670E056
:1039A00060E08AE00E94E2048EE192E00FCF88E5B9
:1039B00092E00E941D0C81E090E00E94E70986E5FC
:1039C00092E00E94F70804E110E088E00E941004F1
:1039D00061E070E0892B11F470E060E08EE090E02F
:1039E0000E94E50987E00E94100461E070E0892BE5
:1039F00011F470E060E080E190E00E94E50989E068
:103A00000E94100461E070E0892B11F470E060E026
:103A100082E190E00E94E50984E00E94100461E0E8
:103A200070E0892B11F470E060E082E090E00E9489
:103A3000E50982E390E00E941707882321F00150F6
:103A4000110919F6BCCF81E090E00E94E70982E4F9
:103A500092E0BCCE87EB92E00E941D0CB2E38B2E6D
:103A6000B3E09B2E85E10E943F059C01932F990FA7
:103A7000990BF9ECAF2EA8E7BA2EBFEBCB2EDD24C5
:103A8000D394E12CF12C00E010E0492F592F692F3D
:103A9000792F892F0E94F421E0E4AE2EF2E4BF2EAC
:103AA000AFE0CA2ED12C0E9488225F934F933F93A0
:103AB0002F939F928F920E94400C88EE93E00E9479
:103AC00017070F900F900F900F900F900F9081118C
:103AD000C9CF8AE992E07ACE8AE893E00E941D0C71
:103AE00086E693E00E941D0C8BE293E00E941D0C81
:103AF00088EE92E00E941D0CE9E4AE2EE1E0BE2EBD
:103B00007501F70101917F0110E070E060E0C801EC
:103B10000E94E50964EF71E080E090E00E940D06EC
:103B200061E070E0C8010E94E50964EF71E080E0A7
:103B300090E00E940D06F0E5EF16F1E0FF0609F7B0
:103B40000E94CA0362E080E00E94A60481E090E047
:103B50000E94E70960E0F12CE12C99249394862ED1
:103B6000892470E081E190E00E94E50962E370E061
:103B700080E090E00E940D0680E00E9410048C011D
:103B8000CC24C394D12C892B11F4D12CC12CB60197
:103B90008EE090E00E94E509B60182E090E00E948C
:103BA000E5090115110509F0870178012FEFE21AE7
:103BB000F20A682D80E5E816F10489F681E090E0CC
:103BC0000E94E70960E5E62E61E0F62EF70102911A
:103BD0007F0110E070E060E0C8010E94E50964EF39
:103BE00071E080E090E00E940D0661E070E0C801A5
:103BF0000E94E50964EF71E080E090E00E940D060C
:103C0000AE14BF0419F781E00E94AE088CEC92E07C
:103C1000DDCD8EE993E0DACD8FE894E00E941D0CB3
:103C200083E494E00E941D0C84E194E00E941D0C4A
:103C30001091660061E083E00E94A60481E2809317
:103C4000B00089E08093B10084E08093B30080915C
:103C5000B300F2E38F9FC001112464E670E00E947C
:103C6000BA216093B4008CE194E00E94F2028D329C
:103C7000910591F480916600882329F08091660077
:103C80008150809366000E94050764E670E080E042
:103C900090E00E940D06E7CF8B32910541F48091B0
:103CA00066008F3F81F3809166008F5FEACF833794
:103CB0009105E1F40091660010E020E030E040E082
:103CC00050E060E070E080E190E00E94540E81E0FE
:103CD00094E00E941D0C0E9405071092B000109203
:103CE000B1001092B3001092B40072CD81379105EB
:103CF00039F48AEE93E00E941D0C10936600EBCF1E
:103D0000019619F28EEC93E00E941D0CBCCFA89591
:103D100085E10E943F059C01932F990F990B89EC37
:103D2000A82E48E7B42E5FEBC52EDD24D394E12CFA
:103D3000F12C00E010E0492F592F692F792F892F9E
:103D40000E94F4212F3F374C4741584A6440710587
:103D50008105910511F00CF055C0809150059091AE
:103D600051058130910509F044C009E411E08DEC62
:103D700094E00E94440BF80162918F0170E050E0E2
:103D800040E08DEC94E00E94FC090E94CC0980E8A0
:103D900090E0909399058093980566E970E080E043
:103DA00090E00E940D0670E060E08AE00E94E2046C
:103DB000109299051092980564E670E080E090E01A
:103DC0000E940D0691E00234190789F68DEC94E00B
:103DD0000E94440B809150059091510570E060E085
:103DE000019711F062E070E08DEC94E00E943016D3
:103DF00009C0039739F482E595E00E94E20B03972E
:103E000009F4B3CF8091500590915105813091050F
:103E100089F0F0F08230910509F458C0039709F059
:103E2000D7CC0E9463140E9439048111D1CC61E087
:103E300070E009C00E9463140E94390463E070E0DE
:103E4000882309F4C5CC8DEC94E00E943016C0CCD8
:103E50000E94020990E080E00E943F0621E030E0ED
:103E600050E040E066E070E085E094E00E94B70634
:103E70000E943904882379F081E090E00E943F0697
:103E800062E070E08DEC94E00E9430160E94970290
:103E90000E947B069DCC0E946F066B017C0187E02F
:103EA0000E941004892BD1F60E946F066C197D09BF
:103EB0008E099F096E3771058105910580F381E0B8
:103EC00090E00E943F0661E070E0DCCF8091C10489
:103ED0009091C204019711F40E94C70F8DEC94E0F9
:103EE0000E943C130E943904811106C070E060E01A
:103EF0008DEC94E00E94301682E095E00E94480923
:103F00008AE995E00E9492098FE795E00E94920964
:103F10005FCC81E08093060460E082E60E94D309D2
:103F20008CEC91E00E941D0C8EEB91E00E941D0C28
:103F300081EB91E00E941D0C84EA91E00E941D0C2F
:103F400083E991E00E941D0C83E891E00E941D0C22
:103F500088E691E00E941D0C8FE491E00E941D0C08
:103F600087E391E00E941D0C8FE191E00E941D0CFF
:103F700085E191E00E941D0C8DEF90E00E941D0CE8
:103F800002CBDC01CB01FC01F999FECF06C0F2BDEA
:103F9000E1BDF89A319600B40D9241505040B8F707
:103FA0000895DC01CB0103C02D910E94DC1F41501C
:103FB0005040D0F70895262FF999FECF1FBA92BD31
:103FC00081BD20BD0FB6F894FA9AF99A0FBE0196FA
:103FD00008950E94D32008F481E008950E940220F1
:103FE0000C940E210E94072158F00E94002140F0FD
:103FF00029F45F3F29F00C94F72051110C944221D1
:104000000C94FD200E941F2168F39923B1F35523DE
:1040100091F3951B550BBB27AA27621773078407DB
:1040200038F09F5F5F4F220F331F441FAA1FA9F371
:1040300035D00E2E3AF0E0E832D091505040E6955F
:10404000001CCAF72BD0FE2F29D0660F771F881FC0
:10405000BB1F261737074807AB07B0E809F0BB0BB3
:10406000802DBF01FF2793585F4F3AF09E3F5105C7
:1040700078F00C94F7200C9442215F3FE4F3983ED3
:10408000D4F3869577956795B795F7959F5FC9F7B0
:10409000880F911D9695879597F90895E1E0660F31
:1040A000771F881FBB1F621773078407BA0720F0AA
:1040B000621B730B840BBA0BEE1F88F7E095089513
:1040C0000E9467206894B1110C94422108950E94C7
:1040D000272188F09F5798F0B92F9927B751B0F052
:1040E000E1F0660F771F881F991F1AF0BA95C9F77C
:1040F00014C0B13091F00E944121B1E008950C94B8
:104100004121672F782F8827B85F39F0B93FCCF36A
:10411000869577956795B395D9F73EF490958095F8
:10412000709561957F4F8F4F9F4F0895E89409C018
:1041300097FB3EF490958095709561957F4F8F4FDA
:104140009F4F9923A9F0F92F96E9BB279395F695F0
:10415000879577956795B795F111F8CFFAF4BB0F6E
:1041600011F460FF1BC06F5F7F4F8F4F9F4F16C0D2
:10417000882311F096E911C0772321F09EE8872F5C
:10418000762F05C0662371F096E8862F70E060E018
:104190002AF09A95660F771F881FDAF7880F969591
:1041A000879597F90895990F0008550FAA0BE0E835
:1041B000FEEF16161706E807F907C0F012161306E9
:1041C000E407F50798F0621B730B840B950B39F429
:1041D0000A2661F0232B242B252B21F408950A268F
:1041E00009F4A140A6958FEF811D811D089597F9CF
:1041F0009F6780E870E060E008959FEF80EC08958D
:1042000000240A94161617061806090608950024B5
:104210000A9412161306140605060895092E03942F
:10422000000C11F4882352F0BB0F40F4BF2B11F4A3
:1042300060FF04C06F5F7F4F8F4F9F4F089557FD02
:104240009058440F551F59F05F3F71F04795880F04
:1042500097FB991F61F09F3F79F08795089512169B
:1042600013061406551FF2CF4695F1DF08C0161647
:1042700017061806991FF1CF8695710561050894F8
:104280000895E894BB2766277727CB0197F908950F
:104290000E94D32008F48FEF08950E9460210C94AF
:1042A0000E210E94002138F00E94072120F0952362
:1042B00011F00C94F7200C94FD2011240C94422151
:1042C0000E941F2170F3959FC1F3950F50E0551F79
:1042D000629FF001729FBB27F00DB11D639FAA275B
:1042E000F00DB11DAA1F649F6627B00DA11D661FAA
:1042F000829F2227B00DA11D621F739FB00DA11DCB
:10430000621F839FA00D611D221F749F3327A00D84
:10431000611D231F849F600D211D822F762F6A2F20
:1043200011249F5750409AF0F1F088234AF0EE0F85
:10433000FF1FBB1F661F771F881F91505040A9F7B2
:104340009E3F510580F00C94F7200C9442215F3F72
:10435000E4F3983ED4F3869577956795B795F795EE
:10436000E7959F5FC1F7FE2B880F911D9695879566
:1043700097F9089597FB072E16F4009407D077FD60
:1043800009D00E94842307FC05D03EF490958195C6
:104390009F4F0895709561957F4F0895052E97FB67
:1043A0001EF400940E94E52157FD07D00E94982337
:1043B00007FC03D04EF40C94E521509540953095C0
:1043C00021953F4F4F4F5F4F089590958095709581
:1043D00061957F4F8F4F9F4F08950E94C023B7FF75
:1043E0000895821B930B0895DF93CF931F930F9330
:1043F0009A9DF02D219FF00D8B9DF00D8A9DE02D53
:10440000F10D039FF00D029FE00DF11D4E9DE00D9B
:10441000F11D5E9DF00D4F9DF00D7F936F93BF9248
:10442000AF925F934F93D5010E94C0238B01AC01E3
:10443000D7010E94C023EB01E80FF91FD6010E94AB
:1044400043222F913F91D6010E94C023C60FD71F50
:10445000E81FF91FAF91BF910E9443222F913F9116
:104460000E94C023C60FD71FE81FF91FD6010E9464
:10447000C023E60FF71F9801BE01CF010F911F91D6
:10448000CF91DF9108950E94C023460F571FC81F88
:10449000D91F08F43196089597FB57FF0C945C22BE
:1044A0009F938F930E945C226E1B7F0BAF91BF91F5
:1044B0008A0B9B0B0895E894DF93CF93FC01DB01FB
:1044C0000E94C0237F936F93E9019A01AC01BF93CF
:1044D000AF933F932F93DF010E94C02326F46C1B00
:1044E0007D0B820B930B9E01EB01FC010E9443228A
:1044F000AF91BF912F913F910E944322BE01CF0106
:10450000F9012F913F91CF91DF910895689401C0F7
:10451000E894F92FF12B12F00C94BA22A0E0B0E04D
:10452000E4E9F2E20C942C23092E059422F40E9473
:104530001623112392F4F0E80F26FFEFE094F09495
:1045400000951095B094C094D094A194BF0ACF0A5E
:10455000DF0AEF0AFF0A0F0B1F0B0E94C52207FCA0
:104560000E941623CDB7DEB7ECE00C944823689484
:1045700001C0E8948F929F92CF93DF930E94C5224F
:10458000DF91CF919F908F90089588249924F40112
:10459000E401B0E49F93AA279A158B049C04ED05CF
:1045A000FE05CF05D007A10798F4AD2FDC2FCF2F44
:1045B000FE2FE92D982C892E982F872F762F652F87
:1045C000542F432F322F2227B85031F7BF9127C0E5
:1045D0001B2EBF91BB27220F331F441F551F661F81
:1045E000771F881F991F881C991CEE1FFF1FCC1F67
:1045F000DD1FAA1FBB1F8A149B04EC05FD05CE0519
:10460000DF05A007B10748F08A189B08EC09FD09EF
:10461000CE09DF09A00BB10B21601A94E1F62EF44C
:104620009401AF01BE01CD01000C08956095709515
:104630008095909530954095509521953F4F4F4FDF
:104640005F4F6F4F7F4F8F4F9F4F08952F923F9235
:104650004F925F926F927F928F929F92AF92BF9292
:10466000CF92DF92EF92FF920F931F93CF93DF933E
:10467000CDB7DEB7CA1BDB0B0FB6F894DEBF0FBE9B
:10468000CDBF09942A88398848885F846E847D84E8
:104690008C849B84AA84B984C884DF80EE80FD80EA
:1046A0000C811B81AA81B981CE0FD11D0FB6F89460
:1046B000DEBF0FBECDBFED0108952A0D3B1D4C1D81
:1046C0005D1D6E1D7F1D801F911F08952A193B09D6
:1046D0004C095D096E097F09800B910B08952A151D
:1046E0003B054C055D056E057F0580079107089524
:1046F0000024A7FD00942A173005400550056005E9
:104700007005800590050895AA1BBB1B51E107C0E9
:10471000AA1FBB1FA617B70710F0A61BB70B881F51
:10472000991F5A95A9F780959095BC01CD010895E0
:10473000A1E21A2EAA1BBB1BFD010DC0AA1FBB1FA5
:10474000EE1FFF1FA217B307E407F50720F0A21B17
:10475000B30BE40BF50B661F771F881F991F1A9484
:1047600069F760957095809590959B01AC01BD01AE
:10477000CF010895EE0FFF1F0590F491E02D0994ED
:10478000A29FB001B39FC001A39F700D811D112492
:10479000911DB29F700D811D1124911D0895AEE0F1
:1047A000B0E0E5EDF3E20C9434238C01FA0186E0ED
:1047B0008C831A83098377FF02C060E070E8615040
:1047C00071097E836D83A901BF01CE0101960E940C
:1047D000FB234D815E8157FD0AC02F81388542172A
:1047E00053070CF49A01020F131FF80110822E9642
:1047F000E4E00C945023ABE0B0E0E1E0F4E20C9490
:1048000026237C013B018A01FC01178216828381E9
:1048100081FFC8C1CE0101965C01F7019381F301CC
:1048200093FD859193FF81913F01882309F453C142
:10483000853239F493FD859193FF81913F01853253
:1048400029F4B70190E00E94EB25E7CF912C212CB1
:10485000312CFFE1F31538F08B3211F190F48032F6
:1048600009F1833229F137FC3CC020ED280F2A30B2
:1048700050F536FE20C08AE0989E200D1124922E1D
:1048800006C08D3291F0803371F7689430F8F301EF
:1048900093FD859193FF81913F018111DACF21C072
:1048A000689431F8689432F8F2CF689433F8EFCF17
:1048B000689434F8ECCFEAE02E9E200D1124222ECD
:1048C000689435F8E4CF8E3229F436FC04C168943C
:1048D00036F8DDCF8C3619F4689437F8D8CF88369F
:1048E000B1F2982F9F7D95549330E0F08336A1F17B
:1048F0008337C1F1833509F063C02801F2E04F0E20
:10490000511CF801C080D180692D70E036FC02C0D6
:104910006FEF7FEFC6010E94D5254C01689437F8F0
:1049200082010AC00C5F1F4FFFE3F9838824839440
:10493000912C6501E89437F833FE2DC0522C811478
:10494000910471F5552009F468CFB70180E290E039
:104950000E94EB255A94F6CFF801808189830E5F7F
:104960001F4FE4CF2801F2E04F0E511CF801C08028
:10497000D180692D70E036FC02C06FEF7FEFC60179
:104980000E94E0254C018201D5CFB70180E290E082
:104990000E94EB252A942814190409F0B0F7CECF11
:1049A000F60137FC859137FE81916F01B70190E0E8
:1049B0000E94EB2551105A94F1E08F1A9108BFCF55
:1049C000843619F0893609F077C0F80137FE6BC0DC
:1049D00060817181828193810C5F1F4FF32DFF767F
:1049E0003F2E97FF09C090958095709561957F4FF8
:1049F0008F4F9F4F689437F82AE030E0A5010E945E
:104A00001B26C82ECA188C2C432C36FE0CC0E894EA
:104A100040F8C91440F434FE05C032FC03C0F32D45
:104A2000FE7E4F2E892C44FE95C0FE01EC0DF11D3B
:104A30008081803309F087C0242D297E422E842D69
:104A40008870582E43FC95C040FE8FC09C2C821469
:104A500018F42C0C922C981844FE91C0B70180E3F6
:104A600090E00E94EB2542FE09C088E790E041FEFD
:104A700002C088E590E0B7010E94EB25C91408F454
:104A80008AC0CA94D12C9FEFC91AD90ACA0CDB1C60
:104A9000F60182916F01B70190E00E94EB25AC1402
:104AA000BD04B1F74FCF60817181072E000C880BD8
:104AB000990B0E5F1F4F92CFD32CE894D4F82AE0C5
:104AC00030E0853739F1232D297FD22E8F3601F141
:104AD00048F48835A9F0F701868197812B96E2E1A9
:104AE0000C944223803749F08837A9F7D4FE02C0DE
:104AF0006894D2F820E130E00DC06894D4F8F6CF85
:104B000034FE03C0822F8660D82E20E132E002C03E
:104B100028E030E0F801D7FE0FC06081718182810A
:104B200093810C5F1F4FA5010E941B26C82ECA1837
:104B30003D2CE89437F867CF6081718190E080E088
:104B40000E5F1F4FF0CF42FC02C0839478CF839456
:104B5000839475CF842D867809F471CFF6CFB70191
:104B600080E290E00E94EB2583948214C0F3512CE4
:104B700073CF522C5818821408F46ECFF8CF842DBE
:104B8000867809F47BCF8BE241FE80E247FC8DE220
:104B9000B70190E071CFB70180E390E00E94EB2570
:104BA0009A946CCF8FEF9FEF99CFFC0105906150E5
:104BB00070400110D8F7809590958E0F9F1F089533
:104BC000FC016150704001900110D8F780959095DC
:104BD0008E0F9F1F08950F931F93CF93DF93182F6E
:104BE000092FEB018B8181FD09C01FEF0FEF812F92
:104BF000902FDF91CF911F910F91089582FF14C0E4
:104C00002E813F818C819D81281739073CF4E881F2
:104C1000F981CF0101969983888310838E819F81CA
:104C200001969F838E83E3CFE885F985812F0995CF
:104C3000892BA1F3DACFFA01AA27283051F12031CC
:104C400081F1E8946F936E7F6E5F7F4F8F4F9F4F20
:104C5000AF4FB1E03ED0B4E03CD0670F781F891F62
:104C60009A1FA11D680F791F8A1F911DA11D6A0F30
:104C7000711D811D911DA11D20D009F468943F91E3
:104C80002AE0269F11243019305D3193DEF6CF01E2
:104C90000895462F4770405D4193B3E00FD0C9F7A8
:104CA000F6CF462F4F70405D4A3318F0495D31FD15
:104CB0004052419302D0A9F7EACFB4E0A695979568
:104CC000879577956795BA95C9F70097610571053E
:104CD00008959B01AC010A2E069457954795379588
:104CE0002795BA95C9F7620F731F841F951FA01DE2
:064CF0000895F894FFCFC7
:104CF600C8000000C8000000E8030000E803000048
:104D0600120013000200FFFF0E001100FFFF4E030A
:104D1600520355035C034E03580362036603D40330
:104D2600B60398037A036A036E03750346005600BA
:104D360064000E6310111213020E63101112130297
:104D46005753705F5566000000004203A202CF026F
:104D5600AA030003DE02F202000000005B0B000063
:104D6600000036094E4F2042554646455200300057
:104D76000D0A00256420256420256420256420254D
:104D86006400626C756500616D62657200677265CC
:104D9600656E0079656C6C6F77002D2D2D2D2D2D90
:104DA6000072656400796573006E6F0062617474E9
:104DB6000066616E006F6E006F6666006C6F006D58
:104DC60065640068690053746174652C25732C460C
:104DD600616E2C25732C25752C42757A7A65722C9A
:104DE60025732C416C6572742C25732C52656D6984
:104DF6006E6465722C25732C436861726765722C2C
:104E060025732C4C4544732C25732C25732C257344
:104E16002C25732C25732C25732C25732C6D696C0E
:104E26006C69566F6C74732C256C642C6D696C6C94
:104E360069416D70732C256C642C436F756C6F6DB6
:104E460062732C256C642C6368617267652C25641B
:104E560025252C626174742C25730077726974653C
:104E660020656570726F6D20257320257300667549
:104E76006C6C4368617267654D6963726F566F6CDF
:104E860074732025732025732025730031323A323E
:104E9600333A3335004D61792031342032303232A5
:104EA600004169722D746F2D416C6C205041505237
:104EB60020332E3141206275696C642066323235AA
:104EC6006365610025732025732025732028666C91
:104ED600616773202564290D0A547970652027744B
:104EE6002720746F20656E74657220746573742054
:104EF6006D6F64650025732073706565642C20648E
:104F06007574792025640020202025752052504D87
:104F16002C20256C64206D41000D0A256C64206DE3
:104F26004100256C64206D5600556E6B6E6F776E72
:104F360020636F6D6D616E642027256327004F66C1
:104F460066004F6E004F6666436867004F6E4368A3
:104F5600670046756C00457272004C6F77004D65B0
:0A4F66006469756D00486967680012
:00000001FF
