:100000000C9485010C94AD010C94AD010C94AD01E0
:100010000C94AD010C9428130C9411130C94AD01A5
:100020000C94AD010C94AD010C94AD010C94AD0198
:100030000C94AD010C94AD010C94AD010C94AD0188
:100040000C94C7120C94AD010C9495120C946F1281
:100050000C94AD010C94AD010C94AD010C94AD0168
:100060000C94AD010C94AD010000000024002700A9
:100070002A0000000000250028002B0000000000DE
:1000800023002600290004040404040404040202DA
:100090000202020203030303030301020408102007
:1000A0004080010204081020010204081020000012
:1000B0000008000201000003040700000000000027
:1000C00000000D0A0A3C3C3C204E6F726D616C20B2
:1000D0004D6F6465203E3E3E0072202D20526573B8
:1000E00065740038202D2043757272656E7420533C
:1000F000656E736F7220746573740037202D204312
:100100006861726765722044657465637420746504
:1001100073740036202D2042617474657279205604
:100120006F6C7461676520746573740035202D20D1
:10013000566F6C74616765205265666572656E63A3
:100140006520746573740034202D20427574746FBB
:100150006E20746573740033202D20537065616BBD
:10016000657220746573740032202D2046616E2004
:10017000746573740031202D204C454420746573E0
:100180007400436F6D6D616E6473206172653A0037
:100190000D0A0A3C3C3C2054657374204D6F646525
:1001A000203E3E3E000D0A4C4544205465737420A9
:1001B000656E646564002E002E002E004C454420C0
:1001C00054657374000D0A46616E20546573742083
:1001D000656E64656400002E0046616E2054657390
:1001E00074000D0A537065616B65722054657374F9
:1001F00020656E646564002E00537065616B6572E6
:100200002054657374000D0A427574746F6E205427
:1002100065737420656E646564002E0042757474A5
:100220006F6E2054657374000D0A566F6C746167AD
:1002300065205265666572656E63652054657374EA
:1002400020656E64656400566F6C7461676520524A
:1002500065666572656E63652054657374000D0A8A
:100260004261747465727920566F6C7461676520A1
:100270005465737420656E646564004261747465CE
:10028000727920566F6C74616765205465737400D1
:100290000D0A436861726765722044657465637412
:1002A000205465737420656E6465640043686172F0
:1002B00067657220446574656374205465737400C7
:1002C0000D0A43757272656E742053656E736F729A
:1002D000205465737420656E6465640043757272A2
:1002E000656E742053656E736F722054657374006D
:1002F000000D0A456E746572205465737420436F57
:100300006D6D616E643A0000881311241FBECFEF3B
:10031000D8E0DEBFCDBF13E0A0E0B1E0E4EAF2E454
:1003200002C005900D92AE36B107D9F724E0AEE6D3
:10033000B3E001C01D92A43FB207E1F711E0C5E8A8
:10034000D1E004C02197FE010E94911EC438D1075C
:10035000C9F70E94C6140C9450210C940000E9E7E0
:10036000F3E0A089B18982E08C93A485B5851C92C5
:10037000A685B78580E18C93108EA489B58986E027
:100380008C93A289B3898C9180618C93A289B38963
:100390008C9188608C93A289B3898C9180688C93AE
:1003A0000288F389E02D80818F7D80830895AF924C
:1003B000BF92CF92DF92EF92FF920F931F93CF9352
:1003C000DF936C017B018B01040F151FEB015E01B4
:1003D000AE18BF08C017D10759F06991D601ED9149
:1003E000FC910190F081E02DC6010995892B79F7E8
:1003F000C501DF91CF911F910F91FF90EF90DF909A
:10040000CF90BF90AF900895FC01538D448D252F60
:1004100030E0842F90E0821B930B541710F0CF969E
:10042000089501970895FC01918D828D981761F0D0
:10043000A28DAE0FBF2FB11D5D968C91928D9F5FE7
:100440009F73928F90E008958FEF9FEF0895FC01C6
:10045000918D828D981731F0828DE80FF11D858D79
:1004600090E008958FEF9FEF0895FC01918D228D0C
:10047000892F90E0805C9F4F821B91098F73992791
:10048000089589E793E00E94350221E0892B09F461
:1004900020E0822F089580E090E0892B29F00E94CF
:1004A000410281110C9400000895FC01A48DA80F55
:1004B000B92FB11DA35ABF4F2C91848D90E00196A6
:1004C0008F739927848FA689B7892C93A089B189C6
:1004D0008C91837080648C93938D848D981306C067
:1004E0000288F389E02D80818F7D80830895EF92CB
:1004F000FF920F931F93CF93DF93EC0181E0888FDE
:100500009B8D8C8D98131AC0E889F989808185FFAD
:1005100015C09FB7F894EE89FF896083E889F9894F
:1005200080818370806480839FBF81E090E0DF9151
:10053000CF911F910F91FF90EF900895F62E0B8DA4
:1005400010E00F5F1F4F0F731127E02E8C8D8E115F
:100550000CC00FB607FCFACFE889F989808185FFC6
:10056000F5CFCE010E945502F1CFEB8DEC0FFD2FA0
:10057000F11DE35AFF4FF0829FB7F8940B8FEA8981
:10058000FB8980818062CFCF0F931F93CF93DF933E
:100590008C01D0E0C0E0F801EC0FFD1F64916623F0
:1005A00041F089E793E00E947702892B11F02196B0
:1005B000F2CFCE01DF91CF911F910F910895CF938C
:1005C000DF93EC01888D8823B9F0AA89BB89E8897B
:1005D000F9898C9185FD03C0808186FD0DC00FB621
:1005E00007FCF7CF8C9185FFF2CF808185FFEDCF9F
:1005F000CE010E945502E9CFDF91CF91089589E79E
:1006000093E00E94DF02E9E7F3E0A289B3898C91CD
:100610008F7E8C93A289B3898C91877F8C93A289DA
:10062000B3898C918F778C93A289B3898C918F7DBC
:100630008C93828D818F0895833081F028F48130EE
:1006400099F08230A9F008958730A9F08830C9F078
:100650008430B1F4809180008F7D03C08091800050
:100660008F7780938000089584B58F7784BD089537
:1006700084B58F7DFBCF8091B0008F778093B000E1
:1006800008958091B0008F7DF9CFCF93DF93282F0D
:1006900030E0F901E255FF4F8491F901E656FF4F32
:1006A000D491F901EA57FF4FC491CC23A1F08111F5
:1006B0000E941C03EC2FF0E0EE0FFF1FE458FF4FE9
:1006C000A591B491EC91ED2381E090E009F480E0F4
:1006D000DF91CF91089580E090E0FACF80E00E9412
:1006E000450321E0892B09F020E0822F089587E05F
:1006F0000E944503909317048093160485E00E949E
:100700004503909319048093180440911A04509162
:100710001B0480916D0041155105C9F080688093DC
:100720006D0020911C0430911D0480916D002115F5
:10073000310579F0806280936D0080916800452BCF
:1007400011F4232B41F084608093680008958F7723
:10075000E6CF8F7DF0CF8B7FF7CF1F93CF93DF93C3
:10076000282F30E0F901E255FF4F8491F901E65658
:10077000FF4FD491F901EA57FF4FC491CC23A9F060
:10078000162F81110E941C03EC2FF0E0EE0FFF1FCB
:10079000EE58FF4FA591B4918FB7F894EC911111D9
:1007A00008C0D095DE23DC938FBFDF91CF911F91DE
:1007B0000895DE2BF8CFCF93DF9390E0FC01E6564F
:1007C000FF4F24918A579F4FFC0184918823C9F0E1
:1007D00090E0880F991FFC01E859FF4FA591B49153
:1007E000FC01EE58FF4FC591D49161110DC09FB728
:1007F000F8948C91209582238C93888128232883D8
:100800009FBFDF91CF910895623051F49FB7F89464
:100810003C91822F809583238C93E8812E2BEFCF00
:100820008FB7F894EC912E2B2C938FBFEACF61E019
:100830008AE00E94DB0383E28093800081E1809361
:100840008100E8E8F0E080E496E0918380832081F5
:10085000318142E3429FC001439F900D112464E621
:1008600070E00E94AE1C70938B0060938A00089524
:100870001F93CF93DF93182FEB0161E00E94DB03FE
:10088000209739F460E0812FDF91CF911F910C9474
:10089000AD03CF3FD10511F461E0F5CFE12FF0E0DA
:1008A000E255FF4FE491E33031F140F4E130B1F033
:1008B000E230E1F0C038D1057CF7E4CFE73029F130
:1008C000E83059F1E430B1F7809180008062809384
:1008D0008000D0938B00C0938A0004C084B58068E8
:1008E00084BDC7BDDF91CF911F91089584B580620B
:1008F00084BDC8BDF7CF8091800080688093800060
:10090000D0938900C0938800EDCF8091B0008068BB
:100910008093B000C093B300E5CF8091B0008062B7
:100920008093B000C093B400DDCF8E50806480937C
:100930007C0080917A00806480937A0080917A00B4
:1009400086FDFCCF809178009091790008952F92D8
:100950003F924F925F926F927F928F929F92AF924F
:10096000BF92CF92DF92EF92FF920F931F93CF939C
:10097000DF9300D000D0CDB7DEB784E10E949504AC
:100980003C018FE00E9495044C018AE0A82EB12C16
:10099000C12CD12CE12CF12C00E010E0209120049E
:1009A0003091210440912204509123046091240449
:1009B0007091250480912604909127040E940A1DBD
:1009C00019012A0169837A838B839C83B401990C72
:1009D000880B990B072C000C880899086619770971
:1009E000880999092DE230E743E650E00E94621D34
:1009F000E8EEAE2EF3E0BF2E0E949E1D59016A0163
:100A00007B018C019101A20169817A818B819C819A
:100A10000E94731EABE0AA2EB12CC12CD12CE12C6C
:100A2000F12C00E010E00E949E1D209320043093E2
:100A30002104409322045093230460932404709370
:100A4000250480932604909327040F900F900F9015
:100A50000F90DF91CF911F910F91FF90EF90DF905A
:100A6000CF90BF90AF909F908F907F906F905F904E
:100A70004F903F902F9008953FB7F8948091730363
:100A800090917403A0917503B091760326B5A89B4D
:100A900005C02F3F19F00196A11DB11D3FBFBA2F10
:100AA000A92F982F8827BC01CD01620F711D811DD0
:100AB000911D43E0660F771F881F991F4A95D1F754
:100AC00008958F929F92AF92BF92CF92DF92EF9252
:100AD000FF924B015C010E943C056B017C010E946E
:100AE0003C056C197D098E099F09683E734081059C
:100AF0009105A8F321E0821A9108A108B10888EEB7
:100B0000C80E83E0D81EE11CF11C81149104A104DD
:100B1000B10429F7FF90EF90DF90CF90BF90AF9096
:100B20009F908F900895CF93DF93EC010197C1F4CC
:100B300061E086E00E94AD036AE070E080E090E052
:100B40000E946105F89480E8809361001092610032
:100B50007894D0931F04C0931E04DF91CF91089521
:100B6000F89480E88093610083E08093610078943A
:100B700060E086E00E94AD036EE170E080E090E00E
:100B80000E946105E6CF2FB7F89460916F037091D2
:100B9000700380917103909172032FBF08952F927B
:100BA0003F924F925F926F927F928F929F92AF92FD
:100BB000BF92CF92DF92EF92FF920F931F93CF934A
:100BC000DF930E946E03C82F882371F08091CB04BD
:100BD00081110AC00E94C3056093C3047093C404CA
:100BE0008093C5049093C604C093CB0424E6A22E40
:100BF000B12CC12CD12CE12CF12C00E010E0209183
:100C0000B7043091B8044091B9045091BA0460918E
:100C1000BB047091BC048091BD049091BE040E94FD
:100C20000A1D29013A014B01D82FC92F85E10E94E5
:100C300095049C01932F990F990B49ECA42E58E72A
:100C4000B52E6FEBC62EDD24D394492F592F692F73
:100C5000792F892F0E940A1DE8EEAE2EF3E0BF2EF9
:100C6000C12CD12C0E949E1D5201630174010D2FD5
:100C70001C2F0E94731EA5E6AA2EB12CC12CD12CCC
:100C8000E12CF12C00E010E00E949E1D2093B7049F
:100C90003093B8044093B9045093BA046093BB04F2
:100CA0007093BC048093BD049093BE04A090CC04C8
:100CB000B090CD04C090CE04D090CF04E090D0048A
:100CC000F090D1040091D2041091D3040E947C1EB4
:100CD000122FD32FC42FB52FF62FE72FF82E092F61
:100CE000A0E00E94851E54F40E942C1E122FD32FC8
:100CF000C42FB52FF62FE72FF82E092F212F3D2FC8
:100D00004C2F5B2F6F2F7E2F8F2D902F2F39364832
:100D100041405105610571058105910559F154F175
:100D20000E94C3056093C7047093C8048093C904EC
:100D30009093CA048091B7048093CC048091B80446
:100D40008093CD048091B9048093CE048091BA043D
:100D50008093CF048091BB048093D0048091BC0425
:100D60008093D1048091BD048093D2048091BE040D
:100D70008093D3040E943C056B017C010E94A70470
:100D800029013A014B011C018091BF049091C004DC
:100D9000A091C104B091C204A7019601281B390B90
:100DA0004A0B5B0BC092BF04D092C004E092C10416
:100DB000F092C204520163017401810160E070E0AD
:100DC00080E090E00E940A1DA090AF04B090B004B3
:100DD000C090B104D090B204E090B304F090B40499
:100DE0000091B5041091B6040E94731ED22EE32E1A
:100DF000F42E052F162FB72FF82FE92F2115304885
:100E000041485F4F664573498045910559F054F05C
:100E1000D12C80E8E82E91E8F92E0FEF16E5B3E922
:100E2000F0E5E0E02D2D3E2D4F2D502F612F7B2F33
:100E30008F2F9E2FA0E00E94851E44F4D12CE12C20
:100E4000F12C00E010E0B0E0F0E0E0E0D092AF0480
:100E5000E092B004F092B1040093B2041093B30492
:100E6000B093B404F093B504E093B6040E94C305B4
:100E70006B017C012091AF043091B0044091B1042A
:100E80005091B2046091B3047091B4048091B504A0
:100E90009091B6042115304841485F4F664573492B
:100EA0008045910509F478C00E946E03882309F4F7
:100EB00073C08091C3049091C404A091C504B09103
:100EC000C604A7019601281B390B4A0B5B0BDA01FC
:100ED000C90181369A4EA105B10508F45DC0809123
:100EE000C7049091C804A091C904B091CA04A70195
:100EF0009601281B390B4A0B5B0BDA01C9018136BD
:100F00009A4EA105B10508F447C09201A301B401AE
:100F1000C1012F333D4043405105610571058105F5
:100F2000910509F0CCF58091D40481110CC081E0C9
:100F30008093D404C092D504D092D604E092D70412
:100F4000F092D8042BC08091D5049091D604A09142
:100F5000D704B091D804C81AD90AEA0AFB0AE9E80A
:100F6000CE16E3E1DE06E104F104C0F01092AF0416
:100F700080E88093B00481E88093B1048FEF809380
:100F8000B20486E58093B30483E98093B40480E5DA
:100F90008093B5041092B6041092D404DF91CF91DF
:100FA0001F910F91FF90EF90DF90CF90BF90AF9087
:100FB0009F908F907F906F905F904F903F902F9079
:100FC00008950E943C056093BF047093C004809311
:100FD000C1049093C204E7EBF4E010828DE28183B8
:100FE00081E3828381E083831482158216821782D3
:100FF0000E94C3056093C3047093C4048093C50426
:101000009093C6040E94C3056093C7047093C804FC
:101010008093C9049093CA041092CB04ECECF4E0E2
:101020001082118212821382148215821682178214
:101030001092D40408954115510529F4EAE7F0E02F
:1010400080818F7780836A307105B9F0CB01880F7A
:10105000991F880F991F807267706860682B88E1FC
:101060000FB6F894A895809360000FBE609360005F
:10107000E0E6F0E0808180648083232BD9F483B79D
:10108000817F846083BFF89483B7816083BF85B715
:10109000806685BF8F7D85BF7894889583B78E7F66
:1010A00083BF7894452B29F4EAE7F0E080818068DB
:1010B0008083089583B7817F846083BFF89483B76A
:1010C000816083BF7894889583B78E7F83BF78943F
:1010D000E9CFCF93DF93EC0189E793E00E942702E9
:1010E000019689F064E670E080E090E00E9461057E
:1010F00089E793E00E942702019699F089E793E03F
:101100000E941302F5CF62E370E080E090E00E945D
:101110006105E2971C161D06FCF281E0DF91CF917C
:10112000089580E0FBCFAF92BF92CF92DF92EF9213
:10113000FF920F931F93CF93DF93C4E1D0E00E94FF
:10114000A7042197E1F70E94A704E8E1AE2EFCEF87
:10115000BF2ECC24CA94DD24DA94EE24EA94FF2432
:10116000FA940FEF1FEF0E949E1DB901CA01DF9193
:10117000CF911F910F91FF90EF90DF90CF90BF9094
:10118000AF90089510928000109281001092890013
:101190001092880010928B0010928A0008950E948D
:1011A000C40289E793E00C94DF020FB6F894A89587
:1011B00080916000886180936000109260000FBE93
:1011C00008950F931F93CF93DF93EC010E94C30503
:1011D0000C811D812E813F81601B710B820B930B53
:1011E000088119812A813B810617170728073907CB
:1011F00058F4188219821A821B82E885F985DF91DA
:10120000CF911F910F910994DF91CF911F910F9171
:10121000089587E00E944503892B61F484E00E94D1
:101220004503892B39F489E00E944503009711F4A6
:10123000FC0109940895CF92DF92EF92FF920F93F1
:101240001F93CF93DF93EC0188810E9445038C01AB
:101250008A859B850115110581F5892B31F58889D2
:10126000811118C00E94C305CC84DD84EE84FF8404
:101270006C197D098E099F09CA80DB80EC80FD8096
:10128000C616D706E806F90628F4EE81FF8109950F
:1012900081E0888B1B870A87DF91CF911F910F9187
:1012A000FF90EF90DF90CF9008950E94C3056C8768
:1012B0007D878E879F87188AEDCF892B59F7E88520
:1012C000F985309739F30995E5CFCF92DF92EF9208
:1012D000FF920F931F93CF93DF93FC01208522236E
:1012E00029F1EC010E94C3050C811D812E813F81F3
:1012F0006B017C01C01AD10AE20AF30A0881198144
:101300002A813B810C151D052E053F0578F46C8361
:101310007D838E839F83E985FA85DF91CF911F912D
:101320000F91FF90EF90DF90CF900994DF91CF91D4
:101330001F910F91FF90EF90DF90CF9008952E9A1C
:101340000895823621F0833641F00C94AD0361306C
:1013500011F40C949F092E980895613011F42F9A7E
:1013600008952F9808950C94A1090F931F93CF937C
:10137000DF938C01C9E3D1E08991B80190E00E942C
:10138000B30981E0C034D807B9F7DF91CF911F913D
:101390000F910895EF92FF920F931F93CF93DF93D6
:1013A0007C01EB01142F052F642F8C2F0E94A109C3
:1013B000EEE1F1E090E080E021912C171D0681F430
:1013C000FC01EE0FFF1FEE0DFF1DE155FF4F1083D7
:1013D0000183DF91CF911F910F91FF90EF900895BE
:1013E00001968730910541F7F4CFCF93DF93C091F9
:1013F0002804D09129040E94C208FE01E354FF4F43
:101400001182108241E050E061E170E0CE01DF9195
:10141000CF910C94CA090F931F93CF93DF93EC01E4
:1014200050E040E062E170E00E94CA098E010A5A71
:101430001F4F41E050E0F801808191811816190694
:1014400014F450E040E063E170E0CE010E94CA096C
:1014500041E050E0F80180819181029711F450E061
:1014600040E062E070E0CE01DF91CF911F910F91DB
:101470000C94CA09CF92DF92EF92FF920F931F93C1
:10148000CF93DF93EC018C010D591F4FD801EC90E5
:1014900081E08E258C93F12CFE01E15AFF4FC08034
:1014A000D180F601619171916F016F3F760729F04C
:1014B000A701CE010E94CA09F4CFD8018C918823DC
:1014C00079F10E94170480E890E0FE01E354FF4F99
:1014D00091838083EC55F1090190F081E02DD801D2
:1014E0008C91811122C084E090E0E80FF91F808187
:1014F0009181A281B381CC59DF4F88839983AA83DC
:10150000BB830E94C3056C837D838E839F83DF91A1
:10151000CF911F910F91FF90EF90DF90CF900895A2
:101520000E94C20890E080E0D0CF90E080E0DDCF64
:1015300080912804909129040C943A0A0F931F93E8
:10154000CF93DF938C01CEE1D1E0699170E050E060
:1015500040E0C8010E94CA0981E0C532D807A9F756
:10156000DF91CF911F910F9108950F931F93CF9308
:10157000DF938C01CEE1D1E0699170E041E050E071
:10158000C8010E94CA0981E0C532D807A9F7DF91D6
:10159000CF911F910F910895CF92DF92EF92FF921A
:1015A000CF93DF936B017C01EA01219788F08AE2F7
:1015B00094E00E949E0AC701B6010E9461058AE27A
:1015C00094E00E94B50AC701B6010E946105EDCF03
:1015D000DF91CF91FF90EF90DF90CF900895CF9360
:1015E000DF93EC018A810E944503892B29F48A85C7
:1015F0009B8501969B878A87DF91CF910895CF9233
:10160000DF92EF92FF920F931F93CF93DF93EC0142
:101610000E94C3050C851D852E853F85601B710BBF
:10162000820B930B0B811C812D813E8106171707BE
:101630002807390798F5F8940A851B850E948A1BAC
:101640009B01AC0160E070E08AE794E40E94E21A3A
:101650006B017C01B80190E080E00E948A1B9B0135
:10166000AC01C701B6010E94411C20E030E040E01F
:101670005FE30E94411C20E030E040E752E40E941A
:10168000411C0E945B1B798768871B861A860E9413
:10169000C3056C877D878E879F8778948885998519
:1016A000DF91CF911F910F91FF90EF90DF90CF903E
:1016B0000895CF93DF93EC0161E08A810E94A10934
:1016C0006FEF70E08F810E943804D0931D04C093A7
:1016D0001C040E9477030E94C3056C877D878E8758
:1016E0009F8719861886DF91CF91089542E050E0D8
:1016F00060E771E089E793E00C94D7010E94C4028F
:101700000E94760B89E793E00C94DF02CF93DF937E
:10171000EC010E941704FE01E354FF4F80E890E0C3
:101720009183808350E040E061E170E0CE010E944F
:10173000CA09C758DF4F84EF91E0A0E0B0E088838A
:101740009983AA83BB830E94C3056C837D838E83A8
:101750009F83DF91CF91089580912804909129046F
:101760000C94860B4F925F926F927F928F929F9212
:10177000AF92BF92CF92DF92EF92FF920F931F939F
:10178000CF93DF93EC01FC01EB57FF4F20813181B8
:1017900042815381648175818681978130544740AD
:1017A0005A45604F754787409109A12CE0E1BE2E54
:1017B000F5EECF2EABE8DA2EBCE2EB2E1BEBF12ED2
:1017C00000E010E00E949E1D2901890129303105A9
:1017D0000CF064C00E94C30528EE33E040E050E006
:1017E0000E94C21CBA01A901409550956095709560
:1017F0004170552766277727842F482F6EE070E0C9
:10180000CE010E94CA0980E1481A510841E050E027
:1018100081E54816510410F450E040E063E670E0C2
:10182000CE010E94CA0941E050E00734110514F0CE
:1018300050E040E060E170E0CE010E94CA090E94E1
:101840006E03BB24B3948B25482F50E061E170E018
:10185000CE010E94CA090E946E03FE01EA58FF4FA2
:1018600081110AC0003111053CF4DE01A35ABF4FBB
:101870008D919C910197D1F41082DF91CF911F91AE
:101880000F91FF90EF90DF90CF90BF90AF909F901F
:101890008F907F906F905F904F90089581E050E01F
:1018A000083211050CF0A9CF80E0A7CF808181110B
:1018B000E4CFCE010E94860BC259DF4FB8860E944A
:1018C000C3056C837D838E839F83D7CFCF92DF92B6
:1018D000EF92FF920F931F93CF93DF93EC010E943F
:1018E0009E0A0E9417048E0103541F4F80E890E067
:1018F000F801918380830E94C3056B017C0188E01D
:101900000E944503892BE9F40E94C3056C197D09E7
:101910008E099F09693E73408105910580F3CE01D0
:101920000E94B50A0E94C208F8011182108281E06B
:10193000DF91CF911F910F91FF90EF90DF90CF90AB
:101940000895CE010E94B50A0E94C208F8011182D2
:1019500010828E01035A1F4FF801808191810297F6
:1019600019F0CE010E940B0AF80180819181019744
:1019700019F0CE010E94B20B80E0DACF0F931F93D3
:10198000CF93DF93CDB7DEB7CC52D1400FB6F894EA
:10199000DEBF0FBECDBF9E012D5C3E4FF9014191D0
:1019A00051919F016CE271E08E010F5F1F4FC801E2
:1019B0000E94A61EF80101900020E9F73197AF01BF
:1019C000401B510BB80189E793E00E94D7010E94A8
:1019D000760B89E793E00E94DF02C45DDE4F0FB60D
:1019E000F894DEBF0FBECDBFDF91CF911F910F9155
:1019F0000895CF93DF93EC0190938804809387043C
:101A000083E791E0C130D10511F487E791E09F931E
:101A10008F938CE791E09F938F930E94BE0CCC0F25
:101A2000DD1FFE01E45BFE4F8081918190938A046B
:101A300080938904CA5BDE4F8881998190938C04DE
:101A400080938B0410928D040F900F900F900F9045
:101A50008AE294E0DF91CF910C943A0A8F929F92A0
:101A6000AF92BF92CF92DF92EF92FF920F931F93AC
:101A700080911E0490911F04019711F40E94CF05DC
:101A80008091870490918804892B09F057C080E7E2
:101A900094E00E94FF0A7C01809186048823A9F0CB
:101AA0000E94C3058090820490908304A0908404D7
:101AB000B0908504681979098A099B0960377741D4
:101AC00081059105D8F110928604B70190E080E07D
:101AD0000E948A1B6B017C01E0918004F0918104DB
:101AE000EE0FFF1FE05CFE4F6081718190E080E0AF
:101AF0000E948A1B4B015C012AE939E949E55FE351
:101B00000E94411C9B01AC01C701B6010E94DD1A75
:101B100087FD10C023E333E343E95FE3C501B4016C
:101B20000E94411C9B01AC01C701B6010E943C1CF4
:101B3000181624F482E090E00E94F90C809187044A
:101B400090918804029721F08AE294E00E940B0AA7
:101B50008091870490918804019709F083C00E94C6
:101B60006E0381112BC02091AF043091B0044091DD
:101B7000B1045091B2046091B3047091B4048091A7
:101B8000B5049091B604305447405A45604F7547AC
:101B900087409109A12C00E1B02EE5EECE2EFBE8A6
:101BA000DF2EACE2EA2EBBEBFB2E00E010E00E9441
:101BB0009E1D490189E08816910464F01092880402
:101BC0001092870410928E0410928F041092900449
:101BD000109291048091870490918804019721F0DC
:101BE0008AE294E00E94B20B8CE294E00E941B090E
:101BF0008DE394E00E941B098EE494E00E941B098F
:101C000080918E0490918F04A0919004B0919104E2
:101C1000892B8A2B8B2B21F08EE894E00E94E1081F
:101C200088E994E00E9465098091A3049091A4043E
:101C3000A091A504B091A604892B8A2B8B2B21F0AF
:101C400083EA94E00E94E10889EE94E01F910F91ED
:101C5000FF90EF90DF90CF90BF90AF909F908F90CC
:101C60000C9465092091AF043091B0044091B10407
:101C70005091B2046091B3047091B4048091B504A2
:101C80009091B604305447405A45604F754787409D
:101C90009109A12CE0E1BE2EF5EECF2EABE8DA2EB5
:101CA000BCE2EB2E1BEBF12E00E010E00E949E1D2B
:101CB000490129E0821691040CF092CF0E946E0334
:101CC000811188CF1092A00481E090E00E94F90C6D
:101CD00081CF2F923F924F925F926F927F928F921D
:101CE0009F92AF92BF92CF92DF92EF92FF920F93AB
:101CF0001F93CF93DF93CDB7DEB766970FB6F894F7
:101D0000DEBF0FBECDBF9E8B8D8B0E943C056B87C7
:101D10007C878D879E870E94C3056F87788B898B10
:101D20009A8BED89FE89EB57FF4F208031804280EE
:101D3000538064807580868097809101A201B301F1
:101D4000C401305447405A45604F75478740910958
:101D5000A12CE0E1BE2EF5EECF2EABE8DA2EBCE2F0
:101D6000EB2E1BEBF12E00E010E00E949E1D3C8B41
:101D70002B8B85EAC82E94EDD92E28EEE22EF12C7D
:101D80009101A201B301C4010E949E1D852E2D83E5
:101D90003E834F830E94A704E8EEAE2EF3E0BF2EF1
:101DA000C12CD12CE12C0E949E1D952E28873987AD
:101DB0004A8785E10E9495049C01932F990F990B06
:101DC000A9ECAA2EB8E7BB2E8FEBC82EDD24D39446
:101DD000492F592F692F792F892F0E940A1DE0E47E
:101DE000AE2EF2E4BF2EAFE0CA2ED12C0E949E1D73
:101DF000752E2901642EED89FE89E554FF4F8081FF
:101E0000918170E9C72E71E0D72E892B21F46BE800
:101E1000C62E61E0D62EED89FE89E754FF4F808102
:101E2000918150E9A52E51E0B52E892B21F44BE884
:101E3000A42E41E0B42EED89FE89E954FF4F808144
:101E40009181892B09F4DBC080E991E09A83898331
:101E5000ED89FE89EB54FF4F80819181892B09F434
:101E6000D3C0E0E9F1E0FC83EB83ED89FE89ED541A
:101E7000FF4F8081918130E9E32E31E0F32E892BF1
:101E800021F42AE9E22E21E0F22EED89FE89EF54B9
:101E9000FF4F80819181892B09F4BBC090E9292EE5
:101EA00091E0392EED89FE89E155FF4F80819181C6
:101EB00000E911E0892B11F407EA11E00E946E039A
:101EC0006FEA71E0882311F06BEA71E0ED89FE8919
:101ED000EA58FF4F80814FEA51E0882311F04BEA26
:101EE00051E0ED89FE89E35AFF4F8081918100978F
:101EF00009F494C0019709F494C083E791E0ED8957
:101F0000FE89E354FF4F208131812038310509F4E7
:101F10008BC025EB31E0AD89BE89AA5ABF4FED9148
:101F2000FC91309709F483C0319709F483C0E0EC49
:101F3000F1E0BE85BF93AD85AF93BC85BF93AB8504
:101F4000AF93BA89BF93A989AF93B889BF93AF857F
:101F5000AF93BC89BF93AB89AF938F92BF81BF937F
:101F6000AE81AF93BD81BF939F92AA85AF93B98590
:101F7000BF93A885AF937F926F925F924F92DF924B
:101F8000CF92BF92AF92BA81BF93A981AF93BC8128
:101F9000BF93AB81AF93FF92EF923F922F921F932B
:101FA0000F937F936F935F934F939F938F933F9381
:101FB0002F93FF93EF9383EC91E09F938F930E9475
:101FC000BE0C0FB6F894DEBF0FBECDBF66960FB63F
:101FD000F894DEBF0FBECDBFDF91CF911F910F915F
:101FE000FF90EF90DF90CF90BF90AF909F908F9039
:101FF0007F906F905F904F903F902F900895ABE847
:10200000B1E0BA83A98324CF84E991E09C838B83D8
:102010002CCF80EA282E81E0382E44CF8FEA91E041
:102020006ECF87E791E06BCF22EB31E074CFE9EB25
:10203000F1E07FCFECEBF1E07CCF80912804909130
:1020400029040C94690E0F931F93CF93DF93EC0137
:102050008B01FB01EE0FFF1FED5CFE4F60816536CB
:1020600008F064E670E090E080E00E948C1B23E3BF
:1020700033E343E250E40E94411C0E94541BFE01E2
:10208000EA5BFF4F87810E943804FE01EA5AFF4F46
:1020900011830083CE010E940B0A1F930F938BE5DF
:1020A00092E09F938F930E94BE0C0E94C305FE0195
:1020B000E85AFF4F6083718382839383C45ADF4F52
:1020C00081E088830F900F900F900F90DF91CF9158
:1020D0001F910F910895AF92BF92CF92DF92EF922E
:1020E000FF920F931F93CF93DF93C0912804D09159
:1020F000290487E00E944503892B09F07FC0FE0177
:10210000EB57FF4F2081318142815381648175817A
:1021100086819781305C4942574F6D4374458540B5
:102120009109D22EE32EF42E052F162FD72FC82F6C
:10213000B92F2115304841485F4F664573498045A6
:10214000910559F054F0D12CD0E8ED2E11E8F12E84
:102150000FEF16E5D3E9C0E5B0E02D2D3E2D4F2D54
:10216000502F612F7D2F8C2F9B2FA0E00E94851E6A
:1021700044F4D12CE12CF12C00E010E0D0E0C0E0E0
:10218000B0E0D082E182F28203831483D583C683D8
:10219000B7832D2D3E2D4F2D502F612F7D2F8C2F4E
:1021A0009B2F305447405A45604F754787409109EF
:1021B000A12CE0E1BE2EF5EECF2EABE8DA2EBCE28C
:1021C000EB2ECBEBFC2E00E010E00E949E1D3F9317
:1021D0002F938CE692E09F938F930E94BE0C0F90FA
:1021E0000F900F900F90DF91CF911F910F91FF9063
:1021F000EF90DF90CF90BF90AF90089561E070E0D6
:10220000FE01EA5AFF4F80819181029711F070E040
:1022100060E0CE01DF91CF911F910F91FF90EF9081
:10222000DF90CF90BF90AF900C942310AF92BF92ED
:10223000CF92DF92EF92FF920F931F93CF93DF9392
:10224000C0912804D091290487E00E944503FE0133
:10225000892B09F07EC0EB57FF4F208131814281ED
:10226000538164817581868197813054464D5840F1
:10227000624C7B4A8A4F9F4FD22EE32EF42E052FBD
:10228000162FD72FC82FB92F2115304841485F4F3F
:10229000664573498045910559F054F0D12CD0E83A
:1022A000ED2E11E8F12E0FEF16E5D3E9C0E5B0E011
:1022B0002D2D3E2D4F2D502F612F7D2F8C2F9B2F9D
:1022C000A0E00E94851E44F4D12CE12CF12C00E00A
:1022D00010E0D0E0C0E0B0E0D082E182F28203837F
:1022E0001483D583C683B7832D2D3E2D4F2D502FBC
:1022F000612F7D2F8C2F9B2F305447405A45604FC4
:10230000754787409109A12CE0E1BE2EF5EECF2E56
:10231000ABE8DA2EBCE2EB2ECBEBFC2E00E010E0BB
:102320000E949E1D3F932F938CE692E09F938F9384
:102330000E94BE0C0F900F900F900F90DF91CF91E5
:102340001F910F91FF90EF90DF90CF90BF90AF90D3
:102350000895EA5AFF4F8081918162E070E0892BF5
:1023600011F461E070E0CE01DF91CF911F910F91E8
:10237000FF90EF90DF90CF90BF90AF900C94231020
:10238000CF92DF92EF92FF920F931F93CF93DF9341
:10239000EC018B01FB01EE0FFF1FEB5DFE4F818116
:1023A0008F9380818F938AE792E09F938F930E940F
:1023B000BE0CCE010E94690EFE01ED57FF4F118346
:1023C00000830F900F900F900F90CE018A5A9F4F6D
:1023D0006C01B6977F010130110519F0033011052A
:1023E00051F50E949F09F60160817181CE010E9422
:1023F00023100E94C208FE01E354FF4F1182108295
:10240000F70180819181029719F0CE010E940B0A99
:10241000F70180819181019719F0CE010E94B20BE2
:10242000CE01DF91CF911F910F91FF90EF90DF9040
:10243000CF900C94690E60E08AE00E94DB0360E0BC
:1024400082E60E94A109F60111821082F701118231
:102450001082FE01EC59FF4F10821182128213820A
:10246000CE010E94B50ADCCF809128049091290406
:10247000FC01ED57FF4F208131812115310519F005
:102480002230310521F463E070E00C94C01108950E
:10249000CF93DF93C0912804D0912904FE01ED571A
:1024A000FF4F808191818130910529F0039779F068
:1024B000DF91CF910895CE010E94660C70E060E03C
:1024C0008823B1F3CE01DF91CF910C94C011CE01DE
:1024D0000E94660C882361F362E070E0F3CF1F92E4
:1024E0000F920FB60F9211242F933F934F935F9348
:1024F0006F937F938F939F93AF93BF93EF93FF93CC
:1025000089E793E00E945502FF91EF91BF91AF914F
:102510009F918F917F916F915F914F913F912F91FB
:102520000F900FBE0F901F9018951F920F920FB62D
:102530000F9211242F938F939F93EF93FF93E0912A
:102540008903F0918A038081E0918F03F0919003D9
:1025500082FD1BC09081809192038F5F8F732091C9
:102560009303821741F0E0919203F0E0E758FC4FAB
:10257000958F80939203FF91EF919F918F912F916F
:102580000F900FBE0F901F9018958081F4CF1F926F
:102590000F920FB60F9211242F933F938F939F9317
:1025A000AF93BF9380916F0390917003A0917103DB
:1025B000B091720330916E0326E0230F2D3758F54A
:1025C0000296A11DB11D20936E0380936F0390931B
:1025D0007003A0937103B093720380917303909181
:1025E0007403A0917503B09176030196A11DB11DEE
:1025F0008093730390937403A0937503B093760351
:10260000BF91AF919F918F913F912F910F900FBEEE
:102610000F901F90189529E8230F0396A11DB11D57
:10262000D2CF1F920F920FB60F9211248F930FB635
:10263000F894A89580916000886180936000109262
:1026400060000FBE8F910F900FBE0F901F901895D6
:102650001F920F920FB60F9211242F933F934F9317
:102660005F936F937F938F939F93AF93BF93EF93FA
:10267000FF9380911A0490911B04892BC9F087E085
:102680000E94450320911604309117048217930786
:1026900079F0909317048093160480911A04909116
:1026A0001B04DC01ED91FC910190F081E02D099576
:1026B00080911C0490911D04892BC9F085E00E9433
:1026C000450320911804309119048217930779F07B
:1026D000909319048093180480911C0490911D0418
:1026E000DC01ED91FC910190F081E02D0995FF91C5
:1026F000EF91BF91AF919F918F917F916F915F917A
:102700004F913F912F910F900FBE0F901F901895F2
:102710000F931F93CF93DF93E9E7F3E013821282C5
:1027200088EE93E0A0E0B0E084839583A683B7832E
:1027300026E531E03183208325EC30E0358724879E
:1027400024EC30E03787268720EC30E0318B208B7B
:1027500021EC30E0338B228B22EC30E0358B248B64
:1027600026EC30E0378B268B118E128E138E148E52
:10277000E6E1F4E01582148217821682128613862F
:102780001486158616861786108A118ACAE2D4E046
:102790002EE631E03983288324E030E03B832A832E
:1027A0008C839D83AE83BF8326E131E139872887FF
:1027B0001B861A8601E010E01D870C871E861F8687
:1027C000188A198A21E02A8B49E050E05C8B4B8BF8
:1027D0008D8B9E8BAF8BB88F4BE650E15A8F498F14
:1027E0001C8E1B8E1E8F0D8F1F8E18A219A21AA26F
:1027F0002BA348E050E05DA34CA342E350E060E02F
:1028000070E04EA35FA368A779A748E452E15BA7F5
:102810004AA71DA61CA61FA70EA718AA19AA1AAA7E
:102820001BAA2CAB47E050E05EAB4DAB8FAB98AF33
:10283000A9AFBAAF44E352E15CAF4BAF1EAE1DAEE1
:1028400010936A040093690410926B0410926C0454
:1028500010926D0410926E0420936F0428E631E00C
:10286000309371042093700425E0209372048093C8
:10287000730490937404A0937504B093760483E07A
:102880008093770461E00E94DB0310928104109230
:10289000800410928604109288041092870410928B
:1028A0008A041092890410928C0410928B04109266
:1028B0008E0410928F04109290041092910488E973
:1028C0009AE0909397048093960488E99AE3A0E0B5
:1028D000B0E08093980490939904A0939A04B093E5
:1028E0009B041092A0048CEA9BE09093A204809336
:1028F000A1041092A3041092A4041092A5041092B3
:10290000A60485EF99E09093AC048093AB040E94F9
:10291000E1071092E8041092E70488E893E1A0E050
:10292000B0E08093E9049093EA04A093EB04B093A1
:10293000EC041092F1048DE190E19093F304809304
:10294000F204D0932904C09328041093DA0400936E
:10295000D9041093DC040093DB041093DE0400938D
:10296000DD041093E0040093DF041093E20400936D
:10297000E1041093E4040093E3041093E60400934D
:10298000E504DF91CF911F910F910895CF93DF93CD
:10299000CDB7DEB760970FB6F894DEBF0FBECDBFE0
:1029A000789484B5826084BD84B5816084BD85B52A
:1029B000826085BD85B5816085BD80916E00816036
:1029C00080936E00109281008091810082608093DC
:1029D00081008091810081608093810080918000DE
:1029E0008160809380008091B10084608093B10009
:1029F0008091B00081608093B00080917A00846003
:102A000080937A0080917A00826080937A0080912E
:102A10007A008E7F80937A0080917A00806880931C
:102A20007A001092C10014B7C12ED12C14BE0E949E
:102A3000D50881E090E00E94930562E084E00E9466
:102A4000DB0362E089E00E94DB0362E088E00E9431
:102A5000DB0362E087E00E94DB0361E083E00E9429
:102A6000DB0360E085E00E94DB03269A60E085E1FD
:102A70000E94DB0360E084E10E94DB0360E08FE002
:102A80000E94DB0361E086E00E94DB0362E080E0FD
:102A90000E94DB0361E08AE00E94DB0361E08EE0DC
:102AA0000E94DB03279A61E080E10E94DB0361E082
:102AB00081E10E94DB0361E082E10E94DB0361E0CF
:102AC00083E10E94DB0361E082E00E94DB030E945D
:102AD0009F0970E060E083E00E94380461E08EE0CE
:102AE0000E94AD0361E083E60E94A10961E080E1FC
:102AF0000E94AD0361E081E10E94AD0361E082E1EB
:102B00000E94AD0361E083E10E94AD0361E082E0D9
:102B10000E94AD0370E060E08AE00E9438040E94E9
:102B2000C20843E050E062E370E080E090E00E9481
:102B3000CC0A0E94AF011F921F938BE892E09F93F3
:102B40008F938EEA92E09F938F930E94BE0C0F901A
:102B50000F900F900F900F900F90BEE1EB2EF12C85
:102B600089E793E00E9427028F7D8435910561F407
:102B700089E793E00E942702019609F4EAC489E7F5
:102B800093E00E941302F4CF64E670E080E090E0EE
:102B90000E94610581E0E81AF10811F782EC90E0EB
:102BA0000E947E0B0E94FF020E94AF018091C10033
:102BB0008F778093C1008091C1008F7E8093C10088
:102BC00062E080E00E94DB0313FF6DC14AE050E049
:102BD00064E670E080E090E00E94CC0A8824839450
:102BE000912C0E946E03882319F092E0890E911CAB
:102BF00080E794E00E94590B70E060E08AE294E084
:102C00000E94231088E199E20FB6F894A89580936A
:102C100060000FBE909360008AE294E090931B04E2
:102C200080931A040E94770385E10E9495049C0119
:102C3000932F990F990BB9ECAB2E18E7B12E0FEB30
:102C4000C02EDD24D394E12CF12C00E010E0492FBC
:102C5000592F692F792F892F0E940A1DE8EEAE2E79
:102C6000F3E0BF2EC12CD12C0E949E1D59016A0198
:102C7000E0E2AE16E5ECBE06EBEFCE06D1040CF4B6
:102C800028C185E10E9495049C01932F990F990B0F
:102C900069ECA62E78E7B72EEFEBCE2EDD24D39489
:102CA000E12CF12C00E010E0492F592F692F792FEA
:102CB000892F0E940A1DF8EEAF2EA3E0BA2EC12C78
:102CC000D12C0E949E1DB901CA0128EE33E040E0DC
:102CD00050E00E94E41CDA01C9018032FEE49F0743
:102CE000A105B1050CF4EBC082539B44A109B109C5
:102CF00052E0880F991FAA1FBB1F5A95D1F72C01CC
:102D00003D01770C4408542C3201A12C00E1B02E77
:102D100025EAC22E34EDD32E48EEE42EF12C00E04D
:102D200010E09C01AD01642D742D842D942D0E9422
:102D30000A1D2115304841485F4F6645734980455B
:102D4000910511F00CF0CEC085E10E9495049C0124
:102D5000932F990F990B49ECA42E58E7B52E6FEBE2
:102D6000C62EDD24D394E12C492F592F692F792FBA
:102D7000892F0E940A1DE8EEAE2EF3E0BF2EC12C73
:102D8000D12C0E949E1DB901CA0128EE33E040E01B
:102D900050E00E94E41CDA01C9018032FEE49F0782
:102DA000A105B1050CF490C082539B44A109B1095F
:102DB00022E0880F991FAA1FBB1F2A95D1F72C016B
:102DC0003D01770C4408542C3201A12CE0E1BE2EC9
:102DD000F5EACF2E14EDD12E08EEE02EF12C00E016
:102DE00010E09C01AD01642D742D842D942D0E9462
:102DF0000A1D2093AF043093B0044093B104509364
:102E0000B2046093B3047093B4048093B5049093B8
:102E1000B604B4018AE294E00E94C01181E080937C
:102E2000F1040E94C3056093ED047093EE04809357
:102E3000EF049093F00410927803412C64E0562E36
:102E4000612C712C5CE0252E53E0352E80917803A7
:102E5000882309F4E9C281EF92E00E947E0B89E7A2
:102E600093E00E9427028A30910509F443C08D3017
:102E7000910509F43FC0019691F389E793E00E9420
:102E800013028C0164E670E080E090E00E9461052E
:102E900089E793E00E942702019689F189E793E090
:102EA0000E941302F5CF912C812CCD2809F099CEE8
:102EB00045E050E06CE271E080E090E08DCE845718
:102EC0009044A109B1091BCF84579044A109B109CD
:102ED00076CF20E030E040E050E060E070E080E05D
:102EE00090E087CF20E030E841E85FEF66E573E9E6
:102EF00080E5F6CF89E793E00E941302B0CF80EF20
:102F000092E00E947E0B0533110509F4B8C10CF064
:102F10006BC00233110509F4CFC08CF401331105E5
:102F200009F474C01F930F9389E293E09F938F93EA
:102F30000E94BE0C0F900F900F900F90B0C0033303
:102F4000110509F462C10433110561F78CE192E0C7
:102F50000E947E0B81E090E00E94B5098AE192E038
:102F60000E94CF0804E110E088E00E94450361E080
:102F700070E0892B11F470E060E08EE090E00E9438
:102F8000B30987E00E94450361E070E0892B11F4EA
:102F900070E060E080E190E00E94B30989E00E9467
:102FA000450361E070E0892B11F470E060E082E19C
:102FB00090E00E94B30984E00E94450361E070E064
:102FC000892B11F470E060E082E090E00E94B30988
:102FD00082E390E00E946908882309F449C1015006
:102FE000110909F0C1CFBACF0733110509F4B2C1F5
:102FF0000CF46EC10833110509F4F8C1023711054C
:1030000009F090CFF0E0E0E0099549C08CEB91E049
:103010000E947E0B49E3E42E41E0F42EF70101917A
:103020007F0110E070E060E0C8010E94B3098AEB04
:1030300091E00E94CF0888EE93E00E9469088823FF
:1030400031F161E070E0C8010E94B309F0E4EF16CD
:10305000F1E0FF0619F790E080E00E94B50988EBE7
:1030600091E00E94CF0880ED97E00E9469088823D4
:1030700071F081E090E00E94B50986EB91E00E943A
:10308000CF0888EE93E00E9469088111C3CF81E0E8
:1030900090E00E94B50985EA91E00E947E0B80E0F5
:1030A00090E0892B09F4D2CE0E944102882309F4D2
:1030B000CDCE0E940000C6CE89ED91E00E947E0B2D
:1030C00088E691E09A83898385E08B8384E690E0AB
:1030D000A0E0B0E08C839D83AE83BF8383E08887CC
:1030E00061E00E94DB03CE0101960E94590BCE01E4
:1030F00001960E94FF0A39EDA32E32E0B32E0E9402
:103100009F0903E311E02DE2C22E21E0D22EF80147
:10311000F080E1800E5F1F4F6F2DF4E6FF1508F47D
:1031200064E670E090E080E00E948C1B23E333E3D0
:1031300043E250E40E94411C0E94541B88850E9477
:103140003804F60180819181F2E0CF0ED11CEF921C
:10315000FF929F938F93BF92AF920E94BE0C0F90ED
:103160000F900F900F900F900F9095E0E92EF12C9B
:1031700088EE93E00E9469088823D1F1CE01019680
:103180000E94FF0A982E892E0E9493089F938F9386
:103190007F936F938F929F9281EF92E09F938F9393
:1031A0000E94BE0CF1E0EF1AF1080FB6F894DEBFF2
:1031B0000FBECDBFE9F691E00933190709F0A7CF9B
:1031C00060E082E60E94A10908E010E087ED91E04E
:1031D0000E94CF0888EE93E00E946908882341F09E
:1031E0000150110999F786ED91E00E947E0B87CF7F
:1031F00010921D0410921C040E94770360E082E686
:103200000E94A10985EC91E048CF89EF91E00E94EE
:103210007E0B0E9417040CE010E085E0E82EF12CF4
:1032200087EF91E00E94CF0888EE93E00E94690842
:103230008823C9F0E1E0EE1AF10891F70E949308A3
:103240009F938F937F936F938AE093E09F938F93E5
:103250000E94BE0C015011090F900F900F900F901B
:103260000F900F90D1F60E94C20882EE91E015CF28
:1032700081E090E00E94B50986E092E00ECF87E4FD
:1032800092E00E947E0B0AE113E08FE00E94950419
:1032900028E833E1DC010E94031DA30192010E9492
:1032A000E41C5F934F933F932F931F930F930E94C0
:1032B000BE0C88EE93E00E9469080F900F900F906B
:1032C0000F900F900F908111E0CF88E292E0E5CE51
:1032D0008BE792E00E947E0BBAE18B2EB3E09B2E2F
:1032E00085E10E9495049C01932F990F990B49EC5D
:1032F000A42E58E7B52E6FEBC62EDD24D394E12C17
:10330000F12C00E010E0492F592F692F792F892FD8
:103310000E940A1DE0E4AE2EF2E4BF2EAFE0CA2EFA
:10332000D12C0E949E1D5F934F933F932F939F92AA
:103330008F920E94BE0C88EE93E00E9469080F9065
:103340000F900F900F900F900F908111C9CF8EE5C5
:1033500092E0A3CE8CEA92E00E947E0B0E94FF02D4
:1033600062E080E00E94DB0381E090E00E94B5090A
:1033700060E0F12CE12CAA24A394B62EBA2470E0CC
:1033800081E190E00E94B30962E370E080E090E0A8
:103390000E94610580E00E9445038C01CC24C39407
:1033A000D12C0115110511F4D12CC12CB6018EE0E0
:1033B00090E00E94B309B60182E090E00E94B30958
:1033C0000115110509F087017801FFEFEF1AFF0AD7
:1033D0006B2D20E5E216F10481F681E090E00E9479
:1033E000B5090E94AF0180E992E057CE8CED92E0E2
:1033F0000E947E0B88EE93E00E946908882389F082
:103400000E9493089F938F937F936F933F922F9285
:103410000E94BE0C0F900F900F900F900F900F9086
:10342000E9CF80EC92E039CEA8958091AD049091DF
:10343000AE048130910589F0F0F08230910509F4F5
:1034400069C0039709F02BCE0E942E0D0E946E03D7
:10345000811125CE61E070E009C00E942E0D0E940E
:103460006E0363E070E0882309F419CE8AE294E0E9
:103470000E94C01114CE0E94D50890E080E00E9406
:10348000930530E020E050E040E066E070E087E740
:1034900093E00E941B080E946E038823B9F081E02C
:1034A00090E00E94930562E070E08AE294E00E945E
:1034B000C01188E199E20FB6F894A8958093600056
:1034C0000FBE909360000E94E107E9CD0E94C30502
:1034D0006B017C0187E00E944503892B91F60E94D5
:1034E000C3056C197D098E099F096E377105810529
:1034F000910580F381E090E00E94930561E070E027
:103500008AE294E00E94C01187E00E944503892B63
:10351000D9F3CFCF80911E0490911F04019711F42D
:103520000E94CF058AE294E00E94B20B0E946E03D3
:10353000811106C070E060E08AE294E00E94C01150
:103540008FE594E00E941B0989EE94E00E946509D2
:10355000A6CD81E08093780360E082E60E94A10915
:1035600080E991E00E947E0B82E891E00E947E0B50
:1035700085E791E00E947E0B88E691E00E947E0B39
:1035800087E591E00E947E0B87E491E00E947E0B2C
:103590008CE291E00E947E0B83E191E00E947E0B21
:1035A0008BEF90E00E947E0B83EE90E00E947E0BFA
:1035B00089ED90E00E947E0B40CC0E94C71B08F46E
:1035C00081E008950E94F61A0C94021C0E94FB1BD5
:1035D00058F00E94F41B40F029F45F3F29F00C944E
:1035E000EB1B51110C94361C0C94F11B0E94131C04
:1035F00068F39923B1F3552391F3951B550BBB2722
:10360000AA2762177307840738F09F5F5F4F220F66
:10361000331F441FAA1FA9F335D00E2E3AF0E0E85D
:1036200032D091505040E695001CCAF72BD0FE2FA7
:1036300029D0660F771F881FBB1F2617370748073B
:10364000AB07B0E809F0BB0B802DBF01FF279358F3
:103650005F4F3AF09E3F510578F00C94EB1B0C94B1
:10366000361C5F3FE4F3983ED4F3869577956795D3
:10367000B795F7959F5FC9F7880F911D9695879528
:1036800097F90895E1E0660F771F881FBB1F621747
:1036900073078407BA0720F0621B730B840BBA0B05
:1036A000EE1F88F7E09508950E945B1B6894B111A6
:1036B0000C94361C08950E941B1C88F09F5798F0AC
:1036C000B92F9927B751B0F0E1F0660F771F881F27
:1036D000991F1AF0BA95C9F714C0B13091F00E9441
:1036E000351CB1E008950C94351C672F782F88277E
:1036F000B85F39F0B93FCCF3869577956795B39568
:10370000D9F73EF490958095709561957F4F8F4FD6
:103710009F4F0895E89409C097FB3EF490958095DB
:10372000709561957F4F8F4F9F4F9923A9F0F92F87
:1037300096E9BB279395F695879577956795B79505
:10374000F111F8CFFAF4BB0F11F460FF1BC06F5FEB
:103750007F4F8F4F9F4F16C0882311F096E911C0FD
:10376000772321F09EE8872F762F05C0662371F01E
:1037700096E8862F70E060E02AF09A95660F771F32
:10378000881FDAF7880F9695879597F90895990F0E
:103790000008550FAA0BE0E8FEEF16161706E8071B
:1037A000F907C0F012161306E407F50798F0621B3C
:1037B000730B840B950B39F40A2661F0232B242B11
:1037C000252B21F408950A2609F4A140A6958FEF30
:1037D000811D811D089597F99F6780E870E060E082
:1037E00008959FEF80EC089500240A94161617069A
:1037F00018060906089500240A94121613061406E2
:1038000005060895092E0394000C11F4882352F044
:10381000BB0F40F4BF2B11F460FF04C06F5F7F4FFC
:103820008F4F9F4F089557FD9058440F551F59F0E3
:103830005F3F71F04795880F97FB991F61F09F3F9D
:1038400079F087950895121613061406551FF2CFC6
:103850004695F1DF08C0161617061806991FF1CF16
:1038600086957105610508940895E894BB2766273D
:103870007727CB0197F908950E94C71B08F48FEFB3
:1038800008950E94541C0C94021C0E94F41B38F0F2
:103890000E94FB1B20F0952311F00C94EB1B0C9461
:1038A000F11B11240C94361C0E94131C70F3959F7D
:1038B000C1F3950F50E0551F629FF001729FBB2727
:1038C000F00DB11D639FAA27F00DB11DAA1F649FC3
:1038D0006627B00DA11D661F829F2227B00DA11D76
:1038E000621F739FB00DA11D621F839FA00D611DFC
:1038F000221F749F3327A00D611D231F849F600D1D
:10390000211D822F762F6A2F11249F5750409AF045
:10391000F1F088234AF0EE0FFF1FBB1F661F771FD1
:10392000881F91505040A9F79E3F510580F00C949C
:10393000EB1B0C94361C5F3FE4F3983ED4F3869562
:1039400077956795B795F795E7959F5FC1F7FE2B3C
:10395000880F911D9695879597F90895AA1BBB1B13
:1039600051E107C0AA1FBB1FA617B70710F0A61B7F
:10397000B70B881F991F5A95A9F780959095BC01A0
:10398000CD010895A1E21A2EAA1BBB1BFD010DC09B
:10399000AA1FBB1FEE1FFF1FA217B307E407F507FF
:1039A00020F0A21BB30BE40BF50B661F771F881FDB
:1039B000991F1A9469F760957095809590959B0171
:1039C000AC01BD01CF010895052E97FB1EF40094B4
:1039D0000E94FB1C57FD07D00E94C21C07FC03D0AD
:1039E0004EF40C94FB1C50954095309521953F4F1B
:1039F0004F4F5F4F089590958095709561957F4FDB
:103A00008F4F9F4F08950E94971EB7FF0895821B06
:103A1000930B0895DF93CF931F930F939A9DF02DEF
:103A2000219FF00D8B9DF00D8A9DE02DF10D039FE0
:103A3000F00D029FE00DF11D4E9DE00DF11D5E9D0C
:103A4000F00D4F9DF00D7F936F93BF92AF925F93F8
:103A50004F93D5010E94971E8B01AC01D7010E94A4
:103A6000971EEB01E80FF91FD6010E94591D2F91F7
:103A70003F91D6010E94971EC60FD71FE81FF91F5E
:103A8000AF91BF910E94591D2F913F910E94971EA7
:103A9000C60FD71FE81FF91FD6010E94971EE60F19
:103AA000F71F9801BE01CF010F911F91CF91DF91B8
:103AB00008950E94971E460F571FC81FD91F08F46C
:103AC0003196089597FB57FF0C94721D9F938F9327
:103AD0000E94721D6E1B7F0BAF91BF918A0B9B0BD7
:103AE0000895E894DF93CF93FC01DB010E94971EB9
:103AF0007F936F93E9019A01AC01BF93AF933F931A
:103B00002F93DF010E94971E26F46C1B7D0B820B06
:103B1000930B9E01EB01FC010E94591DAF91BF91D7
:103B20002F913F910E94591DBE01CF01F9012F91A4
:103B30003F91CF91DF910895689401C0E894F92FE7
:103B4000F12B12F00C94D01DA0E0B0E0EAEAFDE108
:103B50000C94421E092E059422F40E942C1E11235F
:103B600092F4F0E80F26FFEFE094F09400951095A2
:103B7000B094C094D094A194BF0ACF0ADF0AEF0A90
:103B8000FF0A0F0B1F0B0E94DB1D07FC0E942C1E5F
:103B9000CDB7DEB7ECE00C945E1E689401C0E894EB
:103BA0008F929F92CF93DF930E94DB1DDF91CF9185
:103BB0009F908F90089588249924F401E401B0E443
:103BC0009F93AA279A158B049C04ED05FE05CF054B
:103BD000D007A10798F4AD2FDC2FCF2FFE2FE92DB2
:103BE000982C892E982F872F762F652F542F432FAF
:103BF000322F2227B85031F7BF9127C01B2EBF911B
:103C0000BB27220F331F441F551F661F771F881FB6
:103C1000991F881C991CEE1FFF1FCC1FDD1FAA1FB8
:103C2000BB1F8A149B04EC05FD05CE05DF05A0072C
:103C3000B10748F08A189B08EC09FD09CE09DF0995
:103C4000A00BB10B21601A94E1F62EF49401AF01A0
:103C5000BE01CD01000C08956095709580959095FA
:103C600030954095509521953F4F4F4F5F4F6F4F87
:103C70007F4F8F4F9F4F08952F923F924F925F92A9
:103C80006F927F928F929F92AF92BF92CF92DF926C
:103C9000EF92FF920F931F93CF93DF93CDB7DEB7D1
:103CA000CA1BDB0B0FB6F894DEBF0FBECDBF099465
:103CB0002A88398848885F846E847D848C849B84BC
:103CC000AA84B984C884DF80EE80FD800C811B81CA
:103CD000AA81B981CE0FD11D0FB6F894DEBF0FBEF9
:103CE000CDBFED0108952A0D3B1D4C1D5D1D6E1DC0
:103CF0007F1D801F911F08952A193B094C095D09FA
:103D00006E097F09800B910B08950024A7FD009494
:103D10002A1730054005500560057005800590059F
:103D20000895EE0FFF1F0590F491E02D0994A29FD6
:103D3000B001B39FC001A39F700D811D1124911D7F
:103D4000B29F700D811D1124911D0895AEE0B0E069
:103D5000ECEAFEE10C944A1E8C01FA0186E08C83A9
:103D60001A83098377FF02C060E070E8615071092F
:103D70007E836D83A901BF01CE0101960E94D21EF0
:103D80004D815E8157FD0AC02F8138854217530748
:103D90000CF49A01020F131FF80110822E96E4E032
:103DA0000C94661EABE0B0E0E8EDFEE10C943C1E26
:103DB0007C013B018A01FC0117821682838181FF0D
:103DC000C8C1CE0101965C01F7019381F30193FD17
:103DD000859193FF81913F01882309F453C1853276
:103DE00039F493FD859193FF81913F01853229F448
:103DF000B70190E00E94C220E7CF912C212C312CFA
:103E0000FFE1F31538F08B3211F190F4803209F1B3
:103E1000833229F137FC3CC020ED280F2A3050F5C1
:103E200036FE20C08AE0989E200D1124922E06C0F6
:103E30008D3291F0803371F7689430F8F30193FD7F
:103E4000859193FF81913F018111DACF21C0689460
:103E500031F8689432F8F2CF689433F8EFCF689471
:103E600034F8ECCFEAE02E9E200D1124222E689427
:103E700035F8E4CF8E3229F436FC04C1689436F864
:103E8000DDCF8C3619F4689437F8D8CF8836B1F284
:103E9000982F9F7D95549330E0F08336A1F18337BE
:103EA000C1F1833509F063C02801F2E04F0E511CC7
:103EB000F801C080D180692D70E036FC02C06FEF40
:103EC0007FEFC6010E94AC204C01689437F8820154
:103ED0000AC00C5F1F4FFFE3F98388248394912C61
:103EE0006501E89437F833FE2DC0522C81149104FB
:103EF00071F5552009F468CFB70180E290E00E9487
:103F0000C2205A94F6CFF801808189830E5F1F4F3B
:103F1000E4CF2801F2E04F0E511CF801C080D1809F
:103F2000692D70E036FC02C06FEF7FEFC6010E9482
:103F3000B7204C018201D5CFB70180E290E00E940A
:103F4000C2202A942814190409F0B0F7CECFF60144
:103F500037FC859137FE81916F01B70190E00E9497
:103F6000C22051105A94F1E08F1A9108BFCF8436C5
:103F700019F0893609F077C0F80137FE6BC060810F
:103F80007181828193810C5F1F4FF32DFF763F2E4D
:103F900097FF09C090958095709561957F4F8F4FE1
:103FA0009F4F689437F82AE030E0A5010E94F22084
:103FB000C82ECA188C2C432C36FE0CC0E89440F84E
:103FC000C91440F434FE05C032FC03C0F32DFE7E5C
:103FD0004F2E892C44FE95C0FE01EC0DF11D808111
:103FE000803309F087C0242D297E422E842D8870CD
:103FF000582E43FC95C040FE8FC09C2C821418F4B0
:104000002C0C922C981844FE91C0B70180E390E0EC
:104010000E94C22042FE09C088E790E041FE02C033
:1040200088E590E0B7010E94C220C91408F48AC054
:10403000CA94D12C9FEFC91AD90ACA0CDB1CF6010D
:1040400082916F01B70190E00E94C220AC14BD04C0
:10405000B1F74FCF60817181072E000C880B990B4F
:104060000E5F1F4F92CFD32CE894D4F82AE030E0B3
:10407000853739F1232D297FD22E8F3601F148F46F
:104080008835A9F0F701868197812B96E2E10C949F
:10409000581E803749F08837A9F7D4FE02C06894CB
:1040A000D2F820E130E00DC06894D4F8F6CF34FEA9
:1040B00003C0822F8660D82E20E132E002C028E0C3
:1040C00030E0F801D7FE0FC0608171818281938159
:1040D0000C5F1F4FA5010E94F220C82ECA183D2C6C
:1040E000E89437F867CF6081718190E080E00E5FDF
:1040F0001F4FF0CF42FC02C0839478CF8394839407
:1041000075CF842D867809F471CFF6CFB70180E2A0
:1041100090E00E94C22083948214C0F3512C73CF8C
:10412000522C5818821408F46ECFF8CF842D86785C
:1041300009F47BCF8BE241FE80E247FC8DE2B701C0
:1041400090E071CFB70180E390E00E94C2209A9482
:104150006CCF8FEF9FEF99CFFC01059061507040BD
:104160000110D8F7809590958E0F9F1F0895FC0140
:104170006150704001900110D8F7809590958E0F96
:104180009F1F08950F931F93CF93DF93182F092F2D
:10419000EB018B8181FD09C01FEF0FEF812F902F65
:1041A000DF91CF911F910F91089582FF14C02E814E
:1041B0003F818C819D81281739073CF4E881F98182
:1041C000CF0101969983888310838E819F81019608
:1041D0009F838E83E3CFE885F985812F0995892B0D
:1041E000A1F3DACFFA01AA27283051F1203181F169
:1041F000E8946F936E7F6E5F7F4F8F4F9F4FAF4FEF
:10420000B1E03ED0B4E03CD0670F781F891F9A1F01
:10421000A11D680F791F8A1F911DA11D6A0F711DB5
:10422000811D911DA11D20D009F468943F912AE0C1
:10423000269F11243019305D3193DEF6CF010895A9
:10424000462F4770405D4193B3E00FD0C9F7F6CFDA
:10425000462F4F70405D4A3318F0495D31FD4052A2
:10426000419302D0A9F7EACFB4E0A6959795879538
:1042700077956795BA95C9F7009761057105089517
:104280009B01AC010A2E06945795479537952795C3
:10429000BA95C9F7620F731F841F951FA01D08955B
:0442A000F894FFCFC0
:1042A400C8000000C8000000E8030000E8030000A4
:1042B400120013000200FFFF0E001100FFFF0E6347
:1042C40010111213023E034203450352035E0362BC
:1042D4000369030000320064000E6310111213021C
:1042E400371DF03EFF5600000801000100001801D0
:1042F4001001000000007702D7010402DF0235023A
:104304001302270200000000EF0A00000000090960
:104314000D0A0066616E006261747400426567692B
:104324006E20257320416C65727400626C756500A3
:104334002D2D2D00616D62657200677265656E00DA
:1043440079656C6C6F770072656400796573006ED3
:104354006F006F6E006F6666006C6F006D656400C1
:1043640068690046616E2C25732C42757A7A6572F1
:104374002C25732C416C6572742C25732C52656D3D
:10438400696E6465722C25732C4368617267696E6B
:10439400672C25732C4C4544732C25732C25732CC6
:1043A40025732C25732C25732C25732C25732C6DC8
:1043B400696C6C69566F6C74732C256C642C6D6914
:1043C4006C6C69416D70732C256C642C436F756C37
:1043D4006F6D62732C256C642C6368617267652C45
:1043E400256425252C6D696C6C69732C256C752CE2
:1043F4006D6963726F732C256C7500536574204668
:10440400616E2053706565642025640043686172A1
:10441400676520697320256425000D0A656E74653F
:1044240072207374617465202573004169722D7460
:104434006F2D416C6C2050415052205265762033D0
:104444002E31412031302F352F3230323100257357
:104454002028666C616773202564290D0A547970DD
:10446400652027742720746F20656E74657220742C
:10447400657374206D6F64650025732073706565C2
:10448400642C2064757479206379636C65202564D9
:104494000020202052504D2025752C20256C6420AE
:1044A4006D696C6C69416D7073000D0A256C642034
:1044B4006D696C6C69416D707300256C64206D6965
:1044C4006C6C69566F6C747300556E6B6E6F776E9F
:1044D40020636F6D6D616E642027256327004F662E
:1044E40066004F6E004F6666204368617267696EAE
:1044F40067004F6E204368617267696E67004C6F96
:0E45040077004D656469756D00486967680051
:00000001FF
