:100000000C94E4010C940C020C940C020C940C0261
:100010000C940C020C94CB160C94B4160C940C0299
:100020000C940C020C940C020C940C020C940C0218
:100030000C940C020C940C020C940C020C940C0208
:100040000C946A160C940C020C9438160C9412162C
:100050000C940C020C940C020C940C020C940C02E8
:100060000C940C020C940C020000000024002700E9
:100070002A0000000000250028002B0000000000DE
:1000800023002600290004040404040404040202DA
:100090000202020203030303030301020408102007
:1000A0004080010204081020010204081020000012
:1000B0000008000201000003040700000000000027
:1000C00000000D0A0A3C3C3C204445425547204F65
:1000D0004E203E3E3E000D0A0A3C3C3C204E6F72D4
:1000E0006D616C204D6F6465203E3E3E0038202DD2
:1000F0002043757272656E742053656E736F722043
:10010000746573740037202D2043686172676572CF
:100110002044657465637420746573740036202D03
:10012000204261747465727920566F6C74616765E2
:1001300020746573740035202D20566F6C746167D0
:1001400065205265666572656E63652074657374BB
:100150000034202D20427574746F6E2074657374A2
:100160000033202D20537065616B657220746573B8
:10017000740032202D2046616E2074657374003146
:10018000202D204C4544207465737400436F6D6DC1
:10019000616E6473206172653A000D0A0A3C3C3C52
:1001A0002054657374204D6F6465203E3E3E000D03
:1001B0000A4C4544205465737420656E6465640080
:1001C0002E002E002E004C45442054657374000D03
:1001D0000A46616E205465737420656E6465640020
:1001E000002E0046616E2054657374000D0A537032
:1001F00065616B6572205465737420656E64656417
:10020000002E00537065616B657220546573740035
:100210000D0A427574746F6E205465737420656E98
:10022000646564002E00427574746F6E20546573AB
:1002300074000D0A566F6C746167652052656665BF
:1002400072656E6365205465737420656E646564C1
:1002500000566F6C74616765205265666572656EE5
:1002600063652054657374000D0A4261747465728D
:100270007920566F6C7461676520546573742065CE
:100280006E646564004261747465727920566F6CA7
:10029000746167652054657374000D0A4368617268
:1002A00067657220446574656374205465737420B7
:1002B000656E646564005768656E20796F752061AE
:1002C00072652066696E697368656420746573740D
:1002D000696E672C20706C656173652072652D6393
:1002E0006F6E6E65637420746865207365726961F2
:1002F0006C206361626C652E0054686520746573C0
:10030000742077696C6C20626567696E2077686518
:100310006E20746865206F72616E6765204C45447D
:100320002073746172747320666C69636B657269A3
:100330006E672E00506C6561736520646973636F2E
:100340006E6E656374207468652073657269616C94
:10035000206361626C652E0043686172676572207C
:100360004465746563742054657374000D0A4375A5
:100370007272656E742053656E736F72205465736C
:100380007420656E6465640043757272656E7420D6
:1003900053656E736F72205465737400000D0A45C7
:1003A0006E746572205465737420436F6D6D616E59
:1003B000643A006368617267657220636F6E6E6590
:1003C0006374656400002B1711241FBECFEFD8E0C3
:1003D000DEBFCDBF13E0A0E0B1E0EEE7FBE402C07A
:1003E00005900D92A239B107D9F725E0A2E9B3E053
:1003F00001C01D92AD3BB207E1F711E0C4EED1E0C0
:1004000004C02197FE010E944521C33ED107C9F7D0
:100410000E945D180C94BD250C940000AF92BF9211
:10042000CF92DF92EF92FF920F931F93CF93DF93C0
:100430006C017B018B01040F151FEB015E01AE18EF
:10044000BF08C017D10759F06991D601ED91FC9111
:100450000190F081E02DC6010995892B79F7C5013E
:10046000DF91CF911F910F91FF90EF90DF90CF9090
:10047000BF90AF900895FC01538D448D252F30E03F
:10048000842F90E0821B930B541710F0CF960895A1
:1004900001970895FC01918D828D981761F0A28DCE
:1004A000AE0FBF2FB11D5D968C91928D9F5F9F7394
:1004B000928F90E008958FEF9FEF0895FC01918D4A
:1004C000828D981731F0828DE80FF11D858D90E0B7
:1004D00008958FEF9FEF0895FC01918D228D892F54
:1004E00090E0805C9F4F821B91098F73992708953C
:1004F00084E394E00E946C0221E0892B09F420E05F
:10050000822F089580E090E0892B29F00E947802E4
:1005100081110C9400000895FC01A48DA80FB92F3F
:10052000B11DA35ABF4F2C91848D90E001968F731B
:100530009927848FA689B7892C93A089B1898C913A
:10054000837080648C93938D848D981306C0028889
:10055000F389E02D80818F7D80830895EF92FF9253
:100560000F931F93CF93DF93EC0181E0888F9B8DD6
:100570008C8D98131AC0E889F989808185FF15C090
:100580009FB7F894EE89FF896083E889F9898081B3
:100590008370806480839FBF81E090E0DF91CF9182
:1005A0001F910F91FF90EF900895F62E0B8D10E0A4
:1005B0000F5F1F4F0F731127E02E8C8D8E110CC013
:1005C0000FB607FCFACFE889F989808185FFF5CF5E
:1005D000CE010E948C02F1CFEB8DEC0FFD2FF11DAF
:1005E000E35AFF4FF0829FB7F8940B8FEA89FB899B
:1005F00080818062CFCF0F931F93CF93DF938C01C5
:10060000D0E0C0E0F801EC0FFD1F6491662341F0DB
:1006100084E394E00E94AE02892B11F02196F2CF80
:10062000CE01DF91CF911F910F910895CF93DF936A
:10063000EC01888D8823B9F0AA89BB89E889F989FA
:100640008C9185FD03C0808186FD0DC00FB607FC2F
:10065000F7CF8C9185FFF2CF808185FFEDCFCE0162
:100660000E948C02E9CFDF91CF91089584E394E05A
:100670000E941603E4E3F4E0A289B3898C918F7E93
:100680008C93A289B3898C91877F8C93A289B3893B
:100690008C918F778C93A289B3898C918F7D8C9369
:1006A000828D818F0895833081F028F4813099F014
:1006B0008230A9F008958730A9F08830C9F08430DD
:1006C000B1F4809180008F7D03C0809180008F778E
:1006D00080938000089584B58F7784BD089584B594
:1006E0008F7DFBCF8091B0008F778093B00008950D
:1006F0008091B0008F7DF9CFCF93DF93282F30E02A
:10070000F901E255FF4F8491F901E656FF4FD4916C
:10071000F901EA57FF4FC491CC23A1F081110E9447
:100720005303EC2FF0E0EE0FFF1FE458FF4FA591AD
:10073000B491EC91ED2381E090E009F480E0DF9149
:10074000CF91089580E090E0FACF80E00E947C0392
:1007500021E0892B09F020E0822F089587E00E9494
:100760007C039093D2048093D10485E00E947C03A3
:100770009093D4048093D3044091D5045091D6042F
:1007800080916D0041155105C9F0806880936D001E
:100790002091D7043091D80480916D002115310546
:1007A00079F0806280936D0080916800452B11F490
:1007B000232B41F084608093680008958F77E6CF03
:1007C0008F7DF0CF8B7FF7CF1F93CF93DF93282FB1
:1007D00030E0F901E255FF4F8491F901E656FF4FF1
:1007E000D491F901EA57FF4FC491CC23A9F0162FF9
:1007F00081110E945303EC2FF0E0EE0FFF1FEE5823
:10080000FF4FA591B4918FB7F894EC91111108C0E6
:10081000D095DE23DC938FBFDF91CF911F91089598
:10082000DE2BF8CFCF93DF9390E0FC01E656FF4F2D
:1008300024918A579F4FFC0184918823C9F090E04E
:10084000880F991FFC01E859FF4FA591B491FC0155
:10085000EE58FF4FC591D49161110DC09FB7F89428
:100860008C91209582238C938881282328839FBF95
:10087000DF91CF910895623051F49FB7F8943C9185
:10088000822F809583238C93E8812E2BEFCF8FB717
:10089000F894EC912E2B2C938FBFEACF1F93CF931C
:1008A000DF93182FEB0161E00E941204209739F4C6
:1008B00060E0812FDF91CF911F910C94E403CF3F33
:1008C000D10511F461E0F5CFE12FF0E0E255FF4FE3
:1008D000E491E33031F140F4E130B1F0E230E1F0A5
:1008E000C038D1057CF7E4CFE73029F1E83059F181
:1008F000E430B1F780918000806280938000D093D3
:100900008B00C0938A0004C084B5806884BDC7BDD5
:10091000DF91CF911F91089584B5806284BDC8BDD9
:10092000F7CF80918000806880938000D093890009
:10093000C0938800EDCF8091B00080688093B000B4
:10094000C093B300E5CF8091B00080628093B00087
:10095000C093B400DDCF8E50806480937C00809182
:100960007A00806480937A0080917A0086FDFCCFC3
:10097000809178009091790008952F923F924F9244
:100980005F926F927F928F929F92AF92BF92CF921F
:10099000DF92EF92FF920F931F93CF93DF9300D0DC
:1009A00000D0CDB7DEB784E10E94AB043C018FE0FC
:1009B0000E94AB044C0184EFA82EBB24B394C12C3D
:1009C000D12CE12CF12C00E010E02091DB043091DF
:1009D000DC044091DD045091DE046091DF047091ED
:1009E000E0048091E1049091E2040E9452211901F7
:1009F0002A0169837A838B839C83B401990C880BC9
:100A0000990B072C000C8808990866197709880942
:100A100099092DE230E743E650E00E94AA21E8EE72
:100A2000AE2EF3E0BF2E0E94E62159016A017B0140
:100A30008C019101A20169817A818B819C810E9444
:100A4000BB22A5EFAA2EBB24B394C12CD12CE12C40
:100A5000F12C00E010E00E94E6212093DB043093AB
:100A6000DC044093DD045093DE046093DF04709354
:100A7000E0048093E1049093E2040F900F900F90B4
:100A80000F90DF91CF911F910F91FF90EF90DF902A
:100A9000CF90BF90AF909F908F907F906F905F901E
:100AA0004F903F902F9008953FB7F894809119048C
:100AB00090911A04A0911B04B0911C0426B5A89B28
:100AC00005C02F3F19F00196A11DB11D3FBFBA2FE0
:100AD000A92F982F8827BC01CD01620F711D811DA0
:100AE000911D43E0660F771F881F991F4A95D1F724
:100AF00008958F929F92AF92BF92CF92DF92EF9222
:100B0000FF924B015C010E9454056B017C010E9425
:100B100054056C197D098E099F09683E7340810553
:100B20009105A8F321E0821A9108A108B10888EE86
:100B3000C80E83E0D81EE11CF11C81149104A104AD
:100B4000B10429F7FF90EF90DF90CF90BF90AF9066
:100B50009F908F900895CF93DF93EC010197C1F49C
:100B600061E086E00E94E4036AE070E080E090E0EB
:100B70000E947905F89480E88093610010926100EA
:100B80007894D093DA04C093D904DF91CF9108957B
:100B9000F89480E88093610083E08093610078940A
:100BA00060E086E00E94E4036EE170E080E090E0A7
:100BB0000E947905E6CF2FB7F894609115047091E3
:100BC000160480911704909118042FBF08950E9475
:100BD000540560937A0570937B0580937C05909310
:100BE0007D05E2E7F5E010828DE2818381E3828377
:100BF00081E0838314821582168217820E94DB05AE
:100C000060937E0570937F058093800590938105A6
:100C10000E94DB05609382057093830580938405B1
:100C20009093850510928605E7E8F5E01082118221
:100C300012821382148215821682178210928F05F7
:100C400010921F0408954115510529F4EAE7F0E0D8
:100C500080818F7780836A307105B9F0CB01880F6E
:100C6000991F880F991F807267706860682B88E1F0
:100C70000FB6F894A895809360000FBE6093600053
:100C8000E0E6F0E0808180648083232BD9F483B791
:100C9000817F846083BFF89483B7816083BF85B709
:100CA000806685BF8F7D85BF7894889583B78E7F5A
:100CB00083BF7894452B29F4EAE7F0E080818068CF
:100CC0008083089583B7817F846083BFF89483B75E
:100CD000816083BF7894889583B78E7F83BF789433
:100CE000E9CFCF93DF93EC0184E394E00E945E02AE
:100CF000019689F064E670E080E090E00E9479055A
:100D000084E394E00E945E02019699F084E394E00B
:100D10000E944A02F5CF62E370E080E090E00E941A
:100D20007905E2971C161D06FCF281E0DF91CF9158
:100D3000089580E0FBCFAF92BF92CF92DF92EF9207
:100D4000FF920F931F93CF93DF93C4E1D0E00E94F3
:100D5000BD042197E1F70E94BD04E8E1AE2EFCEF4F
:100D6000BF2ECC24CA94DD24DA94EE24EA94FF2426
:100D7000FA940FEF1FEF0E94E621B901CA01DF913B
:100D8000CF911F910F91FF90EF90DF90CF90BF9088
:100D9000AF90089510928000109281001092890007
:100DA0001092880010928B0010928A0008950F9381
:100DB0001F93CF93DF93EC018B01672B59F161E017
:100DC0008AE00E94120483E28093800081E1809394
:100DD000810080E496E090938900809388002091C0
:100DE00088003091890042E3429FC001439F900DEB
:100DF000112464E670E00E94FE2070938B006093E3
:100E00008A00C553DF4F19830883DF91CF911F916B
:100E10000F9108950E94CA06F4CF2F923F924F92ED
:100E20005F926F927F928F929F92AF92BF92CF927A
:100E3000DF92EF92FF920F931F93CF93DF93CDB783
:100E4000DEB7C958D1090FB6F894DEBF0FBECDBFCB
:100E500029013A014B011C0180913304CB57DF4F2C
:100E60008883C558D040882309F412C1C101A0E08D
:100E70000E94D62209F415C18091120490911304A6
:100E8000843091050CF0FBC09C012F5F3F4F3093E5
:100E9000130420931204880F991FFC01EB5CFE4F92
:100EA000A081B181CD57DF4FB983A883C358D0400B
:100EB0009201C101A0E00E94D6220CF08AC00E94DB
:100EC000742229013A014B011C01CA57DF4F1982D4
:100ED0001882C658D040FE013296CF57DF4FF983B3
:100EE000E883C158D040CF57DF4FA881B981C1589E
:100EF000D0401196C857DF4FB983A883C858D04057
:100F00008AE0A82EB12CC12CD12CE12CF12C00E0D0
:100F100010E09201A301B401C1010E94E421205D0F
:100F2000CF57DF4FE881F981C158D040208392012B
:100F3000A301B401C1010E94E62129013A014B013C
:100F40001C01CA57DF4F88819981C658D04001964D
:100F5000CA57DF4F99838883C658D0409201A301B6
:100F6000B401C101A0E00E94D622C9F5CB57DF4FE2
:100F70009881C558D040F0E0E0E0992351F08DE22F
:100F8000CD57DF4FA881B981C358D0408C93E1E0A1
:100F9000F0E0CD57DF4F88819981C358D040E80FEA
:100FA000F91F9E012F5F3F4FCF57DF4FA881B981B7
:100FB000C158D0402A173B0708F040C01197CF57BF
:100FC000DF4FB983A883C158D04011968C9181938B
:100FD000EBCFCB57DF4F1882C558D04076CFCA57DA
:100FE000DF4F88819981C658D04063E070E00E944D
:100FF0001221892BB1F4CF57DF4F88819981C158D5
:10100000D0400296C857DF4F99838883C858D04094
:10101000ECE2CF57DF4FA881B981C158D04011967B
:10102000EC93C857DF4F88819981C858D040CF577B
:10103000DF4F99838883C158D04055CF1082CD5758
:10104000DF4F88819981C358D040C757DF4F0FB613
:10105000F894DEBF0FBECDBFDF91CF911F910F91EE
:10106000FF90EF90DF90CF90BF90AF909F908F90C8
:101070007F906F905F904F903F902F900895E4E79E
:10108000F1E0CD57DF4FF983E883C358D040D7CF85
:1010900082E891E0CD57DF4F99838883C358D040D1
:1010A000CECFAEE7B1E0CD57DF4FB983A883C358A9
:1010B000D040C5CFE0914404F091450492E0908384
:1010C000E0914004F09141041082E0914204F091DB
:1010D000430490E1908310924C04E0914804F09115
:1010E000490496E09083E0914604F0914704908192
:1010F00090619083E0914604F0914704908198605C
:101100009083E0914604F091470490819068908329
:10111000E0914604F091470490819F7D9083811176
:101120000EC08091C1008F778093C1008091C10073
:101130008F7E8093C10062E080E00E94120481E013
:1011400080933304089520913304222331F00E94C8
:10115000FB0284E394E00C94160308950FB6F89410
:10116000A895809160008861809360001092600073
:101170000FBE08950F931F93CF93DF93EC010E944E
:10118000DB050C811D812E813F81601B710B820B61
:10119000930B088119812A813B81061717072807BD
:1011A000390758F4188219821A821B82E885F9855A
:1011B000DF91CF911F910F910994DF91CF911F91F2
:1011C0000F91089587E00E947C03892B61F484E0ED
:1011D0000E947C03892B39F489E00E947C030097EC
:1011E00011F4FC0109940895CF92DF92EF92FF92DF
:1011F0000F931F93CF93DF93EC0188810E947C03B0
:101200008C018A859B850115110581F5892B31F5A6
:101210008889811118C00E94DB05CC84DD84EE84AE
:10122000FF846C197D098E099F09CA80DB80EC80E0
:10123000FD80C616D706E806F90628F4EE81FF8180
:10124000099581E0888B1B870A87DF91CF911F91D9
:101250000F91FF90EF90DF90CF9008950E94DB05F3
:101260006C877D878E879F87188AEDCF892B59F7EA
:10127000E885F985309739F30995E5CFCF92DF926C
:10128000EF92FF920F931F93CF93DF93FC01208582
:10129000222329F1EC010E94DB050C811D812E81A6
:1012A0003F816B017C01C01AD10AE20AF30A08816E
:1012B00019812A813B810C151D052E053F0578F407
:1012C0006C837D838E839F83E985FA85DF91CF913F
:1012D0001F910F91FF90EF90DF90CF900994DF91D5
:1012E000CF911F910F91FF90EF90DF90CF900895D5
:1012F0002E9A0895823621F0833641F00C94E4034F
:10130000613011F40C9478092E980895613011F42D
:101310002F9A08952F9808950C947A090F931F938C
:10132000CF93DF938C01C9E4D1E08991B80190E0BB
:101330000E948C0981E0C035D807B9F7DF91CF91C1
:101340001F910F910895EF92FF920F931F93CF93E8
:10135000DF937C01EB01142F052F642F8C2F0E944B
:101360007A09EEE1F1E090E080E021912C171D0672
:1013700081F4FC01EE0FFF1FEE0DFF1DE354FF4F44
:1013800010830183DF91CF911F910F91FF90EF9018
:10139000089501968730910541F7F4CF2091E30439
:1013A0003091E404F901EF54FF4F408191E094271C
:1013B000908350E061E170E0C9010C94A309CF93E0
:1013C000DF93EC0160E870E00E94D70650E040E057
:1013D00061E170E0CE010E94A309C758DF4F84EF9E
:1013E00091E0A0E0B0E088839983AA83BB830E9448
:1013F000DB056C837D838E839F83DF91CF9108957E
:101400008091E3049091E4040C94DF090F931F93FF
:10141000CF93DF93EC0150E040E062E170E00E9486
:10142000A3098E010A5A1F4F41E050E0F801808164
:1014300091811816190614F450E040E063E170E061
:10144000CE010E94A30941E050E0F8018081918122
:10145000029711F450E040E062E070E0CE01DF91CD
:10146000CF911F910F910C94A3090F931F93CF93CA
:10147000DF93EC018B01FB01EE0FFF1FED5BFE4FD5
:101480006081653608F064E670E090E080E00E94DC
:10149000DC1F23E333E343E250E40E9491200E94E7
:1014A000A41FFE01EA5BFF4F87810E944E04FE01EC
:1014B000EA5AFF4F11830083CE010E94060A0E9460
:1014C000DB05FE01E85AFF4F6083718382839383BB
:1014D000C45ADF4F81E08883DF91CF911F910F9134
:1014E00008958091E3049091E404FC01EA5AFF4FCF
:1014F00061E070E0208131812230310511F070E02F
:1015000060E00C94350A8091E3049091E404FC01BE
:10151000EA5AFF4F2081318162E070E0232B11F401
:1015200061E070E00C94350ACF92DF92EF92FF9267
:101530000F931F93CF93DF93EC018C010D591F4F35
:10154000D801EC9081E08E258C93F12CFE01E15ABC
:10155000FF4FC080D180F601619171916F016F3FA3
:10156000760729F0A701CE010E94A309F4CFD80184
:101570008C9170E060E0882311F060E870E0CE01AB
:101580000E94D706FE01EF59FF4F0190F081E02D38
:10159000D8018C9181111DC084E090E0E80FF91F03
:1015A00080819181A281B381CC59DF4F8883998357
:1015B000AA83BB830E94DB056C837D838E839F831C
:1015C000DF91CF911F910F91FF90EF90DF90CF901F
:1015D000089590E080E0E2CF8091E3049091E404EC
:1015E0000C94940A0F931F93CF93DF938C01CEE159
:1015F000D1E0699170E050E040E0C8010E94A30989
:1016000081E0C532D807A9F7DF91CF911F910F91E3
:1016100008950F931F93CF93DF938C01CEE1D1E018
:10162000699170E041E050E0C8010E94A30981E0A7
:10163000C532D807A9F7DF91CF911F910F91089577
:10164000CF93DF93EC018A810E947C03892B29F4DC
:101650008A859B8501969B878A87DF91CF91089524
:10166000CF92DF92EF92FF920F931F93CF93DF936E
:10167000EC010E94DB050C851D852E853F85601BD6
:10168000710B820B930B0B811C812D813E81061700
:1016900017072807390798F5F8940A851B850E94D3
:1016A000DA1F9B01AC0160E070E08AE794E40E94DD
:1016B000321F6B017C01B80190E080E00E94DA1FCC
:1016C0009B01AC01C701B6010E94912020E030E0EF
:1016D00040E05FE30E94912020E030E040E752E4E8
:1016E0000E9491200E94AB1F798768871B861A860B
:1016F0000E94DB056C877D878E879F87789488851D
:101700009985DF91CF911F910F91FF90EF90DF901E
:10171000CF900895CF93DF93EC0161E08A810E941E
:101720007A096FEF70E08F810E944E04D093D80445
:10173000C093D7040E94AE030E94DB056C877D87AF
:101740008E879F8719861886DF91CF910895CF9352
:10175000DF93EC010E94A503882319F10E94BD04C8
:1017600020323F4B424051056105710581059105CD
:1017700009F0D4F4288139814A815B816C817D81B3
:101780008E819F8121153105410550486041754C7E
:101790008F44910509F05CF483E090E0DF91CF91F4
:1017A000089590E080E0FACF81E090E0F7CF82E00A
:1017B00090E0F4CF8F929F92AF92BF92CF92DF9240
:1017C000EF92FF920F931F93CF93DF93CDB7DEB7C6
:1017D0002A970FB6F894DEBF0FBECDBF9A878987D0
:1017E0004C0185E8880E911CF401208131814281F1
:1017F00053816481758186819781305447405A4571
:10180000604F754787409109E2ECAE2EF5EABF2E96
:10181000AEE9CA2EBAE8DB2E1CE2E12E0BEBF02E6D
:1018200000E010E00E94E62129833A834B835C8329
:101830006D837E838F83988709811A8141E050E010
:101840000832110514F450E040E06EE070E0898544
:101850009A850E94A30989819A81409741E050E0CE
:101860008135910510F450E040E063E670E0898531
:101870009A850E94A30941E050E00734110514F055
:1018800050E040E060E170E089859A850E94A309FC
:10189000C4010E94A70B4C01C984DA84FFEACF0E71
:1018A000D11CF6018081918188169906C9F0E985DD
:1018B000FA85E654FF4F1082F1E08F16910409F487
:1018C00061C008F456C092E08916910409F480C002
:1018D000E3E08E16910409F47EC0F60191828082C5
:1018E0000E94A503E985FA85EA58FF4F81118EC051
:1018F000003111050CF08AC0A985BA85A35ABF4FE3
:101900008D919C91019709F481C0808181111EC045
:1019100089859A850E94DF0989859A8582599F4F1A
:101920009A83898381E0E981FA81808780E395E762
:10193000A0E0B0E080839183A283B3830E94DB05A3
:10194000E981FA8164837583868397832A960FB62B
:10195000F894DEBF0FBECDBFDF91CF911F910F91E5
:10196000FF90EF90DF90CF90BF90AF909F908F90BF
:10197000089541E050E061E170E089859A850E9418
:10198000A309ABCFBB24B394E985FA85EF54FF4F8D
:10199000B08250E040E061E170E089859A850E9464
:1019A000A309E984FA84F2EBEF0EF11CF701B0868B
:1019B00080ED97E0A0E0B0E080839183A283B383C1
:1019C0000E94DB05F701648375838683978385CF47
:1019D00050E040E0D0CFBB24B394E985FA85EF54C2
:1019E000FF4FB08250E040E061E170E089859A8568
:1019F0000E94A309E984FA84F2EBEF0EF11CF701CF
:101A0000B08688EC90E0A0E0B0E0D6CF10829ECF08
:101A100042E050E060E871E084E394E00C940E0250
:101A200020913304222341F00E94FB020E94080D02
:101A300084E394E00C9416030895CF93DF93CDB71D
:101A4000DEB780913304882359F09E01255F3F4F14
:101A500043E851E064E170E08FE194E00E941323D9
:101A6000DF91CF9108950F931F93CF93DF93CDB75D
:101A7000DEB7CC52D1400FB6F894DEBF0FBECDBF5B
:101A800080913304882341F19E012B5C3E4FCD5C55
:101A9000DE4F48815981C353D1406CE271E08E0121
:101AA0000F5F1F4FC8010E941323F801019000200F
:101AB000E9F73197AF01401B510BB80184E394E083
:101AC0000E940E020E94080D84E394E00E94160317
:101AD0001092130410921204C45DDE4F0FB6F894F6
:101AE000DEBF0FBECDBFDF91CF911F910F91089543
:101AF0002F923F924F925F926F927F928F929F921E
:101B0000AF92BF92CF92DF92EF92FF920F931F930B
:101B1000CF93DF93CDB7DEB766970FB6F894DEBFED
:101B20000FBECDBF3C018B579F4F9E8B8D8BFC0111
:101B30002080318042805380F481F983FC01F5815B
:101B4000FB83FC01868097809101A20169817B81E2
:101B5000C401305447405A45604F7547874091094A
:101B6000E2ECAE2EF5EABF2EAEE9CA2EBAE8DB2EC5
:101B70001CE2E12E0BEBF02E00E010E00E94E621CB
:101B80003A8B298BA12C80E1B82E95EAC92E24ED41
:101B9000D22E38EEE32EF12C9101A20169817B81D6
:101BA000C4010E94E6215B8B522E932E842E0E944C
:101BB000BD04E8EEAE2EF3E0BF2EC12CD12CE12CFB
:101BC0000E94E6215C8B1901442E85E10E94AB0442
:101BD0009C01932F990F990BA9ECAA2EB8E7BB2E65
:101BE0008FEBC82EDD24D394492F592F692F792FDD
:101BF000892F0E945221E0E4AE2EF2E4BF2EAFE026
:101C0000CA2ED12C0E94E621C52E59014F87F3011F
:101C1000E753FF4F80819181892B09F471C08CEAD1
:101C200091E09A838983F301E953FF4F8081918189
:101C3000892B09F46AC08CEA91E09C838B83F301C1
:101C4000EB53FF4F80819181892B09F463C08CEAAB
:101C500091E09E838D83F301ED53FF4F808191814D
:101C6000892B09F45CC08BEA91E098878F83F3019C
:101C7000EF53FF4F80819181892B09F455C08BEA86
:101C800091E09A878987F301E154FF4F8081918128
:101C9000892B09F44EC08AEA91E09C878B87F30177
:101CA000E354FF4F80819181892B09F447C08DEA6D
:101CB00091E09E878D878D899E890E94A70B880F52
:101CC000991FFC01E35DFE4F4081488BD180F301F9
:101CD000EA58FF4F808109EB11E0882311F005EBF2
:101CE00011E0F301E35AFF4F80819181009759F190
:101CF000019709F4C4C081EC91E09E8B8D8B27C0C5
:101D0000E2E9F1E0FA83E9838ECFE2E9F1E0FC83D6
:101D1000EB8395CFE2E9F1E0FE83ED839CCFE7E929
:101D2000F1E0F887EF83A3CFEDE9F1E0FA87E987E7
:101D3000AACFE3EAF1E0FC87EB87B1CFE1EBF1E07A
:101D4000FE87ED87B8CFE9EBF1E0FE8BED8BF30179
:101D5000E553FF4F8081918128ECE22E21E0F22EA5
:101D60008038910521F495ECE92E91E0F92EC3011C
:101D70008A5B9F4F0E94300BF301EA5AFF4F20818C
:101D800031812115310509F47DC02130310509F477
:101D90007CC023ED31E04FE154E05F934F93EA893B
:101DA000EF93F989FF934B894F938F929F925F92A4
:101DB000EC89EF934F923F922F92CF92FF85FF9342
:101DC000BF92AF924A814F93E981EF93FC81FF93D9
:101DD0004B814F93EE81EF93FD81FF9348854F93A5
:101DE000EF81EF93FA85FF9349854F93EC85EF934D
:101DF000FB85FF934E854F93ED85EF93DF92F88936
:101E0000FF931F930F934E894F93ED89EF93FF92AA
:101E1000EF929F938F933F932F93F301ED57FF4FD3
:101E20000190F081E02DEE0FFF1FEB5DFE4F8181F1
:101E30008F9380818F9386ED91E09F938F930E9483
:101E4000330D0FB6F894DEBF0FBECDBF66960FB64A
:101E5000F894DEBF0FBECDBFDF91CF911F910F91E0
:101E6000FF90EF90DF90CF90BF90AF909F908F90BA
:101E70007F906F905F904F903F902F9008958CEBE4
:101E800091E03BCF2CEC31E086CF2FEC31E083CFDB
:101E90008091E3049091E4040C94780D2F923F928A
:101EA0004F925F926F927F928F929F92AF92BF926A
:101EB000CF92DF92EF92FF920F931F93CF93DF9316
:101EC000CDB7DEB768970FB6F894DEBF0FBECDBFB3
:101ED00048E050E068E070E0CE0101960E94051FE6
:101EE000898189879A819A878B818B879C819C873E
:101EF0008D818D879E819E878F818F879885988B16
:101F000029853A854B855C856D857E85A0E00E949C
:101F1000D62211F00CF0A5C0B0EE2B2E19EC312E0C
:101F200002E7402E55245394612C712C812C912C66
:101F300080E5A82E9CECB92E2DE3C22ED12CE12CED
:101F4000F12C00E010E09101A201B301C4010E9454
:101F50005221E0E9AE2EF9EDBF2EA0E4CA2E0E9478
:101F6000E621298B3A8B4B8B5C8B6D8B7E8B8F8B19
:101F7000988F20910A0430910B0440910C045091E9
:101F80000D0460910E0470910F04809110049091E3
:101F9000110451016201730184010E94CD2209F4F0
:101FA0003FC029893A894B895C896D897E898F89EF
:101FB000988D0E940D07F82EE92E9101A201B30120
:101FC000C4010E940D07182F092F29853A854B85DA
:101FD0005C856D857E858F8598890E940D07EF92BF
:101FE000FF920F931F939F938F938BE692E09F93A3
:101FF0008F930E94330D20920A0430920B0440927A
:102000000C0450920D0460920E0470920F048092A2
:102010001004909211040FB6F894DEBF0FBECDBF2E
:1020200029893A894B895C896D897E898F89988D48
:1020300068960FB6F894DEBF0FBECDBFDF91CF918B
:102040001F910F91FF90EF90DF90CF90BF90AF90D6
:102050009F908F907F906F905F904F903F902F90C8
:10206000089529843A844B845C846D847E848F84B3
:1020700098885ECF2F923F924F925F926F927F929D
:102080008F929F92AF92BF92CF92DF92EF92FF9288
:102090000F931F93CF93DF93CDB7DEB7A0970FB603
:1020A000F894DEBF0FBECDBF0E94A503182F882372
:1020B00091F08091860581110EC083EB93E00E9420
:1020C000100D0E94DB0560937E0570937F05809361
:1020D0008005909381051093860584E6A82EB12C87
:1020E000C12CD12CE12CF12C00E010E020917205E4
:1020F0003091730540917405509175056091760596
:102100007091770580917805909179050E94522110
:10211000322E432E542E652E762E872E982E292E63
:1021200085E10E94AB049C01932F990F990B49EC18
:10213000A42E58E7B52E6FEBC62EDD24D394492F7D
:10214000592F692F792F892F0E945221E8EEAE2E48
:10215000F3E0BF2EC12CD12C0E94E621A32CB42C7D
:10216000C52CD62CE72CF82C092D122D0E94BB2251
:10217000A5E6AA2EB12CC12CD12CE12CF12C00E02B
:1021800010E00E94E621209372053093730540937E
:102190007405509375056093760570937705809369
:1021A000780590937905A0908705B0908805C09038
:1021B0008905D0908A05E0908B05F0908C05009100
:1021C0008D0510918E050E94C422F22E032F142F2C
:1021D000B52FF62FE72FD82EE92EA0E00E94D622A9
:1021E00054F40E947422F22E032F142FB52FF62FD1
:1021F000E72FD82EE92E2F2D302F412F5B2F6F2F59
:102200007E2F8D2D9E2D2F39364841405105610579
:1022100071058105910559F154F10E94DB05609328
:102220008205709383058093840590938505809142
:10223000720580938705809173058093880580914E
:102240007405809389058091750580938A05809136
:10225000760580938B058091770580938C0580911E
:10226000780580938D058091790580938E050E9475
:1022700054056B017C010E94BD04298B3A8B4B8B6A
:102280005C8B6D8B7E8B8F8B988F80917A05909174
:102290007B05A0917C05B0917D05A7019601281BC7
:1022A000390B4A0B5B0BC0927A05D0927B05E0920A
:1022B0007C05F0927D05A988BA88CB88DC887B01F3
:1022C0000F89188D60E070E080E090E00E9452215C
:1022D000A0906A05B0906B05C0906C05D0906D051C
:1022E000E0906E05F0906F050091700510917105FA
:1022F0000E94BB22D22EE32EF42E052F162FB72FCD
:10230000F82FE92F211531054105504866457349DD
:102310008045910549F044F0D12CE12CF12C00E8E6
:1023200016E5B3E9F0E5E0E02D2D3E2D4F2D502FC1
:10233000612F7B2F8F2F9E2FA0E00E94D62244F486
:10234000D12CE12CF12C00E010E0B0E0F0E0E0E076
:10235000D0926A05E0926B05F0926C0500936D05D2
:1023600010936E05B0936F05F0937005E0937105BF
:102370000E94DB052B013C01A0907205B090730513
:10238000C0907405D0907505E0917605E98F209195
:1023900077052A8F309178053B8F409179054C8FD6
:1023A0000E944E0F922E832E342E252E7B018C01FF
:1023B0008091820590918305A0918405B091850557
:1023C000B301A201481B590B6A0B7B0B91E080E023
:1023D00041365A4E6105710508F490E09D8F8E8F4D
:1023E00080917E0590917F05A0918005B091810537
:1023F000B301A201481B590B6A0B7B0B91E080E0F3
:1024000041365A4E6105710508F490E09F8F88A30C
:102410000E94A503F82FE1E029893A894B895C895C
:102420006D897E898F89988D2F333D4043405105BA
:10243000610571058105910511F00CF0E0E01F9236
:10244000EF93E1E09501A601698D7A8D8B8D9C8DCE
:10245000A92CB82CC32CD22C0E94CD220CF4E0E085
:102460001F92EF93EE8DEF932D8D2F9338A13F9315
:102470004F8D4F931F92FF9383E891E09F938F932B
:102480001F9284E18F938FE194E09F938F930E943A
:102490001D0D0E94A5030FB6F894DEBF0FBECDBF81
:1024A000882309F471C080917E0590917F05A091E9
:1024B0008005B0918105A3019201281B390B4A0BBD
:1024C0005B0BDA01C90181369A4EA105B10508F40A
:1024D0005BC08091820590918305A0918405B091A5
:1024E0008505A3019201281B390B4A0B5B0BDA010E
:1024F000C90181369A4EA105B10508F445C0409145
:102500007205498F509173055A8F809174058B8F96
:10251000A0917505AC8F209076053090770580905E
:102520007805909079050E944E0F59016A017B0150
:102530008C01298D3A8D4B8D5C8DB101C4010E94B7
:10254000CD2214F129893A894B895C896D897E896C
:102550008F89988D2F333D404340510561057105AA
:102560008105910509F084F480918F05811129C0BE
:1025700081E080938F054092900550929105609282
:1025800092057092930504C080918F058111BAC0A5
:10259000A0960FB6F894DEBF0FBECDBFDF91CF91EE
:1025A0001F910F91FF90EF90DF90CF90BF90AF9071
:1025B0009F908F907F906F905F904F903F902F9063
:1025C00008958091900590919105A0919205B09108
:1025D0009305481A590A6A0A7B0A29E8421623E138
:1025E000520661047104A0F210926A0510926B0504
:1025F00010926C0580E880936D0586E580936E05EA
:1026000083E980936F0580E58093700510927105D2
:1026100020907205309073054090740550907505B8
:102620006090760570907705809078059090790598
:1026300048E050E068E070E0CE0101960E94051F7E
:10264000A980BA80CB80DC80ED80FE800F81188568
:102650009101A201B301C4010E94CD2209F00CF442
:1026600051C029863A864B865C866D867E868F862B
:10267000988A48E050E068E070E0CE0101960E9440
:10268000051F29803A804B805C806D807E808F8022
:10269000988429853A854B855C856D857E858F85F7
:1026A000988951016201730184010E94CD2251F188
:1026B00048E050E068E070E0CE0109960E94151FE6
:1026C00029853A854B855C856D857E858F859889C2
:1026D0000E940D07182F092F9101A201B301C40117
:1026E0000E940D070F931F939F938F9389E892E0A9
:1026F0009F938F930E94330D0F900F900F900F9028
:102700000F900F9010928F0543CF8F929F92AF92B0
:10271000BF92CF92DF92EF92FF920F931F9380911F
:10272000D9049091DA04019711F40E943A10809133
:10273000420590914305892B09F06CC08BE295E02E
:102740000E94300B7C01809141058823B1F00E94EA
:10275000DB0580903D0590903E05A0903F05B09030
:102760004005681979098A099B0960377741810515
:10277000910508F44FC010924105B70190E080E048
:102780000E94DA1F6B017C01E0913B05F0913C0552
:10279000EE0FFF1FE05BFE4F6081718190E080E0F3
:1027A0000E94DA1F4B015C012AE939E949E55FE340
:1027B0000E9491209B01AC01C701B6010E942D1F10
:1027C00087FD10C023E333E343E95FE3C501B401B0
:1027D0000E9491209B01AC01C701B6010E948C2090
:1027E0001816C4F482E090E090934305809342056C
:1027F00080E191E0909345058093440580E091E06D
:1028000090934705809346051092480585EE94E025
:102810000E94940A8091420590914305029721F00D
:1028200085EE94E00E94060A80914205909143054E
:10283000019709F096C00E94A50381112CC0209138
:102840006A0530916B0540916C0550916D05609162
:102850006E0570916F0580917005909171053054EF
:1028600047405A45604F754787409109E2ECAE2ECC
:10287000F5EABF2EAEE9CA2EBAE8DB2E1CE2E12E45
:102880000BEBF02E00E010E00E94E621490189E008
:1028900088169104D4F010924305109242051092CC
:1028A000490510924A0510924B0510924C050E9462
:1028B000CA061092B1051092B00585EE94E00E9410
:1028C000090B109295051092940580914205909104
:1028D0004305019721F085EE94E00E94DA0B87EE24
:1028E00094E00E94F40888EF94E00E94F40889E0E4
:1028F00095E00E94F4088091490590914A05A091C5
:102900004B05B0914C05892B8A2B8B2B21F089E448
:1029100095E00E94BA0883E595E00E943E09809107
:102920005E0590915F05A0916005B0916105892BCE
:102930008A2B8B2B21F08EE595E00E94BA0887E95F
:1029400095E00E943E0982EB95E01F910F91FF9068
:10295000EF90DF90CF90BF90AF909F908F900C94AE
:102960003E0920916A0530916B0540916C055091AC
:102970006D0560916E0570916F0580917005909165
:102980007105305447405A45604F7547874091095B
:10299000E2ECAE2EF5EABF2EAEE9CA2EBAE8DB2E87
:1029A0001CE2E12E0BEBF02E00E010E00E94E6218D
:1029B000490129E0821691040CF08DCF0E94A503F5
:1029C000811183CF10925B0510929F0581E090E00A
:1029D000909343058093420588E191E090934505EB
:1029E0008093440588E091E09093470580934605E5
:1029F0001092480585EE94E00E94940A66CFCF932A
:102A0000DF93C091E304D091E4040E94CA06FE0162
:102A1000E553FF4F1182108241E050E061E170E028
:102A2000CE01DF91CF910C94A309CF92DF92EF9268
:102A3000FF92CF93DF93EC010E94F20A60E870E00E
:102A4000CE010E94D7060E94DB056B017C0188E065
:102A50000E947C03892BE1F40E94DB056C197D093F
:102A60008E099F09693E73408105910580F3CE016F
:102A70000E94090B0E94CA06C553DF4F19821882B3
:102A800081E0DF91CF91FF90EF90DF90CF9008959C
:102A9000CE010E94090B0E94CA06FE01E553FF4FBA
:102AA000118210827E018DE5E80EF11CF701808114
:102AB0009181029719F0CE010E94060AF7018081E8
:102AC0009181019719F0CE010E94DA0B80E0D9CFF5
:102AD000CF92DF92EF92FF920F931F93CF93DF93EA
:102AE000EC01FC01ED57FF4F718360838A5A9F4FC1
:102AF0006C01E85BFF4F7F018E01035A1F4F61306D
:102B0000710519F06330710541F50E947809F601ED
:102B100060817181CE010E94350A0E94CA06F701C8
:102B200011821082F80180819181029719F0CE0103
:102B30000E94060AF80180819181019719F0CE0167
:102B40000E94DA0BCE01DF91CF911F910F91FF9080
:102B5000EF90DF90CF900C94780D60E08AE00E94B7
:102B6000120460E082E60E947A09F6011182108266
:102B7000F80111821082FE01EC59FF4F1082118280
:102B8000128213820E94CA06F70111821082CE01BE
:102B90000E94090B8E0101551F4FF801118210820E
:102BA000CE010E94090BF80111821082CBCF8091D7
:102BB000E3049091E404FC01ED57FF4F2081318143
:102BC0002115310519F02230310521F463E070E060
:102BD0000C9468150895CF93DF93C091E304D091CE
:102BE000E404FE01ED57FF4F808191818130910512
:102BF00029F0039779F0DF91CF910895CE010E94DB
:102C0000151570E060E08823B1F3CE01DF91CF911C
:102C10000C946815CE010E941515882361F362E0BB
:102C200070E0F3CF1F920F920FB60F9211242F93E3
:102C30003F934F935F936F937F938F939F93AF9344
:102C4000BF93EF93FF9384E394E00E948C02FF9183
:102C5000EF91BF91AF919F918F917F916F915F9114
:102C60004F913F912F910F900FBE0F901F9018958D
:102C70001F920F920FB60F9211242F938F939F9351
:102C8000EF93FF93E0914404F09145048081E0913B
:102C90004A04F0914B0482FD1BC0908180914D0449
:102CA0008F5F8F7320914E04821741F0E0914D04A5
:102CB000F0E0EC5CFB4F958F80934D04FF91EF911A
:102CC0009F918F912F910F900FBE0F901F9018958D
:102CD0008081F4CF1F920F920FB60F9211242F9381
:102CE0003F938F939F93AF93BF93809115049091DF
:102CF0001604A0911704B09118043091140426E032
:102D0000230F2D3758F50296A11DB11D20931404F1
:102D10008093150490931604A0931704B09318049D
:102D20008091190490911A04A0911B04B0911C0485
:102D30000196A11DB11D8093190490931A04A093CC
:102D40001B04B0931C04BF91AF919F918F913F9151
:102D50002F910F900FBE0F901F90189529E8230F09
:102D60000396A11DB11DD2CF1F920F920FB60F92E5
:102D700011248F930FB6F894A89580916000886114
:102D800080936000109260000FBE8F910F900FBE75
:102D90000F901F9018951F920F920FB60F9211244B
:102DA0002F933F934F935F936F937F938F939F9353
:102DB000AF93BF93EF93FF938091D5049091D60486
:102DC000892BC9F087E00E947C032091D1043091C7
:102DD000D2048217930779F09093D2048093D104A0
:102DE0008091D5049091D604DC01ED91FC91019085
:102DF000F081E02D09958091D7049091D804892B1A
:102E0000C9F085E00E947C032091D3043091D40462
:102E10008217930779F09093D4048093D304809120
:102E2000D7049091D804DC01ED91FC910190F081E0
:102E3000E02D0995FF91EF91BF91AF919F918F91F7
:102E40007F916F915F914F913F912F910F900FBEA6
:102E50000F901F9018950F931F93CF93DF93E4E388
:102E6000F4E01382128288EE93E0A0E0B0E0848365
:102E70009583A683B7832AE531E03183208325EC4F
:102E800030E03587248724EC30E03787268720EC34
:102E900030E0318B208B21EC30E0338B228B22EC25
:102EA00030E0358B248B26EC30E0378B268B118E6F
:102EB000128E138E148EE1EDF4E0158214821782C7
:102EC0001682128613861486158616861786108A31
:102ED000118AC5EED4E022E731E03983288324E06B
:102EE00030E03B832A838C839D83AE83BF8323E8BA
:102EF0003AE0398728871B861A8601E010E01D8793
:102F00000C871E861F86188A198A21E02A8B49E0C1
:102F100050E05C8B4B8B8D8B9E8BAF8BB88F41E7DA
:102F20005AE05A8F498F1C8E1B8E1E8F0D8F1F8E5D
:102F300018A219A21AA22BA348E050E05DA34CA34B
:102F400042E350E060E070E04EA35FA368A779A77A
:102F50004BEE55E15BA74AA71DA61CA61FA70EA70F
:102F600018AA19AA1AAA1BAA2CAB47E050E05EAB1C
:102F70004DAB8FAB98AFA9AFBAAF47ED55E15CAFA2
:102F80004BAF1EAE1DAE1093250500932405109285
:102F900026051092270510922805109229052093E6
:102FA0002A052CE631E030932C0520932B0525E0F3
:102FB00020932D0580932E0590932F05A093300527
:102FC000B093310583E08093320561E00E941204E2
:102FD00010923C0510923B0510924105109243055A
:102FE0001092420510924505109244051092470533
:102FF000109246051092490510924A0510924B0511
:1030000010924C058CEE9AE09093520580935105F6
:1030100010925B0580E09AE090935D0580935C05DB
:1030200010925E0510925F05109260051092610586
:103030008FEF94E190936705809366050E94E70502
:10304000109295051092940510929F058EEC99E0D0
:103050009093A1058093A0051092B1051092B00540
:103060001092BA0588E49FE09093BC058093BB055D
:10307000D093E404C093E3041093A3050093A20546
:103080001093A5050093A4051093A7050093A6052A
:103090001093A9050093A8051093AB050093AA050A
:1030A0001093AD050093AC051093AF050093AE05EA
:1030B000DF91CF911F910F910895CF93DF93CDB7FB
:1030C000DEB760970FB6F894DEBF0FBECDBF789421
:1030D00084B5826084BD84B5816084BD85B582601D
:1030E00085BD85B5816085BD80916E0081608093CE
:1030F0006E00109281008091810082608093810037
:103100008091810081608093810080918000816046
:10311000809380008091B10084608093B1008091A1
:10312000B00081608093B00080917A0084608093C9
:103130007A0080917A00826080937A0080917A0090
:103140008E7F80937A0080917A00806880937A00E5
:103150001092C10014B7C12ED12C14BE0E94AE082B
:1031600081E090E00E94AB0562E084E00E941204DE
:1031700062E089E00E94120462E088E00E9412048A
:1031800062E087E00E94120461E083E00E94120482
:1031900060E085E00E941204269A60E085E10E94CA
:1031A000120460E084E10E94120460E08FE00E945B
:1031B000120461E086E00E94120462E080E00E9456
:1031C000120461E08AE00E94120461E08EE00E9435
:1031D0001204279A61E080E10E94120461E081E11B
:1031E0000E94120461E082E10E94120461E083E126
:1031F0000E94120461E082E00E9412040E94780999
:1032000070E060E083E00E944E0461E08EE00E9486
:10321000E40361E083E60E947A0961E080E10E94B4
:10322000E40361E081E10E94E40361E082E10E9445
:10323000E40361E083E10E94E40361E082E00E9434
:10324000E40370E060E08AE00E944E040E94CA0637
:1032500081E00E945A081F921F938CE992E09F938D
:103260008F9385EA92E09F938F9381EB92E09F93F7
:103270008F938AEC92E09F938F930E94330D0FB649
:10328000F894DEBF0FBECDBF0EE1E02EF12C84E33B
:1032900094E00E945E028F7D8435910561F484E3A1
:1032A00094E00E945E02019609F47FC584E394E0F5
:1032B0000E944A02F4CF64E670E080E090E00E9451
:1032C0007905F1E0EF1AF10811F786ED90E00E9420
:1032D000100D109233040E94360380E00E945A08B9
:1032E00082EC90E00E94100D13FF8DC10BE010E006
:1032F00001501109A9F085EE94E00E94F20A64E6FB
:1033000070E080E090E00E94790585EE94E00E94F4
:10331000090B64E670E080E090E00E947905E8CF58
:103320000E94A50313E0812E912C811103C08824F3
:103330008394912C8BE295E00E948A0B70E060E010
:1033400085EE94E00E94350A88E19FE00FB6F8947C
:10335000A895809360000FBE9093600085EE94E086
:103360009093D6048093D5040E94AE0385E10E9419
:10337000AB049C01932F990F990BB9ECAB2E18E776
:10338000B12E0FEBC02EDD24D394E12CF12C00E004
:1033900010E0492F592F692F792F892F0E94522130
:1033A000E8EEAE2EF3E0BF2EC12CD12C0E94E62118
:1033B00059016A0120E2A21625ECB2062BEFC206E3
:1033C000D1040CF451C185E10E94AB049C01932F00
:1033D000990F990B69ECA62E78E7B72EEFEBCE2E5E
:1033E000DD24D394E12CF12C00E010E0492F592F7B
:1033F000692F792F892F0E945221F8EEAF2EA3E07A
:10340000BA2EC12CD12C0E94E621B901CA0128EEA6
:1034100033E040E050E00E942621DA01C901803209
:10342000EEE49E07A105B1050CF414C182539B4440
:10343000A109B10952E0880F991FAA1FBB1F5A9515
:10344000D1F72C013D01770C4408542C3201A12CFA
:1034500000E1B02E25EAC22E34EDD32E48EEE42E44
:10346000F12C00E010E09C01AD01642D742D842D41
:10347000942D0E9452212115310541055048664581
:1034800073498045910511F00CF0F7C085E10E9469
:10349000AB049C01932F990F990B49ECA42E58E78C
:1034A000B52E6FEBC62EDD24D394E12C492F592F76
:1034B000692F792F892F0E945221E8EEAE2EF3E07A
:1034C000BF2EC12CD12C0E94E621B901CA0128EEE1
:1034D00033E040E050E00E942621DA01C901803249
:1034E0002EE49207A105B1050CF4B9C082539B44A8
:1034F000A109B10932E0880F991FAA1FBB1F3A9595
:10350000D1F72C013D01770C4408542C3201A12C39
:10351000F0E1BF2E15EAC12E04EDD02E28EEE22EEA
:10352000F12C00E010E09C01AD01642D742D842D80
:10353000942D0E94522120936A0530936B0540938D
:103540006C0550936D0560936E0570936F058093C5
:10355000700590937105B40185EE94E00E946815A2
:1035600081E08093BA0580E197E2A0E0B0E080932B
:10357000B2059093B305A093B405B093B5050E942E
:10358000DB056093B6057093B7058093B8059093FB
:10359000B90510921E04412C74E0572E612C712C39
:1035A0006EE2262E63E0362E80911E04882309F4F5
:1035B00063C38DE993E00E94100D84E394E00E94C0
:1035C0005E028A30910509F460C08D30910509F4DE
:1035D0005CC0019691F384E394E00E944A02182FA4
:1035E000092F64E670E080E090E00E94790584E3B2
:1035F00094E00E945E02019609F44CC084E394E0DA
:103600000E944A02F4CFCD28D9F406E010E0015020
:10361000110909F485CE85EE94E00E94F20A6CE26D
:1036200071E080E090E00E94790585EE94E00E94D0
:10363000090B6CE271E080E090E00E947905E7CF31
:103640000E94A503A2E08A2E912C811173CE912CA9
:10365000812C70CE84579044A109B109F2CE8457D1
:103660009044A109B1094DCF20E030E040E050E0A6
:1036700060E070E080E090E05ECF20E030E040E08D
:1036800050E866E573E980E5F6CF84E394E00E94B4
:103690004A0293CF8CE993E00E94100DE12FF02FA6
:1036A000F197E830F10508F0DAC2E75AF44E0C94CD
:1036B0004521611BB71B601CB51C081D311D731D06
:1036C000111E86EC91E00E94100D59E4E52E51E0A8
:1036D000F52EF70101917F0110E070E060E0C80174
:1036E0000E948C0984EC91E00E94A30888EE93E08C
:1036F0000E947106882331F161E070E0C8010E94E8
:103700008C09F0E5EF16F1E0FF0619F790E080E094
:103710000E948E0982EC91E00E94A30880ED97E060
:103720000E947106882371F081E090E00E948E096A
:1037300080EC91E00E94A30888EE93E00E9471065D
:103740008111C3CF81E090E00E948E098FEA91E061
:103750000E94100D80E090E0892B09F425CF0E9493
:103760007802882309F41CCF0E94000019CF83EE51
:1037700091E00E94100D8CE691E09A83898385E0A8
:103780008B8384E690E0A0E0B0E08C839D83AE83E1
:10379000BF8383E0888761E00E941204CE01019616
:1037A0000E948A0BCE0101960E94300B4BEFA42E93
:1037B00042E0B42E0E94780903E411E03DE3C32EF9
:1037C00031E0D32EF801F080E1800E5F1F4F6F2DA6
:1037D000F4E6FF1508F464E670E090E080E00E94F3
:1037E000DC1F23E333E343E250E40E9491200E9474
:1037F000A41F88850E944E04F60180819181F2E029
:10380000CF0ED11CEF92FF929F938F93BF92AF92F6
:103810000E94330D0F900F900F900F900F900F900C
:1038200025E0E22EF12C88EE93E00E9471068823B9
:10383000D1F1CE0101960E94300B982E892E0E9464
:103840009B069F938F937F936F938F929F9283E1B9
:1038500093E09F938F930E94330DF1E0EF1AF108EC
:103860000FB6F894DEBF0FBECDBFE9F691E0093484
:10387000190709F0A7CF60E082E60E947A0908E004
:1038800010E081EE91E00E94A30888EE93E00E9490
:103890007106882341F00150110999F780EE91E0FB
:1038A0000E94100D87CF1092D8041092D7040E9466
:1038B000AE0360E082E60E947A098FEC91E048CF87
:1038C00083E092E00E94100D61E08AE00E94120401
:1038D00083E28093800081E18093810080E496E020
:1038E000909389008093880020918800309189000E
:1038F00042E3429FC001439F900D112464E670E0B3
:103900000E94FE2070938B0060938A000CE010E010
:103910009CE2E92E93E0F92E85E0C82ED12C81E0BF
:1039200092E00E94A30888EE93E00E94710688232B
:10393000B9F0E1E0CE1AD10891F70E949B069F935F
:103940008F937F936F93FF92EF920E94330D0150FC
:1039500011090F900F900F900F900F900F90E1F6BC
:103960000E94CA068CEE91E0F3CE86E292E00E94BD
:10397000100D81E090E00E948E0984E292E00E94A6
:10398000A30804E110E088E00E947C0361E070E09D
:10399000892B11F470E060E08EE090E00E948C09C9
:1039A00087E00E947C0361E070E0892B11F470E0F5
:1039B00060E080E190E00E948C0989E00E947C0335
:1039C00061E070E0892B11F470E060E082E190E04A
:1039D0000E948C0984E00E947C0361E070E0892BE6
:1039E00011F470E060E082E090E00E948C0982E3D4
:1039F00090E00E947106882321F00150110919F608
:103A0000BCCF81E090E00E948E0980E192E0A0CEE0
:103A100081E592E00E94100D0CE313E08FE00E941C
:103A2000AB0428E833E1DC010E944B21A3019201A1
:103A30000E9426215F934F933F932F931F930F93E1
:103A40000E94330D88EE93E00E9471060F900F9054
:103A50000F900F900F900F908111E0CF82E392E0D2
:103A600077CE85E892E00E94100DBCE38B2EB3E088
:103A70009B2E85E10E94AB049C01932F990F990B1B
:103A800049ECA42E58E7B52E6FEBC62EDD24D39457
:103A9000E12CF12C00E010E0492F592F692F792FEC
:103AA000892F0E945221E0E4AE2EF2E4BF2EAFE057
:103AB000CA2ED12C0E94E6215F934F933F932F9300
:103AC0009F928F920E94330D88EE93E00E947106C0
:103AD0000F900F900F900F900F900F908111C9CF02
:103AE00088E692E035CE88E593E00E94100D84E3ED
:103AF00093E00E94100D89EF92E00E94100D86EB7A
:103B000092E00E94100D29E4A22E21E0B22E750150
:103B1000F70101917F0110E070E060E0C8010E94B0
:103B20008C0964EF71E080E090E00E94790561E02B
:103B300070E0C8010E948C0964EF71E080E090E0C1
:103B40000E947905F0E5EF16F1E0FF0609F70E9403
:103B5000360362E080E00E94120481E090E00E945F
:103B60008E0960E0F12CE12C99249394862E89240F
:103B700070E081E190E00E948C0962E370E080E0F7
:103B800090E00E94790580E00E947C038C01CC24A7
:103B9000C394D12C0115110511F4D12CC12CB601FF
:103BA0008EE090E00E948C09B60182E090E00E94D5
:103BB0008C090115110509F0870178012FEFE21A30
:103BC000F20A682D80E5E816F10481F681E090E0C4
:103BD0000E948E0980E5E82E81E0F82EF70102911F
:103BE0007F0110E070E060E0C8010E948C0964EF82
:103BF00071E080E090E00E94790561E070E0C8012A
:103C00000E948C0964EF71E080E090E00E947905E9
:103C1000AE14BF0419F781E00E945A088AE992E0C5
:103C200097CD88E893E00E94100D88EE93E00E9403
:103C30007106882389F00E949B069F938F937F9340
:103C40006F933F922F920E94330D0F900F900F9021
:103C50000F900F900F90E9CF8CE693E079CD0F9302
:103C60001F938BE493E09F938F930E94330D0F90EB
:103C70000F900F900F906ECDA89580916805909150
:103C800069058130910589F0F0F08230910509F4E1
:103C900069C0039709F05ECD0E9485130E94A503B9
:103CA000811158CD61E070E009C00E9485130E9427
:103CB000A50363E070E0882309F44CCD85EE94E021
:103CC0000E94681547CD0E94AE0890E080E00E94F7
:103CD000AB0530E020E050E040E066E070E08DE1D0
:103CE00094E00E9423060E94A5038823B9F081E096
:103CF00090E00E94AB0562E070E085EE94E00E94E7
:103D0000681588E19FE00FB6F894A895809360004D
:103D10000FBE909360000E94E7051CCD0E94DB055A
:103D20006B017C0187E00E947C03892B91F60E9445
:103D3000DB056C197D098E099F096E3771058105B8
:103D4000910580F381E090E00E94AB0561E070E0B6
:103D500085EE94E00E94681587E00E947C03892B21
:103D6000D9F3CFCF8091D9049091DA04019711F45F
:103D70000E943A1085EE94E00E94DA0B0E94A5039F
:103D8000811106C070E060E085EE94E00E94681545
:103D90008AE195E00E94F40882EB95E00E943E09DA
:103DA00087E995E00E943E09D5CC81E080931E040E
:103DB00060E082E60E947A098AE991E00E94100D93
:103DC0008CE891E00E94100D8FE791E00E94100DA9
:103DD00082E791E00E94100D81E691E00E94100DB3
:103DE00081E591E00E94100D86E391E00E94100DA4
:103DF0008DE191E00E94100D85E091E00E94100D90
:103E00008DEE90E00E94100DC6CBDC01CB01FC01D1
:103E1000F999FECF06C0F2BDE1BDF89A319600B423
:103E20000D9241505040B8F70895DC01CB0103C01A
:103E30002D910E94201F41505040D0F70895262F09
:103E4000F999FECF1FBA92BD81BD20BD0FB6F8947F
:103E5000FA9AF99A0FBE019608950E94172008F465
:103E600081E008950E94461F0C9452200E944B202E
:103E700058F00E94442040F029F45F3F29F00C9450
:103E80003B2051110C9486200C9441200E94632009
:103E900068F39923B1F3552391F3951B550BBB2779
:103EA000AA2762177307840738F09F5F5F4F220FBE
:103EB000331F441FAA1FA9F335D00E2E3AF0E0E8B5
:103EC00032D091505040E695001CCAF72BD0FE2FFF
:103ED00029D0660F771F881FBB1F26173707480793
:103EE000AB07B0E809F0BB0B802DBF01FF2793584B
:103EF0005F4F3AF09E3F510578F00C943B200C94B4
:103F000086205F3FE4F3983ED4F3869577956795D6
:103F1000B795F7959F5FC9F7880F911D969587957F
:103F200097F90895E1E0660F771F881FBB1F62179E
:103F300073078407BA0720F0621B730B840BBA0B5C
:103F4000EE1F88F7E09508950E94AB1F6894B111A9
:103F50000C94862008950E946B2088F09F5798F05B
:103F6000B92F9927B751B0F0E1F0660F771F881F7E
:103F7000991F1AF0BA95C9F714C0B13091F00E9498
:103F80008520B1E008950C948520672F782F88272D
:103F9000B85F39F0B93FCCF3869577956795B395BF
:103FA000D9F73EF490958095709561957F4F8F4F2E
:103FB0009F4F0895E89409C097FB3EF49095809533
:103FC000709561957F4F8F4F9F4F9923A9F0F92FDF
:103FD00096E9BB279395F695879577956795B7955D
:103FE000F111F8CFFAF4BB0F11F460FF1BC06F5F43
:103FF0007F4F8F4F9F4F16C0882311F096E911C055
:10400000772321F09EE8872F762F05C0662371F075
:1040100096E8862F70E060E02AF09A95660F771F89
:10402000881FDAF7880F9695879597F90895990F65
:104030000008550FAA0BE0E8FEEF16161706E80772
:10404000F907C0F012161306E407F50798F0621B93
:10405000730B840B950B39F40A2661F0232B242B68
:10406000252B21F408950A2609F4A140A6958FEF87
:10407000811D811D089597F99F6780E870E060E0D9
:1040800008959FEF80EC089500240A9416161706F1
:1040900018060906089500240A9412161306140639
:1040A00005060895092E0394000C11F4882352F09C
:1040B000BB0F40F4BF2B11F460FF04C06F5F7F4F54
:1040C0008F4F9F4F089557FD9058440F551F59F03B
:1040D0005F3F71F04795880F97FB991F61F09F3FF5
:1040E00079F087950895121613061406551FF2CF1E
:1040F0004695F1DF08C0161617061806991FF1CF6E
:1041000086957105610508940895E894BB27662794
:104110007727CB0197F908950E94172008F48FEFB5
:1041200008950E94A4200C9452200E94442038F04C
:104130000E944B2020F0952311F00C943B200C940E
:10414000412011240C9486200E94632070F3959FD7
:10415000C1F3950F50E0551F629FF001729FBB277E
:10416000F00DB11D639FAA27F00DB11DAA1F649F1A
:104170006627B00DA11D661F829F2227B00DA11DCD
:10418000621F739FB00DA11D621F839FA00D611D53
:10419000221F749F3327A00D611D231F849F600D74
:1041A000211D822F762F6A2F11249F5750409AF09D
:1041B000F1F088234AF0EE0FFF1FBB1F661F771F29
:1041C000881F91505040A9F79E3F510580F00C94F4
:1041D0003B200C9486205F3FE4F3983ED4F3869511
:1041E00077956795B795F795E7959F5FC1F7FE2B94
:1041F000880F911D9695879597F90895AA1BBB1B6B
:1042000051E107C0AA1FBB1FA617B70710F0A61BD6
:10421000B70B881F991F5A95A9F780959095BC01F7
:10422000CD01089597FB072E16F4009407D077FD73
:1042300009D00E94FE2007FC05D03EF490958195A0
:104240009F4F0895709561957F4F0895052E97FBB8
:104250001EF400940E943D2157FD07D00E94E222E7
:1042600007FC03D04EF40C943D21509540953095B9
:1042700021953F4F4F4F5F4F0895909580957095D2
:1042800061957F4F8F4F9F4F0895EE0FFF1F059051
:10429000F491E02D09940E940423B7FF0895821B36
:1042A000930B0895DF93CF931F930F939A9DF02D57
:1042B000219FF00D8B9DF00D8A9DE02DF10D039F48
:1042C000F00D029FE00DF11D4E9DE00DF11D5E9D74
:1042D000F00D4F9DF00D7F936F93BF92AF925F9360
:1042E0004F93D5010E9404238B01AC01D7010E949A
:1042F0000423EB01E80FF91FD6010E94A1212F91A1
:104300003F91D6010E940423C60FD71FE81FF91F53
:10431000AF91BF910E94A1212F913F910E94042350
:10432000C60FD71FE81FF91FD6010E940423E60F0E
:10433000F71F9801BE01CF010F911F91CF91DF911F
:1043400008950E940423460F571FC81FD91F08F461
:104350003196089597FB57FF0C94BA219F938F9342
:104360000E94BA216E1B7F0BAF91BF918A0B9B0BF2
:104370000895E894DF93CF93FC01DB010E940423AE
:104380007F936F93E9019A01AC01BF93AF933F9381
:104390002F93DF010E94042326F46C1B7D0B820BFC
:1043A000930B9E01EB01FC010E94A121AF91BF91F3
:1043B0002F913F910E94A121BE01CF01F9012F91C0
:1043C0003F91CF91DF910895689401C0E894F92F4F
:1043D000F12B12F00C941822A0E0B0E0E2EFF1E231
:1043E0000C948A22092E059422F40E94742211232F
:1043F00092F4F0E80F26FFEFE094F094009510950A
:10440000B094C094D094A194BF0ACF0ADF0AEF0AF7
:10441000FF0A0F0B1F0B0E94232207FC0E9474222D
:10442000CDB7DEB7ECE00C94A622689401C0E89406
:104430008F929F92CF93DF930E942322DF91CF919F
:104440009F908F90089588249924F401E401B0E4AA
:104450009F93AA279A158B049C04ED05FE05CF05B2
:10446000D007A10798F4AD2FDC2FCF2FFE2FE92D19
:10447000982C892E982F872F762F652F542F432F16
:10448000322F2227B85031F7BF9127C01B2EBF9182
:10449000BB27220F331F441F551F661F771F881F1E
:1044A000991F881C991CEE1FFF1FCC1FDD1FAA1F20
:1044B000BB1F8A149B04EC05FD05CE05DF05A00794
:1044C000B10748F08A189B08EC09FD09CE09DF09FD
:1044D000A00BB10B21601A94E1F62EF49401AF0108
:1044E000BE01CD01000C0895609570958095909562
:1044F00030954095509521953F4F4F4F5F4F6F4FEF
:104500007F4F8F4F9F4F08952F923F924F925F9210
:104510006F927F928F929F92AF92BF92CF92DF92D3
:10452000EF92FF920F931F93CF93DF93CDB7DEB738
:10453000CA1BDB0B0FB6F894DEBF0FBECDBF0994CC
:104540002A88398848885F846E847D848C849B8423
:10455000AA84B984C884DF80EE80FD800C811B8131
:10456000AA81B981CE0FD11D0FB6F894DEBF0FBE60
:10457000CDBFED0108952A0D3B1D4C1D5D1D6E1D27
:104580007F1D801F911F08952A193B094C095D0961
:104590006E097F09800B910B08952A153B054C0588
:1045A0005D056E057F058007910708950024A7FD2E
:1045B00000942A17300540055005600570058005F8
:1045C00090050895A1E21A2EAA1BBB1BFD010DC088
:1045D000AA1FBB1FEE1FFF1FA217B307E407F507B3
:1045E00020F0A21BB30BE40BF50B661F771F881F8F
:1045F000991F1A9469F760957095809590959B0125
:10460000AC01BD01CF010895A29FB001B39FC001CD
:10461000A39F700D811D1124911DB29F700D811DEE
:104620001124911D0895AEE0B0E0E9E1F3E20C94AD
:1046300092228C01FA0186E08C831A83098377FF2A
:1046400002C060E070E8615071097E836D83A9014A
:10465000BF01CE0101960E943F234D815E8157FD2F
:104660000AC02F813885421753070CF49A01020FB4
:10467000131FF80110822E96E4E00C94AE22ABE0FA
:10468000B0E0E5E4F3E20C9484227C013B018A0172
:10469000FC0117821682838181FFC8C1CE01019679
:1046A0005C01F7019381F30193FD859193FF819163
:1046B0003F01882309F453C1853239F493FD859174
:1046C00093FF81913F01853229F4B70190E00E9468
:1046D0002F25E7CF912C212C312CFFE1F31538F059
:1046E0008B3211F190F4803209F1833229F137FCD9
:1046F0003CC020ED280F2A3050F536FE20C08AE05D
:10470000989E200D1124922E06C08D3291F0803398
:1047100071F7689430F8F30193FD859193FF8191CF
:104720003F018111DACF21C0689431F8689432F8E2
:10473000F2CF689433F8EFCF689434F8ECCFEAE026
:104740002E9E200D1124222E689435F8E4CF8E324F
:1047500029F436FC04C1689436F8DDCF8C3619F4A0
:10476000689437F8D8CF8836B1F2982F9F7D95544A
:104770009330E0F08336A1F18337C1F1833509F03E
:1047800063C02801F2E04F0E511CF801C080D180B7
:10479000692D70E036FC02C06FEF7FEFC6010E940A
:1047A00019254C01689437F882010AC00C5F1F4F2D
:1047B000FFE3F98388248394912C6501E89437F80A
:1047C00033FE2DC0522C8114910471F5552009F44B
:1047D00068CFB70180E290E00E942F255A94F6CF6F
:1047E000F801808189830E5F1F4FE4CF2801F2E03A
:1047F0004F0E511CF801C080D180692D70E036FC4D
:1048000002C06FEF7FEFC6010E9424254C01820198
:10481000D5CFB70180E290E00E942F252A9428147A
:10482000190409F0B0F7CECFF60137FC859137FEB9
:1048300081916F01B70190E00E942F2551105A9489
:10484000F1E08F1A9108BFCF843619F0893609F04C
:1048500077C0F80137FE6BC06081718182819381DE
:104860000C5F1F4FF32DFF763F2E97FF09C09095E9
:104870008095709561957F4F8F4F9F4F689437F863
:104880002AE030E0A5010E945F25C82ECA188C2CB2
:10489000432C36FE0CC0E89440F8C91440F434FEB2
:1048A00005C032FC03C0F32DFE7E4F2E892C44FE42
:1048B00095C0FE01EC0DF11D8081803309F087C0A9
:1048C000242D297E422E842D8870582E43FC95C0BD
:1048D00040FE8FC09C2C821418F42C0C922C98183B
:1048E00044FE91C0B70180E390E00E942F2542FE74
:1048F00009C088E790E041FE02C088E590E0B7017A
:104900000E942F25C91408F48AC0CA94D12C9FEFA5
:10491000C91AD90ACA0CDB1CF60182916F01B701D2
:1049200090E00E942F25AC14BD04B1F74FCF6081F9
:104930007181072E000C880B990B0E5F1F4F92CFD1
:10494000D32CE894D4F82AE030E0853739F1232DD0
:10495000297FD22E8F3601F148F48835A9F0F7016E
:10496000868197812B96E2E10C94A022803749F052
:104970008837A9F7D4FE02C06894D2F820E130E06D
:104980000DC06894D4F8F6CF34FE03C0822F866041
:10499000D82E20E132E002C028E030E0F801D7FE56
:1049A0000FC060817181828193810C5F1F4FA501CF
:1049B0000E945F25C82ECA183D2CE89437F867CFAF
:1049C0006081718190E080E00E5F1F4FF0CF42FC6C
:1049D00002C0839478CF8394839475CF842D867896
:1049E00009F471CFF6CFB70180E290E00E942F2545
:1049F00083948214C0F3512C73CF522C5818821414
:104A000008F46ECFF8CF842D867809F47BCF8BE243
:104A100041FE80E247FC8DE2B70190E071CFB70123
:104A200080E390E00E942F259A946CCF8FEF9FEF48
:104A300099CFFC010590615070400110D8F7809526
:104A400090958E0F9F1F0895FC016150704001905A
:104A50000110D8F7809590958E0F9F1F08950F93A2
:104A60001F93CF93DF93182F092FEB018B8181FDCB
:104A700009C01FEF0FEF812F902FDF91CF911F9172
:104A80000F91089582FF14C02E813F818C819D81FA
:104A9000281739073CF4E881F981CF010196998301
:104AA000888310838E819F8101969F838E83E3CFBD
:104AB000E885F985812F0995892BA1F3DACFFA01D1
:104AC000AA27283051F1203181F1E8946F936E7F4D
:104AD0006E5F7F4F8F4F9F4FAF4FB1E03ED0B4E03E
:104AE0003CD0670F781F891F9A1FA11D680F791F7F
:104AF0008A1F911DA11D6A0F711D811D911DA11D90
:104B000020D009F468943F912AE0269F112430199F
:104B1000305D3193DEF6CF010895462F4770405D3A
:104B20004193B3E00FD0C9F7F6CF462F4F70405DE9
:104B30004A3318F0495D31FD4052419302D0A9F744
:104B4000EACFB4E0A6959795879577956795BA953E
:104B5000C9F700976105710508959B01AC010A2E04
:104B600006945795479537952795BA95C9F7620FDB
:0E4B7000731F841F951FA01D0895F894FFCF9A
:104B7E00C8000000C8000000E8030000E8030000C1
:104B8E00120013000200FFFF0E001100FFFF0E6364
:104B9E0010111213026003640367036E0374036A39
:104BAE000377037C03EC03CE03B0039203820386E8
:104BBE00038D030000320064000E63101112130205
:104BCE00371DF03EFF5600000000AE020E023B0203
:104BDE0016036C024A025E0200000000200B000069
:104BEE000000E2084E4F2042554646455200300026
:104BFE000D0A0025642025642025642025642025C7
:104C0E006400626C756500616D6265720067726545
:104C1E00656E0079656C6C6F77002D2D2D2D2D2D09
:104C2E000072656400796573006E6F006261747462
:104C3E000066616E006F6E006F6666006C6F006DD1
:104C4E0065640068690053746174652C25732C4685
:104C5E00616E2C25732C25752C42757A7A65722C13
:104C6E0025732C416C6572742C25732C52656D69FD
:104C7E006E6465722C25732C436861726765722CA5
:104C8E0025732C4C4544732C25732C25732C2573BE
:104C9E002C25732C25732C25732C25732C6D696C88
:104CAE006C69566F6C74732C256C642C6D696C6C0E
:104CBE0069416D70732C256C642C436F756C6F6D30
:104CCE0062732C256C642C6368617267652C256495
:104CDE0025252C626174742C25730066756C6C43EB
:104CEE0068617267654D6963726F566F6C7473207D
:104CFE0025732025732025730077726974652065EE
:104D0E006570726F6D2025732025730031363A322F
:104D1E00333A3433004E6F76203133203230323115
:104D2E00004169722D746F2D416C6C2050415052B0
:104D3E002052657620332E314100257320257320B5
:104D4E0025732028666C616773202564290D0A542B
:104D5E007970652027742720746F20656E746572D4
:104D6E002074657374206D6F6465002573207370F5
:104D7E006565642C2064757479206379636C652095
:104D8E0025640020202052504D2025752C20256CA6
:104D9E0064206D696C6C69416D7073000D0A256C31
:104DAE0064206D696C6C69416D707300256C6420B4
:104DBE006D696C6C69566F6C747300556E6B6E6FAB
:104DCE00776E20636F6D6D616E64202725632700FB
:104DDE004F6666004F6E004F6666436867004F6E03
:104DEE00436867004E6F0046756C6C004572726FBB
:104DFE0072004C6F77004D656469756D0048696788
:024E0E0068003A
:00000001FF
