:100000000C9462000C948A000C948A000C948A0070
:100010000C948A000C94E70C0C94D00C0C948A007D
:100020000C948A000C948A000C948A000C948A0028
:100030000C948A000C948A000C948A000C948A0018
:100040000C94860C0C948A000C948A000C948A0000
:100050000C948A000C948A000C948A000C948A00F8
:100060000C948A000C948A000000000024002700F1
:100070002A0000000000250028002B0000000000DE
:1000800023002600290004040404040404040202DA
:100090000202020203030303030301020408102007
:1000A0004080010204081020010204081020000012
:1000B0000008000201000003040700000000000027
:1000C0000000470D11241FBECFEFD8E0DEBFCDBF2B
:1000D00011E0A0E0B1E0E4E0FAE202C005900D9288
:1000E000A834B107D9F722E0A8E4B1E001C01D921D
:1000F000A033B207E1F710E0C2E6D0E004C02197D8
:10010000FE010E94EB14C136D107C9F70E944F0EC1
:100110000C9400150C9400000895833081F028F4AD
:10012000813099F08230A9F008958730A9F08830A5
:10013000C9F08430B1F4809180008F7D03C080913C
:1001400080008F7780938000089584B58F7784BD79
:10015000089584B58F7DFBCF8091B0008F77809319
:10016000B00008958091B0008F7DF9CFCF93DF93D9
:10017000282F30E0F901E255FF4F8491F901E6564E
:10018000FF4FD491F901EA57FF4FC491CC23A1F05E
:1001900081110E948D00EC2FF0E0EE0FFF1FE4585C
:1001A000FF4FA591B491EC91ED2381E090E009F42B
:1001B00080E0DF91CF91089580E090E0FACF80E079
:1001C0000E94B60021E0892B09F020E0822F0895DB
:1001D00087E00E94B600909353018093520185E01E
:1001E0000E94B600909355018093540140915601AE
:1001F0005091570180916D0041155105C9F08068FB
:1002000080936D00209158013091590180916D00CB
:100210002115310579F0806280936D00809168002E
:10022000452B11F4232B41F08460809368000895DE
:100230008F77E6CF8F7DF0CF8B7FF7CF1F93CF9354
:10024000DF93282F30E0F901E255FF4F8491F90147
:10025000E656FF4FD491F901EA57FF4FC491CC23E2
:10026000A9F0162F81110E948D00EC2FF0E0EE0F07
:10027000FF1FEE58FF4FA591B4918FB7F894EC9102
:10028000111108C0D095DE23DC938FBFDF91CF9191
:100290001F910895DE2BF8CF823621F0833641F08E
:1002A0000C941E01613011F42E9A08952E98089531
:1002B000613011F42F9A08952F980895CF93DF930A
:1002C00090E0FC01E656FF4F24918A579F4FFC01B6
:1002D00084918823C9F090E0880F991FFC01E859A8
:1002E000FF4FA591B491FC01EE58FF4FC591D491F9
:1002F00061110DC09FB7F8948C91209582238C9347
:100300008881282328839FBFDF91CF910895623091
:1003100051F49FB7F8943C91822F809583238C935E
:10032000E8812E2BEFCF8FB7F894EC912E2B2C93E6
:100330008FBFEACF61E08AE00E945E0183E2809392
:10034000800081E180938100E8E8F0E080E496E0BD
:10035000918380832081318142E3429FC001439F8A
:10036000900D112464E670E00E940F1370938B00CF
:1003700060938A0008951F93CF93DF93182FEB01AA
:1003800061E00E945E01209739F460E0812FDF91E7
:10039000CF911F910C941E01CF3FD10511F461E064
:1003A000F5CFE12FF0E0E255FF4FE491E33031F17A
:1003B00040F4E130B1F0E230E1F0C038D1057CF733
:1003C000E4CFE73029F1E83059F1E430B1F780911A
:1003D0008000806280938000D0938B00C0938A005D
:1003E00004C084B5806884BDC7BDDF91CF911F91E3
:1003F000089584B5806284BDC8BDF7CF8091800028
:10040000806880938000D0938900C0938800EDCFEE
:100410008091B00080688093B000C093B300E5CFB6
:100420008091B00080628093B000C093B400DDCFB3
:100430008E50806480937C0080917A0080648093E9
:100440007A0080917A0086FDFCCF809178009091AF
:10045000790008953FB7F89480914D0190914E0135
:10046000A0914F01B091500126B5A89B05C02F3F28
:1004700019F00196A11DB11D3FBFBA2FA92F982FCA
:100480008827BC01CD01620F711D811D911D43E0C4
:10049000660F771F881F991F4A95D1F708958F928D
:1004A0009F92AF92BF92CF92DF92EF92FF924B0159
:1004B0005C010E942A026B017C010E942A026C19D5
:1004C0007D098E099F09683E734081059105A8F357
:1004D00021E0821A9108A108B10888EEC80E83E0D5
:1004E000D81EE11CF11C81149104A104B10429F768
:1004F000FF90EF90DF90CF90BF90AF909F908F9044
:100500000895CF93DF93EC010197C1F461E086E099
:100510000E941E016AE070E080E090E00E944F02BD
:10052000F89480E880936100109261007894D093F1
:100530005B01C0935A01DF91CF910895F89480E850
:100540008093610083E080936100789460E086E0AE
:100550000E941E016EE170E080E090E00E944F0278
:10056000E6CF2FB7F8946091490170914A018091CC
:100570004B0190914C012FBF08952F923F924F92C3
:100580005F926F927F928F929F92AF92BF92CF9223
:10059000DF92EF92FF920F931F93CF93DF93CDB72C
:1005A000DEB760970FB6F894DEBF0FBECDBF0E94D6
:1005B000DF008983882371F08091070281110AC0CE
:1005C0000E94B1026093FF017093000280930102C8
:1005D00090930202098100930702B4E6AB2EB12C7E
:1005E000C12CD12CE12CF12C00E010E02091F30182
:1005F0003091F4014091F5015091F6016091F701BD
:100600007091F8018091F9019091FA010E946413B0
:1006100029013A014B018A83998385E10E941802DE
:100620009C01932F990F990B89ECA82E48E7B42EC3
:100630005FEBC52EDD24D394492F592F692F792FD5
:10064000892F0E946413E8EEAE2EF3E0BF2EC12C7A
:10065000D12C0E94F8135201630174010A8119819F
:100660000E94CD14A5E6AA2EB12CC12CD12CE12CD0
:10067000F12C00E010E00E94F8132093F301309376
:10068000F4014093F5015093F6016093F7017093E4
:10069000F8018093F9019093FA01A0900802B090BC
:1006A0000902C0900A02D0900B02E0900C02F09078
:1006B0000D0200910E0210910F020E94D614922E8C
:1006C0003A834983B52FF62FE72F8C01A0E00E94D3
:1006D000DF144CF40E948614922E3A834983B52F7E
:1006E000F62FE72F8C01292D3A8149815B2F6F2F3F
:1006F0007E2FC8012F3936484140510561057105EB
:100700008105910559F154F10E94B10260930302F1
:100710007093040280930502909306028091F30186
:10072000809308028091F401809309028091F50181
:1007300080930A028091F60180930B028091F70169
:1007400080930C028091F80180930D028091F90151
:1007500080930E028091FA0180930F020E942A0278
:100760002B013C0184E10E9418024C018FE00E94A1
:10077000180298878F832AE0A22EB12CC12CD12C8D
:10078000E12CF12C00E010E020915C0130915D0142
:1007900040915E0150915F01609160017091610133
:1007A00080916201909163010E9464131901498351
:1007B0005A836B837C838D839E832F813885B90117
:1007C000330F880B990B092C000CAA08BB08681979
:1007D00079098A099B092DE230E743E650E00E943F
:1007E000BC13E8EEAE2EF3E0BF2E0E94F8135901C1
:1007F0006A017B018C01910149815A816B817C8165
:100800008D819E810E94CD14ABE0AA2EB12CC12C0B
:10081000D12CE12CF12C00E010E00E94F81319011A
:100820004A0169837A838B839C8320935C01309295
:100830005D0140935E0190925F016093600170934F
:10084000610180936201909363018091FB0190911B
:10085000FC01A091FD01B091FE01B301A201481B72
:10086000590B6A0B7B0BDB01CA014092FB015092D2
:10087000FC016092FD017092FE018A019B0140E043
:1008800050E0BA0189871A87AB873C874D875E871E
:100890006F87788B51016401E980FA800B811C819C
:1008A00029853A854B855C8560E070E080E090E0CA
:1008B0000E946413A090EB01B090EC01C090ED0198
:1008C000D090EE01E090EF01F090F0010091F10185
:1008D0001091F2010E94CD14522E632E742E052F1A
:1008E000162FB72FF82FE92F2115304841485F4FB9
:1008F000664573498045910559F054F0512C80E8C4
:10090000682E91E8792E0FEF16E5B3E9F0E5E0E007
:10091000252D362D472D502F612F7B2F8F2F9E2F6A
:10092000A0E00E94DF1444F4512C612C712C00E0F3
:1009300010E0B0E0F0E0E0E05092EB016092EC01FA
:100940007092ED010093EE011093EF01B093F0016E
:10095000F093F101E093F2010E94B1022B013C01FE
:100960002091EB013091EC014091ED015091EE01AD
:100970006091EF017091F0018091F1019091F2018D
:100980002115304841485F4F6645734980459105C0
:1009900009F47AC00E94DF00882309F475C08091B1
:1009A000FF0190910002A0910102B0910202930117
:1009B0008201081B190B2A0B3B0BD901C801813698
:1009C0009A4EA105B10508F45FC080910302909191
:1009D0000402A0910502B0910602A3019201281B16
:1009E000390B4A0B5B0BDA01C90181369A4EA1051E
:1009F000B10508F449C09101A40169817A818B8114
:100A00009C812F333D4043405105610571058105AF
:100A1000910509F0CCF58091100281110CC081E0A4
:100A200080931002409211025092120260921302BF
:100A3000709214022BC08091110290911202A09129
:100A40001302B0911402481A590A6A0A7B0AE9E8AB
:100A50004E16E3E15E0661047104C0F01092EB01F2
:100A600080E88093EC0181E88093ED018FEF809323
:100A7000EE0186E58093EF0183E98093F00180E544
:100A80008093F1011092F2011092100260960FB65D
:100A9000F894DEBF0FBECDBFDF91CF911F910F91B4
:100AA000FF90EF90DF90CF90BF90AF909F908F908E
:100AB0007F906F905F904F903F902F9008950E948D
:100AC0002A026093FB017093FC018093FD019093D7
:100AD000FE01E3EFF1E010828DE2818381E3828306
:100AE00081E0838314821582168217820E94B102EC
:100AF0006093FF01709300028093010290930202C1
:100B00000E94B10260930302709304028093050275
:100B10009093060210920702E8E0F2E01082118240
:100B2000128213821482158216821782109210028A
:100B300008954115510529F4EAE7F0E080818F77A7
:100B400080836A307105B9F0CB01880F991F880F37
:100B5000991F807267706860682B88E10FB6F894FF
:100B6000A895809360000FBE60936000E0E6F0E01F
:100B7000808180648083232BD9F483B7817F846054
:100B800083BFF89483B7816083BF85B7806685BFD4
:100B90008F7D85BF7894889583B78E7F83BF789447
:100BA000452B29F4EAE7F0E080818068808308958E
:100BB00083B7817F846083BFF89483B7816083BFEC
:100BC0007894889583B78E7F83BF7894E9CF10920D
:100BD000800010928100109289001092880010927B
:100BE0008B0010928A0008950FB6F894A895809112
:100BF0006000886180936000109260000FBE0895CD
:100C00000F931F93CF93DF93EC010E94B1020C81ED
:100C10001D812E813F81601B710B820B930B08811C
:100C200019812A813B81061717072807390758F4CD
:100C3000188219821A821B82E885F985DF91CF918B
:100C40001F910F910994DF91CF911F910F910895FA
:100C500087E00E94B600892B61F484E00E94B60010
:100C6000892B39F489E00E94B600009711F4FC0149
:100C700009940895EF92FF920F931F93CF93DF9300
:100C80007C01EB01142F052F642F8C2F0E944C0147
:100C9000ECE2F1E090E080E021912C171D0681F458
:100CA000FC01EE0FFF1FEE0DFF1DE155FF4F1083FE
:100CB0000183DF91CF911F910F91FF90EF900895E5
:100CC00001968730910541F7F4CFCF93DF93C09120
:100CD0006401D09165010E94E705FE01E354FF4FD6
:100CE0001182108241E050E061E170E0CE01DF91BD
:100CF000CF910C943A060F931F93CF93DF93EC019F
:100D000050E040E062E170E00E943A068E010A5A2B
:100D10001F4F41E050E0F8018081918118161906BB
:100D200014F450E040E063E170E0CE010E943A0626
:100D300041E050E0F80180819181029711F450E088
:100D400040E062E070E0CE01DF91CF911F910F9102
:100D50000C943A060F931F93CF93DF93EC018B0112
:100D6000FB01ED5CFE4F6081653608F064E670E0E3
:100D700090E080E00E94ED1123E333E343E250E48E
:100D80000E94A2120E94B511FE01EA5BFF4F87810B
:100D90000E94BB01FE01EA5AFF4F11830083CE017E
:100DA0000E947B060E94B102FE01E85AFF4F608359
:100DB000718382839383C45ADF4F81E08883DF91FC
:100DC000CF911F910F910895DF92EF92FF920F93B1
:100DD0001F93CF93DF93C0916401D091650187E0A9
:100DE0000E94B600892B09F052C0FE01EB57FF4F5D
:100DF000208131814281538164817581868197810F
:100E0000305C4942574F6D43744585409109D22E5D
:100E1000E32EF42E052F162FD72FC82FB92F21150B
:100E2000304841485F4F664573498045910559F008
:100E300054F0D12C80E8E82E91E8F92E0FEF16E55A
:100E4000D3E9C0E5B0E02D2D3E2D4F2D502F612F61
:100E50007D2F8C2F9B2FA0E00E94DF1444F4D12C17
:100E6000E12CF12C00E010E0D0E0C0E0B0E0D08256
:100E7000E182F28203831483D583C683B783DF9133
:100E8000CF911F910F91FF90EF90DF90089561E057
:100E900070E0FE01EA5AFF4F80819181029711F0C4
:100EA00070E060E0CE01DF91CF911F910F91FF9034
:100EB000EF90DF900C94AA06DF92EF92FF920F93CF
:100EC0001F93CF93DF93C0916401D091650187E0B8
:100ED0000E94B600FE01892B09F051C0EB57FF4F6D
:100EE000208131814281538164817581868197811E
:100EF0003054464D5840624C7B4A8A4F9F4FD22E09
:100F0000E32EF42E052F162FD72FC82FB92F21151A
:100F1000304841485F4F664573498045910559F017
:100F200054F0D12C80E8E82E91E8F92E0FEF16E569
:100F3000D3E9C0E5B0E02D2D3E2D4F2D502F612F70
:100F40007D2F8C2F9B2FA0E00E94DF1444F4D12C26
:100F5000E12CF12C00E010E0D0E0C0E0B0E0D08265
:100F6000E182F28203831483D583C683B783DF9142
:100F7000CF911F910F91FF90EF90DF900895EA5A63
:100F8000FF4F8081918162E070E0892B11F461E074
:100F900070E0CE01DF91CF911F910F91FF90EF9004
:100FA000DF900C94AA06CF92DF92EF92FF920F93FC
:100FB0001F93CF93DF93EC018C010D591F4FD80184
:100FC000EC9081E08E258C93F12CFE01E15AFF4FCD
:100FD000C080D180F601619171916F016F3F7607FA
:100FE00029F0A701CE010E943A06F4CFD8018C91D6
:100FF000882379F10E949A0180E890E0FE01E35491
:10100000FF4F91838083EC55F1090190F081E02D31
:10101000D8018C91811122C084E090E0E80FF91F83
:1010200080819181A281B381CC59DF4F88839983DC
:10103000AA83BB830E94B1026C837D838E839F83CE
:10104000DF91CF911F910F91FF90EF90DF90CF90A4
:1010500008950E94E70590E080E0D0CF90E080E026
:10106000DDCF80916401909165010C94D3070F93BB
:101070001F93CF93DF938C01CCE2D1E0699170E0B4
:1010800050E040E0C8010E943A0681E0C333D8072F
:10109000A9F7DF91CF911F910F9108950F931F939F
:1010A000CF93DF938C01CCE2D1E0699170E041E015
:1010B00050E0C8010E943A0681E0C333D807A9F77F
:1010C000DF91CF911F910F910895CF92DF92EF9210
:1010D000FF920F931F93CF93DF93EC0188810E94BF
:1010E000B6008C018A859B850115110581F5892B38
:1010F00031F58889811118C00E94B102CC84DD8449
:10110000EE84FF846C197D098E099F09CA80DB80FB
:10111000EC80FD80C616D706E806F90628F4EE81B5
:10112000FF81099581E0888B1B870A87DF91CF912A
:101130001F910F91FF90EF90DF90CF9008950E9444
:10114000B1026C877D878E879F87188AEDCF892BA8
:1011500059F7E885F985309739F30995E5CFCF92AE
:10116000DF92EF92FF920F931F93CF93DF93FC01D7
:101170002085222329F1EC010E94B1020C811D81FE
:101180002E813F816B017C01C01AD10AE20AF30A69
:10119000088119812A813B810C151D052E053F050B
:1011A00078F46C837D838E839F83E985FA85DF9154
:1011B000CF911F910F91FF90EF90DF90CF90099406
:1011C000DF91CF911F910F91FF90EF90DF90CF9023
:1011D0000895CF93DF93EC018A810E94B600892B9A
:1011E00029F48A859B8501969B878A87DF91CF9119
:1011F0000895CF93DF93EC010E949A01FE01E3541E
:10120000FF4F80E890E09183808350E040E061E10F
:1012100070E0CE010E943A06C758DF4F84EF91E09C
:10122000A0E0B0E088839983AA83BB830E94B102C7
:101230006C837D838E839F83DF91CF91089580910E
:101240006401909165010C94F9084F925F926F923E
:101250007F928F929F92AF92BF92CF92DF92EF9246
:10126000FF920F931F93CF93DF93EC01FC01EB5799
:10127000FF4F208131814281538164817581868154
:101280009781305447405A45604F754787409109D0
:10129000A12CE0E1BE2EF5EECF2EABE8DA2EBCE2BB
:1012A000EB2E1BEBF12E00E010E00E94F813290159
:1012B0008901293031050CF064C00E94B10228EE8A
:1012C00033E040E050E00E942313BA01A9014095A9
:1012D0005095609570954170552766277727842F24
:1012E000482F6EE070E0CE010E943A0680E1481A75
:1012F000510841E050E081E54816510410F450E0F7
:1013000040E063E670E0CE010E943A0641E050E022
:101310000734110514F050E040E060E170E0CE01C8
:101320000E943A060E94DF00BB24B3948B25482F0D
:1013300050E061E170E0CE010E943A060E94DF00B9
:10134000FE01EA58FF4F81110AC0003111053CF43B
:10135000DE01A35ABF4F8D919C910197D1F4108269
:10136000DF91CF911F910F91FF90EF90DF90CF9081
:10137000BF90AF909F908F907F906F905F904F90B5
:10138000089581E050E0083211050CF0A9CF80E00B
:10139000A7CF80818111E4CFCE010E94F908C25904
:1013A000DF4FB8860E94B1026C837D838E839F835A
:1013B000D7CF8F929F92AF92BF92CF92DF92EF9250
:1013C000FF920F931F9380915A0190915B010197B7
:1013D00011F40E94BD028091C3019091C401892B38
:1013E00009F0C4C00E94B102C090B801D090B90108
:1013F000E090BA01F090BB016C197D098E099F093C
:10140000C090AF01D090B001E090B101F090B20176
:10141000C616D706E806F90608F03DC0F894E09035
:10142000B601F090B7010E94EB119B01AC0160E0A6
:1014300070E08AE794E40E9443114B015C01B7011C
:1014400090E080E00E94EB119B01AC01C501B4016A
:101450000E94A21220E030E040E05FE30E94A2126E
:1014600020E030E040E752E40E94A2120E94BC114A
:101470007093B5016093B4011092B7011092B60158
:101480000E94B1026093B8017093B9018093BA01D0
:101490009093BB017894E090B401F090B5018091F5
:1014A000C2018823B1F00E94B1028090BE019090E9
:1014B000BF01A090C001B090C101681979098A09E3
:1014C0009B09603777418105910508F44FC0109260
:1014D000C201B70190E080E00E94EB116B017C013A
:1014E000E091BC01F091BD01EE0FFF1FEA5CFE4FE1
:1014F0006081718190E080E00E94EB114B015C0102
:101500002AE939E949E55FE30E94A2129B01AC0197
:10151000C701B6010E943E1187FD10C023E333E3EB
:1015200043E95FE3C501B4010E94A2129B01AC0133
:10153000C701B6010E949D121816C4F482E090E023
:101540009093C4018093C3018EE191E09093C60112
:101550008093C5018EE091E09093C8018093C7010C
:101560001092C90186E691E00E94D3078091C301E1
:101570009091C401029721F086E691E00E947B06DB
:101580008091C3019091C401019709F083C00E942A
:10159000DF0081112BC02091EB013091EC014091D3
:1015A000ED015091EE016091EF017091F001809199
:1015B000F1019091F201305447405A45604F754710
:1015C00087409109A12C00E1B02EE5EECE2EFBE87C
:1015D000DF2EACE2EA2EBBEBFB2E00E010E00E9417
:1015E000F813490189E08816910464F01092C4014F
:1015F0001092C3011092CA011092CB011092CC013B
:101600001092CD018091C3019091C401019721F006
:1016100086E691E00E94250988E691E00E9465082F
:1016200089E791E00E9465088AE891E00E946508D8
:101630008091CA019091CB01A091CC01B091CD01D4
:10164000892B8A2B8B2B21F08AEC91E00E940006DB
:1016500084ED91E00E94AF088091DF019091E0015C
:10166000A091E101B091E201892B8A2B8B2B21F013
:101670008FED91E00E94000685E292E01F910F91AC
:10168000FF90EF90DF90CF90BF90AF909F908F90A2
:101690000C94AF082091EB013091EC014091ED01E9
:1016A0005091EE016091EF017091F0018091F10194
:1016B0009091F201305447405A45604F754787403A
:1016C0009109A12CE0E1BE2EF5EECF2EABE8DA2E8B
:1016D000BCE2EB2E1BEBF12E00E010E00E94F813B1
:1016E000490129E0821691040CF092CF0E94DF009C
:1016F000811188CF1092DC0181E090E09093C401C9
:101700008093C30186E291E09093C6018093C50166
:1017100086E191E09093C8018093C7011092C901BE
:1017200086E691E00E94D3076DCF0F931F93CF936E
:10173000DF93EC012E9AFC01EA5AFF4F6081718120
:101740000E94AA060E94E705FE01E354FF4F1182A2
:1017500010828E01035A1F4FF801808191810297F8
:1017600019F0CE010E947B06F801808191810197DA
:1017700039F0CE01DF91CF911F910F910C94250983
:10178000DF91CF911F910F91089580916401909105
:101790006501FC01ED57FF4F208131812115310595
:1017A00019F02230310531F423E030E03183208319
:1017B0000C94950B0895CF93DF93FC01ED57FF4FE9
:1017C000718360836130710519F06330710521F414
:1017D000DF91CF910C94950BEC0160E08AE00E94C0
:1017E0005E0160E082E60E944C01FE01EA5AFF4F72
:1017F00011821082379611821082379610821182E0
:1018000012821382CE01DF91CF910C944E08CF92B9
:10181000DF92EF92FF920F931F93CF93DF93EC0130
:101820000E9437080E949A018E0103541F4F80E8DE
:1018300090E0F801918380830E94B1026B017C01EA
:1018400088E00E94B600892BE9F40E94B1026C196D
:101850007D098E099F09693E73408105910580F3DA
:10186000CE010E944E080E94E705F8011182108205
:1018700081E0DF91CF911F910F91FF90EF90DF906A
:10188000CF900895CE010E944E080E94E705F8010E
:10189000118210828E01035A1F4FF80180819181BD
:1018A000029719F0CE010E947B06F8018081918198
:1018B000019719F0CE010E94250980E0DACFCF937D
:1018C000DF93C0916401D0916501FE01ED57FF4F98
:1018D000808191818130910529F0039779F0DF9122
:1018E000CF910895CE010E94070C70E060E088233C
:1018F000B1F3CE01DF91CF910C94DB0BCE010E94AE
:10190000070C882361F362E070E0F3CF1F920F921F
:101910000FB60F9211242F933F938F939F93AF9302
:10192000BF938091490190914A01A0914B01B091E0
:101930004C013091480126E0230F2D3758F50296CF
:10194000A11DB11D209348018093490190934A0144
:10195000A0934B01B0934C0180914D0190914E01A9
:10196000A0914F01B09150010196A11DB11D80932E
:101970004D0190934E01A0934F01B0935001BF9140
:10198000AF919F918F913F912F910F900FBE0F902C
:101990001F90189529E8230F0396A11DB11DD2CFE2
:1019A0001F920F920FB60F9211248F930FB6F894D7
:1019B000A89580916000886180936000109260001B
:1019C0000FBE8F910F900FBE0F901F9018951F9212
:1019D0000F920FB60F9211242F933F934F935F9363
:1019E0006F937F938F939F93AF93BF93EF93FF93E7
:1019F0008091560190915701892BC9F087E00E9490
:101A0000B60020915201309153018217930779F06B
:101A10009093530180935201809156019091570108
:101A2000DC01ED91FC910190F081E02D0995809110
:101A3000580190915901892BC9F085E00E94B600A8
:101A400020915401309155018217930779F09093BA
:101A50005501809354018091580190915901DC0106
:101A6000ED91FC910190F081E02D0995FF91EF91AE
:101A7000BF91AF919F918F917F916F915F914F91A6
:101A80003F912F910F900FBE0F901F901895CF92FE
:101A9000DF92EF92FF92CF93DF93E2E5F1E01582C0
:101AA000148217821682128613861486158616866D
:101AB0001786108A118AC6E6D1E086E491E0998300
:101AC000888384E090E09B838A8388EE93E0A0E0A3
:101AD000B0E08C839D83AE83BF832CE537E03987EC
:101AE00028871B861A8641E050E05D874C871E865A
:101AF0001F86188A198A21E02A8B69E070E07C8BA6
:101B00006B8B8D8B9E8BAF8BB88F64EE76E07A8F6C
:101B1000698F1C8E1B8E5E8F4D8F1F8E18A219A28F
:101B20001AA22BA368E070E07DA36CA332E3C32E5E
:101B3000D12CE12CF12CCEA2DFA2E8A6F9A66FE50C
:101B40007CE07BA76AA71DA61CA65FA74EA718AAC4
:101B500019AA1AAA1BAA2CAB67E070E07EAB6DAB8A
:101B60008FAB98AFA9AFBAAF65EC7BE07CAF6BAF42
:101B70001EAE1DAE5093A6014093A5011092A70181
:101B80001092A8011092A9011092AA012093AB0112
:101B900020E431E03093AD012093AC0125E02093A7
:101BA000AE018093AF019093B001A093B101B093C7
:101BB000B20183E08093B30161E00E945E01109264
:101BC000BD011092BC011092C2011092C40110928A
:101BD000C3011092C6011092C5011092C801109263
:101BE000C7011092CA011092CB011092CC01109241
:101BF000CD0181E398E09093D3018093D20188E9ED
:101C00009AE3A0E0B0E08093D4019093D501A09333
:101C1000D601B093D7011092DC018FE199E0909347
:101C2000DE018093DD011092DF011092E00110923D
:101C3000E1011092E20185E696E09093E80180933D
:101C4000E7010E945F058EE0E0E0F1E0A5E1B2E08F
:101C500001900D928A95E1F71092240210922302CE
:101C600080E197E2A0E0B0E0809325029093260205
:101C7000A0932702B093280210922D028CE890E0E6
:101C800090932F0280932E02D0936501C09364013C
:101C9000DF91CF91FF90EF90DF90CF9008957894EF
:101CA00084B5826084BD84B5816084BD85B5826061
:101CB00085BD85B5816085BD80916E008160809312
:101CC0006E0010928100809181008260809381007B
:101CD000809181008160809381008091800081608B
:101CE000809380008091B10084608093B1008091E6
:101CF000B00081608093B00080917A00846080930E
:101D00007A0080917A00826080937A0080917A00D4
:101D10008E7F80937A0080917A00806880937A0029
:101D20001092C100C4B714BE0E94F40581E090E097
:101D30000E94810262E084E00E945E0162E089E02C
:101D40000E945E0162E088E00E945E0162E087E03E
:101D50000E945E0161E083E00E945E0160E085E038
:101D60000E945E01269A60E085E10E945E0160E0CB
:101D700084E10E945E0160E08FE00E945E0161E00C
:101D800086E00E945E0162E080E00E945E0161E008
:101D90008AE00E945E0161E08EE00E945E01279A67
:101DA00061E080E10E945E0161E081E10E945E01EC
:101DB00061E082E10E945E0161E083E10E945E01D8
:101DC00061E082E00E945E012E9A70E060E083E0B4
:101DD0000E94BB0161E08EE00E941E0161E083E68B
:101DE0000E944C0161E080E10E941E0161E081E1FE
:101DF0000E941E0161E082E10E941E0161E083E118
:101E00000E941E0161E082E00E941E0170E060E01D
:101E10008AE00E94BB01C3FF19C0C6E0D0E0219751
:101E200081F186E691E00E94370864E670E080E088
:101E300090E00E944F0286E691E00E944E0864E620
:101E400070E080E090E00E944F02E9CFC1116CC1C8
:101E5000CBE0D0E02197A9F086E691E00E94370818
:101E600064E670E080E090E00E944F0286E691E038
:101E70000E944E0864E670E080E090E00E944F020D
:101E8000E9CFC1E0D0E00E94DF008111229661E03D
:101E90008091AE010E944C016FEF70E08091B30120
:101EA0000E94BB018CEA91E0909359018093580104
:101EB0000E94E80070E060E086E691E00E94AA06D9
:101EC00088E199E20FB6F894A895809360000FBE60
:101ED0009093600086E691E09093570180935601BD
:101EE0000E94E80085E10E9418029C01932F990F3F
:101EF000990BA9ECAA2EB8E7BB2E1FEBC12EDD244F
:101F0000D394E12CF12C00E010E0492F592F692FD8
:101F1000792F892F0E946413E8EEAE2EF3E0BF2ED6
:101F2000C12CD12C0E94F81349015A0120E28216DB
:101F300025EC92062BEFA206B1040CF402C185E158
:101F40000E9418029C01932F990F990B59ECA52E12
:101F500068E7B62E7FEBC72EDD24D394E12CF12C5D
:101F6000492F592F692F792F892F0E946413E8EE8A
:101F7000AE2EF3E0BF2EC12CD12C0E94F813B90174
:101F8000CA0128EE33E040E050E00E944513DA0138
:101F9000C9018032EEE49E07A105B1050CF4C7C06B
:101FA00082539B44A109B10942E0880F991FAA1FDF
:101FB000BB1F4A95D1F72C013D01770C4408542CE6
:101FC0003201A12C10E1B12E05EAC02E24EDD22E53
:101FD00038EEE32EF12C00E010E09C01AD01642D01
:101FE000742D842D942D0E9464132115304841488E
:101FF0005F4F664573498045910511F00CF0AAC00A
:1020000085E10E9418029C01932F990F990BE9EC2E
:10201000AE2EF8E7BF2EAFEBCA2EDD24D394E12C11
:10202000492F592F692F792F892F0E946413B8EEF9
:10203000AB2EE3E0BE2EC12CD12C0E94F813B901C7
:10204000CA0128EE33E040E050E00E944513DA0177
:10205000C90180322EE49207A105B1050CF46CC0D1
:1020600082539B44A109B10972E0880F991FAA1FEE
:10207000BB1F7A95D1F72C013D01770C4408542CF5
:102080003201A12C30E1B32E45EAC42E54EDD52EF9
:1020900068EEE62EF12C00E010E09C01AD01642D0D
:1020A000742D842D942D0E9464132093EB013093A2
:1020B000EC014093ED015093EE016093EF017093BA
:1020C000F0018093F1019093F201BE0186E691E068
:1020D0000E94DB0B81E080932D020E94B10260938D
:1020E000290270932A0280932B0290932C0288E19C
:1020F000F82E99E2E92EC0E0D0E003E010E0A895C8
:102100008091E9019091EA018130910559F108F43B
:1021100045C08230910509F492C0039791F1209750
:1021200071F30E940000EBCFD0E0C0E0ACCE84574A
:102130009044A109B1093FCF84579044A109B10946
:102140009ACF20E030E040E050E060E070E080E0D6
:1021500090E0ABCF20E030E841E85FEF66E573E95F
:1021600080E5F6CF0E94D9090E94DF008823B9F2EA
:102170001093EA010093E90186E691E00E94950B35
:10218000CECF0E94D9090E94DF008111C8CF81E023
:1021900090E09093EA018093E901EECF0E94F4056C
:1021A00090E080E00E94810230E020E050E040E0DA
:1021B00066E070E081E591E00E9499050E94DF00F1
:1021C0008823A9F081E090E00E94810262E070E043
:1021D00086E691E00E94DB0B0FB6F894A895F0928A
:1021E00060000FBEE09260000E945F0598CF0E94E1
:1021F000B1024B015C0187E00E94B600892BA1F679
:102200000E94B102681979098A099B096E37710524
:102210008105910580F381E090E00E94810281E0D8
:1022200090E09093EA018093E90186E691E00E94B4
:10223000950B87E00E94B600892BD9F3CDCF809112
:102240005A0190915B01019711F40E94BD0286E64C
:1022500091E00E9425090E94DF00811106C070E014
:1022600060E086E691E00E94DB0B8BE991E00E9442
:10227000650885E292E00E94AF0851CF0E942812C3
:1022800008F481E008950E9457110C9463120E9493
:102290005C1258F00E94551240F029F45F3F29F07B
:1022A0000C944C1251110C9497120C9452120E94DF
:1022B000741268F39923B1F3552391F3951B550BD1
:1022C000BB27AA2762177307840738F09F5F5F4F09
:1022D000220F331F441FAA1FA9F335D00E2E3AF048
:1022E000E0E832D091505040E695001CCAF72BD060
:1022F000FE2F29D0660F771F881FBB1F26173707B1
:102300004807AB07B0E809F0BB0B802DBF01FF27E2
:1023100093585F4F3AF09E3F510578F00C944C1261
:102320000C9497125F3FE4F3983ED4F3869577952B
:102330006795B795F7959F5FC9F7880F911D96959B
:10234000879597F90895E1E0660F771F881FBB1FF7
:10235000621773078407BA0720F0621B730B840BA4
:10236000BA0BEE1F88F7E09508950E94BC1168949F
:10237000B1110C94971208950E947C1288F09F5717
:1023800098F0B92F9927B751B0F0E1F0660F771F99
:10239000881F991F1AF0BA95C9F714C0B13091F08F
:1023A0000E949612B1E008950C949612672F782F30
:1023B0008827B85F39F0B93FCCF386957795679554
:1023C000B395D9F73EF490958095709561957F4FC0
:1023D0008F4F9F4F0895E89409C097FB3EF4909566
:1023E0008095709561957F4F8F4F9F4F9923A9F0EE
:1023F000F92F96E9BB279395F6958795779567957D
:10240000B795F111F8CFFAF4BB0F11F460FF1BC0C0
:102410006F5F7F4F8F4F9F4F16C0882311F096E953
:1024200011C0772321F09EE8872F762F05C0662301
:1024300071F096E8862F70E060E02AF09A95660FBA
:10244000771F881FDAF7880F9695879597F9089573
:10245000990F0008550FAA0BE0E8FEEF16161706B5
:10246000E807F907C0F012161306E407F50798F01D
:10247000621B730B840B950B39F40A2661F0232B36
:10248000242B252B21F408950A2609F4A140A695B2
:102490008FEF811D811D089597F99F6780E870E097
:1024A00060E008959FEF80EC089500240A941616CA
:1024B000170618060906089500240A941216130632
:1024C000140605060895092E0394000C11F48823C0
:1024D00052F0BB0F40F4BF2B11F460FF04C06F5FDC
:1024E0007F4F8F4F9F4F089557FD9058440F551FB2
:1024F00059F05F3F71F04795880F97FB991F61F086
:102500009F3F79F087950895121613061406551FFC
:10251000F2CF4695F1DF08C0161617061806991F68
:10252000F1CF86957105610508940895E894BB275D
:1025300066277727CB0197F908950E94281208F49F
:102540008FEF08950E94B5120C9463120E945512E9
:1025500038F00E945C1220F0952311F00C944C127C
:102560000C94521211240C9497120E94741270F35E
:10257000959FC1F3950F50E0551F629FF001729F28
:10258000BB27F00DB11D639FAA27F00DB11DAA1F37
:10259000649F6627B00DA11D661F829F2227B00D84
:1025A000A11D621F739FB00DA11D621F839FA00D0F
:1025B000611D221F749F3327A00D611D231F849F5F
:1025C000600D211D822F762F6A2F11249F575040B6
:1025D0009AF0F1F088234AF0EE0FFF1FBB1F661F31
:1025E000771F881F91505040A9F79E3F510580F0FA
:1025F0000C944C120C9497125F3FE4F3983ED4F382
:10260000869577956795B795F795E7959F5FC1F79D
:10261000FE2B880F911D9695879597F90895AA1B13
:10262000BB1B51E107C0AA1FBB1FA617B70710F0BD
:10263000A61BB70B881F991F5A95A9F780959095EF
:10264000BC01CD010895A1E21A2EAA1BBB1BFD01FE
:102650000DC0AA1FBB1FEE1FFF1FA217B307E40781
:10266000F50720F0A21BB30BE40BF50B661F771FD9
:10267000881F991F1A9469F76095709580959095B9
:102680009B01AC01BD01CF010895052E97FB1EF4FF
:1026900000940E945C1357FD07D00E94231307FC8F
:1026A00003D04EF40C945C135095409530952195D1
:1026B0003F4F4F4F5F4F089590958095709561956E
:1026C0007F4F8F4F9F4F0895DF93CF931F930F93AB
:1026D0009A9DF02D219FF00D8B9DF00D8A9DE02D90
:1026E000F10D039FF00D029FE00DF11D4E9DE00DD9
:1026F000F11D5E9DF00D4F9DF00D7F936F93BF9286
:10270000AF925F934F93D5010E94F1148B01AC01FE
:10271000D7010E94F114EB01E80FF91FD6010E94C6
:10272000B3132F913F91D6010E94F114C60FD71F0A
:10273000E81FF91FAF91BF910E94B3132F913F91F2
:102740000E94F114C60FD71FE81FF91FD6010E947F
:10275000F114E60FF71F9801BE01CF010F911F91F1
:10276000CF91DF9108950E94F114460F571FC81FA3
:10277000D91F08F43196089597FB57FF0C94CC139A
:102780009F938F930E94CC136E1B7F0BAF91BF91D1
:102790008A0B9B0B0895E894DF93CF93FC01DB0138
:1027A0000E94F1147F936F93E9019A01AC01BF93EA
:1027B000AF933F932F93DF010E94F11426F46C1B1B
:1027C0007D0B820B930B9E01EB01FC010E94B31366
:1027D000AF91BF912F913F910E94B313BE01CF01E2
:1027E000F9012F913F91CF91DF910895689401C035
:1027F000E894F92FF12B12F00C942A14A0E0B0E029
:10280000E4E0F4E10C949C14092E059422F40E9457
:102810008614112392F4F0E80F26FFEFE094F09471
:1028200000951095B094C094D094A194BF0ACF0A9B
:10283000DF0AEF0AFF0A0F0B1F0B0E94351407FC7B
:102840000E948614CDB7DEB7ECE00C94B8146894FF
:1028500001C0E8948F929F92CF93DF930E9435142A
:10286000DF91CF919F908F90089588249924F4014F
:10287000E401B0E49F93AA279A158B049C04ED050C
:10288000FE05CF05D007A10798F4AD2FDC2FCF2F81
:10289000FE2FE92D982C892E982F872F762F652FC4
:1028A000542F432F322F2227B85031F7BF9127C022
:1028B0001B2EBF91BB27220F331F441F551F661FBE
:1028C000771F881F991F881C991CEE1FFF1FCC1FA4
:1028D000DD1FAA1FBB1F8A149B04EC05FD05CE0556
:1028E000DF05A007B10748F08A189B08EC09FD092D
:1028F000CE09DF09A00BB10B21601A94E1F62EF48A
:102900009401AF01BE01CD01000C08956095709552
:102910008095909530954095509521953F4F4F4F1C
:102920005F4F6F4F7F4F8F4F9F4F08952F923F9272
:102930004F925F926F927F928F929F92AF92BF92CF
:10294000CF92DF92EF92FF920F931F93CF93DF937B
:10295000CDB7DEB7CA1BDB0B0FB6F894DEBF0FBED8
:10296000CDBF09942A88398848885F846E847D8425
:102970008C849B84AA84B984C884DF80EE80FD8027
:102980000C811B81AA81B981CE0FD11D0FB6F8949D
:10299000DEBF0FBECDBFED0108952A0D3B1D4C1DBE
:1029A0005D1D6E1D7F1D801F911F08952A193B0913
:1029B0004C095D096E097F09800B910B0895002475
:1029C000A7FD00942A1730054005500560057005E5
:1029D000800590050895EE0FFF1F0590F491E02DFE
:1029E0000994A29FB001B39FC001A39F700D811DE8
:1029F0001124911DB29F700D811D1124911D089508
:042A0000F894FFCF78
:102A04000100010001000100010001000100C800F3
:102A14000000C8000000E8030000E8030000120002
:102A240013000200FFFF0E001100FFFF0E631011E0
:102A3400121302003264371DF03EFF5600000000FE
:082A4400E9080000000028066B
:00000001FF
