:100000000C9463000C948B000C948B000C948B006C
:100010000C948B000C9476070C948B000C9478064F
:100020000C948B000C948B000C948B000C948B0024
:100030000C948B000C948B000C948B000C948B0014
:100040000C942C070C948B000C94FA060C94D40698
:100050000C948B000C948B000C948B000C948B00F4
:100060000C948B000C948B000000000024002700EF
:100070002A000000000023002600290000000008DC
:10008000000201000003040700000000000000005F
:10009000010204081020408001020408102001021F
:1000A0000408102000000000250028002B00040494
:1000B0000404040404040202020202020303030310
:1000C00003030200D60711241FBECFEFD8E0DEBF26
:1000D000CDBF12E0A0E0B1E0E8E4FBE102C0059092
:1000E0000D92AE38B107D9F723E0AEE8B2E001C017
:1000F0001D92A939B207E1F710E0C3E6D0E004C0D1
:100100002197FE010E94BB0AC236D107C9F70E949F
:100110006C080C94A20D0C940000AF92BF92CF9289
:10012000DF92EF92FF920F931F93CF93DF936C01B7
:100130007B018B01040F151FEB015E01AE18BF0898
:10014000C017D10759F06991D601ED91FC9101904A
:10015000F081E02DC6010995892B79F7C501DF9162
:10016000CF911F910F91FF90EF90DF90CF90BF90B4
:10017000AF900895FC01538D448D252F30E0842FDE
:1001800090E0821B930B541710F0CF9608950197BF
:100190000895FC01918D828D981761F0A28DAE0FAC
:1001A000BF2FB11D5D968C91928D9F5F9F73928F33
:1001B00090E008958FEF9FEF0895FC01918D828D5F
:1001C000981731F0828DE80FF11D858D90E008952C
:1001D0008FEF9FEF0895FC01918D228D892F90E084
:1001E000805C9F4F821B91098F73992708958CEA39
:1001F00092E00E94EB0021E0892B09F420E0822F9D
:10020000089580E090E0892B29F00E94F700811189
:100210000C9400000895FC01A48DA80FB92FB11D06
:10022000A35ABF4F2C91848D90E001968F7399272C
:10023000848FA689B7892C93A089B1898C9183700A
:1002400080648C93938D848D981306C00288F38903
:10025000E02D80818F7D80830895EF92FF920F9330
:100260001F93CF93DF93EC0181E0888F9B8D8C8D62
:1002700098131AC0E889F989808185FF15C09FB756
:10028000F894EE89FF896083E889F9898081837019
:10029000806480839FBF81E090E0DF91CF911F91C8
:1002A0000F91FF90EF900895F62E0B8D10E00F5FE9
:1002B0001F4F0F731127E02E8C8D8E110CC00FB6BF
:1002C00007FCFACFE889F989808185FFF5CFCE0157
:1002D0000E940B01F1CFEB8DEC0FFD2FF11DE35AC6
:1002E000FF4FF0829FB7F8940B8FEA89FB898081DA
:1002F0008062CFCFCF93DF93EC01888D8823B9F054
:10030000AA89BB89E889F9898C9185FD03C0808120
:1003100086FD0DC00FB607FCF7CF8C9185FFF2CF9D
:10032000808185FFEDCFCE010E940B01E9CFDF91E7
:10033000CF910895833081F028F4813099F0823094
:10034000A9F008958730A9F08830C9F08430B1F45D
:10035000809180008F7D03C0809180008F77809393
:100360008000089584B58F7784BD089584B58F7D0E
:10037000FBCF8091B0008F778093B000089580917B
:10038000B0008F7DF9CFCF93DF93282F30E0F901B4
:10039000E458FF4F8491F901E057FF4FD491F901E0
:1003A000E255FF4FC491CC23A1F081110E949A0124
:1003B000EC2FF0E0EE0FFF1FEE58FF4FA591B49128
:1003C000EC91ED2381E090E009F480E0DF91CF91A2
:1003D000089580E090E0FACF1F93CF93DF93282F0A
:1003E00030E0F901E458FF4F8491F901E057FF4FE5
:1003F000D491F901E255FF4FC491CC23A9F0162FF7
:1004000081110E949A01EC2FF0E0EE0FFF1FEC55D6
:10041000FF4FA591B4918FB7F894EC91111108C0DA
:10042000D095DE23DC938FBFDF91CF911F9108958C
:10043000DE2BF8CF9091040189130BC0E2ECF0E0C1
:10044000E4919FEF90930401E13049F028F0E2300D
:1004500061F060E00C94EC0110926E00FACF909184
:100460006F009D7F90936F00F4CF909170009D7FFF
:100470009093700091E09093B0009091B100987FBC
:1004800094609093B1001092B300E3CFCF93DF93C9
:1004900090E0FC01E057FF4F249182559F4FFC01F3
:1004A00084918823C9F090E0880F991FFC01E859D6
:1004B000FF4FA591B491FC01EC55FF4FC591D4912C
:1004C00061110DC09FB7F8948C91209582238C9375
:1004D0008881282328839FBFDF91CF9108956230C0
:1004E00051F49FB7F8943C91822F809583238C938D
:1004F000E8812E2BEFCF8FB7F894EC912E2B2C9315
:100500008FBFEACF3FB7F89480919002909191020B
:10051000A0919202B091930226B5A89B05C02F3FEF
:1005200019F00196A11DB11D3FBFBA2FA92F982F19
:100530008827BC01CD01620F711D811D911D43E013
:10054000660F771F881F991F4A95D1F708950F935B
:100550001F93CF93DF93EC0188810E94C3018C012C
:100560008A859B850115110509F03EC0892B59F537
:100570008889811121C02FB7F894809194029091BD
:100580009502A0919602B09197022FBF4C855D8590
:100590006E857F85841B950BA60BB70B4A815B810B
:1005A0006C817D81481759076A077B0728F4EE8123
:1005B000FF81099581E0888B1B870A87DF91CF91A6
:1005C0001F910F9108952FB7F89480919402909104
:1005D0009502A0919602B09197022FBF8C879D87BC
:1005E000AE87BF87188AE8CF892B31F7E885F98570
:1005F000309711F30995E0CF8FB7F89440919402AA
:100600005091950260919602709197028FBF609110
:100610008E0281E0862780938E0281E10C94EC01AA
:100620000F931F93CF93DF93CDB7DEB7CC52D1405A
:100630000FB6F894DEBF0FBECDBF9E012D5C3E4FBE
:10064000F901419151919F016CE271E08E010F5FC0
:100650001F4FC8010E94C10AF80101900020E9F76C
:100660003197AF01401B510BB8018CEA92E00E9418
:100670008D0042E050E067E171E08CEA92E00E9478
:100680008D008CEA92E00E947A01C45DDE4F0FB6C5
:10069000F894DEBF0FBECDBFDF91CF911F910F91B8
:1006A00008954F925F926F927F928F929F92AF9236
:1006B000BF92CF92DF92EF92FF92CF934B015C01FA
:1006C0008091AA029091AB02009719F1019709F469
:1006D0004DC081E08093A90260E08EE00E94EC01B1
:1006E000709181006091800040918A0050918B0050
:1006F00020918800309189008091AA029091AB02EC
:10070000009709F4C3C1019709F4F2C183E291E0B3
:10071000BFC161E08AE00E94460283E280938000CC
:1007200081E18093810060E072E18AE790E0A501B9
:100730009401220F331F441F551F0E947A0A3093E1
:10074000890020938800209188003091890042E33D
:10075000429FC001439F900D112464E670E00E9407
:10076000660A70938B0060938A00B3CF8091040176
:100770008A30D9F08F3F09F0ACCF8AE08093040132
:10078000E2ECF0E0C491CF3F09F4A3CFC13009F40B
:100790008DC008F472C0C23009F4A6C0C7FD99CF5D
:1007A00061E08AE00E9446020BC0E2ECF0E0C491F6
:1007B000C7FD8FCF61E08AE00E944602CC2319F08A
:1007C000C23009F00EC175016401EE24FF2460E01F
:1007D00079E08DE390E0A70196010E947A0A290151
:1007E0003A01DA01C9010197A109B1098F3F9105C9
:1007F000A105B10509F00CF4D8C060E271EA87E008
:1008000090E0A70196010E947A0A2150310941091E
:100810005109C23009F08AC082E02F3F31054105FD
:10082000510509F00CF4A9C168E478EE81E090E08C
:10083000A70196010E947A0A215031094109510904
:1008400083E02F3F31054105510509F00CF495C1B6
:1008500064E274EF80E090E0A70196010E947A0ABA
:1008600021503109410951092F3F310541055105F9
:1008700011F008F079C084E080C114BC15BC84B5C7
:10088000826084BD85B5816085BDE8EBF0E0E491D0
:10089000F0E0EE0FFF1FEC55FF4F85919491EAE9D0
:1008A000F0E0E491E0939C02C0E084CF10928000DD
:1008B00010928100809181008860809381008091F6
:1008C0008100816080938100E8EBF0E0E491F0E04A
:1008D000EE0FFF1FEC55FF4F85919491EAE9F0E090
:1008E000E491E0939B0266CF1092B0001092B100A9
:1008F0008091B00082608093B0008091B1008160EF
:100900008093B100E8EBF0E0E491F0E0EE0FFF1F20
:10091000EC55FF4F8591949190939A0280939902A0
:10092000EAE9F0E0E491E093980244CF2F3F3105EB
:100930004105510509F00CF452C064E274EF80E007
:1009400090E0A70196010E947A0A215031094109DD
:100950005109CC2309F4E6C02F3F3105410551056B
:1009600011F008F0E7C087CF62E17AE780E090E01D
:10097000A70196010E947A0A2150310941095109C3
:1009800085E02F3F31054105510509F008F4F5C018
:1009900069E07DE380E090E0A70196010E947A0A79
:1009A0002150310941095109D3C09C0181E0C11195
:1009B000E4C095B5987F892B85BD27BD8FEF9FEF4C
:1009C000DC018093A5029093A602A093A702B093A6
:1009D000A80280916E00826080936E007ACE82E0E1
:1009E000E6CF75016401EE24FF2460E079E08DE339
:1009F00090E0A70196010E947A0A2150310941092D
:100A0000510991E02115310581E0480751056CF04D
:100A100064E274EF80E090E0A70196010E947A0AF8
:100A2000215031094109510993E0C13009F0ABC0AF
:100A300080918100887F892B809381003093890089
:100A4000209388008FEF9FEFDC018093A1029093A9
:100A5000A202A093A302B093A40280916F008260CF
:100A600080936F0036CE2093B3008FEF9FEFDC01B1
:100A700080939D0290939E02A0939F02B093A00248
:100A80008091700082608093700023CE8AE191E0B3
:100A90001F927F931F926F935F934F933F932F9378
:100AA0001F9222E32F93BF92AF929F928F929F93B8
:100AB0008F931F928AE08F9386E291E09F938F93AA
:100AC0000E9410038DB79EB744960FB6F8949EBF50
:100AD0000FBE8DBFCF91FF90EF90DF90CF90BF9072
:100AE000AF909F908F907F906F905F904F90089500
:100AF0008EE191E0CDCF84E02F3F310541055105D6
:100B000009F008F456CF8AE0759467945794479497
:100B10008A95D1F7A3019201215031094109510968
:100B200085E047CF83E02F3F31054105510509F0AE
:100B300008F43FCF69E07DE380E090E0A7019601F3
:100B40000E947A0A2150310941095109CC2399F2B6
:100B500086E02F3F31054105510579F070F09AE0AC
:100B600075946794579447949A95D1F7A30192018D
:100B7000215031094109510987E09091B100987FD6
:100B8000892B8093B100C13009F458CFC23009F4E9
:100B90006ACFC1119ECD11CF8091AA029091AB0274
:100BA000009789F00197E1F01092A90261E08EE0D0
:100BB0000E94EC0185E891E09F938F930E941003BF
:100BC0000F900F9008951092800010928100109263
:100BD00089001092880010928B0010928A00E4CF56
:100BE0008AE00E941A02E0CF8091A90281110E943E
:100BF000CC0587E00E94C301892BB1F48091AA0241
:100C00009091AB028130910529F001969093AB024F
:100C10008093AA026091000170910101809102010C
:100C2000909103010C945103809100019091010176
:100C3000A0910201B0910301883B2BE09207A1052E
:100C4000B10544F78C599F4FAF4FBF4F80930001C0
:100C500090930101A0930201B0930301DBCF809137
:100C6000A90281110E94CC0587E00E94C301892B53
:100C7000A9F48091AA029091AB02009729F0019704
:100C80009093AB028093AA026091000170910101E0
:100C900080910201909103010C9451038091000115
:100CA00090910101A0910201B09103018D3221E0E8
:100CB0009207A105B10544F384569109A109B10930
:100CC0008093000190930101A0930201B09303016E
:100CD000DBCF8091A90281110C94CC0560910001B9
:100CE0007091010180910201909103010C945103D4
:100CF0001F920F920FB60F9211242F933F934F9391
:100D00005F936F937F938F939F93AF93BF93EF9373
:100D1000FF9380919D0290919E02A0919F02B091BD
:100D2000A002892B8A2B8B2BD1F190919802E09114
:100D30009902F0919A0280818927808380919D0297
:100D400090919E02A0919F02B091A00218161906E0
:100D50001A061B069CF480919D0290919E02A09120
:100D60009F02B091A0020197A109B10980939D0251
:100D700090939E02A0939F02B093A002FF91EF91E7
:100D8000BF91AF919F918F917F916F915F914F91A3
:100D90003F912F910F900FBE0F901F90189580914B
:100DA00004010E941A02EACF1F920F920FB60F920F
:100DB00011242F933F934F935F936F937F938F9360
:100DC0009F93AF93BF93EF93FF938CEA92E00E94BF
:100DD0000B01FF91EF91BF91AF919F918F917F9107
:100DE0006F915F914F913F912F910F900FBE0F9098
:100DF0001F9018951F920F920FB60F9211242F93E8
:100E00008F939F93EF93FF93E091BC02F091BD020B
:100E10008081E091C202F091C30282FD1BC09081EB
:100E20008091C5028F5F8F732091C602821741F0B7
:100E3000E091C502F0E0E455FD4F958F8093C50227
:100E4000FF91EF919F918F912F910F900FBE0F9077
:100E50001F9018958081F4CF1F920F920FB60F92BA
:100E600011242F933F938F939F93AF93BF938091C0
:100E7000940290919502A0919602B09197023091C0
:100E80008F0226E0230F2D3758F50296A11DB11DC4
:100E900020938F028093940290939502A0939602E0
:100EA000B09397028091900290919102A09192024A
:100EB000B09193020196A11DB11D80939002909371
:100EC0009102A0939202B0939302BF91AF919F9130
:100ED0008F913F912F910F900FBE0F901F901895FB
:100EE00029E8230F0396A11DB11DD2CF1F920F92A7
:100EF0000FB60F9211242F933F934F935F936F93ED
:100F00007F938F939F93AF93BF93EF93FF938091C2
:100F10004D0390914E03892BC9F087E00E94C301D5
:100F20002091490330914A038217930779F09093F7
:100F30004A038093490380914D0390914E03DC0155
:100F4000ED91FC910190F081E02D099580914F0386
:100F500090915003892BC9F085E00E94C301209134
:100F60004B0330914C038217930779F090934C0315
:100F700080934B0380914F0390915003DC01ED91DE
:100F8000FC910190F081E02D0995FF91EF91BF91C7
:100F9000AF919F918F917F916F915F914F913F9111
:100FA0002F910F900FBE0F901F901895ECEAF2E072
:100FB0001382128288EE93E0A0E0B0E084839583F0
:100FC000A683B78389E091E09183808385EC90E0EC
:100FD0009587848784EC90E09787868780EC90E003
:100FE000918B808B81EC90E0938B828B82EC90E0F4
:100FF000958B848B86EC90E0978B868B118E128E6E
:10100000138E148EE9E4F3E015821482178216829F
:10101000128613861486158616861786108A118AFC
:10102000E8E8F3E084E090E09183808342E350E0DD
:1010300060E070E0428353836483758384EF95E0BE
:10104000978386831186108621E030E033872287DC
:10105000148615861686178681E0808BE7E7F3E015
:10106000A9E0B0E0B183A083428353836483758396
:10107000AFE2B6E0B783A683118610863387228756
:101080001486158616861786808BE6E6F3E0A8E0C0
:10109000B0E0B183A083428353836483758349E6C0
:1010A00056E057834683118610863387228714863D
:1010B000158616861786808BEBE5F3E084EF91E0CA
:1010C000A0E0B0E080839183A283B38310868CEF8D
:1010D00092E0928781870895789484B5826084BD78
:1010E00084B5816084BD85B5826085BD85B581602C
:1010F00085BD80916E00816080936E0010928100AA
:101100008091810082608093810080918100816064
:101110008093810080918000816080938000809125
:10112000B10084608093B1008091B00081608093B1
:10113000B00080917A00846080937A0080917A0078
:10114000826080937A0080917A008E7F80937A000B
:1011500080917A00806880937A001092C10061E0EB
:1011600086E00E94EC010E9482024B015C018AE051
:10117000C82ED12CE12CF12C0E9482026819790929
:101180008A099B09683E734081059105A8F321E017
:10119000C21AD108E108F10888EE880E83E0981E93
:1011A000A11CB11CC114D104E104F10429F7F89485
:1011B000C0E8C093610010926100789481E090E0F3
:1011C000909352038093510362E084E00E944602B0
:1011D00062E089E00E94460262E088E00E944602E6
:1011E00062E087E00E94460261E083E00E944602DE
:1011F00060E085E00E944602269A60E085E10E9458
:10120000460260E084E10E94460260E08FE00E94B6
:10121000460261E086E00E94460262E080E00E94B1
:10122000460261E08AE00E94460261E08EE00E9490
:101230004602279A61E080E10E94460261E081E176
:101240000E94460261E082E10E94460261E083E181
:101250000E94460261E082E00E9446022E9A61E00E
:1012600083E00E94460260E083E00E94EC0161E0BE
:101270008EE00E94EC012F9A61E080E10E94EC0177
:1012800061E081E10E94EC0161E082E10E94EC01F9
:1012900061E083E10E94EC0161E082E00E94EC01E8
:1012A00061E08AE00E94460260E08AE00E94EC0170
:1012B00061E083E00E944602EFE7F0E0E491E33072
:1012C00009F4E8C050F4E130E1F0E23009F4DDC0A7
:1012D00061E083E00E94EC0118C0E73009F4E6C049
:1012E000E83009F4EBC0E43099F780918000806227
:1012F0008093800080E890E090938B0080938A0038
:1013000004C084B5806884BDC7BD2E98E091BC023E
:10131000F091BD0282E08083E091B802F091B902C1
:101320001082E091BA02F091BB0280E180831092BA
:10133000C402E091C002F091C10286E08083E09196
:10134000BE02F091BF02808180618083E091BE0285
:10135000F091BF02808188608083E091BE02F091AD
:10136000BF02808180688083E091BE02F091BF025D
:1013700080818F7D80838091C1008F778093C100B1
:101380008091C1008F7E8093C10062E080E00E9466
:1013900046028AE891E09F938F930E94100385E9AB
:1013A00091E09F938F930E9410038EEB91E09F93A7
:1013B0008F930E94100387EE91E09F938F930E947A
:1013C000100388E292E09F938F930E94100389E6B6
:1013D00092E09F938F930E9410038DB79EB70C9657
:1013E0000FB6F8949EBF0FBE8DBFC0E0D0E088E876
:1013F00093E00E94A70287E793E00E94A70286E697
:1014000093E00E94A70280916303882399F12FB78C
:10141000F8948091940290919502A0919602B091D7
:1014200097022FBF40915F03509160036091610369
:10143000709162036C017D01C41AD50AE60AF70AAD
:1014400040915B0350915C0360915D0370915E037A
:101450004C155D056E057F0568F480935F039093DE
:101460006003A0936103B0936203E0916403F09181
:1014700065030995209709F4BACF0E94F7008823E5
:1014800009F4B5CF0E940000B2CF84B5806284BD5C
:10149000C8BD3BCF8091800080688093800080E849
:1014A00090E090938900809388002FCF8091B000C6
:1014B00080688093B000C093B30027CF8091B000C4
:1014C00080628093B000C093B4001FCFAA1BBB1BE7
:1014D00051E107C0AA1FBB1FA617B70710F0A61B34
:1014E000B70B881F991F5A95A9F780959095BC0155
:1014F000CD010895052E97FB1EF400940E94910AD9
:1015000057FD07D00E94990A07FC03D04EF40C94B3
:10151000910A50954095309521953F4F4F4F5F4F21
:10152000089590958095709561957F4F8F4F9F4F4F
:101530000895A1E21A2EAA1BBB1BFD010DC0AA1F14
:10154000BB1FEE1FFF1FA217B307E407F50720F02C
:10155000A21BB30BE40BF50B661F771F881F991FA7
:101560001A9469F760957095809590959B01AC01F0
:10157000BD01CF010895EE0FFF1F0590F491E02DFE
:101580000994AEE0B0E0E7ECFAE00C94790D8C0140
:10159000FA0186E08C831A83098377FF02C060E03A
:1015A00070E8615071097E836D83A901BF01CE018E
:1015B00001960E94ED0A4D815E8157FD0AC02F8180
:1015C0003885421753070CF49A01020F131FF801D4
:1015D00010822E96E4E00C94950DABE0B0E0E3EFC2
:1015E000FAE00C946B0D7C013B018A01FC0117822F
:1015F0001682838181FFC8C1CE0101965C01F7018B
:101600009381F30193FD859193FF81913F0188239D
:1016100009F453C1853239F493FD859193FF81918B
:101620003F01853229F4B70190E00E94DD0CE7CF3D
:10163000912C212C312CFFE1F31538F08B3211F174
:1016400090F4803209F1833229F137FC3CC020ED5F
:10165000280F2A3050F536FE20C08AE0989E200DD3
:101660001124922E06C08D3291F0803371F7689468
:1016700030F8F30193FD859193FF81913F01811132
:10168000DACF21C0689431F8689432F8F2CF6894C8
:1016900033F8EFCF689434F8ECCFEAE02E9E200DBB
:1016A0001124222E689435F8E4CF8E3229F436FCCA
:1016B00004C1689436F8DDCF8C3619F4689437F895
:1016C000D8CF8836B1F2982F9F7D95549330E0F0B3
:1016D0008336A1F18337C1F1833509F063C0280156
:1016E000F2E04F0E511CF801C080D180692D70E0EE
:1016F00036FC02C06FEF7FEFC6010E94C70C4C01A1
:10170000689437F882010AC00C5F1F4FFFE3F9832A
:1017100088248394912C6501E89437F833FE2DC01A
:10172000522C8114910471F5552009F468CFB7014A
:1017300080E290E00E94DD0C5A94F6CFF80180819F
:1017400089830E5F1F4FE4CF2801F2E04F0E511C3A
:10175000F801C080D180692D70E036FC02C06FEFC7
:101760007FEFC6010E94D20C4C018201D5CFB70198
:1017700080E290E00E94DD0C2A942814190409F0FC
:10178000B0F7CECFF60137FC859137FE81916F011E
:10179000B70190E00E94DD0C51105A94F1E08F1ACD
:1017A0009108BFCF843619F0893609F077C0F80167
:1017B00037FE6BC060817181828193810C5F1F4F06
:1017C000F32DFF763F2E97FF09C090958095709579
:1017D00061957F4F8F4F9F4F689437F82AE030E034
:1017E000A5010E940D0DC82ECA188C2C432C36FE64
:1017F0000CC0E89440F8C91440F434FE05C032FC33
:1018000003C0F32DFE7E4F2E892C44FE95C0FE01B1
:10181000EC0DF11D8081803309F087C0242D297ED5
:10182000422E842D8870582E43FC95C040FE8FC0F8
:101830009C2C821418F42C0C922C981844FE91C005
:10184000B70180E390E00E94DD0C42FE09C088E70A
:1018500090E041FE02C088E590E0B7010E94DD0CF7
:10186000C91408F48AC0CA94D12C9FEFC91AD90AA6
:10187000CA0CDB1CF60182916F01B70190E00E9457
:10188000DD0CAC14BD04B1F74FCF60817181072E20
:10189000000C880B990B0E5F1F4F92CFD32CE8944E
:1018A000D4F82AE030E0853739F1232D297FD22E74
:1018B0008F3601F148F48835A9F0F70186819781C8
:1018C0002B96E2E10C94870D803749F08837A9F711
:1018D000D4FE02C06894D2F820E130E00DC06894D4
:1018E000D4F8F6CF34FE03C0822F8660D82E20E1D4
:1018F00032E002C028E030E0F801D7FE0FC060817E
:101900007181828193810C5F1F4FA5010E940D0D93
:10191000C82ECA183D2CE89437F867CF60817181D2
:1019200090E080E00E5F1F4FF0CF42FC02C0839436
:1019300078CF8394839475CF842D867809F471CF02
:10194000F6CFB70180E290E00E94DD0C8394821410
:10195000C0F3512C73CF522C5818821408F46ECF58
:10196000F8CF842D867809F47BCF8BE241FE80E2AC
:1019700047FC8DE2B70190E071CFB70180E390E0C2
:101980000E94DD0C9A946CCF8FEF9FEF99CFFC01F2
:101990000590615070400110D8F7809590958E0F9A
:1019A0009F1F0895FC016150704001900110D8F70D
:1019B000809590958E0F9F1F08950F931F93CF933F
:1019C000DF93182F092FEB018B8181FD09C01FEFD9
:1019D0000FEF812F902FDF91CF911F910F910895DD
:1019E00082FF14C02E813F818C819D812817390789
:1019F0003CF4E881F981CF010196998388831083B3
:101A00008E819F8101969F838E83E3CFE885F98540
:101A1000812F0995892BA1F3DACFFA01AA27283063
:101A200051F1203181F1E8946F936E7F6E5F7F4FAB
:101A30008F4F9F4FAF4FB1E03ED0B4E03CD0670F27
:101A4000781F891F9A1FA11D680F791F8A1F911D7A
:101A5000A11D6A0F711D811D911DA11D20D009F4CA
:101A600068943F912AE0269F11243019305D31930C
:101A7000DEF6CF010895462F4770405D4193B3E0F5
:101A80000FD0C9F7F6CF462F4F70405D4A3318F09C
:101A9000495D31FD4052419302D0A9F7EACFB4E04D
:101AA000A6959795879577956795BA95C9F7009705
:101AB0006105710508959B01AC010A2E06945795A6
:101AC000479537952795BA95C9F7620F731F841FFD
:101AD000951FA01D08952F923F924F925F926F9293
:101AE0007F928F929F92AF92BF92CF92DF92EF92AE
:101AF000FF920F931F93CF93DF93CDB7DEB7CA1B2F
:101B0000DB0B0FB6F894DEBF0FBECDBF09942A8859
:101B1000398848885F846E847D848C849B84AA8401
:101B2000B984C884DF80EE80FD800C811B81AA818E
:101B3000B981CE0FD11D0FB6F894DEBF0FBECDBF59
:081B4000ED010895F894FFCFB8
:101B4800DC050000FF000000002D018D00BA007ABE
:101B580001EB00C900DD000D0A0050574D00746FFD
:101B68006E65003F3F00537461727420536F756E49
:101B7800643A2050696E2025642020204D6F6465EA
:101B88002025732020204672657120256C64202052
:101B98002044757479202564204F43523141202513
:101BA800782020204F43523142202578202020548D
:101BB8004343523141202578202020544343523159
:101BC800422025780053746F7000536F756E64203F
:101BD800546573740046616E2020446F776E2062EE
:101BE8007574746F6E3A20646563726561736520FD
:101BF800746865206672657175656E637900466103
:101C08006E20205570202020627574746F6E3A2003
:101C1800696E6372656173652074686520667265B4
:101C28007175656E63790046616E2020446F776E2A
:101C380020627574746F6E207768696C6520506FC8
:101C4800776572204F6E20627574746F6E207075A0
:101C5800736865643A2064656372656173652074AE
:101C68006865206D6F64650046616E2020557020A0
:101C78002020627574746F6E207768696C652050D7
:101C88006F776572204F6E20627574746F6E207066
:101C980075736865643A20696E637265617365205F
:101CA800746865206D6F646500506F776572204FAA
:101CB800666620627574746F6E3A2073746172740C
:0E1CC8002F73746F7020706C6179696E670005
:00000001FF
